:020000040800F2
:10000000800A0020294A00083149000833490008C5
:100010003549000837490008394900080000000048
:100020000000000000000000000000003B49000844
:100030003D490008000000003F4900084149000810
:100040004D4A0008514A0008554A0008594A00081C
:100050005D4A0008614A0008654A0008694A0008CC
:100060006D4A0008714A0008754A0008794A00087C
:100070007D4A0008814A0008854A0008894A00082C
:100080008D4A0008914A0008954A0008994A0008DC
:100090009D4A0008A14A0008A54A000845490008F1
:1000A000A94A0008AD4A0008B14A0008B54A00084C
:1000B000B94A0008BD4A0008C14A0008C54A0008FC
:1000C000C94A0008CD4A0008D14A0008D54A0008AC
:1000D000D94A0008DD4A0008E14A0008E54A00085C
:1000E0004B490008E94A0008ED4A0008F14A0008B7
:1000F000F54A0008F94A0008FD4A0008014B0008CB
:10010000054B0008094B00080D4B0008114B000877
:10011000154B0008194B00081D4B0008214B000827
:10012000254B0008294B00082D4B0008314B0008D7
:10013000354B0008394B00083D4B0008414B000887
:10014000454B0008494B00084D4B0008514B000837
:10015000554B0008594B00085D4B0008614B0008E7
:10016000654B0008694B00086D4B0008714B000897
:10017000754B0008794B00087D4B0008000000001B
:10018000814B0008854B00082DE9F14FB2B099462C
:10019000924600230691CDE900333C9A0F930DF16E
:1001A0004A0114914A7011E0329E57462C4617F8C6
:1001B000011B0698B0470028069000F026810F9892
:1001C000401C641E0F90F2D13296AA449AF80000A7
:1001D000252808D10021002209910A920B910C9246
:1001E0000D910E920FE06A464FF0FF31504601F03C
:1001F0007FF8050002D10F9800F066BED4D5012526
:10020000E3E741F001011AF8010F2028F9D0232873
:100210000CD02B2804D02D2805D0302809D00BE095
:1002200041F00201EFE741F00401ECE741F0080181
:10023000E9E741F01001E6E72A280FD1D9F80020BC
:1002400052F8040BC9F800200028119003D5404251
:10025000119041F004010AF1010A14E01192DFF853
:10026000EC3B0AE01198984205DA00EB800402EBBF
:100270004402303A11920AF1010A9AF80020A2F1E0
:1002800030000A28EED39AF800002E2803D04FF051
:10029000FF32109229E01AF8010F2A2809D1D9F863
:1002A000000050F8042BC9F8000010920AF1010A6E
:1002B0001BE02D280CBF0AF1010A00200022109239
:1002C000DFF8882B0BE040B9109B934205DA03EB73
:1002D000830504EB4504303C10940AF1010A9AF8B6
:1002E0000040A4F130030A2BEDD3ADF848100FF60F
:1002F00060309AF8001001F005F808B11AF8010B07
:100300008DF84A009DF84A00682805D19AF8000047
:1003100068280CD1622106E06C2804BF9AF800001E
:100320006C2804D171218DF84A100AF1010A1FA826
:1003300008901AF801BBBBF125012DD01C3900F043
:100340006181091F022940F25D810E392AD0491FBF
:1003500000F0B384093900F05581891E00F0498509
:10036000491E00F0F584491E022940F24B81091F05
:1003700000F0EE84491F00F0BA80491E00F09D8411
:10038000491E65D0C91E21D0891E00F09684C91E61
:1003900000F0938400F04CBD25238DF87C300121C2
:1003A00009912AE06C208DF84A00D9F8000050F835
:1003B000042BC9F80000002A43D11499487800287A
:1003C0003DD04FF0FF340FF6902012E09DF84A0028
:1003D0006C28EAD0D9F8000050F8044BC9F80000A6
:1003E0000794D4B91499487898B14FF0FF340FF6B8
:1003F000842000F0A1FF201A07D132981FAA04A977
:1004000000F065FD00287FF5E1AE4FF0FF3000F011
:100410005BBD0FF67C200790EFE7109D002D04D503
:10042000204600F0A9FF044607E02A46204600F0D7
:10043000BFFF002814BF041B2C460A94DDE70FF60B
:100440005422329804A900F0C8FD0028D5D5DCE775
:10045000D9F8001051F8040BC9F8001020F000047E
:10046000002121F0FF351FABCDE904450793DDE9FD
:10047000042308993C2413B90AB9109898B102F0E2
:100480000F053035641EEEB23A2EA8BF273512098B
:1004900042EA03721B090D5508BF002A03D00798D2
:1004A0000D19A842EBD308190790C4F13C0210982B
:1004B0000A92824209DABDF84810821A4FF6EF70AC
:1004C00001400C92ADF8481097E7002895D59DF8AB
:1004D000480000F0140010288FD1119B09990C9846
:1004E0005B1A1B1A9A1A002A87DD0C9285E7149969
:1004F000487820B14FF0FF340FF69C1079E79DF853
:100500004A00622862D0682819D06A2840D06C2836
:1005100006D071284DD074282DD07A281ED064E0E2
:10052000D9F8001051F8040BC9F8001020B94FF0A9
:10053000FF340FF67C105CE70F9901605DE7D9F896
:10054000001051F8040BC9F8001020B94FF0FF3427
:100550000FF65C104DE70F9901804EE7D9F80010B7
:1005600051F8040BC9F800100028E5D14FF0FF3412
:100570000FF63C103DE7D9F8001051F8040BC9F80C
:1005800000100028D8D14FF0FF340FF6241030E7C8
:10059000D9F8001051F8040BC9F8001020B94FF039
:1005A000FF340FF60C1024E70F9AD317C0E900238D
:1005B00023E7D9F8001051F8040BC9F800100028FF
:1005C000F2D14FF0FF340FF6E80012E7D9F800102F
:1005D00051F8040BC9F8001020B94FF0FF340FF6A2
:1005E000D00006E70F99017007E7D9F8001051F81D
:1005F000040BC9F8001000289ED14FF0FF340FF60D
:10060000B000F6E6D9F80020D21D22F00702C9F8A2
:100610000020D2E900010832C9F80020CDE9040128
:10062000C80F02D009982D210AE0BDF848008107C3
:1006300002D509982B2103E0C00705D50998202190
:100640001FAA1154401C0990DDE9042309991FA831
:10065000CDE92E2308444BF020016129079015AC09
:100660000BD01099002902D50621109105E001BF99
:100670004BF02001672901221092DDE90423590083
:100680004915491C10D11A030ED0ABF161050321A5
:100690001A2D0A9102D20FF6A43101E00FF6A03113
:1006A000032200F0B1FEA8E659004915491C0AD101
:1006B0001A0308D1ABF1610503211A2D0A9116D353
:1006C0000FF68431ECE7DDE90401CDE93001DDE925
:1006D000302323F00047B7F5801F22F000060DD22B
:1006E0000022002F08BF002E029203D116E00FF661
:1006F0005431D5E702AA00F0DBFE0FE0DFF8EC0A88
:10070000DFF8EC1A00EB17500290DDE930234FF0D0
:10071000FF301940DFF8DC7A10403943CDE904019D
:100720004BF0200061280DD1079830210170821C08
:10073000BBF1610F07920CBF7821582141700998D5
:10074000801C0990DDE9040120F0000231F0004333
:1007500008BF002A02D10026002571E14BF02008D5
:10076000B8F1610F40F0BE801098002847BF2121EA
:100770000391401C0390039FDDE92E017F1C0022A2
:100780000023DDE9044500F0CBFE02998DF85420EA
:1007900038BF85F00045091F002F02910DF1550665
:1007A0005DDDDFF8541ACDE9302140F2FF732E935E
:1007B000204629460022002300F0CAFE4FD24800FE
:1007C000400D00F11C0215D0002A13DD2E9B9A4229
:1007D0000ADBDDE9300121F0004205F00040024370
:1007E000DDE93001114611E06FF31E5141EA02517B
:1007F00020460BE024F0000035F0004108BF00283F
:100800000FBF29461C22294600F0BAFE04460D46B9
:1008100000F054FFFF1F002F804609DD00F06CFF41
:1008200002460B462046294600F078FF04460D4656
:10083000F01D0721B8F1000F0CDD491E5EBF08F066
:100840000F0200F8012D4FEA2818F3D502E000222C
:1008500000F8012D491EFAD5C61D002FA8DC0DF1A8
:100860005500361A03988642D8BF304600280DF14D
:10087000550430D4B04206DA0DF155010A5C082A5D
:10088000A8BF0F2100DA0021024615AB134400E097
:10089000401E13F80159521E8D42F9D00F2904D180
:1008A0000DF155018B5C5B1C8B54002A04D5029919
:1008B000091D15AC401C0291411E0CD46218ABF10D
:1008C0003A0613783033DDB23A2DA8BFF318491E2B
:1008D00002F80139F5D51099002940F1AF80421E88
:1008E0001092ABE00299DFF8142947F29750414388
:1008F00091FBF2F2DDE92E45029225F00045D2F19E
:10090000070204DD2046294600F04CFC0BE0524271
:100910000020DFF8EC1800F045FC02460B462046AC
:10092000294600F06DFF0446B8F1660F109806BF27
:10093000029F0A3706273F18142FC8BF14273020FC
:100940008DF854000D460020DFF8B818CDE92E01CF
:100950000DF15506002F33DD2046294601F074F8CD
:1009600001460A4606F1080304200A26B2FBF6F601
:1009700006EB860EA2EB4E02303203F8012C0A225F
:10098000B6FBF2F202EB820EA6EB4E063036401EAC
:1009900003F8026DE9D1083F002F03F10806D9DD05
:1009A000084601F065F802460B462046294600F04D
:1009B000B5FEDDE92E2301F069F804460D46CBE7CC
:1009C0000DF15500361A0DF1550404E00298401E51
:1009D000761E0290641C20783028F7D0B8F1660F9C
:1009E00002D10299491C04E0B8F1650F0CBF012146
:1009F0000021109808188642B8BF701E00281DD428
:100A0000B04204DA215C3429C8BF392100DC30212E
:100A10000246631E9D1800E0401E15F80169521E33
:100A20008E42F9D0392902D1A15C491CA154002A77
:100A300004D50299491C1C46401C02910646029DA1
:100A400000F05AFC406A0778DDF8408030B2002898
:100A500002DC01260FF2F4744BF02000662808BF78
:100A60006D1C16D0672846D128B210F1040F48DB60
:100A7000404546DA9DF848006D1C010703D430B2AA
:100A80004045B8BF804628B2B8EB000848BF4FF0D9
:100A900000080FFA85FB07980A99BBF1000F00F3D5
:100AA000B2804A1C0A9230234354B8F1000F03DC91
:100AB0009DF84800010704D50A98411C0A9107993E
:100AC0000F5418EB0B0FB8BFC8F100052DB26842E8
:100AD0000D90A84432B29045B8BF4646079B0A988D
:100AE00036B20B9632462146184400F08DFCA8EB36
:100AF00006000E90CBE0BBF1610F17D14FF0700BE9
:100B000019E030B2404504DA9DF848100A0758BF92
:100B10008046B8F1010848BF4FF00008BBF1670FED
:100B200014BF4FF0450B4FF0650B04E0BBF1410FD4
:100B300008BF4FF0500B0A98411C0A91B8F1000F02
:100B4000079914F8012B0A5403DC9DF848000107AB
:100B50001AD50A98411C0A91B8F1000F07990F5451
:100B600012DD761E30B2804507980A9BB8BF464614
:100B700032B22146184400F047FC0A9936B2711887
:100B80000A91A8EB06000D9007980A9908442AB22A
:100B9000002A80F800B003D42B224270811C04E0AC
:100BA0002D2141701546811C6D4200202EAA0A2479
:100BB00009E02B4693FBF4F505EB8506A3EB460312
:100BC00002F8013B401C2DB2002DF2DC012806DCAE
:100BD0004BF02002652A04BF302201F8012B0028C7
:100BE0002EAA08D1302001F8010B06E0401E135C4C
:100BF000303301F8013B0028F8DC079A0A981044CA
:100C0000091A0B9143E0084431B22AB2914219DA31
:100C100032B2214600F0F8FB0A9936B27118ABEBFC
:100C20000606B8F1000F0A910D9603DC9DF8480006
:100C3000020704D5079847540B99491C0B91CDF82E
:100C4000388024E0214600F0DFFB0A98761B5844E8
:100C5000B8F1000F0A9003DC9DF848100A0703D58D
:100C6000411C0A9107990F5430B2804507980A9B9E
:100C7000B8BF464632B204EB0B01184400F0C4FB87
:100C80000A9836B230180A90A8EB06000D909DF82D
:100C9000480000F0140010287FF4AFAB099A0A99BD
:100CA0000D988A180B9982180E988A188218119834
:100CB0008242BFF6A2AB821A17E49DF84A0062286E
:100CC00008D068280ED06A2814D06C281FD071284C
:100CD00010D01CE0D9F8001051F8040BC9F800102E
:100CE000C0B21AE0D9F8001051F8040BC9F800108E
:100CF00080B212E0D9F80020D21D22F00702C9F814
:100D00000020D2E900010832C9F8002006E0D9F835
:100D1000001051F8040BC9F800100021CDE90401BE
:100D20009DF8480001075AD5DDE90423002B08BFD0
:100D3000002A54D04BF02000782850D109981FA9E0
:100D400030220A54401C431C099301F800B046E0CD
:100D50009DF84A00622808D068280ED06A2814D06E
:100D60006C281FD0712810D01CE0D9F8001051F861
:100D7000040BC9F8001040B21AE0D9F8001051F87D
:100D8000040BC9F8001000B212E0D9F80020D21DFF
:100D900022F00702C9F80020D2E900010832C9F8A0
:100DA000002006E0D9F8001051F8040BC9F8001033
:100DB000C117CDE90401002902D509982D210AE0C7
:100DC000BDF84800810702D509982B2103E0C00730
:100DD00005D5099820211FAA1154401C09901FA86D
:100DE00009990144079104A8594600F056F9FFF704
:100DF00004BB9DF84A006C280BD001210991D9F859
:100E0000000050F8041BC9F800008DF87C10FFF7B3
:100E1000F4BAD9F8000050F8041BC9F80000159185
:100E20004FF0FF3210920021169115AAFFF709BB6F
:100E300025210122BBF1000F8DF87C1009923FF4AF
:100E4000DCAA8DF87DB00221FFF7AABACBCCCC0C7E
:100E5000686A6C747A4C00007072696E74665F73B5
:100E60003A2062616420256C7320617267756D653C
:100E70006E7400007072696E74665F733A2062610E
:100E80006420257320617267756D656E74000000C3
:100E900000000000000000007072696E74665F73ED
:100EA0003A20256E20646973616C6C6F776564000D
:100EB0007072696E74663A2062616420256E2061EA
:100EC0007267756D656E740033B0BDE8F08F2DE903
:100ED000FC410F46064690467A6B7869396ABC6ACF
:100EE000121AB869521A796A121AF869521A121A41
:100EF00097F83800141B41070FD42020002C8DF8E0
:100F000000000ADD254601236A463946304600F0D6
:100F10007DF900285DD16D1EF5D17B6942463946C9
:100F2000304600F073F9002853D130208DF80000CE
:100F30003D6A002D09DD01236A463946304600F03E
:100F400065F9002845D16D1EF5D1BB69FA683946AF
:100F5000304600F05BF900283BD130208DF80000CE
:100F60007D6A002D08DD01236A463946304600F0CF
:100F70004DF970BB6D1EF6D1F868B969FB6942186E
:100F80003946304600F042F918BB30208DF8000099
:100F9000BD6A002D08DD01236A463946304600F05F
:100FA00035F9B0B96D1EF6D197F8380041070DD567
:100FB0002020002C8DF8000008DD01236A46394608
:100FC000304600F023F920B9641EF6D10020BDE8B8
:100FD000F6814FF0FF30BDE8F6812DE9F8470D4668
:100FE000A3B02F6B002F8246904648BF6FF000479A
:100FF00000F01DFE696B401801AA0021C2E9001132
:10100000812828BF4FF0FF3044D289461EE0A74216
:1010100030DB6869201881280BD30021696303AA9B
:1010200029465046FFF753FF5FEA000922D400200B
:10103000686103AB6E6922466946981900F0E4F9CD
:10104000A6196E6158F8040BA0B13F1B002F11DDEB
:10105000D8F8001001AA684600F04CF90446002CAC
:1010600005D4D8F800000028D1D1641ECFD54FF0A8
:10107000FF390EE0B9F1000F504604D103AA29460A
:10108000FFF725FF8146B9F1000F02D1002068610A
:101090006863484624B0BDE8F0872DE9FC43074665
:1010A0006F293E6908BF082405D041F02000782848
:1010B00014BF0A2410243C25D7E90023642918BF53
:1010C00069299046994605D1002B03D5D8F100082F
:1010D00069EB4909B9F1000F08BFB8F1000F0CD155
:1010E000386B50B9082C39D197F83800010735D53D
:1010F00030203B2586F83B0030E08DF8001040465C
:1011000049462246E31700F097FD3032D0B26D1EFB
:101110003A28019504DB9DF80000A0F151018A18DE
:101120007255404649462246E31700F085FD804649
:101130005FEA010908BFB8F1000F03D0F868711920
:101140008842DCD3082C09D197F83800010705D56F
:10115000705D302802D06D1E30207055C5F13C0204
:10116000BA617119F960386B824208DA821A3A6200
:101170004FF6EF70398F01403987BDE8F3830028BF
:101180000ED597F8380000F01400102808D17B6BBA
:101190007969386A5B1A1B1A9A1A002AC8BF3A6220
:1011A000BDE8F3832DE9D04306460F4614464FF0C1
:1011B0000008DFF8549012E0E00707D542464B469E
:1011C0003046394600F062FC06460F464046494626
:1011D00042464B4600F05AFC641080468946002C7B
:1011E000EAD130463946BDE8D083000002FCFFFF5B
:1011F000FFFF0F800000E03F0000F07FA0860100AD
:101200000000F03F84D7974100002440F8B5054620
:101210000E4617461C4600205CB117F8011BB0684B
:10122000A847B06030B1F06A401CF0620020641E34
:10123000F3D1F2BD4FF0FF30F2BD00006E616E00E1
:101240004E414E00696E6600494E4600300030B493
:10125000002513E050F8042BD30744BFA9F1010384
:101260009A18091F042942F8045BFAD213468C0726
:1012700044BF15809B1CC90748BF1D7050F8041B54
:101280000029E7D130BC70471C48704770B45368E0
:10129000D41801E05B1C491E042B08DA00291FBF8B
:1012A000057804F8015B10F8016B002EF2D1536051
:1012B00070BC704738B514461D4661B1FFF7E6FFB4
:1012C00061686A6B204690476FF00102811A02D074
:1012D000491E01D001E003E005E00021616032BD5C
:1012E0006FF0010032BD4FF0FF3032BDDA6B1047B6
:1012F000024BDFE7014BF9E70148704794000020FB
:101300005C000020C9B202788A421AB11CBF10F8F2
:10131000012FF9E718BF00207047B1F5807F02D395
:101320004FF0FF3070470170012070470078401E79
:101330008041C043C00F704780B500B906A0054981
:101340000B681BB122220021984701E000F0F7FC56
:10135000222002BD78020020636F6E73747261698F
:101360006E742068616E646C65723A2062616420FC
:101370006D6573736167650000F10103810704D037
:1013800010F8011B820781B1FAD10268A2F1013184
:10139000914311F0803104BF50F8042FF6E709BAE9
:1013A000B1FA81F100EBD100401CC01A70472E0049
:1013B000C9B2830706D0521E22D310F8013B9942CE
:1013C000F7D11FE0083A13D302F1040241EA0121E8
:1013D00041EA014150F8043B121F21BF4B40A3F1E9
:1013E000013C2CEA030C1CF0803FF3D0C9B2001F73
:1013F000083210F8013B521E28BF91EA030FF8D8BB
:1014000018BF0120401E704762B38B0708D0521EE0
:1014100011F8013B00F8013B00F024808B07F6D166
:10142000830740F0208000BF103A07D330B4B1E802
:101430003810103AA0E83810F9D230BC530724BF56
:10144000B1E80810A0E8081044BF51F8043B40F888
:10145000043BD20724BF31F8022B20F8022B44BFF3
:101460000B7803707047121F17D35B0009D151F836
:10147000043B20F8023B1B0C121F20F8023BF6D263
:101480000BE051F8043B00F8013B1B0A20F8023B3B
:101490001B0C121F00F8013BF3D238BF121D521E65
:1014A00024BF11F8013B00F8013BF8D87047430016
:1014B00010B5144600F002F8226010BDC1F30A53C3
:1014C00043B14A0012F5001F28D2A3F2FE32A1EB6D
:1014D0000251704750EA410C20D001F0004C31EA33
:1014E0000C01B1FA81F204BFB0FA80F3D2180B3AC2
:1014F000B2F120032CBF00FA03F1914041EA0C0144
:101500003EBFC2F1200C20FA0CF319439040524226
:1015100040F2FD33D21A01EB0351704700227047AD
:101520004FF4001C1CEB410F94BF1CEB430F09E070
:1015300041EA030C50EA4C0C52EA0C0C03D29942DB
:1015400008BF9042704714BF8B4282427047000030
:101550004FF4001C1CEB410F94BF1CEB430F09E040
:1015600041EA030C50EA4C0C52EA0C0C03D28B42B9
:1015700008BF8242704714BF9942904270470000F2
:10158000124254D440F2FF7C1CEA11530FD0634541
:1015900031D09B1863453CBF01EB0251704701F00D
:1015A000004141EA0C510020AFF30080704750EA3F
:1015B000410320D001F0004C91EA0C011CD0B1FA9B
:1015C00081F30B3B9A420DD9D21A994051EA0C0192
:1015D000C3F1200C20FA0CFC61449840531C40F2EB
:1015E000FF7CD7E7914041EA0C01C2F1200C20FAC0
:1015F0000CF3194390407047B0FA80F31533202B59
:10160000E0D3202AEED3203A203B9A4209D9D21ABD
:1016100000FA03F141EA0C010020531C40F2FF7C68
:10162000B8E700FA02F141EA0C010020704752428B
:1016300040F2FF7C1CEA11530DD06345DBD0B2EBC6
:10164000030C3CBFA1EB025170470CF1010221EAEF
:10165000035141F4801150EA410CCCD001F0004C10
:10166000352A27DC30B481EA0C01B2F1200309DA13
:10167000C2F12003044601FA03F5D0402843D140CB
:101680009C400CE0C3F12002450020FA03F418BF8F
:1016900044F0010421FA03F091400C43002174F15D
:1016A000004550F1000051EB0C01244230BC7FF4A6
:1016B0007BAF70476146002076E70000C1F30A5314
:1016C00040F2FE329B1A14DDD3F120034FEAE1729F
:1016D00008DDC90241EA505141F00040D84080186D
:1016E0005040704703F2E13010B1D24382F0004025
:1016F0007047002070470000C11768B14840401A89
:10170000B0FA80F29040D21CC907C2F5846241EA67
:10171000025202EBD02140057047000070B44FF038
:10172000004591EA030F40F10D836B40841A71EB81
:10173000030603D2001BB141121973414FF4001C80
:101740001CEB410F34BF7CEB430442E00C0DA4EBD7
:101750001356352E4FDC45EAC323DB0A45EAC12187
:10176000C912B6F120050DDD63FA05F6EB4086EAF5
:101770000305124218BF45F00105C01851F10001E0
:101780000CD213E062FA06F5F2405540F3415A409C
:10179000B340F3405A408018594107D349085FEAE3
:1017A00030005FEA350528BF45F0010501F58011DD
:1017B000420875F1004250F1000041EB04514E0027
:1017C00016F5001F70BC38BF70470020090D0905D1
:1017D00070471CEB410F10D252EA43060BD0BCEB12
:1017E000410F05D80C0DAB43661E342EB6DD02E06A
:1017F000AB438018594170BC704770BC7047000003
:10180000F0B540F2FF7581EA030C0CF0004C15EACC
:1018100011541DBF15EA1357AC42AF42E5E0BC417D
:10182000C1F31301C3F31303801A994143F48013E6
:1018300004D2641E4000494180185941C90241EA5E
:101840005051B1FBF3F603FB1611A2FB0675D7EB63
:10185000C020A94102D2761E80185941C90241EA2E
:101860005051B1FBF3FE03FB1E11A2FB0E75D7EB2B
:10187000C020A94103D2AEF1010E8018594189025E
:1018800041EA9051760546EA8E2EB1FBF3F603FB52
:101890001611A2FB0675D7EB8020A94102D2761E55
:1018A00080185941C90241EA50514EEA060EB1FB77
:1018B000F3F603FB1611A2FB0675D7EBC020A94176
:1018C00002D2761E80185941C90241EA5051B1FB3B
:1018D000F3F703FB1711A2FB0735D3EBC020A94197
:1018E00067F100070CBF004247F0010766F3D527F8
:1018F0004FEA1E31B80814F5806412DDBD0775F19A
:10190000004250EB0E5051EB045111F5801F5CBFAB
:1019100041EA0C01F0BD4CF07F6141F0E041002054
:10192000F0BDBD076D0840EA0E5041F48011D4F1BE
:101930000104B4F120060ADAC4F120060200E040F6
:1019400001FA06F3E1401843B24015430EE0342C8F
:1019500013DCC6F1200445EA40056D0820FA06F2C2
:10196000154321FA06F0A1400D43002175F1004214
:1019700050F1000051EB0C01F0BD00205FEA0C01BA
:10198000F0BDCFB992185B41B3FA83F704BFB2FA46
:1019900082F6BF190B3FB7F120062FBF02FA06F3FC
:1019A000BB40C7F1200622FA06F638BF3343BA40DF
:1019B0001CB1E419641E33E77F4231F00041B1FAF3
:1019C00081F404BFB0FA80F6A4190B3CB4F12006F0
:1019D0002FBF00FA06F1A140C4F1200620FA06F656
:1019E00038BF3143A0403C1B1AE7AC421ABF05EA9E
:1019F0001357AF4212E050EA41061CBF52EA4306B9
:101A0000BFE750EA4107304661461CBF41EA055135
:101A1000F0BD52EA430C08BFC143F0BD00204FF4B3
:101A2000001616EB410F98BF16EB430F08BF16EBDD
:101A3000410F24BFC14305E016EB430F0CBF6146C5
:101A40004CEA0551F0BD0000400D491840EA8120E4
:101A50000CD2490DA1F58061491C40F0004005DB26
:101A6000D1F11F0154BFC840C01770470020704714
:101A7000014648B1B0FA80F18840C91CC1F58461C3
:101A8000090501EBD021400570470000B0B581EA9F
:101A9000030C0CF0004C40F2FF7515EA11541DBF09
:101AA00015EA1357AC42AF4239E0E41923EA455333
:101AB00043F48013C90241F0004141EA505EC7027D
:101AC0001100A7FB020200284FF00000EEFB0120EE
:101AD0004FF00001E3FB072118BF42F0010240185C
:101AE00000214941E3FB0E01A4F580640F0302D2FB
:101AF00052004041494154F101046CDD470872F144
:101B0000004250F1000051EB0451A1F580115CBF7F
:101B100041EA0C01B0BD4CEA05510020B0BD05EA18
:101B20001357AC4214BFAF4241E050EA410E1CBF14
:101B300052EA430E02E061460020B0BD24423C441C
:101B40001BD15FEA070EF6D0090302BF0146002051
:101B5000AEF1140EB1FA81F7AEEB070401FA07FEFD
:101B60000C37C7F1200100FA07F7C8404EEA000E13
:101B700023EA455343F48013A2E733F00043B3FA5A
:101B800083F704BFB2FA82FE77440B3FE41BB7F140
:101B9000200E2FBF02FA0EF3BB40C7F1200E22FA2F
:101BA0000EFE38BF43EA0E03BA40641C82E750EAD7
:101BB000410E14BF52EA430E6FF000014FF40017BC
:101BC00017EB430F8ABF194617EB410FB5E74CEAF5
:101BD00005510020B0BDD4F10104B4F120070FDAA3
:101BE000C4F12007520828BF42F0010210FA07F59D
:101BF00001FA07F7E1BF2A43E0403843E1400FE034
:101C0000352C98DCC7F1200452EA400220FA07F292
:101C100018BF42F0010231FA07F0A1400A43002147
:101C200072F1004250F1000051EB0C01B0BD80B5E3
:101C3000FFF72AFB006C02BDD3BBD9B1B2F5803FE0
:101C40005BD2022A1ED98C46B1FBF2F102FB11C312
:101C50001B0443EA1043B3FBF2FC02FB1C3380B2CB
:101C600040EA0343B3FBF2F002FB103240EA0C40BF
:101C700000237047022A05D98446B0FBF2F002FB2C
:101C800010C270474AB105D100F0010249085FEA6D
:101C90003000704700220023704700F009B90B00A4
:101CA0000200002100207047F7D300220023704774
:101CB000904271EB030CF2D370B5B1FA81F4B3FA30
:101CC00083F52C1BA340C4F1200532FA05F63343FB
:101CD000A2405FF00046E64002E05B085FEA3202A5
:101CE000841A71EB030524BF204629467641F4D3BC
:101CF00002000B003000002170BD70B5B1FA81F414
:101D0000B2FA82F5C4F120046419B4F12006DAD3E2
:101D1000B2405FF00044F440002502E052085FEA60
:101D20003303C61A71EB020E24BF3046714664417C
:101D30006D41F3D302000B002000290070BD01208B
:101D400000F0B8B8841A71EB030604D26E40001B91
:101D5000B141121973414FF4001C1CEB410F34BF09
:101D60007CEB430683E00C0DA4EB1356362E00F3F8
:101D70007C80012E45EAC32341DC43EA525312BF63
:101D8000D20292025B08240545EAC12141EA505182
:101D9000D2EBC020994125D407D1B0FA80F610FAD1
:101DA00006F162D00020203608E0B1FA81F6B14099
:101DB000C6F1200220FA02F21143B0404FEAF47457
:101DC000B4EB465434F001064FEA74040AD8D6F551
:101DD0000016760D04F00044F04061FA06F250401F
:101DE000F1404840C00A40EA415021F0004128BF7C
:101DF0005FEA500550F1000044EBD12135E0DB0AE9
:101E000045EAC121C90AB6F120050EDD42EA0242C7
:101E1000120CC5F1200603FA06F6EB4042EA06056D
:101E20006D42984161F100010DE062FA06F5F24061
:101E3000554063FA06FC82EA0C02F3405A406D42B8
:101E4000904161EB030111F4801F05D1641E62050E
:101E500002D06D004041494121F48011430875F1E1
:101E6000004350F1000041EB045170BC70471CEB83
:101E7000410F15D223F0004352EA43060BD04FEA3C
:101E80004C0CBCEB410F04D80C0D661E342EB7DD94
:101E9000EBE7801A994150EA410608BF0021E4E7C8
:101EA00008BF1CEB430F28BF6FF00001DDE7000007
:101EB0007047000080B5AFF30080024A110018207F
:101EC000ABBEFBE7260002002DE9FC47050065D00C
:101ED000DFF8A076DFF8AC66BC68F86800F00308AD
:101EE0002878C10604F00C0448D524B10C2C08BF96
:101EF000B8F1010F2CD13868810702D5A8690028F4
:101F00004CD0396808074EBF396871680909286ADA
:101F100001F0F001814206D200F0F2FA00283DD132
:101F200000F0F5F907E000F0F2F924B9286A00F0B2
:101F3000E7FA002832D100F086FABA6800F079FAA0
:101F4000DFF83806006800F035FB010016D0D8E154
:101F5000A86928B3396841F00101396000F04CFBF1
:101F600081463868810707D400F046FBA0EB0900E2
:101F70000328F6D30320C4E100F0C9F92878C1078B
:101F800056D5082C04D00C2C08BFB8F1030F18D17B
:101F9000386881034CD56868002849D10120B0E138
:101FA000386840084000386000F026FB81463868F9
:101FB0008107E3D500F020FBA0EB09000328F6D34E
:101FC000D8E76868B0F5803F04D1386840F48030C5
:101FD000386011E0B0F5A02F386806D140F48020B9
:101FE0003860396841F4803105E020F48030386091
:101FF000396821F480213960686860B100F0FCFA2A
:1020000081463868810313D400F0F6FAA0EB09008A
:102010006528F6D3AEE700F0EFFA81463868810311
:1020200006D500F0E9FAA0EB09006528F6D3A1E790
:102030002878810713D5042C04D00C2C08BFB8F1E4
:10204000020F22D13868410502D5E8680028A5D0E2
:102050007868296920F0F85040EA016078602878B3
:10206000010743D568690028706830D040F001004E
:10207000706000F0C1FA80467068810736D400F0C5
:10208000BBFA00F040F9F7D374E7E86878B1396833
:1020900041F48071396000F0AFFA8046386841053C
:1020A000D6D400F0A9FA00F02EF9F7D362E7386829
:1020B00020F48070386000F09FFA8046386841054F
:1020C000CDD500F099FA00F01EF9F7D352E7400899
:1020D0004000706000F090FA80467068810705D576
:1020E00000F08AFA00F00FF9F7D343E728784107A8
:1020F00067D5B86DC1004FF000080AD4B86D40F044
:102100008050B8654FF00108B86D00F08050009025
:102110000098DFF87494D9F80000C10513D4D9F8F9
:10212000000040F48070C9F8000000F065FA8246B3
:10213000D9F80000C10506D400F05EFAA0EB0A0051
:102140000328F5D316E7A868012804D1306840F0C9
:102150000100306010E00528306806D140F004002E
:102160003060316841F0010105E040084000306016
:10217000316821F004013160A86841F2893960B109
:1021800000F03AFA82463068810713D400F034FA3E
:10219000A0EB0A004845F6D3ECE600F02DFA8246A3
:1021A0003068810706D500F027FAA0EB0A00484501
:1021B000F6D3DFE6B8F1000F03D0B86D20F0805001
:1021C000B865A86A002800F09B80022878D1F868DA
:1021D000EA6A00F00301914201BF00F070012A6B2E
:1021E000521EB1EB021F1ED16A6B00F4FE41B1EB2F
:1021F000022F18D1A96B07290CBF0021012100F47F
:1022000000328A420FD1EA6B520800F4C001521E1C
:10221000B1EB425F07D1296C490800F0C060491E4C
:10222000B0EB416F48D00C2C4BD03868410101D441
:102230003868C1003FF5B2AE386820F08070386071
:1022400000F0DAF904463868810105D500F0D4F9C8
:10225000001B0328F7D38DE6F868DFF83013EA6A2D
:102260000840296B1043491E40EA0110EA6B696B74
:10227000520840EA0120296C521E490840EA4250A7
:10228000491E40EA4160A96B090940EA4140F860F3
:10229000386840F080703860F96841F08071F9600A
:1022A00000F0AAF904463868810129D400F0A4F9A5
:1022B000001B0328F7D35DE63868810120D4E7E7E7
:1022C0000C2C3FF46BAE386820F0807038603968B1
:1022D00011F0205F03D1F86880088000F860F96889
:1022E000DFF8AC020140F96000F086F90446386876
:1022F000810105D500F080F9001B0328F7D339E6EA
:102300000020BDE8F687A0EB080003287047386876
:1023100040F0080038603968286A21F0F001014374
:1023200039607968E86921F47F4141EA00217960E8
:1023300070472DE9F0410400884658D0DFF8546218
:10234000306800F00700404509D23168C90848EA02
:10235000C1013160306800F00700404547D1207866
:10236000DFF81052C1072AD56068032802D1296816
:102370008A0108E0022802D129688A0303E00028C4
:10238000296802D18A0702D431E04A052FD5A9680D
:10239000890840EA8100A86000F02EF90746A86885
:1023A000616800F00C00B0EB810F08D000F024F958
:1023B000C01B41F289318842F1D3032037E02078F5
:1023C000810705D5AA68A06822F0F0020243AA603E
:1023D000316801F0070188450BD23068C00848EA2F
:1023E000C0003060316801F00701414501D0012093
:1023F0001DE02078410705D5AA68E06822F4E06274
:102400000243AA602178080706D5A968206921F44B
:10241000605141EAC001A96000F015F8AA6800F017
:1024200008F8BDE8F0415548006800F0C3B8BDE8C1
:10243000F0815949C2F30312895C4F4A01F01F0130
:10244000C8401060704770B54A4A554B9068D668CE
:102450000025002110F00C0006F00306514C03D0BB
:102460000C2812D1012E1AD115682E0704D4444D20
:102470002E68C6F3032502E01568C5F303154A4E1E
:1024800056F8255048B9294624E0042808BF2146BB
:1024900020D008281ED119461CE00C281AD1D0687B
:1024A00000F00300022803D0032808BF1D4600E007
:1024B0002546D168D068D268C0F306204543C1F3F1
:1024C0000210C2F34161401C491CB5FBF0F0490009
:1024D000B0FBF1F1084670BD2748304A0068136828
:1024E0003249C3F3022206E023482C4A00681368ED
:1024F0002E49C3F3C222895C01F01F01C840704716
:102500007CB52B4E054630680024C10002D500F092
:1025100079F80EE0306840F080503060316801F0AA
:1025200080510091009800F06DF8316821F08051E1
:102530003160B0F5007F04D1802D0CD9A12D09D3D5
:1025400004E0802D88BF032405D801D1022402E0D5
:10255000702D00D101240F480168C90844EAC10167
:102560000160006800F00700A04201D0012076BDA4
:10257000002076BD001002405800002040000020DE
:102580009410024090100240007000408C809DF931
:10259000FFFFEEFE00200240F04800080810024055
:1025A00000127A000024F40000490008444A0008A0
:1025B0005810024070B50E4E0446B0680025A0B118
:1025C0004FF47A710B4AB1FBF0F11068B0FBF1F0F7
:1025D00000F09CF848B9102C07D2002221464FF099
:1025E000FF3000F06BF8746000E00125284670BDF4
:1025F0003C0000205800002001480068704700BFE0
:102600003C000020DFF87400006800F4C0607047F0
:1026100010B5DFF86810B0F5007F086800F4C060FE
:1026200019D1B0F5007F1FD00868DFF85420DFF81B
:10263000544020F4C06040F4007000F017F800E04F
:10264000401E4A69530501D50028F9D14869410562
:102650000AD5032010BDB0F5806F05D0086820F4BE
:10266000C06040F480600860002010BD0860322027
:1026700013684343B3FBF4F0401C70470070004004
:102680005800002040420F000901020002D42948EE
:1026900081547047284B02F00F021A4402F8041CC0
:1026A0007047264B19684FF6FF020002114000F4F4
:1026B000E0600843224908431860704770B51F4B1B
:1026C0001C68C4F302230124C3F10705052D2EBFA6
:1026D0000F2504FA05F56D1E1E1D072E34BF0023BD
:1026E000DB1E2940994004FA03F3BDE870405B1EED
:1026F0001A401143C8E7010007D4012200F01F016E
:10270000104B8A40400943F82020704710B5401E06
:10271000B0F1807F01D3012010BD0B4C60600F2110
:102720004FF0FF30FFF7B0FF0021A16007202060CD
:10273000002010BD00E400E018ED00E00CED00E02A
:102740000000FA0500E100E010E000E038B5040008
:1027500001D1012032BD04F14005687820B9002183
:102760002970204600F04AFB00F053F860682168A9
:1027700020F0706008612068816821F40041816068
:10278000E06821680128A0680CBF40F4004040F4D4
:1027900004408860E068022803D120684FF400619B
:1027A00041602068416841F0007141F4004141609E
:1027B0002068C16821F40041C16060692169A26993
:1027C0000143206841EA0221C160206AE169226870
:1027D000014311602068016841F00101016000209F
:1027E0006860202169702063A87032BD38B504008C
:1027F00001D1012032BD04F1400500F00AF8204665
:1028000000F0FDFA0020686068702063A8702870EE
:1028100032BD2420687020680168490849000160C1
:10282000704700904FF08073FF22704700904FF088
:102830000073D2B270478146CDF80090192301226F
:102840004FF40041304600F026BA01224FF4004117
:10285000304600F020BA2DE9FE4F00F004F94ED1C9
:102860000C9D002D1CBF0D9F002F03D14FF4007154
:1028700061603FE02078012841D001212170FFF7FD
:10288000BBFEFFF7D8FF002834D1212000F003F968
:1028900000F0A6F910B1002020702BE0708DFF250C
:1028A000B0F5807F19D300F0EFF800F0D8F80E9F54
:1028B0004A463946304600F00FFA00281AD100F097
:1028C00025F811D089B279B900F030F890B900F04C
:1028D00019F805D300F0D8F804E000F0CDF8E4E7EB
:1028E00000F0CAF800F0BBF8708D0028E0D100F0CD
:1028F000A2F808B1012003E000F020F800E0022077
:10290000BDE8FE8F708DB0F5807F7047706A3268C9
:1029100001789162706A411C7162708D411E7185EF
:10292000308D411E3185708D00287047CDF80090A4
:102930003B4600228021304600F0ADB931682020AE
:10294000C8613168DFF888024A6802404A60202185
:1029500061700020A070207070472DE9FE4F00F0DC
:1029600082F865D10C9D002D1CBF0D9F002F03D157
:102970004FF40071616056E02078012858D00121A1
:102980002170FFF739FE81463068816908040ED551
:10299000FFF732FEA0EB09001A28F5D3606840F07B
:1029A00020006060202161700020A07006E02220DD
:1029B00000F071F800F02FF910B10020207032E023
:1029C000718DDFF80802FF25B1F5807F1CD33585B6
:1029D000FFF727FF00F043F80E9FCDF800903B462D
:1029E00000220421FFF734FF00281CD100F028F852
:1029F00098B189B289B9FFF799FFA0B9FFF782FFB3
:102A000007D300F041F806E0728D3285FFF70EFF24
:102A1000E0E700F031F800F022F8708D0028DCD1FA
:102A200000F009F808B1012003E0FFF787FF00E09C
:102A30000220BDE8FE8F4A463946304600F074B9A0
:102A40003068416A706A0170716A308D4A1C411E9B
:102A500072623185708D421E7285708D704741465D
:102A6000304600F0B3B9064606F140048846607867
:102A7000202892469B467047728D32850020009038
:102A80004FF00073D2B270473585002000904FF0B0
:102A90008073FF22704760704021A1700020606049
:102AA0007562778570635B460E9900915246CDF84A
:102AB00004904146304670472DE9FE43054600200C
:102AC000019005F140067078202877D12C68A06924
:102AD000040473D43078012870D001243470242089
:102AE0007070C1F309090020706090461C46E868C8
:102AF0002968012806BF49F0007040F4005049F4ED
:102B000020504860FFF778FD074629688869896981
:102B10004009090900F0010001F00101084312D148
:102B200014F1010FF1D0FFF767FDC01B844201D300
:102B3000002CEAD1202070700020716841F0200143
:102B40007160307038E0296888690097C1062346B3
:102B500028D500F036F800282ED129681020C86149
:102B600020222868C261019941450CD1286841683A
:102B700041F4804141600097234600F022F8D8B923
:102B800029682020C8610198401C019001984045A7
:102B9000ADD3202171700021706840F0200070607A
:102BA000317009E000F00DF830B929682020C861C3
:102BB00070700020307002E0012000E00220BDE8CB
:102BC000FE8300222021284600F065B80024008002
:102BD00000E800FE90F841007047406C704700002C
:102BE0002DE9FC4100F031F84FF08073EAB200F0BB
:102BF000EDF800F03EF858B9012D02D000F036F89B
:102C000030B900F02CF88021204600F044F800B1E3
:102C10000120BDE8F6812DE9FC4100F016F8002303
:102C2000EAB200F0D3F800F024F858B9012D02D030
:102C300000F01CF830B900F012F84021204600F0F6
:102C40002AF800B10120BDE8F6811746DDF82080A2
:102C5000099EDFF89C2100921D46044670472068BB
:102C6000FFB2876200964346002270472168380A07
:102C700088623246414620462EE0006881698A0714
:102C800044BF002181628169CA0703D4816941F090
:102C90000101816170472DE9F041069F05460E460E
:102CA00090461C46286881693140B1420CBF012022
:102CB000002040450DD114F1010FF3D0FFF79CFC2B
:102CC000C01B844201D3002CECD100F021F801207C
:102CD00000E00020BDE8F08170B505460C461646C0
:102CE00028688169880711D400F036F808B10120FE
:102CF00070BD14F1010FF3D0FFF77EFC801B8442FE
:102D000001D3002CECD100F003F8F0E7002070BDF7
:102D100005F140002022416841F0200141604270ED
:102D2000002181700170704770B505460C4616464B
:102D30002868816988060DD400F00EF840B9FFF7C5
:102D40005BFC801B844201D3002CF1D1FFF7E0FF34
:102D5000012070BD002070BD324621462846FFE7A5
:102D600070B505460C4628688169C80616462BD5FD
:102D7000286881698A060FD414F1010FF8D0FFF793
:102D80003BFC801B844201D3002CF1D105F14000B3
:102D9000416841F0200111E01021C16120202A6822
:102DA000D0612846FFF769FF2868124A4168114040
:102DB000416005F14000416841F00401416020227A
:102DC000FFF7ADFF012070BD002070BD70B5006839
:102DD000049C4568084E46EA5456B543C1F30901C0
:102DE000294341EA024119432143416070BD00007B
:102DF0000020008000E800FEFF63FF03704770477B
:102E000038B5040009D004F17005696809B900F00B
:102E10001EF800F021F8012801D1012032BD606ABE
:102E200008B100F02AF800F00AF821F02A01FFE7C3
:102E3000816000F01BF8BDE8324000F03ABA20682B
:102E4000416821F49041416020688168704700200A
:102E50002870204600F0A1BA242169602068026829
:102E6000520852000260204600F066B820680168EF
:102E700041F00101016020467047204600F0B6B9DC
:102E80002DE9FC47054605F1700488466068202856
:102E9000174699464DD1B8F1000F14BF002F0120FD
:102EA00048D02078012844D0012121700020E06022
:102EB0002122626005F15006FFF79EFB37808246B3
:102EC0007780A868B0F5805F04BF286900280EBF2E
:102ED0004746404600270021217080460FE018F841
:102EE000012B028508E02868B8F1000FF7D137F808
:102EF000021BC1F3080101857088411E7180534691
:102F00007088CDF80090002807D000228021284644
:102F100000F0FCF90028E6D005E000224021284618
:102F200000F0F4F908B1032004E0202060600020E4
:102F300000E00220BDE8F6872DE9F04104469D48F7
:102F400022681368A168034020690B436169034349
:102F5000E0690B430343136000265168E06821F4E5
:102F60004051014351600025A36991498A421CBF29
:102F7000206A03439768904827F430673B43936087
:102F80008E4F8F4BBA4221D11B6803F00303032BF2
:102F900029D8DFE803F0025F50710127E169B1F53C
:102FA000004F4FF6F07840F0D38067B1012F00F06A
:102FB000A980022F00F0A980042F00F0AB80082F19
:102FC00000F0B180B7E0FFF787FAA5E07D4FBA4285
:102FD00023D11B6813F00C035FD0042B3AD0082BCD
:102FE00029D00C2B48D010278A42D7D1390006D0DF
:102FF000022F09D0042F52D0082F53D0D0E0FFF772
:103000006BFA002800F0CD80626802EB4201884232
:1030100002D31303834248D2C2E06B4FBA420CD1B1
:103020001B6813F0300338D0102B13D0202B02D0A4
:10303000302B21D0D7E70227D6E7644FBA420BD115
:103040001B6813F0C00328D0402B03D0802BF2D094
:10305000C02BEEE70427C7E75D4FBA420ED11B68CD
:1030600013F4407319D0B3F5807FF3D0B3F5007F2C
:10307000E1D0B3F5407FB6D10827B5E78A42B2D197
:103080001B6813F4406308D0B3F5806FE2D0B3F54A
:10309000006FD0D0B3F5406FCBE70027A4E7FFF770
:1030A000D2F9AEE74FF40040AEE737B1022F0AD0B5
:1030B000042F0ED0082F16D01BE0FFF70DFA00F0FA
:1030C0008FF879410AE0434911EB520045EB0501C5
:1030D00004E0FFF7B8F900F083F869410023FEF738
:1030E000ABFD064606E0530803F50003B3FBF2F61A
:1030F00000E00125A6F540703749884250D2226889
:10310000D6604EE0FFF7F0F906E06068334901EB66
:1031100050010CE0FFF797F961684A0802EB4002A2
:10312000B2FBF1F605E06068410801F58031B1FBC2
:10313000F0F6B6B200E00125A6F1100040452FD20E
:1031400008EA0601C6F3420001432068C16028E096
:1031500047B1012F09D0022F0CD0042F08D0082F1F
:103160000ED015E0FFF7B8F904E0FFF7BDF901E074
:10317000FFF769F9616800EB5100B0FBF1F605E07B
:103180006068410801F50041B1FBF0F6B6B200E01D
:103190000125A6F11000404502D22168CE6000E072
:1031A00001250020206660662846BDE8F081000009
:1031B00000800040F369FFEF0024F4000038014074
:1031C000881002400044004000480040004C00408D
:1031D00000500040000024F400FD0F000048E8010A
:1031E0006268010E560816EB0020704790F8241014
:1031F000CA0706D502685368816A23F400330B437B
:10320000536090F824108A0706D502685368C16A93
:1032100023F480330B43536090F824104A0706D5FB
:1032200002685368016B23F480230B43536090F8CA
:1032300024100A0706D502685368416B23F4004343
:103240000B43536090F82410CA0606D502689368B1
:10325000816B23F480530B43936090F824108A060B
:1032600006D502689368C16B23F400530B43936047
:1032700090F824104A0610D502685368016C23F4B4
:1032800080130B435360036CB3F5801F05D1536863
:10329000416C23F4C0030B43536090F824100A06DA
:1032A00006D501684A68806C22F4002202434A6015
:1032B0007047F8B5044604F170050020E8606FF02F
:1032C0007E47FFF799F90646206801680A0708D586
:1032D0000097334600224FF40011204600F016F804
:1032E00060B9206801684A070AD500973346002272
:1032F0004FF48001204600F009F808B10320F2BD28
:1033000020206860A86000202870F2BD2DE9F041FF
:10331000069C05460E4690461F462868C169314006
:10332000B1420CBF01200020404529D114F1010F0A
:10333000F3D0FFF761F9C01B844200D35CB9286861
:10334000016821F4D071016000F01CF800210170C7
:103350000320BDE8F081286801684A07DDD5C1690E
:103360000A05DAD54FF4006101622868026822F488
:10337000D0720260002200F005F8C1600270E7E739
:103380000020E6E72868816849084900816005F166
:103390007000202141608160704770472DE9FC4733
:1033A000064600243068DFF814740105A04621D5D4
:1033B000706E70B1B0F5800F17D0B0F5000F03D06C
:1033C000B0F5400F09D013E03A6842F480323A6019
:1033D00004E0002100F07CF9044654B9F96F706EE6
:1033E00021F440010143F96704E000F06BF9F3E7D1
:1033F0000124A0463068C10421D5B06EA8B1B0F157
:10340000807F17D0B0F1007F03D0B0F1407F04D0AF
:1034100013E0396841F4803139607CB9F96FB06EDE
:1034200021F040710143F96709E0002100F050F9F3
:103430000446F2E700F046F9FAE70124A0463068B6
:1034400081032BD5F86CC1004FF000090AD4F86C49
:1034500040F08050F8644FF00109F86C00F08050A3
:1034600000900098DFF82854286840F480702860A5
:10347000FFF7C2F882462868C10500F18280FFF795
:10348000BBF8A0EB0A000328F5D30324A046B9F14A
:10349000000F03D0F86C20F08050F8643078C1073A
:1034A00005D5FA6FB06B920840EA8202FA6731786C
:1034B000880705D5F96FF06B21F00C010143F9671E
:1034C0003178480705D5F96F306C21F030010143A0
:1034D000F9673178080705D5F96F706C21F0C001E4
:1034E0000143F9673178C80605D5F96FB06C21F44E
:1034F00040710143F9673178880605D5F96FF06CA2
:1035000021F440610143F9673168880505D5F96FF9
:10351000F06D21F440210143F9673168480505D574
:10352000F96F306E21F440110143F9673178480694
:1035300005D5F96F306D21F440510143F9673178B9
:10354000080605D5F96F706D21F440410143F96714
:103550003168C80505D5F96FB06D21F440310143DC
:10356000F9673168880446D5F96FF06E21F0406143
:103570000143F967F06EB0F1006F34D100F09DF8AF
:1035800039E0002C82D1DFF84443206810F4407009
:103590001CBFD6F8841088420BD02068216841F403
:1035A0008031216020F44070226822F48032226051
:1035B0002060C0070FD5FFF71FF805462068810778
:1035C00009D4FFF719F8401B41F289318842F5D33D
:1035D0004FF003085BE72168D6F8840021F44071BE
:1035E0000143216053E7B0F1806F04D100F06FF820
:1035F000010018BF80463068010314D5FA6F306FA0
:1036000022F040620243FA67306FB0F1006F02D1DE
:1036100000F053F807E0B0F1806F04D100F057F8E4
:10362000010018BF80463068410314D5FA6F706FEF
:1036300022F040620243FA67706FB0F1006F02D16E
:1036400000F03BF807E0B0F1806F04D100F03FF8E4
:10365000010018BF80463068410418D5FA6FB06F7A
:1036600022F040520243FA67B06FB0F1805F03D19D
:10367000022100F02DF807E0B0F1005F07D1022130
:1036800006F1200000F09CF8010018BF8046306869
:10369000010405D5FA6FF06F22F080420243FA6709
:1036A0003168C80306D5F96FD6F8800021F00041D3
:1036B0000143F9674046BDE8F687386840F480105A
:1036C00038607047002106F1200000F079B8012130
:1036D000301DFFE72DE9F04105467D4F28680C4677
:1036E000F968002611F0030F0DD0F96801F003010D
:1036F000814231D180B3F8686968C0F30210401C80
:1037000088420ED028E0012804D025D303281DD0FC
:1037100018D321E03A6891071ED5FA68696800F06D
:10372000C9F8386820F0806000F0CCF8804638682E
:10373000010113D5FEF760FFA0EB08000328F6D3C4
:10374000032637E039684A05E7D405E039688A037B
:10375000E3D439684A03E0D401262BE0A9682CB9E8
:103760003A695C48EB6800F095F80FE0012C3A6983
:1037700009D12B69584802405B0842EA01215B1ECF
:1037800041EA435102E06B6900F08BF83961386817
:1037900040F0806000F096F804463868010105D4D6
:1037A000FEF72AFF001B0328F7D3C9E73869A96988
:1037B000084338613046BDE8F08100000C1002403B
:1037C0002DE9F0410646424F30680C46F968002565
:1037D00011F0030F0DD0F96801F00301814231D1DE
:1037E00080B3F8687168C0F30210401C88420ED0A4
:1037F00028E0012804D025D303281DD018D321E0C8
:103800003A6891071ED5FA68716800F053F8386875
:1038100020F0805000F056F880463868810013D5BB
:10382000FEF7EAFEA0EB08000328F6D303252BE001
:1038300039684A05E7D405E039688A03E3D4396872
:103840004A03E0D401251FE0B1687A69002C04D155
:103850002048F36800F01EF802E0336900F021F818
:103860007961386840F0805000F02CF804463868E0
:10387000810005D4FEF7C0FE001B0328F7D3D5E76F
:1038800078697169084378612846BDE8F0810000D5
:1038900000700040024042EA01211B0941EA434115
:1038A00070470E4802405B0842EA01215B1E41EA74
:1038B0004361704722F073021043491E40EA011031
:1038C000F86070473860FEF797BE00009010024025
:1038D00000100240FF80FDFFFF809FFFFF80FFF987
:1038E0002DE9F84F4FF00009B54AB64B4FF00F08DD
:1038F00005460E4634E0B44CA54214BF0724062406
:103900008C40B2493C4341F82C40C143146801EA61
:10391000040C7468E40348BF40EA0C0CC2F800C011
:10392000546801EA040C7468A40348BF40EA0C0C14
:10393000C2F804C0946801EA040C7468E40248BF49
:1039400040EA0C0CC2F808C0D46801EA040C7168A3
:10395000890248BF40EA0C0CC2F80CC009F1010909
:10396000316831FA09F000F09780012404FA09F473
:1039700014EA0100F2D04FEA490C032101FA0CF1DC
:103980006FEA010E7168E443012918BF022903D0D0
:10399000112918BF122910D1A968F7680EEA010190
:1039A00007FA0CF73943A96069687768C7F300170D
:1039B000214007FA09F739436960716801F003078C
:1039C000032F07D1EF6AC1F3C0013C4001FA09F1AE
:1039D0000C43EC62E968B4680EEA010104FA0CF4E5
:1039E0002143E9604FEA89017468022C18BF122C48
:1039F00012D14FEAD90405EB840401F01C07D4F876
:103A000020A008FA07FB2AEA0B0AD6F810B00BFA36
:103A100007F747EA0A0727622C680EEA0407347999
:103A200004F0030404FA0CF43C432C607468E400D2
:103A300094D51C6844F001041C604FEA990C1C6882
:103A400004F00104009401F00C01009C5F4C54F858
:103A50002C4008FA01F724EA0707B5F1904F08BF98
:103A6000002418D05A4CA54208BF012413D0594C49
:103A7000A54208BF02240ED0574CA54208BF03241C
:103A800009D0564CA54208BF042404D0544CA5428A
:103A90007FF431AF052433E7BDE8F18F2DE9F04F16
:103AA0008A464FF0000B4649484B0F22044640E03F
:103AB000454EB44214BF0726062606FA0EF6B54256
:103AC00012D10D68C04305400D604D6805404D6042
:103AD0008D6805408D60CD682840C86053F8280087
:103AE00020EA090043F8280003254FEA4B0005FAB5
:103AF00000F025680543256007F01C074FEADB0549
:103B000004EB850502FA07F72E6A26EA07072F62FB
:103B1000C043A7680740A7606FEA0C0566682E409F
:103B20006660E7683840E060E06A2840E0620BF1D8
:103B3000010B3AFA0BF02FD0012000FA0BFC1CEA23
:103B40000A00F4D04FEA9B084FEA8B0753F828503D
:103B500007F00C0E02FA0EF9B4F1904F09EA0505D0
:103B600008BF0026A9D01A4EB44208BF0126A4D02F
:103B7000184EB44208BF02269FD0174EB44208BF69
:103B800003269AD0154EB44208BF042695D0144E91
:103B9000B4428DD1052690E7BDE8F08F006908405A
:103BA00018BF0120C0B270470AB1816170478162BD
:103BB000704742690A4201D0816270478161704753
:103BC0000004014060100240001800480800014055
:103BD0000004004800080048000C0048001000489D
:103BE00000140048F0B5054677A085B00E4650F8A1
:103BF000251088470024012E2BD16748674E01907D
:103C0000694656F82500FFF76BFE00BF6DA151F81D
:103C10002510301D00EBC506304600F0DEF86FF0D1
:103C2000030738B965A050F825200021304600F080
:103C3000CDF808B13C460CE00FF27C1060A146576D
:103C400051F8251000223046FEF738FD3046FEF7C9
:103C500052FD204605B0F0BD002000F068B910B557
:103C60004F4C86B0206840F004002060002221689C
:103C700001F0040100910021009B1720FEF71EFDBA
:103C80001720FEF738FD00F02BF82820FEF733FD53
:103C90001422002101A800F069F92068414A40F08F
:103CA00004002060216801F0040100914FF40051EC
:103CB00000983D48019102920021039101A9FFF76C
:103CC0000FFE002200211720FEF7F8FC1720FEF758
:103CD00012FD00F005F82820FEF70DFD06B010BD1E
:103CE000002200212820FEF7E9BC70B5002402283C
:103CF00086B028BF6FF001042ED200F036F80723FB
:103D00002748C16841F40031C160C16801F4003145
:103D100005910599026842F00102026002220068E2
:103D200000F0010005900421059801920091032202
:103D30000392049300F013F80821009102220192EB
:103D4000072103220491039200F009F8701900F092
:103D500017F908B16FF00304204606B070BD029455
:103D600069464FF09040FFF7BBBD1049104EC501AA
:103D700051F820007051704731B50E4C0C48257831
:103D80004FF47A730122694600EBC510FFF778F80B
:103D9000009832BD00000000000011104800002013
:103DA0004C10024000002110000800485400002080
:103DB000240100207C02002028000000593C00085B
:103DC0000F0000000D0000165F3C000803460020B5
:103DD00009B95A6070470120704708B9012070473F
:103DE00001600020704710B502680A4C012302F000
:103DF0001F01C2F3004204EB421203FA01F11368FF
:103E00000B421EBF11604068002802D0BDE8104080
:103E1000004710BD1404014000E056E010B500203A
:103E200000F0C6F8012000F0C3F8022000F0C0F84E
:103E3000002000F0D0F800F044F8012000F0CBF8AA
:103E400000F03FF8022000F0C6F800F03AF8002039
:103E5000FFF74BFF384C204600F00AF904F12C0024
:103E600000F006F904F1580000F002F900F0D0F873
:103E700001210020FFF7B6FE002000F00DF9002818
:103E8000FAD100F0AEF800F01CF8012000F0A9F81B
:103E900000F017F8022000F0A4F800F012F800F08B
:103EA000D0F8012804D1002000F095F824A004E007
:103EB000002000F096F800BF26A0BDE8104000F0FA
:103EC000D7B84FF4967000F023B910B51B4C60784A
:103ED00001282BD1002262704FF480714FF0904086
:103EE000FFF767FE002000F088F800F0AAF801282C
:103EF0000CBF0FF24C000FF25C0000F0B9F832205A
:103F000000F006F92146002000F0E7F8606040B9B3
:103F1000207830B1002121700220BDE8104000F06F
:103F20005AB8BDE81040022000F05BB810BD10B9CF
:103F30000249012048707047A44700087002002021
:103F40004C504420697320616374697661746564C0
:103F50000A0D00004C50442069732064656163744D
:103F60006976617465640A0D0000000010B50446AE
:103F700010460A460146204600F0DEF8204610BDF5
:103F800010B50A4901604FF4E1320C21002442606F
:103F900041618460C46004618461C46104624462FC
:103FA000FEF72EFF00B10124204610BD0044004062
:103FB00018B52E4A85B032F83030009301240194B0
:103FC0000223002402EBC002039302946946506866
:103FD000FFF786FC19E080B500F009F80122586867
:103FE00037E080B500F003F80022586831E01F4B3D
:103FF00033F8301003EBC003704780B51B4A32F82A
:10400000301002EBC00250682CE0002006B010BD5A
:1040100000B585B04FF48071009101220021039119
:104020000291019200F008F8002200F016F8FFF764
:10403000BBFD002005B000BD69464FF09040FFF782
:104040004FBC4FF480714FF09040FFF7A7BD00F0D8
:1040500004F8FFF7A9FD002002BD4FF480714FF076
:1040600090407047FFF7A5FD002002BD0000002032
:104070000EB4C0B5024603A800210190009101AB27
:104080000121044878440C30FCF77EF806BC5DF84A
:1040900010FB00BF7309000010B586B01449154A23
:1040A000154C0091019220461449154A0291049240
:1040B0001449154A03910592694600F071F840B918
:1040C0001248A062016811B12046884718B100204B
:1040D000A0624FF0FF3006B010BD0748826A5268F8
:1040E000002A18BF1047FFE74FF0FF30704700006D
:1040F00061430008034400084402002043440008D0
:104100008544000865440008F925000820000020C7
:1041100038B50446FEF770FA14F1010F054602D0D7
:10412000044988680419FEF767FA401BA042FAD3D5
:1041300031BD00BF3C00002062F30F2262F31F423A
:10414000401810F0030308D0C91A1FD3DB0748BF7B
:1041500000F8012D28BF20F8022D130030B41446BA
:104160001546103928BF20E93C00FAD8490728BF76
:1041700020E90C0048BF40F8042D890028BF20F832
:10418000022D48BF00F8012D30BC7047C91818BF78
:1041900000F8012DCB0728BF00F8012D7047000063
:1041A00038B500244FF0FF35B0B10A6802604B68A3
:1041B0004360CA68C2600B6903618A6882604969AA
:1041C0000FF2011241610062C2610FF209118161B7
:1041D000006808B1804700B12C46204632BD1CB5AE
:1041E0000446606A58B9694604F1180000F0A0F866
:1041F0009DF80000242818BF262800D059E001208F
:104200006062002016BD183000F092B80246A62069
:10421000926810471CB500F048F800F094F818B9FF
:104220009DF800002080002016BD02B569461830B8
:1042300000F08EF802BD10B5044610463CE02DE9B2
:10424000F84F064688461F46914640F201108742C5
:10425000ACBF4FF4807ABA46F468534642461FFA20
:1042600089F1A620A047050014D1706980478346D4
:10427000B2680121A6209047044670698047A0EBF0
:104280000B00B0F5A07F02D2002CF1D102E00CB1FE
:104290006FF00205A7EB0A07D044D144BFB20FB1BB
:1042A000002DD2D02846BDE8F28F0C466946183062
:1042B00070474FF0FF3016BD0A4601462469A6201C
:1042C000A04710BD38B504698D044CBFA620AE20B0
:1042D000A04732BDF8B506468D04F46802D5A62085
:1042E000A047F2BDAE20A047050013D170698047FA
:1042F0000746B2680121AE209047044670698047A6
:10430000C01BB0F5A07F02D2002CF2D102E00CB1AC
:104310006FF002052846F2BD10B50446A068646837
:10432000A04710BD10B50446A0682468A04710BD82
:1043300080B50A4601231721FFE7FFF7EDFF08B11B
:104340004FF0FF3002BD80B50A4601230021F4E79B
:1043500080B50A4601230021FFF7E4FFEFE70000E4
:10436000F8B5574D574828600024E86C411C0028D8
:1043700086B0E96442D12846FEF72CFC00283DD1E6
:10438000514E524F306840F00200306012223168C6
:1043900001F0020105914FF480710598009101929E
:1043A00001210291032204210491039269463846B7
:1043B000FFF796FA12210191012202924FF4007048
:1043C0000321009003910422049269463846FFF7C6
:1043D00087FAF06840F40010F060F06800F4001014
:1043E00000906FF007060098284600F073F820B997
:1043F0000021284600F098F800B13446204607B066
:10440000F0BD70B52E4DE86C0024C0B1401EE864CC
:1044100015D12F482D4E026822F4001202604FF48D
:1044200080713046FFF73AFB4FF400713046FFF7DA
:1044300035FB2846FEF7DAF908B16FF0070420468D
:1044400070BD0A4610B501464FF480531C48FEF774
:1044500033FB002408B16FF00204204610BD204653
:1044600004B070BD7FB500F020F8FEF7F4F9002429
:1044700038B100F017F804280CBF6FF065046FF036
:104480000304ECE77FB500F010F8FEF766FA0024AD
:1044900038B100F007F8042814BF6FF065046FF01E
:1044A0000304DCE72846FEF798BB009201930A4616
:1044B000034D4FF48056014602960223284670476A
:1044C000A4010020005400404C10024000040048A9
:1044D0005810024038B504461148124920600025A2
:1044E0000120E0606160A56025616561A561E5610D
:1044F00025622046FEF72AF900B101250021204659
:1045000000F012F800B101250221204600F021F848
:1045100000B101254FF4801000F045F8284632BD67
:1045200000540040EC9C901030B500F140025378EC
:10453000202B0CD11478012C09D000F01DF824F4A4
:1045400080541C6003681D682943196020E0022024
:1045500030BD30B500F140025378202B0AD11478D9
:10456000012C07D000F008F824F4706444EA012418
:104570001C600DE0022030BD012313702424547010
:1045800003681D686D086D001D6003681C68704736
:104590000068016841F00101016020205070002195
:1045A0001170002030BD094981B00A6842F0010253
:1045B0000A60096801F001010091009904490A6844
:1045C0001043FFE7086001B0704700006010024030
:1045D0000400014010B586B000F0B6F800F070F8A5
:1045E00000F0ACF82F48304C016841F00401016044
:1045F000026802F0040205920599026842F0800206
:104600000260036803F0800305930599026842F095
:1046100001020260036803F0010305930599026833
:1046200042F0020202600022006800F002000590E1
:104630004FF4A46105984FF09040FFF7B5FA0022BF
:1046400030212046FFF7B0FA4FF4A46100F030F8B3
:104650004FF09040FFF744F9402014490090019139
:104660000022029269464FF09040FFF739F930215D
:1046700000F01EF82046FFF733F900220021172032
:10468000FEF71CF81720FEF736F80022002128203C
:10469000FEF714F82820FEF72EF8FFF7BDFBFFF712
:1046A000BCFBFCE74C100240000400480000111065
:1046B0000091012200210291039101926946704705
:1046C00080B5B8B04422002105A8FFF74FFC00F0E8
:1046D00035F88822002116A8FFF748FC02214FF484
:1046E0008072059108921021022209910F92109276
:1046F0000A21012211921291072202211392149190
:10470000159105A8FDF7E0FB0F2003210090019112
:10471000002202920392049204216846FDF709FEEA
:1047200042201690002125912A9116A8FEF736FE08
:104730004FF40070FDF76CFF39B000BD142200216A
:104740006846FFF713BC0000094810B5016841F442
:10475000807101600320FDF7A4FF0020FDF72AFF10
:104760000024002814BF012400F004F8204610BDE6
:10477000002002400A4881B0816841F00101816057
:10478000816801F0010100910099026842F08052B5
:104790000260006800F080500090009801B07047FF
:1047A000581002402D2D2D2D2D2D2D2D2D2D2D2D43
:1047B0002D2D2D2D2D2D2D2D2D2D2D2D2D2D2D2D29
:1047C0002D2D2D2D2D2D2D2D2D2D2D2D00000000CD
:1047D0000A0D2A2A2A2A2A57656C636F6D65207490
:1047E0006F20782D637562652D6E66633420657861
:1047F000616D706C652A2A2A2A2A00000A0D2D2D67
:104800002D2D2D2D2D2D2D2D2D2D2D2D2D2D2D2DD8
:104810002D2D2D2D2D2D2D2D2D2D2D2D2D2D2D2DC8
:104820002D2D2D2D2D2D0A0D00000000F0B4024677
:10483000106895681318506803EB5004C0071CD526
:104840004D441AE013F8017B05F8017B491EF9D1AC
:1048500098B113F8011BC6F38106032E08BF13F8A5
:10486000016B01EB06214942801C294405D011F857
:10487000016B05F8016B401EF9D1A3420ED013F86D
:10488000016B16F0030104BF13F8011BC91C3009AA
:104890000F28DBD113F8010B0F30D7E7F0BC02F182
:1048A0000C0070470E48016841F47001016000225D
:1048B0000C49086840F0010008608A604FF480529B
:1048C0000B68094803400B60CA6000200B68074A68
:1048D00023F480230B6088614FF000611160704702
:1048E00088ED00E000100240FFFFF6EA08ED00E06E
:1048F0000000000000000000010203040607080990
:10490000A0860100400D0300801A060000350C004F
:1049100040420F0080841E0000093D0000127A0012
:104920000024F40000366E010048E801006CDC024F
:104930007047FEE7FEE7FEE7FEE770477047704707
:1049400000F00AB80248FFF74EBA0248FFF74BBA28
:10495000180000204C00002002490A68886882186C
:104960000A6070473C00002010B5074979441831AF
:10497000064C7C44163404E00A68081D114488473C
:104980000146A142F8D110BD2C00000048000000F3
:104990004EF68851CEF20001086840F470000860BD
:1049A000BFF34F8FBFF36F8F4FF00070E1EE100A2F
:1049B000704700009BC8FFFF5C010000240100203D
:1049C0000000000069FEFFFFC00100001A010000A6
:1049D0000000002000F00DF8002801D0FFF7C4FF10
:1049E000AFF300800020AFF30080FFF7F3FD00F08D
:1049F00002F80120704700F001B800000746384671
:104A0000FDF758FAFBE738B504460D46284600F096
:104A100005F8A84218BF0024204632BD0149FFF71F
:104A2000ABB900BFDC0000200148804701480047C7
:104A3000A5480008394A0008AFF30080FFF7A8FF37
:104A4000FFF7C8FF0000000001020304FFF7FEBFEC
:104A5000FFF7FEBFFFF7FEBFFFF7FEBFFFF7FEBF8A
:104A6000FFF7FEBFFFF7FEBFFFF7FEBFFFF7FEBF7A
:104A7000FFF7FEBFFFF7FEBFFFF7FEBFFFF7FEBF6A
:104A8000FFF7FEBFFFF7FEBFFFF7FEBFFFF7FEBF5A
:104A9000FFF7FEBFFFF7FEBFFFF7FEBFFFF7FEBF4A
:104AA000FFF7FEBFFFF7FEBFFFF7FEBFFFF7FEBF3A
:104AB000FFF7FEBFFFF7FEBFFFF7FEBFFFF7FEBF2A
:104AC000FFF7FEBFFFF7FEBFFFF7FEBFFFF7FEBF1A
:104AD000FFF7FEBFFFF7FEBFFFF7FEBFFFF7FEBF0A
:104AE000FFF7FEBFFFF7FEBFFFF7FEBFFFF7FEBFFA
:104AF000FFF7FEBFFFF7FEBFFFF7FEBFFFF7FEBFEA
:104B0000FFF7FEBFFFF7FEBFFFF7FEBFFFF7FEBFD9
:104B1000FFF7FEBFFFF7FEBFFFF7FEBFFFF7FEBFC9
:104B2000FFF7FEBFFFF7FEBFFFF7FEBFFFF7FEBFB9
:104B3000FFF7FEBFFFF7FEBFFFF7FEBFFFF7FEBFA9
:104B4000FFF7FEBFFFF7FEBFFFF7FEBFFFF7FEBF99
:104B5000FFF7FEBFFFF7FEBFFFF7FEBFFFF7FEBF89
:104B6000FFF7FEBFFFF7FEBFFFF7FEBFFFF7FEBF79
:104B7000FFF7FEBFFFF7FEBFFFF7FEBFFFF7FEBF69
:104B8000FFF7FEBFFFF7FEBF131000015002040045
:104B900048200811042101200348060000160A10CD
:104BA00007DF410008074200080D04121504122B0C
:104BB00004123704123F042120214022010950022F
:104BC0000800480D34F00A070044004000093D0089
:104BD0004E1500080452FF01E3AE13142004000038
:104BE000AE14000854F003165C0000200001432DB1
:104BF0001390431B133C2101200A02040101F4011C
:104C0000002044020020082104211B610812200812
:054C1000F3110C01642A
:0400000508004A396C
:00000001FF
