:020000040800F2
:10000000F009002045380008A5360008A73600088A
:10001000A9360008AB360008AD3600080000000025
:10002000000000000000000000000000AF360008E3
:10003000B136000800000000B3360008B5360008ED
:10004000693800086D3800087138000875380008F4
:10005000793800087D3800088138000885380008A4
:10006000893800088D380008913800089538000854
:10007000993800089D380008A1380008A538000804
:10008000B9360008BF360008A9380008AD380008A6
:10009000B1380008B5380008B9380008C53600087E
:1000A000BD380008C1380008C5380008C938000844
:1000B000CD380008D1380008D5380008D9380008F4
:1000C000DD380008E1380008E5380008E9380008A4
:1000D000ED380008F1380008CB360008F538000884
:1000E000D1360008F9380008FD3800080139000849
:1000F00005390008093900080D39000811390008D0
:1001000015390008193900081D390008213900087F
:1001100025390008293900082D390008313900082F
:1001200035390008393900083D39000841390008DF
:1001300045390008493900084D390008513900088F
:1001400055390008593900085D390008613900083F
:1001500065390008693900086D39000871390008EF
:1001600075390008793900087D390008813900089F
:1001700085390008893900088D3900080000000021
:10018000913900089539000838B5040009D004F108
:100190007005696809B900F01EF800F021F801281F
:1001A00001D1012032BD606A08B100F02AF800F0E8
:1001B0000AF821F02A01FFE7816000F01BF8BDE892
:1001C000324000F02CBB2068416821F4904141602E
:1001D00020688168704700202870204600F010BC1D
:1001E000242169602068026852085200026020469B
:1001F00000F052B92068016841F001010160204619
:100200007047204600F0A8BA70B5044604F17005A6
:100210001346686820283CD169B318002BD0287891
:10022000012836D001222A7004F15006E16433809F
:1002300073800020E86021216960B069E8B1DFF8CF
:10024000D014C162DFF8CC04B1690863B169DFF88A
:10025000C80448630020B16988632068E16C00F13C
:100260002802B06900F04CFC38B11020E860002191
:10027000297020226A60012070BD21684020086238
:1002800000222A702068816841F08001816000208E
:1002900070BD022070BD38B5044604F15805134600
:1002A000286A202840D151B3180028D0287E012880
:1002B0003AD001222A7661652B80002068622221D3
:1002C00029626869E8B10FF29561C1620FF2C560F9
:1002D0006969086369690FF2C5604863002069694C
:1002E00088632068626D00F12401686900F008FCF1
:1002F00038B110206862002129762020E8610120B1
:1003000032BD002028762068016841F480710160C8
:100310002068816841F0010181602068816841F0B6
:1003200040018160002032BD022032BD70B504461C
:1003300040F60F002568E9692A68AB6808400AD1D1
:1003400088067AD5960678D5216E002974D0204685
:10035000BDE870400847D80702D412F4907F6CD0F3
:10036000C80707D5D60505D501202862E56F45F0F9
:100370000105E567880708D5DD0706D52668022050
:100380003062E06F40F00400E067480708D5DD0701
:1003900006D5266804203062E06F40F00200E06776
:1003A00008070AD5950601D4D80706D5256808237D
:1003B0002B62E06F40F00800E067080509D55301A3
:1003C00007D525684FF400602862E06F40F02000F8
:1003D000E067E06F002857D0880605D5910603D561
:1003E000216E09B120468847E06F21688A6851066E
:1003F00002D410F0280F1AD0204600F084FA2068AA
:1004000081684A060ED500F040F858B10FF2E1516C
:100410008163E06E00F0A9FBB0B3E06E816BBDE8D4
:10042000704008472046BDE8704000F03ABC2046C6
:1004300000F037FC0020E06770BDC80209D55B0200
:1004400007D54FF4801028622046BDE8704000F0C8
:1004500029BC080607D5130605D5616EA1B1204653
:10046000BDE87040084748060ED551060CD52868EF
:1004700020F040002860202161670020606620464F
:10048000BDE8704000F00FBC70BD816821F04001F4
:100490008160E06E704700002DE9F0410446A048FD
:1004A00022681368A168034020690B436169034314
:1004B000E0690B430343136000265168E06821F4B0
:1004C0004051014351600025A36994498A421CBFF1
:1004D000206A03439768934827F430673B4393604F
:1004E000914F924BBA4221D11B6803F00303032BB7
:1004F00029D8DFE803F0025F50710127E169B1F507
:10050000004F4FF6F07840F0D38067B1012F00F034
:10051000A980022F00F0A980042F00F0AB80082FE3
:1005200000F0B180B7E000F0E9FEA5E0804FBA42EC
:1005300023D11B6813F00C035FD0042B3AD0082B97
:1005400029D00C2B48D010278A42D7D1390006D0A9
:10055000022F09D0042F52D0082F53D0D0E000F042
:10056000CDFE002800F0CD80626802EB4201884297
:1005700002D31303834248D2C2E06E4FBA420CD179
:100580001B6813F0300338D0102B13D0202B02D06F
:10059000302B21D0D7E70227D6E7674FBA420BD1DD
:1005A0001B6813F0C00328D0402B03D0802BF2D05F
:1005B000C02BEEE70427C7E7604FBA420ED11B6895
:1005C00013F4407319D0B3F5807FF3D0B3F5007FF7
:1005D000E1D0B3F5407FB6D10827B5E78A42B2D162
:1005E0001B6813F4406308D0B3F5806FE2D0B3F515
:1005F000006FD0D0B3F5406FCBE70027A4E700F041
:1006000034FEAEE74FF40040AEE737B1022F0AD018
:10061000042F0ED0082F16D01BE000F06FFE00F064
:1006200095F879410AE0464911EB520045EB050186
:1006300004E000F01AFE00F089F86941002300F0A0
:10064000CDFE064606E0530803F50003B3FBF2F6C1
:1006500000E00125A6F540703A49884250D2226850
:10066000D6604EE000F052FE06E06068364901EBCD
:1006700050010CE000F0F9FD61684A0802EB40020D
:10068000B2FBF1F605E06068410801F58031B1FB8D
:10069000F0F6B6B200E00125A6F1100040452FD2D9
:1006A00008EA0601C6F3420001432068C16028E061
:1006B00047B1012F09D0022F0CD0042F08D0082FEA
:1006C0000ED015E000F01AFE04E000F01FFE01E07D
:1006D00000F0CBFD616800EB5100B0FBF1F605E0E6
:1006E0006068410801F50041B1FBF0F6B6B200E0E8
:1006F0000125A6F11000404502D22168CE6000E03D
:1007000001250020206660662846BDE8F0810000D3
:1007100025090008530900089D09000800800040D1
:10072000F369FFEF0024F400003801408810024014
:100730000044004000480040004C00400050004091
:10074000000024F400FD0F000048E8016268010E7B
:10075000560816EB0020704790F82410CA0706D5FB
:1007600002685368816A23F400330B43536090F8A6
:1007700024108A0706D502685368C16A23F48033BF
:100780000B43536090F824104A0706D5026853685B
:10079000016B23F480230B43536090F824100A0765
:1007A00006D502685368416B23F400430B43536042
:1007B00090F82410CA0606D502689368816B23F46A
:1007C00080530B43936090F824108A0606D5026884
:1007D0009368C16B23F400530B43936090F824108B
:1007E0004A0610D502685368016C23F480130B434A
:1007F0005360036CB3F5801F05D15368416C23F43B
:10080000C0030B43536090F824100A0606D5016814
:100810004A68806C22F4002202434A607047F8B5AF
:10082000044604F170050020E8606FF07E4700F098
:1008300059FE0646206801680A0708D50097334626
:1008400000224FF40011204600F016F860B920682D
:1008500001684A070AD50097334600224FF4800109
:10086000204600F009F808B10320F2BD202068609E
:10087000A86000202870F2BD2DE9F041069C0546D5
:100880000E4690461F462868C1693140B1420CBFF0
:1008900001200020404528D114F1010FF3D000F0D1
:1008A00021FEC01B844200D34CB92868016821F4A2
:1008B000D071016000F01CF80021017013E028687D
:1008C00001684A07DFD5C1690A05DCD54FF400612C
:1008D00001622868026822F4D0720260002200F0EF
:1008E00007F8C1600270032000E00020BDE8F0813D
:1008F0002868816849084900816005F1700020215D
:1009000041608160704701680A6822F490720A6051
:1009100001688A68520852008A602021816700229B
:1009200002667047816A00680268930644BF084601
:1009300000F0B9B90020A1F852000868826822F0DE
:10094000800282600868FFE7016841F040010160B1
:100950007047806A00F0CCBD00000000816A00682A
:100960000268930613D40020A1F85A0008680268B0
:1009700022F4807202600868826852085200826025
:100980000868826822F0400282602020886708465A
:1009900000F0AFBD806A00F0ADBD0000F8B5846A1C
:1009A00004F1740504F1520029686A6823689E689E
:1009B000370609D5212907D1002101801E6826F0BC
:1009C000C0061E6020232B6021688B68590606D55F
:1009D000222A04D1002101812046FFF794FFA86854
:1009E00040F01000A8602046BDE8F24000F059B980
:1009F000806A00F1520100220A810A8000F051B998
:100A0000704730B4002513E050F8042BD30744BFDF
:100A1000A9F101039A18091F042942F8045BFAD2CC
:100A200013468C0744BF15809B1CC90748BF1D7027
:100A300050F8041B0029E7D130BC7047F0B508B965
:100A40000120F0BD0568274E274CB54200F1240374
:100A500008D226494A191427B2FBF7F292001A620B
:100A6000DC6108E022494A191426B2FBF6F2920032
:100A700020491A62D96102225A702E688168C268C0
:100A80006FF30E160E430169164342690E438169E6
:100A90001643C2690E43016A16430E432E608268F4
:100AA000B2F5804F17D0DA690F21A2420CBF124A6B
:100AB000124A146893F8205005F01C05A94024EA56
:100AC00001011160116893F82040406804F01C0493
:100AD000A0400143116000209861012159701870F5
:100AE000F0BD00000804024000000240F8FFFDBF16
:100AF000F8FBFDBF00040240A8000240A804024029
:100B0000F8B5044604F1240600253078012801D107
:100B10000220F2BD012030707778012F21D1022010
:100B20007070B561206807687F087F000760204605
:100B300000F0A3F82168F06820B10A6842F00E02C4
:100B40000A6008E0086820F0040008602068016876
:100B500041F00A0101602068016841F00101016073
:100B600001E0357002252846F2BD38B500F12401B8
:100B700000244A78022A03D004208861012417E067
:100B80000268136823F00E031360026815686D088D
:100B90006D001560012291F82030CD6903F01C032F
:100BA0009A406A6001224A700C70496901B1884715
:100BB000204632BDF8B500F124010423CA69146847
:100BC0000268156891F8206006F01C0603FA06F723
:100BD0003C4210D06F070ED51468A50603D41468E4
:100BE00024F00404146000F03AF8C968002935D0F4
:100BF000BDE8F4400847022303FA06F73C4213D04D
:100C0000AF0711D51468A50605D4146824F00A04AA
:100C1000146001224A7000F022F800220A708968EC
:100C2000E1B1BDE8F4400847082303FA06F6344270
:100C300014D02B0712D5146824F00E04146001227E
:100C400000F015F89A40626001228A614A70002221
:100C50000A70096911B1BDE8F4400847F1BD91F887
:100C60002020CC6902F01C0293406360704791F829
:100C70002030CC6903F01C03704770B590F84450E5
:100C8000066C012405F01C05AC40746004686360C8
:100C90008068102802D1A260E16070BDA160E260AE
:100CA00070BD7047704770472DE9FC47050017D0AD
:100CB000DFF8E876DFF8F466BC68F86800F003084F
:100CC0002878C10604F00C0453D524B10C2C08BFBD
:100CD000B8F1010F2FD13868810703D5A869002822
:100CE00000F06A81396808074EBF396871680909E0
:100CF000286A01F0F001814206D200F013FB0028BF
:100D000009D100F00CFA08E000F009FA2CB9286AC1
:100D100000F008FB002840F04F8100F0A6FABA6806
:100D200000F099FADFF87C06006800F0E5FB0100AE
:100D300000F03281EDE1A86990B1396841F001011C
:100D4000396000F0CFFB81463868810700F12281CD
:100D500000F0C8FBA0EB09000328F5D30320D8E17D
:100D6000386840084000386000F0BCFB81463868B5
:100D7000810740F1118100F0B5FBA0EB09000328C9
:100D8000F5D3EBE76868B0F5803F04D1386840F4EC
:100D90008030386011E0B0F5A02F386806D140F4FB
:100DA00080203860396841F4803105E020F48030DB
:100DB0003860396821F480213960686868B100F0D2
:100DC00091FB81463868810300F1F88000F08AFBCE
:100DD000A0EB09006528F5D3C0E700F083FB81464E
:100DE0003868810340F1EA8000F07CFBA0EB090049
:100DF0006528F5D3B2E700F075FB00F08CF9C0F080
:100E00000381ABE7E86880B1396841F480713960EB
:100E100000F068FB80463868410500F1E08000F092
:100E200061FB00F078F9F6D398E7386820F4807019
:100E3000386000F057FB80463868410540F1D680A5
:100E400000F050FB00F067F9F6D387E74008400058
:100E5000706000F047FB80467068810740F1D880E1
:100E600000F040FB00F057F9F6D377E7052830682B
:100E700006D140F004003060316841F0010105E026
:100E8000400840003060316821F004013160A868FA
:100E900041F2893968B100F025FB8246306881074C
:100EA00000F1EC8000F01EFBA0EB0A004845F5D3F2
:100EB00054E700F017FB82463068810740F1DE807E
:100EC00000F010FBA0EB0A004845F5D346E700F41C
:100ED00000328A420FD1EA6B520800F4C001521E60
:100EE000B1EB425F07D1296C490800F0C060491E90
:100EF000B0EB416F1FD00C2C5ED0386841015BD441
:100F00003868C10058D4386820F08070386000F02C
:100F1000E9FA04463868810140F1D78000F0E2FA2E
:100F2000001B0328F6D319E700F0DCFA401B032866
:100F3000C0F0EA8012E73868810104D400F001F9BA
:100F400004463868810100F1E38000F0CBFA001B11
:100F50000328F6D302E70C2C2ED0386820F08070DE
:100F60003860396811F0205F03D1F868800880008C
:100F7000F860F968DFF83804014000F0E9F8044649
:100F80003868810140F1C48000F0ACFA001B0328EE
:100F9000F6D3E3E600F0C3F82878C1070ED5082C95
:100FA00005D00C2C08BFB8F1030F7FF4EBAE386806
:100FB000810303D5686808B90120AAE02878810771
:100FC00014D5042C05D00C2C08BFB8F1020F7FF407
:100FD00019AF3868410502D5E8680028ECD0786878
:100FE000296920F0F85040EA01607860287801070C
:100FF0000ED56869002870683FF428AF40F0010002
:10100000706000F06FFA8046706881077FF5F3AE7C
:101010002878410739D5B86DC1004FF000080AD4CF
:10102000B86D40F08050B8654FF00108B86D00F021
:10103000805000900098DFF87C93D9F80000C1053B
:1010400013D4D9F8000040F48070C9F8000000F013
:1010500049FA8246D9F80000C10506D400F042FAE8
:10106000A0EB0A000328F5D378E6A86801287FF4EE
:10107000FDAE306840F00100306008E7B8F1000FC5
:1010800003D0B86D20F08050B865A86A00283FD022
:1010900002287FF460AFF868EA6A00F00301914229
:1010A00001BF00F070012A6B521EB1EB021F04D188
:1010B0006A6B00F4FE41B1EB022F7FF41CAFA96B09
:1010C00007290CBF0021012101E7FA68DFF8E812C7
:1010D000E86A0A40296B0243491E686B42EA011222
:1010E000E96B490842EA0022286C491E400842EA9E
:1010F0004152401E42EA4062A86B000942EA404267
:10110000FA6000F01EF80546386881017FF50CAFE3
:101110000020BDE8F687A0EB080003287047386878
:1011200040F0080038603968286A21F0F001014376
:1011300039607968E86921F47F4141EA00217960EA
:101140007047386840F080703860F96841F080710D
:10115000F96000F0C7B92DE9F0410400884678D065
:10116000DFF85862306800F00700404509D2316866
:10117000C90848EAC1013160306800F00700404505
:1011800067D12078DFF81452C1074AD56068032878
:1011900002D129688A0108E0022802D129688A035D
:1011A00003E00028296802D18A0702D451E04A05E9
:1011B0004FD5A968890840EA8100A86000F092F93B
:1011C0000746A868616800F00C00B0EB810F28D0DA
:1011D00000F088F9C01B41F289318842F1D3032025
:1011E0001DE02078410705D5AA68E06822F4E06296
:1011F0000243AA602178080706D5A968206921F46E
:10120000605141EAC001A96000F02FF8AA6800F01F
:1012100022F8BDE8F0416348006800F06DB9BDE810
:10122000F0812078810705D5AA68A06822F0F00235
:101230000243AA60316801F007018845D1D23068C5
:10124000C00848EAC0003060316801F0070141453C
:10125000C7D00120E3E75A49C2F30312895C504A20
:1012600001F01F01C8401060704770B54B4A564BE3
:101270009068D6680025002110F00C0006F00306E7
:10128000524C03D00C2812D1012E1AD115682E070A
:1012900004D4454D2E68C6F3032502E01568C5F356
:1012A00003154B4E56F8255048B9294624E004282A
:1012B00008BF214620D008281ED119461CE00C2862
:1012C0001AD1D06800F00300022803D0032808BF19
:1012D0001D4600E02546D168D068D268C0F30620DC
:1012E0004543C1F30210C2F34161401C491CB5FBE8
:1012F000F0F04900B0FBF1F1084670BD2848314AD2
:10130000006813683349C3F3022206E024482D4ADB
:10131000006813682F49C3F3C222895C01F01F01E2
:10132000C84070477CB52C4E054630680024C1008B
:1013300002D500F003F90EE0306840F080503060D4
:10134000316801F080510091009800F0F7F83168A1
:1013500021F080513160B0F5007F04D1802D0CD98F
:10136000A12D09D304E0802D88BF032405D801D125
:10137000022402E0702D00D1012410480168C90840
:1013800044EAC1010160006800F00700A04201D0FA
:10139000012076BD002076BD000000000010024054
:1013A000580000204000002094100240901002409D
:1013B000FFFFEEFE007000408C809DF9002002408F
:1013C000383600080810024000127A000024F400A9
:1013D000303700086038000858100240D3BBD9B13C
:1013E000B2F5803F5BD2022A1ED98C46B1FBF2F1E6
:1013F00002FB11C31B0443EA1043B3FBF2FC02FBE4
:101400001C3380B240EA0343B3FBF2F002FB10321C
:1014100040EA0C4000237047022A05D98446B0FBFD
:10142000F2F002FB10C270474AB105D100F0010290
:1014300049085FEA3000704700220023704700F03F
:10144000C1B80B000200002100207047F7D3002232
:1014500000237047904271EB030CF2D370B5B1FAE0
:1014600081F4B3FA83F52C1BA340C4F1200532FAB2
:1014700005F63343A2405FF00046E64002E05B0819
:101480005FEA3202841A71EB030524BF2046294625
:101490007641F4D302000B003000002170BD70B51E
:1014A000B1FA81F4B2FA82F5C4F120046419B4F1FE
:1014B0002006DAD3B2405FF00044F440002502E099
:1014C00052085FEA3303C61A71EB020E24BF30469E
:1014D000714664416D41F3D302000B0020002900E6
:1014E00070BD000001480068704700BF3C0000204C
:1014F000704770477047000070B50E4E0446B068E4
:101500000025A0B14FF47A710B4AB1FBF0F11068DD
:10151000B0FBF1F000F099F848B9102C07D2002286
:1015200021464FF0FF3000F069F8746000E00125BB
:10153000284670BD3C00002058000020DFF87800ED
:10154000006800F4C060704710B5DFF86C10B0F5AB
:10155000007F086800F4C06015D1B0F5007F1BD093
:101560000868DFF85820DFF8584020F4C06040F4E5
:10157000007000F018F84A6953050FD5002818BF0D
:10158000401EF8D10AE0B0F5806F05D0086820F45D
:10159000C06040F480600860002010BD48694105CB
:1015A000FAD5032010BD0860322013684343B3FB13
:1015B000F4F0401C7047000000700040580000200C
:1015C00040420F00704700000901020006D5294A79
:1015D00000F00F00104400F8041C7047264B19540B
:1015E0007047264B19684FF6FF020002114000F4C5
:1015F000E0600843224908431860704738B51F4B24
:101600001C68C4F30223C3F10704052C28BF04247B
:101610001D1D072D34BF0023DB1E012505FA04F430
:10162000641E2140994005FA03F35B1E1A401143E2
:10163000BDE83440C8E7012200F01F01114BFFE76D
:101640008A40400943F82020704710B5401EB0F191
:10165000807F01D3012010BD0B4C60600F214FF043
:10166000FF30FFF7B1FF0021A160072020600020BC
:1016700010BD000018ED00E000E400E00CED00E01B
:101680000000FA0500E100E010E000E038B50400D9
:1016900001D1012032BD04F14005687820B9002154
:1016A0002970204600F03AFB00F053F8606821688A
:1016B00020F0706008612068816821F40041816039
:1016C000E06821680128A0680CBF40F4004040F4A5
:1016D00004408860E068022803D120684FF400616C
:1016E00041602068416841F0007141F4004141606F
:1016F0002068C16821F40041C16060692169A26964
:101700000143206841EA0221C160206AE169226840
:10171000014311602068016841F00101016000206F
:101720006860202169702063A87032BD38B504005C
:1017300001D1012032BD04F1400500F00AF8204635
:1017400000F0EDFA0020686068702063A8702870CF
:1017500032BD242068702068016849084900016092
:10176000704700904FF08073FF22704700904FF059
:101770000073D2B2704701224FF40041304600F0AE
:101780001CBA2DE9FE4F00F0FEF84ED10C9D002D45
:101790001CBF0D9F002F03D14FF4007161603FE02B
:1017A0002078012841D001212170FFF79BFE00F035
:1017B0005BF8002834D1212000F0FDF800F0A2F9F8
:1017C00010B1002020702BE0708DFF25B0F5807FD8
:1017D00019D300F0E9F800F0D2F80E9F4A463946D6
:1017E000304600F00BFA00281AD100F025F811D08D
:1017F00089B279B900F030F890B900F019F805D342
:1018000000F0D2F804E000F0C7F8E4E700F0C4F814
:1018100000F0B5F8708D0028E0D100F09CF808B118
:10182000012003E000F02AF800E00220BDE8FE8F6E
:10183000708DB0F5807F7047706A32680178916270
:10184000706A411C7162708D411E7185308D411E20
:101850003185708D00287047CDF800903B460022FE
:101860008021304600F0A9B98146CDF800901923B7
:1018700001224FF40041304600F09FB9316820202A
:10188000C8613168DFF86C024A6802404A60202172
:1018900061700020A070207070472DE9FE4F00F0AD
:1018A00072F855D10C9D002D1CBF0D9F002F03D148
:1018B0004FF40071616046E02078012848D0012192
:1018C0002170FFF70FFEFFF7CFFF00283BD122204A
:1018D00000F071F800F031F910B10020207032E012
:1018E000718DDFF80C02FF25B1F5807F1CD33585A3
:1018F000FFF737FF00F043F80E9FCDF800903B460E
:1019000000220421FFF73AFF00281CD100F028F83C
:1019100098B189B289B9FFF79FFFA0B9FFF788FF97
:1019200007D300F041F806E0728D3285FFF71EFF05
:10193000E0E700F031F800F022F8708D0028DCD1EB
:1019400000F009F808B1012003E0FFF797FF00E07D
:101950000220BDE8FE8F4A463946304600F075B990
:101960003068416A706A0170716A308D4A1C411E8C
:1019700072623185708D421E7285708D704741464E
:10198000304600F0B4B9064606F140048846607857
:10199000202892469B467047728D32850020009029
:1019A0004FF00073D2B270473585002000904FF0A1
:1019B0008073FF22704760704021A170002060603A
:1019C0007562778570635B460E9900915246CDF83B
:1019D00004904146304670472DE9FE4305460020FD
:1019E000019005F140067078202840D12C68A0694C
:1019F00004043CD43078012839D0012434702420E8
:101A00007070C1F309090020706090461C46E868B8
:101A10002968012806BF49F0007040F4005049F4DD
:101A200020504860FFF75EFD07462968886989698C
:101A30004009090900F0010001F00101084319D132
:101A400014F1010FF1D0FFF74DFDC01B844241D3CB
:101A5000002CEAD13EE000F046F830B92968202099
:101A6000C86170700020307002E0012000E00220A8
:101A7000BDE8FE83286881690097C8062346EAD539
:101A800000F031F80028F0D129681020C861202228
:101A90002868C261019941450DD12868416841F427
:101AA000804141600097234600F01DF80028DCD1FA
:101AB00029682020C8610198401C01900198404588
:101AC000A5D3202171700021706840F02000706063
:101AD0003170CAE7202070700020716841F0200149
:101AE00071603070C1E700222021284600F065B8FF
:101AF0000024008000E800FE90F841007047406C30
:101B0000704700002DE9FC4100F031F84FF0807380
:101B1000EAB200F0ECF800F03EF858B9012D02D01E
:101B200000F036F830B900F02CF88021204600F0A3
:101B300044F800B10120BDE8F6812DE9FC4100F038
:101B400016F80023EAB200F0D2F800F024F858B9F1
:101B5000012D02D000F01CF830B900F012F840213D
:101B6000204600F02AF800B10120BDE8F6811746B2
:101B7000DDF82080099EDFF8982100921D4604467A
:101B800070472068FFB28762009643460022704784
:101B90002168380A88623246414620462EE00068B5
:101BA00081698A0744BF002181628169CA0703D421
:101BB000816941F00101816170472DE9F041069F83
:101BC00005460E4690461C46286881693140B14260
:101BD0000CBF0120002040450DD114F1010FF3D0BE
:101BE000FFF780FCC01B844201D3002CECD100F035
:101BF00020F8012000E00020BDE8F08170B5054626
:101C00000C46164628688169880710D400F035F81C
:101C100058B914F1010FF5D0FFF764FC801B844222
:101C200001D3002CEED100F004F8012070BD00209B
:101C300070BD05F140002022416841F02001416063
:101C40004270002181700170704770B505460C46E6
:101C500016462868816988060DD400F00EF840B950
:101C6000FFF740FC801B844201D3002CF1D1FFF729
:101C7000E0FF012070BD002070BD3246214628469D
:101C8000FFE770B505460C4628688169C806164608
:101C900018D5286881698A0616D414F1010FF8D086
:101CA000FFF720FC801B844201D3002CF1D105F109
:101CB0004000416841F0200141602022FFF7C0FF51
:101CC000012070BD002070BD1021C16120202A6854
:101CD000D0612846FFF763FF29680E484A68024032
:101CE00005F140004A60416841F00401E4E770B545
:101CF0000068049C4568084E46EA5456B543C1F353
:101D00000901294341EA024119432143416070BD61
:101D10000020008000E800FEFF63FF03704770476B
:101D200000E038E080B5002000F0A6FA012000F0C5
:101D3000A3FA022000F0A0FA002000F0B0FA00F0B0
:101D400026F8012000F0ABFA00F021F8022000F0A4
:101D5000A6FA00F01CF8002000F0CEFA0028FAD114
:101D600000F034FB4FF4007264496548FEF793FAC3
:101D7000002000F09AFA00F00AF8012000F095FA2D
:101D800000F005F8BDE80240022000F08EBA4FF4E2
:101D9000967000F0A3BB00B5ADF5017D684600F07C
:101DA00010F828B9012000F07AFA684600F042F9EC
:101DB000322000F093FB012000F077FA0DF5017D51
:101DC00000BD2DE9F04707464D48DFF83881C16E68
:101DD0000A685668B8F80090C6F500760024B6B2D6
:101DE0004E4531D00321484600F067F805460421EE
:101DF000484600F062F840EA0520B145B9BF751EBB
:101E0000A5EB0905A6EB090505F2FF15ADB2801D8E
:101E1000A84219D13C600AE0A1B2484600F04DF852
:101E200007EB0A01641C08713868401C38601FFA0F
:101E300084FAAA45F0DBA8F80060384600F020F8E4
:101E4000012808BF002000D00120BDE8F08710B5B0
:101E5000044600F004F82046BDE8104039E010B513
:101E600004680021002203E08318521C1B79C91A60
:101E7000A242F9D3024411710168491C016010BDEE
:101E80000021002203E08318521C1B79C918036843
:101E90009A42F8D35B1E0360C8B2401E8041C00F57
:101EA000704710B502460020002303E0D45C04EB29
:101EB00000205B1C8B42F9D310BD0818B0F5007FE1
:101EC0000E4904DB0844A0F5007000787047085CF8
:101ED000704770B504460C4E25682A46211D3046D1
:101EE00000F010FBF0237355314622680448521C61
:101EF000226092B2BDE87040FEF786B95C00002017
:101F0000EC040020E80500205C020020322242712F
:101F1000B42101710022C2710272802108E0FFE742
:101F200032224271B42101710022C2710272622117
:101F3000817105220260704732224271B421017121
:101F40000022C27102726021F2E732224271B42192
:101F500001710022C27102726321E9E732224271EB
:101F6000B42101710022C27102726421E0E73222C1
:101F70004271B42101710022C27102726521D7E75A
:101F800032224271B42101710022C27102726621B3
:101F9000CEE710B5044600202179322908D16179B5
:101FA000B429A17908D001291CBF022903291FD017
:101FB0002046FFF7C1FF33E0012918BF022917D0DF
:101FC00003291CBF1029122912D0132913D030293C
:101FD00014D0312916D0322910D0332912D0342907
:101FE00018BF352912D0362902D0372903D014E082
:101FF0002268052A04E02168062901E02268092AEE
:1020000007D110BD216809290ED802E022680D2AE7
:102010000AD22046FFF783FF02E02046FFF7B0FF19
:102020002046FFF714FF012010BD0A0AC271017299
:10203000704700002DE9FC420446FFF7AAFF002587
:10204000012800F0DC80A07901286FF002076FF012
:10205000650944D002281ED0032830D0102834D07F
:10206000112839D012283BD0132800F0C98030281D
:102070005AD0312868D0322876D0332800F08680B4
:10208000342836D0352847D0362800F09C803728B1
:1020900000F0A680ADE000F0E4F8002674A0211D59
:1020A0002268835DB218761C8B54052EF8D3314616
:1020B0002046FFF7BAFF2068361826607FE000F060
:1020C000D0F82268211DB42021E0002000F014F98E
:1020D0000028204664D070E0002000F02EF95EE079
:1020E00000F0BFF8002000F02FF92268211D88546D
:1020F0006EE000F09DF800F04FF96946002000F016
:1021000051F900F0AEF822689DF80000211D8854B6
:1021100023685B1C23605EE000F08AF800F03FF962
:102120000028204649D13BE000F07EF800F09BF803
:1021300000F096F800F06DF800F00AF900281FD0C2
:102140002046FFF702FF1BE000F06EF800F067F892
:1021500000F059F800F004F9002820D0484526D1B5
:102160002046FFF704FF2AE000F05EF800F07BF85D
:1021700000F076F800F04DF800F0FDF80028DFD10F
:10218000206810FA86F02060B1B225E000F04CF82B
:1021900000F045F800F037F800F0F0F818B92046E4
:1021A000FFF7B4FE0BE0484508BF204605D0B84213
:1021B000204602D1FFF7D2FE01E0FFF7E1FE204604
:1021C000FFF745FE1CE000F04CF800F07DF860726F
:1021D0002068401C206001212046FFF726FFEEE723
:1021E000607A012802D100F075F8D8E700F075F8A0
:1021F000D5E72046FFF7C4FE2046FFF728FE01255D
:102200002846BDE8F68283B2B2B204F10D01002087
:102210007047B3B2BAB204F1090100207047064614
:10222000022104F10B003CE6022104F1090038E62A
:10223000A17A607AE27A090441EA0061207B41EAEE
:10224000022140EA0106A27B617B207C120442EA63
:102250000162E17B42EA01220243314600207047DD
:102260000646204652E60746022104F10B0018E616
:10227000312E302E3000000018B51E4A85B032F8DD
:1022800030300093012401940223002402EBC002A9
:10229000039302946946506800F040F911E080B55C
:1022A00000F009F8012258681BE080B500F003F83F
:1022B0000022586815E00F4B33F8301003EBC003D1
:1022C0007047002006B010BD4021FFE74FF090405E
:1022D00000F080BA80B5012201E080B5002200F054
:1022E00004F800F07DFA002002BD4FF480714FF039
:1022F000904070470000002010B586B02B492C4A52
:102300002C4C0091019220462B492C4A02910492B8
:102310002B492C4A03910592694600F079FA40B99D
:102320002948A062016811B12046884718B10020F1
:10233000A0624FF0FF3006B010BD1E49886A10B190
:1023400000228A624A6270471A48406AC0B27047E7
:1023500010B51848846A646904B909E0A04710BD43
:1023600010B51448846AA46904B901E0A04710BDFF
:102370004FF0FF3010BD0F4800F0CFBA10B50D4C34
:10238000204600F0D3FA30B9A26A936801212046B2
:1023900098470028F8D110BD064800F009BB054851
:1023A00000F00CBB034800F03CBB0000D932000831
:1023B00059330008BC0500208D330008CF330008D6
:1023C000AF330008E51400082000002038B50024D1
:1023D000022828BF6FF001040FD23C4B3C4AC101D8
:1023E00053F8200050505518284600F008F82846A9
:1023F00000F048FB08B16FF00304204632BD70B511
:1024000004463148334D344E86B0C16841F4003142
:10241000C1600723C16801F400310091009902688E
:1024200042F0010202600C21006800F001000090FF
:10243000022200980191029200210391032204924A
:10244000059301A94FF0904000F068F805F11400E1
:1024500030600221716000201022F06080217061E4
:10246000B061F0613062B26031613046FEF7E6FA89
:1024700008B100F00BFC02200021A666F064316573
:10248000002070658021F0653066B165202070669F
:102490004FF40051B166B462B56406F14800FEF72E
:1024A000CDFA08B100F0F2FB06F14800E0663467AF
:1024B000002200212620FFF7A1F82620FFF7BBF815
:1024C00006B070BD000000004C1002405400002017
:1024D000EC0400206C0002405C04002038B5044687
:1024E000FFF700F814F1010F054602D0044988688F
:1024F0000419FEF7F7FF401BA042FAD331BD00BF1D
:102500003C0000204AB1000011F8013B521E00F8C7
:10251000013B1CBF11F8013BF8E770472DE9F84F6C
:102520004FF00008B14A0F2304460D4635E0B04E87
:10253000B44214BF072606268E4046EA0E064CF823
:102540002760C743AB490E6807EA060C6E68F603BE
:1025500048BF40EA0C0CC1F800C04E6807EA060C00
:102560006E68B60348BF40EA0C0CC1F804C08E6820
:1025700007EA060C6E68F60248BF40EA0C0CC1F888
:1025800008C0CE6807EA060C6F68BE0248BF40EA82
:102590000C0CC1F80CC008F10108296831FA08F0E8
:1025A00000F09A80012000FA08F616EA0100F2D045
:1025B0004FEA48070321B9406FEA010C6968012915
:1025C00018BF02296FEA060E03D0112918BF12297D
:1025D00010D1A168EE680CEA0101BE403143A16050
:1025E00061686E68C6F300160EEA010106FA08F685
:1025F00031436160696801F00306032E08D1E66A81
:10260000C1F3C0010EEA060601FA08F13143E162A6
:10261000E168AE680CEA0101BE403143E1604FEA77
:1026200088016E68022E18BF122E13D14FEAD80609
:1026300004EB860E01F01C09DEF82060D5F810B01E
:1026400003FA09FA26EA0A060BFA09F949EA060624
:10265000CEF82060266895F804E00EF0030E0CEA30
:1026600006060EFA07F7374327606F68FE0092D51B
:102670001768DFF884C147F00107176001F00C010B
:10268000166806F00106009603FA01FE009F4FEA65
:1026900098075CF8276026EA0E0EB4F1904F08BF49
:1026A000002618D0554EB44208BF012613D0544E10
:1026B000B44208BF02260ED0524EB44208BF0326D1
:1026C00009D0514EB44208BF042604D04F4EB44244
:1026D0007FF42DAF05262FE7BDE8F18F2DE9F04FF0
:1026E0008A4600254349444A03463DE0404FBB42E9
:1026F00014BF0727062707FA0EF7BC4212D10C6851
:10270000C04304400C604C6804404C608C6804403A
:102710008C60CC682040C86052F8280020EA09008C
:1027200042F828000324680004FA00F01C680443FF
:102730001C6006F01C06EC0803EB84040BFA06F69A
:10274000276A27EA06062662C0439E6806409E6006
:102750006FEA0C045E6826405E60DE683040D86038
:10276000D86A2040D8626D1C3AFA05F030D00120BA
:1027700000FA05FC1CEA0A00F5D04FEA9508AE0005
:1027800052F8284006F00C0E4FF00F0B0BFA0EF922
:10279000B3F1904F09EA040408BF0027ABD0174FEC
:1027A000BB4208BF0127A6D0154FBB4208BF022776
:1027B000A1D0144FBB4208BF03279CD0124FBB428D
:1027C00008BF042797D0114FBB428FD1052792E74E
:1027D000BDE8F08F0069084018BF0120C0B2704703
:1027E0000AB1816170478162704700006010024049
:1027F000001800480004014008000140000400489F
:1028000000080048000C0048001000480014004870
:1028100038B500244FF0FF35B0B10A6802604B684C
:102820004360CA68C2600B6903618A688260496953
:102830000FF2FD1241610062C2610FF20521816158
:10284000006808B1804700B12C46204632BD1CB557
:102850000446606A58B9694604F1180000F023FA8A
:102860009DF80000242818BF262800D0D0E00120C1
:102870006062002016BD183000F015BA0246A6208E
:10288000926810471CB500F08FF800F020FA18B9D4
:102890009DF800002080002016BD02B56946183062
:1028A00000F01AFA02BD10B504461046B3E02DE957
:1028B000F84F064688461F46914640F2011087426F
:1028C000ACBF4FF4807ABA46F468534642461FFACA
:1028D00089F1A620A047050014D17069804783467E
:1028E000B2680121A6209047044670698047A0EB9A
:1028F0000B00B0F5A07F02D2002CF1D102E00CB1A8
:102900006FF00205A7EB0A07D044D144BFB20FB164
:10291000002DD2D02846BDE8F28F10B504461046EF
:102920000A4601462469AE20A04710BD2DE9F84FA4
:1029300006461F469046894640F201108742ACBFCA
:102940000025FDB2F4682B464A461FFA88F1AE20F6
:10295000A0475FEA000A14D1706980478346B268D5
:102960000121A6209047044670698047A0EB0B0028
:10297000B0F5A07F02D2002CF1D102E00CB16FF0D3
:10298000020A7F1BA944A844BFB217B1BAF1000FD5
:10299000D2D05046BDE8F28F28B99DF8000000B1B2
:1029A00001202070002016BD0C4669461830704783
:1029B000F0B585B000F025F8092504E0F0B585B044
:1029C00000F01FF807258DF808500020C0F1030122
:1029D000C9000DEB000226FA01F31370401C27FA20
:1029E00001F3137104281178137951725373EDDBDD
:1029F00011234FF4106269462046FFF797FF05B098
:102A0000F0BD04460E4617466846142100F07CB916
:102A10004FF0FF3016BD0A4601462469A620A047A4
:102A200010BD1CB5FFF7C0FF00F061F9B4E700006E
:102A300038B504698D044CBFA620AE20A04732BD36
:102A4000F8B506468D04F46802D5A620A047F2BD6D
:102A5000AE20A047050013D1706980470746B268D1
:102A60000121AE209047044670698047C01BB0F535
:102A7000A07F02D2002CF2D102E00CB16FF002056F
:102A80002846F2BD10B50A4901604FF4E1320C212D
:102A90000024426041618460C46004618461C46157
:102AA00004624462FDF770FB00B10124204610BDB2
:102AB0000044004080B500F02BF900F021F800F050
:102AC00061F86448016841F001010160002200687A
:102AD00000F001000090002100981020FEF78EFD0C
:102AE0001020FEF7A8FD002200211120FEF786FD30
:102AF0001120FEF7A0FDFFF713F9FFF712F9FCE72D
:102B000010B5B8B0544C05A821464422FFF7FAFC92
:102B10006846142100F0F8F816A804F14401882250
:102B2000FFF7F0FC02214FF480720591089210210A
:102B3000022209910F9210920A2101221192129100
:102B40000722022113921491159105A8FEF7ACF803
:102B50000F2003210090019100220292039204921F
:102B600004216846FEF7F7FA4220169000212591CD
:102B70002A9116A800F0E2F84FF40070FEF7E4FC8A
:102B800038B010BD10B586B06846142100F0BCF80E
:102B90003248046844F0040404600168304C01F0D9
:102BA000040105910599026842F080020260036801
:102BB00003F0800305930599026842F00102026068
:102BC000036803F0010305930599026842F00202CD
:102BD00002600022006800F0020005904FF4A4613A
:102BE00005984FF09040FFF7FBFD00223021204672
:102BF000FFF7F6FD4FF400501A4900F039F81A4873
:102C0000FFF78CFC4FF4A46100F038F84FF09040CF
:102C1000FFF784FC4020154900F02AF84FF090405F
:102C2000FFF77CFC302100F029F82046FFF776FC06
:102C3000002200211720FEF7E1FC1720FEF7FBFC25
:102C4000002200212820FEF7D9FC2820FEF7F3FC03
:102C500006B010BD48100240203500084C1002405C
:102C60000004004800002110000800480000111076
:102C70000090019100220292694670470091012262
:102C8000002102910391019269467047704710B587
:102C90000446A0686468A04710BD10B50446A0684B
:102CA0002468A04710BD80B50A4601231721FFE71D
:102CB000FFF7EDFF08B14FF0FF3002BD4FF0FF30DE
:102CC00010BD207800F001002070002010BD80B5FC
:102CD0000A4601230021EBE780B50A4601230021C3
:102CE000FFF7DBFFE6E70C4601232246704710B5ED
:102CF000FFF7F9FF42F20401FFF7C9FF08B1FFF740
:102D0000DDBFFFF7DEBF0000002200F0B3BA000015
:102D1000094810B5016841F4807101600320FEF795
:102D200060FC0020FEF7E8FB0024002814BF01240B
:102D300000F0BAFA204610BD002002402DE9FC4701
:102D4000054600242868DFF8FC630105A14621D56B
:102D5000686E70B1B0F5800F17D0B0F5000F03D0DA
:102D6000B0F5400F09D013E0326842F4803232608F
:102D700004E0002100F07FF9044654B9F16F686E59
:102D800021F440010143F16704E000F06EF9F3E73C
:102D90000124A1462868C10421D5A86EA8B1B0F1CC
:102DA000807F17D0B0F1007F03D0B0F1407F04D016
:102DB00013E0316841F4803131607CB9F16FA86E65
:102DC00021F040710143F16709E0002100F053F95F
:102DD0000446F2E700F049F9FAE70124A146286821
:102DE00081032BD5F06CC1004FF000080AD4F06CC1
:102DF00040F08050F0644FF00108F06C00F080501B
:102E000000900098DFF81874386840F480703860DB
:102E1000FEF768FB82463868C10500F1F780FEF7CF
:102E200061FBA0EB0A000328F5D30324A146B8F107
:102E3000000F03D0F06C20F08050F0642878C107B8
:102E400005D5F26FA86B920840EA8202F2672978F2
:102E5000880705D5F16FE86B21F00C010143F1679C
:102E60002978480705D5F16F286C21F0300101431E
:102E7000F1672978080705D5F16F686C21F0C0016A
:102E80000143F1672978C80605D5F16FA86C21F4D4
:102E900040710143F1672978880605D5F16FE86C28
:102EA00021F440610143F1672968880505D5F16F78
:102EB000E86D21F440210143F1672968480505D5F3
:102EC000F16F286E21F440110143F167297848061B
:102ED00005D5F16F286D21F440510143F167297840
:102EE000080605D5F16F686D21F440410143F16793
:102EF0002968C80505D5F16FA86D21F4403101435B
:102F0000F167296888041FD5F16FE86E21F04061F0
:102F10000143F167E86EB0F1006F0DD100F0A0F849
:102F200012E0FEF7DFFA001B41F289318842C0F05F
:102F30008B804FF003097AE7B0F1806F04D100F085
:102F400099F8010018BF81462868010314D5F26F73
:102F5000286F22F040620243F267286FB0F1006FE1
:102F600002D100F07DF807E0B0F1806F04D100F0ED
:102F700081F8010018BF81462868410314D5F26F1B
:102F8000686F22F040620243F267686FB0F1006F31
:102F900002D100F065F807E0B0F1806F04D100F0D5
:102FA00069F8010018BF81462868410418D5F26FFE
:102FB000A86F22F040520243F267A86FB0F1805F21
:102FC00003D1022100F057F807E0B0F1005F07D10C
:102FD000022105F1200000F0B7F8010018BF81467A
:102FE0002868010405D5F26FE86F22F080420243A1
:102FF000F2672968C80306D5F16FD5F8800021F083
:1030000000410143F1674846BDE8F687002C7FF494
:103010000DAFDFF84C72386810F440701CBFD5F863
:10302000841088420BD03868396841F480313960A7
:1030300020F440703A6822F480323A603860C00769
:1030400006D5FEF74FFA0446386881077FF569AF69
:103050003A68D5F8840022F4407202433A60E6E60A
:10306000306840F4801030607047002105F1200086
:1030700000F06AB80121281DFFE72DE9F04100F0BA
:10308000E5F809D0F16801F0030181422BD150B37A
:1030900000F0C8F80CD026E0012804D023D3032880
:1030A0001BD016D31FE0326891071CD500F0C1F881
:1030B000306820F0806000F0C6F88046306801017A
:1030C00033D5FEF70FFAA0EB08000328F6D303254B
:1030D00036E031684A05E9D405E031688A03E5D471
:1030E00031684A03E2D401252AE0012C326909D172
:1030F0003B695D4802405B0842EA01215B1E41EAF0
:10310000435102E07B6900F081F83161306840F0A2
:10311000806000F098F80446306801010CD4FEF796
:10312000E1F9001B0328F7D3D1E7B968002CDCD103
:10313000326900F062F8E8E73169B869014331614A
:1031400058E000000C1002402DE9F04100F07EF83C
:1031500009D0F16801F0030181422BD150B300F096
:1031600061F80CD026E0012804D023D303281BD01B
:1031700016D31FE0326891071CD500F05AF830686A
:1031800020F0805000F05FF880463068810026D53E
:10319000FEF7A8F9A0EB08000328F6D3032529E0E1
:1031A00031684A05E9D405E031688A03E5D431681D
:1031B0004A03E2D401251DE03B6900F027F8716164
:1031C000306840F0805000F03EF8044630688100DE
:1031D0000CD4FEF787F9001B0328F7D3DEE7B968A4
:1031E0007269002CE8D100F008F8E8E771697869A5
:1031F000014371612846BDE8F0811C48FB6802402C
:1032000042EA01211B0941EA434170471848024044
:103210005B0842EA01215B1E41EA436170470000FE
:1032200000700040F0687968C0F30210401C8842CA
:103230007047F268796822F073021043491E40EA31
:103240000110F06070473060FEF74CB90746054E3C
:1032500038680C46F168002511F0030F7047000034
:103260009010024000100240FF809FFFFF80FDFF92
:10327000FF80FFF900B500BF130096469446103951
:1032800028BFA0E80C50FAD85FEA417C28BF0CC0E8
:1032900048BF40F8042BC90728BF20F8022B48BFBD
:1032A00000F8012B00BD00000A4881B0816841F0A0
:1032B00001018160816801F00101009100990268BB
:1032C00042F080520260006800F080500090009848
:1032D00001B07047581002404C4870B54C4D286002
:1032E0000024E86C411C002886B0E96431D12846EE
:1032F000FEF702FC68BB474E306840F002003060C9
:103300001222316801F0020100914FF440710098DF
:103310004148019102920121039103220421059168
:10332000049201A9FFF7FAF8F06840F40010F06089
:10333000F06800F4001000906FF00706009828462F
:1033400000F06EF820B90021284600F093F800B193
:103350003446204606B070BD38B52D4DE86C0024CB
:1033600090B1401EE8640FD12C48026822F400128C
:1033700002604FF440712848FFF7B0F92846FEF785
:10338000D5F908B16FF00704204632BD0A4610B5E2
:1033900001464FF480531E48FEF71EFB002408B17F
:1033A0006FF00204204610BD204604B070BD7FB50A
:1033B00000F020F8FEF7E5F9002438B100F017F826
:1033C00004280CBF6FF065046FF00304ECE77FB5D1
:1033D00000F010F8FEF761FA002438B100F007F8A9
:1033E000042814BF6FF065046FF00304DCE728467F
:1033F000FEF785BB009201930A46054D4FF48056B7
:1034000001460296022328467047000000540040FF
:103410006C0500204C100240000400485810024087
:1034200038B5044611481249206000250120E060AB
:103430006160A56025616561A561E5612562204641
:10344000FEF724F900B101250021204600F012F812
:1034500000B101250221204600F021F800B101252C
:103460004FF4801000F045F8284632BD005400406B
:10347000EC9C901030B500F140025378202B0CD119
:103480001478012C09D000F01DF824F480541C603D
:1034900003681D682943196020E0022030BD30B563
:1034A00000F140025378202B0AD11478012C07D068
:1034B00000F008F824F4706444EA01241C600DE074
:1034C000022030BD012313702424547003681D684A
:1034D0006D086D001D6003681C6870470068016816
:1034E00041F0010101602020507000211170002086
:1034F00030BD094981B00A6842F001020A600968DA
:1035000001F001010091009904490A681043FFE7A6
:10351000086001B0704700006010024004000140E4
:10352000000000000000000000000000000000009B
:10353000000000000000000000000000000000008B
:10354000000000000000000000000000000000007B
:10355000000000000000000000000000000000006B
:10356000000000000000000000000000000000005B
:10357000000000000000000000000000000000004B
:10358000000000000000000000000000000000003B
:10359000000000000000000000000000000000002B
:1035A000000000000000000000000000000000001B
:1035B000000000000000000000000000000000000B
:1035C00000000000000000000000000000000000FB
:1035D00000000000000000000000000000000000EB
:1035E0000000000000000000000000000E4801681C
:1035F00041F47001016000220C49086840F00100AC
:1036000008608A604FF480520B68094803400B60E1
:10361000CA6000200B68074A23F480230B6088618E
:103620004FF000611160704788ED00E0001002402B
:10363000FFFFF6EA08ED00E00000000000000000D7
:1036400001020304060708091000000000040048F6
:1036500020000000000400480004000000000048B2
:1036600006000016000000004F2800087728000818
:103670007D280008852800089B280008A728000846
:10368000AF2800080000000010000000010000004A
:10369000000800480D000016000000000044004033
:1036A00000093D007047FEE7FEE7FEE7FEE77047D2
:1036B0007047704700F01AB80748FDF77BBA074813
:1036C000FDF778BA064800F019B80648FCF72EBE98
:1036D000054800F013B80000A40400205C0400209A
:1036E00018000020EC0400204C00002002490A6869
:1036F000886882180A6070473C00002010B5026894
:103700000A4C012302F01F01C2F3004204EB4212F3
:1037100003FA01F113680B421EBF116040680028D4
:1037200002D0BDE81040004710BD00001404014065
:10373000A0860100400D0300801A060000350C0031
:1037400040420F0080841E0000093D0000127A00F4
:103750000024F40000366E010048E801006CDC0231
:1037600030B450F8041B79B1026843680244083051
:10377000DC0744BFA9F10104E31852F8045B43F8E5
:10378000045B091FF9D1ECE730BC704710B507495D
:1037900079441831064C7C44163404E00A68081D4C
:1037A000114488470146A142F8D110BD2C00000009
:1037B0004C0000004EF68851CEF20001086840F43B
:1037C00070000860BFF34F8FBFF36F8F4FF0007032
:1037D000E1EE100A704700002BD2FFFF90050000B9
:1037E0005C0000200000000079FFFFFF5C0000008B
:1037F00058FEFFFF000000200000000000F00DF860
:10380000002801D0FFF7C2FFAFF300800020AFF324
:103810000080FFF74FF900F002F80120704700F038
:1038200001B800000746384600F002F8FBE7000048
:1038300080B5AFF30080024A11001820ABBEFBE751
:10384000260002000148804701480047ED35000886
:1038500055380008AFF30080FFF7ACFFFFF7CEFF4D
:103860000000000001020304FFF7FEBFFFF7FEBFE8
:10387000FFF7FEBFFFF7FEBFFFF7FEBFFFF7FEBF7C
:10388000FFF7FEBFFFF7FEBFFFF7FEBFFFF7FEBF6C
:10389000FFF7FEBFFFF7FEBFFFF7FEBFFFF7FEBF5C
:1038A000FFF7FEBFFFF7FEBFFFF7FEBFFFF7FEBF4C
:1038B000FFF7FEBFFFF7FEBFFFF7FEBFFFF7FEBF3C
:1038C000FFF7FEBFFFF7FEBFFFF7FEBFFFF7FEBF2C
:1038D000FFF7FEBFFFF7FEBFFFF7FEBFFFF7FEBF1C
:1038E000FFF7FEBFFFF7FEBFFFF7FEBFFFF7FEBF0C
:1038F000FFF7FEBFFFF7FEBFFFF7FEBFFFF7FEBFFC
:10390000FFF7FEBFFFF7FEBFFFF7FEBFFFF7FEBFEB
:10391000FFF7FEBFFFF7FEBFFFF7FEBFFFF7FEBFDB
:10392000FFF7FEBFFFF7FEBFFFF7FEBFFFF7FEBFCB
:10393000FFF7FEBFFFF7FEBFFFF7FEBFFFF7FEBFBB
:10394000FFF7FEBFFFF7FEBFFFF7FEBFFFF7FEBFAB
:10395000FFF7FEBFFFF7FEBFFFF7FEBFFFF7FEBF9B
:10396000FFF7FEBFFFF7FEBFFFF7FEBFFFF7FEBF8B
:10397000FFF7FEBFFFF7FEBFFFF7FEBFFFF7FEBF7B
:10398000FFF7FEBFFFF7FEBFFFF7FEBFFFF7FEBF6B
:08399000FFF7FEBFFFF7FEBFC9
:040000050800385562
:00000001FF
