:020000040800F2
:10000000E004002019220008A1210008A321000813
:10001000A5210008A7210008A92100080000000070
:10002000000000000000000000000000AB210008FC
:10003000AD21000800000000AF210008B121000838
:100040003D220008412200084522000849220008FC
:100050004D220008512200085522000859220008AC
:100060005D2200086122000865220008692200085C
:100070006D2200087122000875220008792200080C
:100080007D2200088122000885220008000000006F
:10009000000000000000000000000000B521000882
:1000A000892200088D22000891220008952200086C
:1000B000992200089D220008A1220008A52200081C
:1000C000A9220008AD220008B1220008B5220008CC
:1000D000B9220008BD220008C1220008000000006B
:1000E000C5220008C9220008CD2200080000000037
:1000F000000000000000000000000000D122000805
:1001000000000000D5220008D9220008DD220008E6
:1001100000000000000000000000000000000000DF
:10012000E1220008E5220008E9220008ED2200088B
:10013000F1220008000000000000000000000000A4
:10014000000000000000000000000000F522000890
:10015000F9220008FD2200080123000805230008F9
:10016000092300080D230008000000000000000023
:10017000000000000000000000000000000000007F
:100180000000000011230008000000000000000033
:1001900015230008F8B5040025D004F13C05697862
:1001A00021B900202870204600F0DEFC242169706F
:1001B000206802685208520002602068016841F419
:1001C000004101602068026822F40042026000F0F1
:1001D0006FFD01466068DFF87023904205D2DFF8BA
:1001E000AC33994205D20120F2BDDFF8A40381426D
:1001F000F9D32068DFF89C334668B1FBF3F3B60906
:1002000043EA861646602668376A6068904206D3DD
:100210004FF4967043434FF47A70B3FBF0F35B1CDA
:10022000BF0943EA87133362491E2368DE696768A2
:10023000974206D27F0000F043F8042913D204212C
:1002400011E0A06820B907EB470700F039F805E096
:100250001920474300F034F841F4804108050CBFF1
:10026000012141F40041DFF8300306400E43DE6116
:1002700022681368E169206A23F0C0030B4303433B
:1002800013602268DFF81403936821690340E06873
:100290000B43034393602168CA68A3696069120A2B
:1002A000034343EA0222CA602068016841F0010169
:1002B000016000206860202169702063A870F2BD91
:1002C000B1FBF7F1491CC1F30B01704738B50400CD
:1002D00001D1012032BD04F13C052420687000F0FA
:1002E0008AFA00F02FFD0020686068702063A87013
:1002F000287032BD308D7262411E3185708D411E75
:10030000718570474146204600F0A6BB2DE9FC47A9
:1003100000F082F800F07AF855D100F06FF800286C
:1003200051D1387801284ED000F062F801D400F0A5
:1003300099F94146D6F800E00C9D0B98DDF828C0ED
:10034000DEF8008028F40068CEF800804FF0210E1F
:1003500087F801E04FF0400887F802804FF0000E68
:10036000C7F804E000F005F900F057FA002825D19D
:1003700008E0716A0A780261706A411C7162308D0E
:10038000FFF7BAFF308D88B100F02DF888B900F082
:100390001DF8308D411E3185708D421E728530688A
:1003A00042695307EED589B20029E2D100F016F870
:1003B00030B17868042801D100F0E1FA012003E0AF
:1003C00000F030F800E00220BDE8F687706A32687D
:1003D00001781161706A411C71627047224629469A
:1003E000304600F063BB22462946304600F034BB5D
:1003F0000121397030680268D107704700941923D1
:100400000122DFF8C413304600F0C2BA06F13C07FF
:1004100004467878202870470646884691469A46D2
:1004200000F092BC3068016841F400710160202046
:1004300078700021B9700020387070472DE9FC47B2
:10044000FFF7EAFFFFF7E2FF72D1FFF7D7FF0028BF
:100450006ED1387801286BD0FFF7CAFF01D400F0C5
:1004600001F94146D6F800E00C9D0B98DDF828C054
:10047000DEF8008028F40068CEF800804FF0220EED
:1004800087F801E04FF0400887F802804FF0000E37
:10049000C7F804E000F06DF800F002FA002840D13F
:1004A000308D18B1012804D100F0A7F800F04EF803
:1004B00017E0022807D1306800F09AF800F070F8D1
:1004C0000020009001E000210091316800F08DF9DA
:1004D00007E000F088F8002823D100F067F8FFF764
:1004E00009FF308D002826D0042817D20128F0D02B
:1004F00000F024F80AD100F071F8002811D100F0C2
:1005000083F8716A0870706A421CE8E700F066F8C8
:10051000002806D100F08DF818B9F0E700F063F874
:1005200008B1012005E000F048F8DAD50069E8E7F5
:100530000220BDE8F68700F015F8FAE70228DFF898
:10054000988200942B467047A18601000090316884
:100550004A6900928B69009300980A6842F400721D
:100560000A607047202078700021B9700020387030
:100570007047C6F824C070855346708D30854A4652
:100580003B48F062019400953046704780841E001D
:1005900000093D0040420F000030FFFF007CFFFFDC
:1005A0003068026842F40062026070473068016996
:1005B000706A0170716A4A1C704730680169706A1C
:1005C0000170716A308D4A1C411E72623185708DD6
:1005D000411E7185306841694A07704700224146D3
:1005E000304600F0D5B922462946304600F07ABAA6
:1005F000016821F48061016070473068016821F46E
:1006000080610160002070473068016841F400712A
:10061000016030680169706A0170716A308D4A1C2E
:10062000411E72623185708D411E7185326810697C
:1006300070473068016821F4806101602B463068A2
:100640000169706A0170716A308D4A1C411E7262C4
:1006500031850022708D411E7185009441463046DF
:1006600000F096B9026842F0010202607047000093
:100670000000FFFF2DE9F84F04468B4691469A464D
:1006800000F062FB04F13C0705467878012620283B
:100690005FD1DFF83481009519230122414600F033
:1006A000B5F8002855D13878012852D03E7000F0B6
:1006B00075F800F06DF82420787000217960DFF87B
:1006C0001C01E06200F079F80095534600F09BF8B9
:1006D000F8B921680BF0FE00086100F035FB054613
:1006E0002168486949697A784008890AA02A00F097
:1006F000010001F001012FD008432DD100F024FBAF
:10070000401B824502D3BAF1000FE9D1A0207870D6
:10071000E6E720680168CA0544BF4FF400707860BE
:10072000032017E000200090192321684A690092F5
:1007300001228969009141460098009500F066F811
:1007400028B92020787000213970002002E00120B3
:1007500000E00220BDE8F28F202078702068416917
:100760008A0700F00DF9DDD422686FF480605061D3
:10077000009519230122414600F048F80028E6D1EF
:10078000761C4E459ED32020787000213970DEE71C
:100790002068016821F400610160704720680268E8
:1007A000D10703D4026842F001020260704730684A
:1007B000016841F48071016070472068016841F46C
:1007C000807101607047000002001000016841F470
:1007D0008061016070470000040001000000FFFF1D
:1007E00090F83D007047006C70474A690092896933
:1007F000009100987047206801684908490001602D
:1008000020467047434600224FF001112046BFE0CA
:100810004B46424651462046E2E02DE9F843044665
:100820002068DDF82080099F8946016841F48071C5
:1008300015461E4601600097FFF7E4FF40B12068AF
:100840000168CA0544BF4FF400702064032025E00E
:10085000206809F0FE0101613B4642464B49FFF723
:10086000DAFFA8B90090216800F07AF8FFF74BFD95
:1008700040B9012E0ED02168280A08613A46FFF7D8
:1008800041FD38B1206C042802D1206800F078F8CE
:10089000012003E02068EDB205610020BDE8F2838D
:1008A0002DE9F84F05462868DDF828800B9F0C4697
:1008B000FFF78CFF16462868016841F4807199465D
:1008C000016000F055F800284FF4007A2CD1296817
:1008D000DFF8B8B004F0FE00086100F038F8002836
:1008E00032D10090296800F03BF800F037F870B979
:1008F000B9F1010F05D02968300A086100F02CF821
:1009000028B92868F6B2066100F026F830B1286CE4
:10091000042819D1286800F033F815E02868FFF79B
:1009200047FF00F025F838B128680168CA0548BFBC
:10093000C5F840A0032008E0286844F00104E4B2B0
:10094000046100F004F800B10120BDE8F28F3B46DD
:1009500042465946284643E03A46414628467BE00F
:100960004A6900923A468969009141460098704769
:100970000097434600224FF00111284608E03068F6
:10098000016841F40071016070470000020001003D
:100990002DE9F041069F05460E4690461C46310261
:1009A0002868090E01290CBF40698069304080B277
:1009B000B1B288420CBF0120002040450DD114F196
:1009C000010FECD000F0C0F9C01B844201D3002C11
:1009D000E5D100F05DF8012000E00020BDE8F081E5
:1009E000F8B505460E4614461F463102090E286822
:1009F00001291BD14169314089B2B2B291421BD069
:100A000041694A051AD5FFF7BBFF6FF480602A6879
:100A10005061002105F13C00296320224270817061
:100A2000426842F004024260017013E08169314083
:100A300089B2B2B29142E3D10020F2BD14F1010FAC
:100A4000D3D000F081F9C01B844201D3002CCCD15B
:100A500000F01EF80120F2BD70B505460C461646A2
:100A600028684169080611D4284600F067F858B98B
:100A700014F1010FF4D000F067F9801B844201D318
:100A8000002CEDD100F004F8012070BD002070BDF5
:100A900000202863202105F13C0000224170827073
:100AA000416841F0200141600270704770B5054611
:100AB0000C46164628684169480711D4284600F0BC
:100AC0003DF858B914F1010FF4D000F03DF9801B46
:100AD000844201D3002CEDD1FFF7DAFF012070BD75
:100AE000002070BD70B505460C4616462868416961
:100AF0004A0617D44169CA060BD400F025F9801BB9
:100B0000844201D3002CF1D100F00EF841F0200115
:100B100004E06FF01001416100F006F841600270DE
:100B2000012070BD002070BD00202863202105F148
:100B30003C000022417082704168704701684A6938
:100B400053050FD56FF480624A61002101633C3088
:100B5000202242708170426842F0040242600170BB
:100B60000120704700207047704730B4002513E023
:100B700050F8042BD30744BFA9F101039A18091FA9
:100B8000042942F8045BFAD213468C0744BF15804F
:100B90009B1CC90748BF1D7050F8041B0029E7D1F2
:100BA00030BC70472DE9F04104000F4678D0464E26
:100BB000306800F00F00B84202D200F073F86FD135
:100BC0002068424D810712D5400703D5A96841F43A
:100BD000E051A9602078010703D5A86840F460407F
:100BE000A860A968A06821F0F0010143A9602178FC
:100BF000C8074DD56068012802D129688A0305E03D
:100C0000022818BF032803D129688A0103D447E0CA
:100C100029688A0744D5A968890840EA8100A86044
:100C200000F092F88046A868616800F00C00B0EB14
:100C3000810F2DD000F088F8A0EB080041F2893137
:100C40008842F0D3032021E02078410705D5AA6827
:100C5000E06822F4E0520243AA602178080706D532
:100C6000A968206921F4604141EAC001A96000F04F
:100C700039F8AA681649174BC2F30312895CC840B9
:100C800018601548006800F065F80020BDE8F081A4
:100C9000306800F00F008742D6D200F003F8D3D0BE
:100CA0000120F3E73770316801F00F01B942704756
:100CB00008480A4A006813680949C3F38222FFE71B
:100CC000895CC84070470000003C02400038024088
:100CD0009C200008540000204400002008380240F6
:100CE0003422000830B5144C606800F00C00042871
:100CF00002D0082802D01DE0104830BD22682068CC
:100D00000023410202F03F0204D525680B49C5F3D8
:100D1000881003E020680A49C0F38810A1FB000195
:100D200000F038F82168C1F30141491C4900B0FBCB
:100D3000F1F030BD024830BD0438024000127A00A4
:100D40000024F4007047000001484068704700BF6D
:100D50003C00002038B50D4D0D4B2A7804464FF469
:100D60007A711868B1FBF2F2B0FBF2F000F0D7F83C
:100D700050B9102C08D2002221464FF0FF3000F06D
:100D8000A7F8AC60002032BD012032BD3C0000203D
:100D900054000020D3BBD9B1B2F5803F5BD2022A08
:100DA0001ED98C46B1FBF2F102FB11C31B0443EACE
:100DB0001043B3FBF2FC02FB1C3380B240EA034356
:100DC000B3FBF2F002FB103240EA0C400023704704
:100DD000022A05D98446B0FBF2F002FB10C270472C
:100DE0004AB105D100F0010249085FEA30007047BE
:100DF00000220023704700F0B3B80B00020000216E
:100E000000207047F7D3002200237047904271EB17
:100E1000030CF2D370B5B1FA81F4B3FA83F52C1B4D
:100E2000A340C4F1200532FA05F63343A2405FF037
:100E30000046E64002E05B085FEA3202841A71EB8A
:100E4000030524BF204629467641F4D302000B0057
:100E50003000002170BD70B5B1FA81F4B2FA82F5AC
:100E6000C4F120046419B4F12006DAD3B2405FF073
:100E70000044F440002502E052085FEA3303C61A3A
:100E800071EB020E24BF3046714664416D41F3D3CD
:100E900002000B002000290070BD000009010200C3
:100EA00006D5294A00F00F00104400F8041C7047D2
:100EB000264B19547047264B19684FF6FF02000263
:100EC000114000F4E060084322490843186070476D
:100ED00038B51F4B1C68C4F30223C3F10704052C6B
:100EE00028BF04241D1D072D34BF0023DB1E012550
:100EF00005FA04F4641E2140994005FA03F35B1ED1
:100F00001A401143BDE83440C8E7012200F01F0138
:100F1000114BFFE78A40400943F82020704710B585
:100F2000401EB0F1807F01D3012010BD0B4C6060EA
:100F30000F214FF0FF30FFF7B1FF0021A160072024
:100F40002060002010BD000018ED00E000E400E08B
:100F50000CED00E00000FA0500E100E010E000E028
:100F6000704700002DE9F843040016D02078DFF820
:100F70000863C10713D5B06800F00C00042807D03F
:100F8000B06800F00C0008283ED1706841023BD5E3
:100F90003068810303D56068002800F0FF80207866
:100FA000B64F810719D5B06810F00C0F07D0B068A4
:100FB00000F00C0008285CD17068410259D43068F8
:100FC000810703D5E068012840F0E8803168206996
:100FD00021F0F80141EAC0013160217808076CD5A1
:100FE0006069A749002862D001220A60FFF7ACFEC1
:100FF0000546706F810700F1D380FFF7A5FE401B07
:101000000228F6D9032034E16068B0F5803F04D1AE
:10101000306840F48030306011E0B0F5A02F3068C7
:1010200006D140F480203060316841F4803105E021
:1010300020F480303060316821F4802131606068B4
:1010400058B1FFF781FE054630688103A7D4FFF74A
:101050007BFE401B6528F7D3D4E7FFF775FE0546F6
:10106000306881039BD5FFF76FFE401B6528F7D3DF
:10107000C8E7E06870B101213960FFF765FE0546F9
:101080003068810700F1B880FFF75EFE401B022840
:10109000F6D9B7E73860FFF757FE0546316888078D
:1010A0009BD5FFF751FE401B0228F7D9AAE708603D
:1010B000FFF74AFE0546706F810771D5FFF744FEC2
:1010C000401B0228F7D99DE70528306F06D140F074
:1010D00004003067306F40F0010005E04008400038
:1010E0003067306F20F00400306741F28938A06823
:1010F00068B1FFF729FE8146306F810700F18980D2
:10110000FFF722FEA0EB09004045F5D37AE7FFF791
:101110001BFE8146306F81077BD5FFF715FEA0EBE4
:1011200009004045F6D36DE7FFF70EFE401B02288D
:1011300040F2828066E7FFF707FE001B022840F2BC
:1011400093805FE700203866FFF7FEFD04463068B5
:10115000810140F18D80FFF7F7FD001B0228F6D9D1
:1011600050E701281AD07068E26900F480019142CA
:1011700002BF00F03F01226A91420FD147F6C071D1
:10118000626A0140914202BF00F44031A26A91427A
:1011900002BF00F07060E16A884269D0012068E017
:1011A000207841073AD5306C0025C1000AD400955B
:1011B0000125316C41F080513164306C00F0805079
:1011C00000900098DFF8BC80D8F80000C1051BD45F
:1011D000D8F8000040F48070C8F80000FFF7B4FDB4
:1011E0008146D8F80000C1050ED4FFF7ADFDA0EB95
:1011F00009000228F5D905E73068216920F0F800D8
:1012000040EAC1003060E8E6A06801287FF45CAFE6
:1012100060E71DB1306C20F080503064A06938B3B5
:10122000B16801F00C0108299BD002288AD1002066
:101230003866FFF789FD0546306881013FF574AFD8
:10124000E269206A616A0243A06A400842EA8112A8
:10125000401E42EA0042E06A42EA006272600121F6
:101260003966FFF771FD0446306881017FF563AF91
:101270000020BDE8F28300BF003802400000474272
:10128000800E4742007000402DE9F84F0D464FF0A8
:1012900000089F490F22012304462E6803FA08F034
:1012A00000EA0609814540F0B1804FEA480C032668
:1012B00006FA0CF66FEA060E6E68012E18BF022EB3
:1012C00003D0112E18BF122E11D1A668EF680EEAB6
:1012D000060607FA0CF73E43A660666826EA000099
:1012E0006E68C6F3001606FA08F630436060E068E0
:1012F000AE680EEA000006FA0CF63043E0604FEAF2
:1013000088006E68022E18BF122E12D14FEAD8063E
:1013100004EB860600F01C07D6F820A002FA07FBB3
:101320002AEA0B0AD5F810B00BFA07F747EA0A07C2
:10133000376226680EEA06072E7906F0030606FADB
:101340000CF63E4326606E68F6005FD500260096D8
:101350004FEA980C0E68DFF8BCE146F480460E6058
:1013600000F00C000E6806F480460096009E5EF8C1
:101370002C7002FA00F627EA0606674FBC4208BF47
:10138000002713D0654FBC4208BF01270ED0644F21
:10139000BC4208BF022709D0624FBC4208BF0327E6
:1013A00004D0614FBC420CBF0427072707FA00F0A6
:1013B00030434EF82C006FEA090C5C4806680CEAD2
:1013C000060E6E68F70348BF49EA0E0EC0F800E04B
:1013D00046680CEA060E6E68B70348BF49EA0E0E6F
:1013E000C0F804E086680CEA060E6E68F70248BF93
:1013F00049EA0E0EC0F808E0C6680CEA060E6E68F0
:10140000B60248BF49EA0E0EC0F80CE008F1010828
:10141000B8F10F0F7FF641AFBDE8F18F2DE9F84F1E
:1014200003460D46002441483A4900950122009E9A
:1014300002FA04F909EA06064E4559D14FEA940C1E
:101440004FEA840A51F82C50334F0AF00C0E4FF03B
:101450000F0B0BFA0EF8BB4208EA050508BF002780
:1014600013D02E4FBB4208BF01270ED02C4FBB42DA
:1014700008BF022709D02B4FBB4208BF032704D067
:10148000294FBB420CBF0427072707FA0EF7BD42BE
:1014900012D10568F6433540056045683540456022
:1014A000856835408560C5682E40C66051F82C506F
:1014B00025EA080541F82C5003256600B540EE43A7
:1014C0001D6835401D600AF01C0AE50803EB850520
:1014D0000BFA0AFA2F6A27EA0A072F62DD683540FD
:1014E000DD605D6825EA09055D609D6835409D60A9
:1014F000641C0F2C9BD9BDE8F18F0069084018BF10
:101500000120C0B2704702B9090481617047000030
:101510004438024008380140000002400004024004
:1015200000080240000C024000100240003C014054
:1015300038B500244FF0FF35B0B10A6802604B683F
:101540004360CA68C2600B6903618A688260496946
:101550000FF2212241610062C2610FF229218161F3
:10156000006808B1804700B12C46204632BD1CB54A
:101570000446606A58B9694604F1180000F030F971
:101580009DF80000242818BF262800D0C2E00120C2
:101590006062002016BD183000F022B90246A62075
:1015A000926810471CB500F086F800F02DF918B9C4
:1015B0009DF800002080002016BD02B56946183055
:1015C00000F027F902BD10B504461046B6E02DE93B
:1015D000F84F064688461F46914640F20110874262
:1015E000ACBF4FF4807ABA46F468534642461FFABD
:1015F00089F1A620A047050014D170698047834671
:10160000B2680121A6209047044670698047A0EB8C
:101610000B00B0F5A07F02D2002CF1D102E00CB19A
:101620006FF00205A7EB0A07D044D144BFB20FB157
:10163000002DD2D02846BDE8F28F2DE9F84F06469E
:101640001F469046894640F201108742ACBF0025F4
:10165000FDB2F4682B464A461FFA88F1AE20A04737
:101660005FEA000A14D1706980478346B26801219D
:10167000A6209047044670698047A0EB0B00B0F5A8
:10168000A07F02D2002CF1D102E00CB16FF0020A6F
:101690007F1BA944A844BFB217B1BAF1000FD2D042
:1016A0005046BDE8F28F28B99DF8000000B1012036
:1016B0002070002016BD0C46694618307047F0B502
:1016C00085B000F020F80925FFE78DF808500020CC
:1016D000C0F10301C9000DEB000226FA01F31370FB
:1016E000401C27FA01F31371042811781379517201
:1016F0005373EDDB11234FF4106269462046FFF768
:101700009CFF05B0F0BD04460E46174668461421FE
:1017100000F0E8B84FF0FF3016BD1CB5FFF7CBFF67
:1017200000F085F8BFE780B500F003F800F08CF812
:1017300002BD8DF800101830694670470A46014610
:101740002469A620A04710BD1CB5FFF7B4FF00F028
:10175000BDF8A8E71CB5FFF7AEFF00F08FF8A2E7D1
:1017600080B5012101E080B50021FFF7E2FF00F024
:101770008BF802BD38B504698D044CBFA620AE209D
:10178000A04732BDF8B506468D04F46802D5A62000
:10179000A047F2BDAE20A047050013D17069804775
:1017A0000746B2680121AE20904704467069804721
:1017B000C01BB0F5A07F02D2002CF2D102E00CB128
:1017C0006FF002052846F2BD10B50446A0686468B3
:1017D000A04710BD10B50446A0682468A04710BDFE
:1017E00080B50A4601231721FFE7FFF7EDFF08B197
:1017F0004FF0FF3002BD4FF0FF3010BD207800F0F9
:1018000001002070002010BD80B50A460123002190
:10181000EBE780B50A4601230021FFF7DBFFE6E78F
:101820002046D7E70D46044601236A46704710B5A7
:1018300000F006F80221FFF7C7FF00B1DBE7DDE7A4
:101840000C4601232246704738B5FFF7EBFF022113
:10185000FFF7BAFF28B900F007F80221FFF7E0FF11
:1018600008B14FF0FF3032BD28789DF8001060F3CA
:1018700000018DF8001001236A46704710B500F092
:101880001FF800B1B7E7B9E77CB50D4642F2020692
:10189000044601236A463146FFF796FF68B9287867
:1018A0009DF8001060F300018DF8001001236A46D6
:1018B00031462046FFF78EFF08B14FF0FF3076BD6E
:1018C0000C460123224642F202017DE710B5FFF7E4
:1018D000B7FF42F20401FFF777FF08B1FFF78BBFB4
:1018E000FFF78CBF002200F001B8000000B500BF78
:1018F000130096469446103928BFA0E80C50FAD839
:101900005FEA417C28BF0CC048BF40F8042BC907E0
:1019100028BF20F8022B48BF00F8012B00BD0000B3
:1019200080B500F0DDF800F007F800F04FF800F0A7
:10193000F1F800F0F0F8FCE780B592B006A830218D
:10194000FFF7D0FF01A81421FFF7CCFF0020009083
:101950005648016841F0805101600021006800F0A4
:10196000805000900098524800910221026822F4B1
:10197000404242F4004202600122006800F440400C
:10198000009000980691099210210A9102220021EC
:101990000C920D9110224FF4A8710E920F91042217
:1019A00007211092119106A8FFF7DCFA022102919B
:1019B0000F204FF480510190002204910392059270
:1019C000022101A8FFF7EEF813B000BD38B586B0CC
:1019D00068461421FFF786FF00243648364D0594EB
:1019E0000168364C41F004010160026802F0040213
:1019F0000592002205990592036843F08003036075
:101A0000016801F08001059105990592036843F092
:101A100001030360016801F0010105910599059238
:101A20004FF4A461036843F002030360006800F010
:101A30000200059005982046FFF765FD0022302141
:101A40002846FFF760FD4FF40050002100900191FF
:101A5000029169461A48FFF717FC0022029203928E
:101A60000C200221009001910722049200F02CF832
:101A70004FF4A46100F02CF800F027F84020114941
:101A8000009001910022029200F01EF8302100F037
:101A90001FF82846FFF7F8FB002200211720FFF768
:101AA00017FA1720FFF731FA07B030BD403802406F
:101AB0000070004030380240000402400000024044
:101AC000000802400000111069462046FFF7DCBB09
:101AD0000091012200210291039101926946704711
:101AE00080B50B48016841F400710160026842F45E
:101AF00080620260016841F4807101600320FFF799
:101B0000DAF90020FFF726F900F0B4F8002002BD52
:101B1000003C024000E050E080B5002000F0C8F832
:101B2000012000F0C5F8022000F0C2F8002000F00B
:101B3000D2F800F03EF8012000F0CDF800F039F8BE
:101B4000022000F0C8F800F034F8002000F0DEF8C1
:101B50000028FAD1002100F01FF9002000F0C1F8A0
:101B600000F027F8012000F0BCF800F022F8022075
:101B700000F0B7F800F01DF86946002000F0EAF820
:101B80009DF8000010B900F0A6F802E0002000F077
:101B9000A8F80DF10101002000F0E5F89DF8010022
:101BA00018B9012000F09DF801BD012000F093F864
:101BB00001BD4FF4967000F05DB9DCB5002000F077
:101BC00035F9012854D1FFF7BFF80646322000F05E
:101BD00051F940F2E934FFF7B7F8871B002000F015
:101BE00025F9012801D1A742F5D3A74229D3002026
:101BF00000F01CF90128FAD0322000F03BF90DF179
:101C00000101002000F0ACF89DF8010018B9002196
:101C1000002200F09CF86946002000F09BF89DF837
:101C2000000030B901218DF8001000F096F8002076
:101C30001CE000208DF80000002100F08EF800204C
:101C40000DE0322000F016F90DF10201002000F045
:101C50008AF89DF8020028B900F088F8012000F009
:101C60003AF8D3BD002000F084F8012000F039F8E4
:101C7000D3BD000082B00020009000220B484168D4
:101C800041F480414160416801F480410091009934
:101C90000092036843F080530360006800F08050B6
:101CA00000900098072002B0FFF705B940380240C5
:101CB00018B5154A85B032F83030009301240194EC
:101CC0000223002402EBC002039302946946506889
:101CD000FFF7DAFA11E080B500F009F80122586840
:101CE0000EE080B500F003F80022586808E0064BCB
:101CF00033F8301003EBC0037047002006B010BD6E
:101D0000FFF701FC002002BD0000002010B586B0E6
:101D100019491A4A1A4C00910192204619491A4A47
:101D20000291049219491A4A039105926946FFF7F4
:101D3000FFFB40B91748A062016811B120468847EF
:101D400018B10020A0624FF0FF3006B010BD0C4863
:101D5000FFF7B5BC0A48FFF7E0BC0948FFF7E3BC52
:101D60000748FFF7F1BC0648FFF7F4BC0448FFF74B
:101D7000F7BC0348FFF7F7BCDD1E0008531F00083F
:101D8000B0000020871F0008C91F0008A91F000815
:101D9000490D000820000020F8B586B00446002553
:101DA00029482A4E0095026842F004020260006849
:101DB0002AA200F004000090009832F81430019339
:101DC00002220392049256F8240021B9029501A937
:101DD000FFF75AFA27E01E4A029201A9FFF754FAC8
:101DE00022A151F82410301D00EBC406304600F04B
:101DF0005CF86FF0030738B91AA050F824200021CE
:101E0000304600F04BF808B13D460CE00FF25000B0
:101E100015A1065751F8241000223046FFF758F854
:101E20003046FFF772F8284607B0F0BD80B500BF16
:101E30000AA2064B32F8101053F82000FFF75DFBA2
:101E4000401E8041C00F02BD3038024048000020D3
:101E500000001110002000F00BB80000002000006E
:101E600028000000551E00080F0000000D000006AD
:101E70007047000038B50446FEF766FF14F1010F05
:101E8000054602D0044801786418FEF75DFF401B48
:101E9000A042FAD331BD00BF3C0000200346002021
:101EA00009B95A6070470120704708B9012070478E
:101EB0000160002070470178012201F01F0102FA41
:101EC00001F1054A13680B4204D0116040680028F4
:101ED00018BF004770470000143C0140494870B5E6
:101EE000494D286086B0686D411C0024696568BB57
:101EF0002846FEF775FC48BB444E0090122231681C
:101F000041F0020131604FF44071306800F002008E
:101F1000009000983E480191029201210391032212
:101F200004210591049201A9FFF7AEF900943169EB
:101F300041F400113161306900F400100090009804
:101F4000284600F069F808B16FF00704204606B093
:101F500070BD38B52C4D686D002490B1401E686589
:101F60000FD12C48026822F4001202604FF4407135
:101F70002748FFF753FA2846FEF7A8F908B16FF093
:101F80000704204632BD0A4610B501464FF480537F
:101F90001D48FEF76FFB002408B16FF002042046D5
:101FA00010BD204604B070BD7FB500F020F8FEF7EC
:101FB000ADF9002438B100F017F804280CBF6FF019
:101FC00065046FF00304ECE77FB500F010F8FEF74E
:101FD00035FA002438B100F007F8042814BF6FF078
:101FE00065046FF00304DCE72846FEF7FCBB0092B3
:101FF00001930A46044D4FF4805601460296102381
:1020000028467047005400405800002030380240F5
:1020100000040240403802400A490B4A10B50160F2
:10202000426000244FF4804202618460C4604461D5
:102030008461C4610462FEF7ADF800B1012420465A
:1020400010BD00BF00540040801A06000E48016811
:1020500041F47001016000220C49086840F0010061
:1020600008608A600B680A480A4A03400B604A60AD
:1020700000200B68084A23F480230B60C8604FF0EF
:10208000006111607047000088ED00E000380240F8
:10209000FFFFF6FE1030002408ED00E00000000015
:1020A00000000000010203040607080910000000F8
:1020B0000004024020000000000402400004000070
:1020C0000000024006000006000000006F15000836
:1020D000971500089D150008A5150008BB150008F8
:1020E000C7150008CF15000801000000000000001F
:1020F00010000000000802400D0000060000000073
:102100000024F40030B450F8041B79B1026843682D
:1021100002440830DC0744BFA9F10104E31852F877
:10212000045B43F8045B091FF9D1ECE730BC70474E
:1021300010B5074979441831064C7C44163404E044
:102140000A68081D114488470146A142F8D110BD14
:102150002C0000004C0000004EF68851CEF2000129
:10216000086840F470000860BFF34F8FBFF36F8FB3
:102170004FF00070E1EE100A70470000EFE9FFFF3A
:1021800084000000580000200000000079FFFFFFDD
:102190005800000018FFFFFF0000002000000000B2
:1021A0007047FEE7FEE7FEE7FEE7704770477047BF
:1021B00000F006B80148FFF77EBE000018000020BE
:1021C0000248416802788A18426070473C0000204B
:1021D00000F00DF8002801D0FFF7AAFFAFF3008050
:1021E0000020AFF30080FFF79BFB00F002F8012016
:1021F000704700F001B800000746384600F002F8CA
:10220000FBE7000080B5AFF30080024A1100182000
:10221000ABBEFBE7260002000148804701480047AB
:102220004D20000829220008AFF30080FFF794FF3B
:10223000FFF7CEFF0000000001020304FFF7FEBF1E
:10224000FFF7FEBFFFF7FEBFFFF7FEBFFFF7FEBFC2
:10225000FFF7FEBFFFF7FEBFFFF7FEBFFFF7FEBFB2
:10226000FFF7FEBFFFF7FEBFFFF7FEBFFFF7FEBFA2
:10227000FFF7FEBFFFF7FEBFFFF7FEBFFFF7FEBF92
:10228000FFF7FEBFFFF7FEBFFFF7FEBFFFF7FEBF82
:10229000FFF7FEBFFFF7FEBFFFF7FEBFFFF7FEBF72
:1022A000FFF7FEBFFFF7FEBFFFF7FEBFFFF7FEBF62
:1022B000FFF7FEBFFFF7FEBFFFF7FEBFFFF7FEBF52
:1022C000FFF7FEBFFFF7FEBFFFF7FEBFFFF7FEBF42
:1022D000FFF7FEBFFFF7FEBFFFF7FEBFFFF7FEBF32
:1022E000FFF7FEBFFFF7FEBFFFF7FEBFFFF7FEBF22
:1022F000FFF7FEBFFFF7FEBFFFF7FEBFFFF7FEBF12
:10230000FFF7FEBFFFF7FEBFFFF7FEBFFFF7FEBF01
:08231000FFF7FEBFFFF7FEBF5F
:0400000508002229A4
:00000001FF
