:020000040800F2
:10000000680A0020994400089D4300089F430008A7
:1000100000000000000000000000000000000000E0
:10002000000000000000000000000000A1430008E4
:100030000000000000000000A3430008A5430008E2
:100040007F110008971100084B1200089F1200084A
:10005000A3170008A7170008EF260008AD43000803
:10006000032D00082332000873430008674400088A
:10007000BD440008BF44000800000000C14400085F
:1000800000000000C3440008000000000000000061
:10009000C544000800000000C7440008C944000827
:1000A000CB440008CD440008CF440008D1440008E8
:1000B000D3440008D5440008D7440008D9440008B8
:1000C000FDB5B2B03A98049102A93B2288540020B1
:1000D0000D9026A8401C31900DE00498329A90476C
:1000E0000490002801D100F02FFF0D98401C0D90C6
:1000F0003398401C339033980178002910D025297B
:10010000EBD100200790089009900A900B900C907A
:10011000002102240120139008201290339D05E055
:100120000D9800F013FF0800139901436D1C287807
:100130002028F8D023280BD02B2804D02D2804D039
:10014000302808D00AE02143F0E708000421ECE75A
:1001500008000821E9E708001021E6E72A280FD166
:10016000349802681068121D349B1A600F900028A2
:1001700004D542420F920800042101436D1C12E095
:1001800000200F90654A09E00F9B934205DA9E001C
:10019000F3185B00181830380F906D1C2878030096
:1001A000303B0A2BF0D328782E2803D00020C04300
:1001B0000E9027E06D1C28782A2808D13498006812
:1001C0000268001D349B18600E926D1C1AE02D28E9
:1001D00002D12D226D1C00E0002200200E900CE0C8
:1001E000002A09D10E9B4D4EB34205DA9E00F3184A
:1001F0005B00181830380E906D1C28780300303BD7
:100200000A2BEDD302A801872E78310041487844AB
:10021000FF30C01C00F07EFF002801D06D1C00E004
:10022000002602A83A214654405C682804D1287868
:1002300068280BD1622005E06C2807D128786C284B
:1002400004D1712002A93A2288546D1C17A8069087
:10025000287869460870681C33906846057828003D
:10026000253833D01C3800D10EE2001F022800D8F8
:100270000AE2133801D100F08BFD093800D103E206
:10028000801E01D100F021FE401E01D100F0CEFD04
:10029000401E022800D8F7E1001F01D100F0C6FD82
:1002A000401F00D149E1401E01D100F071FD401E08
:1002B00000D1EBE0C01E10D0801E01D100F068FD1F
:1002C000C01E01D100F064FD00F00AFE252017A930
:1002D00008701398079000F00EFE349800680468C8
:1002E000001D349908600594002C00D0BAE002A8E3
:1002F0003B21405C002800D1ADE00024E4430648E7
:100300007844143000F010FF201A01D000F01CFED9
:1003100000F0F1FD7C3F0000B03F0000CBCCCC0CE6
:10032000641E01D000F006FE3295079D17AC002D2B
:100330000FD0329E227802A9300000F0BFFE0028C4
:1003400002D4641C6D1EF5D13296002801D000F055
:10035000FBFD3020694608700A9C002C0DDD329DA3
:1003600001236A4602A9280000F0B9FE002801D046
:1003700000F0EAFD641EF3D13295059C089D002D26
:100380000FD0329E227802A9300000F097FE00289C
:1003900002D4641C6D1EF5D13296002801D000F005
:1003A000D3FD302769460F700B9C002C0DDD329D6C
:1003B00001236A4602A9280000F091FE002801D01E
:1003C00000F0C2FD641EF3D13295059808994418D7
:1003D000099D002D0FD0329E227802A9300000F036
:1003E0006DFE002802D4641C6D1EF5D132960028E3
:1003F00001D000F0A9FD684607700C9C002C0DDDB3
:10040000329D01236A4602A9280000F068FE0028F8
:1004100001D000F099FD641EF3D1329502A8382175
:10042000405C400700D466E62020694608700198C9
:10043000002800DC5FE6019C329D01236A4602A988
:10044000280000F04CFE002801D000F07DFD641E65
:10045000F3D132954FE63F487844FF30C01F0590F6
:1004600000F049FD0E9D002D03D5200000F080FE18
:1004700009E02A000021200000F082FE002801D0BF
:10048000001B00E02800089000F035FD349800685B
:100490000268001D349908600020C043002110400C
:1004A00002AA03C217A80590069A3C2302A803C813
:1004B000002904D1002802D10E9C002C13D05B1E11
:1004C00005072D0F3035EEB23A2E00DB2735D55417
:1004D00000090C072043090901D1002803D0059C1D
:1004E000D518AC42EBD33C20C01A0890D118059126
:1004F0000E99884208DA081A0A9002A8018FB94AB0
:100500000A40028700F0F7FC002901D400F0F3FC58
:1005100002A93822895C14220A40102A01D000F076
:10052000EAFC0F99079A891A0A9A891A081A002868
:1005300001DC00F0E0FC00F029FC02A83B21415C5A
:10054000002909D00024E4434B487844FF302B3085
:10055000D8E600BF903D00003A21405C62286AD096
:10056000682819D06A2845D06C2806D071284FD049
:10057000742831D07A2821D06FE03498006801685F
:10058000001D349A106000297AD10024E4433B48CE
:100590007844FF301738B5E6349800680168001DCC
:1005A000349A1060002905D10024E443334878448C
:1005B000CA30A7E60D98088000F09DFC34980068CA
:1005C0000168001D349A1060002959D10024E443C9
:1005D0002A487844A63095E6349800680168001DE2
:1005E000349A106000294BD10024E4432348784416
:1005F0008A3087E6349800680268001D34990860E4
:10060000002A13D10024E4431C4878446E3079E674
:10061000349800680268001D34990860002A05D1EA
:100620000024E4431548784452306BE60D98C11716
:1006300003C200F060FC349800680168001D349A21
:100640001060002905D10024E4430C4878442C3084
:1006500058E60D98087000F04EFC34980068016868
:10066000001D349A106000290AD10024E443034895
:100670007844083046E600BF203C0000343C0000CF
:100680000D98086000F037FC34980268D21D0720EE
:1006900082433498026003CA349B1A6002AA03C2E0
:1006A0002022C80F04D007982D2117AA11540DE05D
:1006B00002A8008F204204D007982B2117AA1154BA
:1006C00004E0C00704D5079817A90A54401C0790F6
:1006D00017A807994318059326AA02A803C814ACC3
:1006E00003C468460078202101436846817061296F
:1006F00009D00E98002801D5062003E003D1672910
:1007000001D113980E9002A803C808004C0064158C
:10071000641C10D109030ED003200890613D1A2DEE
:1007200004D24D497944FF31313111E04B497944CC
:10073000FF312B310CE0002C0FD100030DD1032031
:100740000890613D1A2D15D345497944FF31133185
:100750000322180000F03AFDCDE302A830C8B8A08B
:1007600003C82940002680277F03B94207D2002012
:1007700069400DE03B497944FF311539E8E7080D40
:10078000AD4E361820002900AF4D0D40AB4929432E
:1007900002AB03C36846807861280FD105983021E9
:1007A0000170811C059169460978612901D1782180
:1007B00000E0582141700798801C079002A803C8E8
:1007C0009FA430CC04400D4002D1002C00D17EE12A
:1007D00068468078612800D0BAE00E98002803D5DA
:1007E000212002E0EFFF0000401C1690169F7F1CA6
:1007F00014A803C80022002300F0F5FC02A830C8AA
:1008000002D2802000064540361F019626A90A70B4
:1008100026A8461C002F53DD20002900002280233B
:100820005B0300F0F9FC4BD828004A00530D1A0076
:100830001C32002B18D0002A16DDB14B9A4205DB82
:100840001B05802212061040184310E07E48084025
:10085000110501430D000CE0903A0000903A0000B1
:10086000943A00008C3A00008022120610400024C6
:1008700005002000290000F0E9FC1490FF1F002F64
:1008800009DD00F01DFD02000B002000290000F032
:100890007EFD04000D00F01D0721149A002A0ADDD8
:1008A000491E08D4401E13071B0F03701211F5E7F1
:1008B000401E00220270491EFAD5C61D002FABDC77
:1008C00026A83199711A26AA521C169B0C0099422F
:1008D00000DD1C00002C34D48C4205DA411C095D7B
:1008E000082901DB0F2100E00021230026ADED18CF
:1008F00001E0641E6D1E5B1E2E788E42F9D00F291A
:1009000004D1411CC95C491C401CC154002B04D5B6
:1009100026AA641C0198001D0190611E11D4531871
:10092000684600781D783035EEB23A2E02DB0600BC
:100930003A3EAD191D70491E5B1E0029F2D569466D
:1009400008700E98002800D4C0E0601E0E90BDE034
:1009500014A830C86D006D086B49300048436B49DE
:1009600000F08CFD019007200199401A05DD02007E
:100970002000290000F07CFB0AE04242002064498C
:1009800000F076FB02000B002000290000F0A5FD1E
:100990006A469278662A02D1019A0A3200E006225B
:1009A0000E9B9A18142A00DD142226AB30241C70EA
:1009B0005C1C02E014A803C8169A002A46DD14AB9A
:1009C00003C3169214A803C800F052FC30900646E8
:1009D0000834042530000A2100F064FD0F003000C7
:1009E0000A2100F05FFD06003037601E07703000FE
:1009F0000A2100F057FD0F0030000A2100F052FDDF
:100A00000600A41E303727706D1EE3D108341698F7
:100A1000083816900028CDDD309800F041FC020027
:100A20000B0014A803C800F0B2FC0022394B00F000
:100A3000B5FD14AA03C2C5E702FCFFFF0000E03FBA
:100A4000FFFFFFFFFFFFFF7FFFFF0F803198201A9E
:100A500026A94A1C019902E0401E491E521C137827
:100A6000302BF9D0019169468978662902D1019924
:100A7000491C06E069468978652901D1139900E08F
:100A800000210E9B5C18A04200DA441E002C1DD4ED
:100A9000844204DA105D342801DD392100E0302180
:100AA0002300501EC51801E0641E6D1E5B1E2E78CB
:100AB0008E42F9D0392902D1D15C491CD154002B86
:100AC00004D50200641C0198401C0190019D160091
:100AD000684600786946487000F022FE406A007857
:100AE000694608700E9F20B2002803DC139C054E57
:100AF0007E4410366846807866280DD16D1C25E04E
:100B0000FF070000F437000097750000A086010081
:100B10000000F03F84D7974168468078672847D126
:100B200028B20321C943884248DBB84246DA6D1C2B
:100B300002A8008F1299C0B2084203D120B2B84275
:100B400000DA070028B23F1A00D5002728B2002893
:100B500000DDB7E00898411C08913021059A115436
:100B6000002F05DC02A8008F1299C0B2084206D0FF
:100B70000898411C089169460978059A115428B2D1
:100B800041428F4200DA7D422DB268420B907D19BE
:100B900020B2854200DA2C0024B2099422003100F0
:100BA0000598089BC01800F011FB281B0C90D7E09B
:100BB00068464078612818D170201BE020B2B84206
:100BC00006DA02A9098F129AC9B2114200D10700B0
:100BD0007F1E00D5002768464078672802D165202F
:100BE000694607E04520694604E0684640784128A8
:100BF00001D1502048700898411C08913178059A1D
:100C00001154711C002F05DC02A8008F129AC0B28B
:100C1000104219D00898421C08926A461278059B27
:100C20001A54002F10DD641E20B2874200DA3C0007
:100C300022B20598089BC01800F0C8FA24B20898A0
:100C400000190890381B0B900598089940186946C0
:100C50004978017029B2002903D42B214170861CE8
:100C600003E02D224270861C4D42002412A9280068
:100C70000D0005E00A2100F001FC2970641C6D1CC8
:100C800000B20028F6DC012C08DC68464078202100
:100C90000143652902D130203070761C002C09D127
:100CA00030203070761C07E0641E12A8005D3030E2
:100CB0003070761C002CF7DC059808994018301A23
:100CC00009904DE020B229B288421EDA22B23100EA
:100CD0000598089BC01800F079FA24B2089800190A
:100CE00008902DB2291B0B91002F05DC02A9098F5A
:100CF000129AC9B2114206D069460978059A115470
:100D00000998401C09900C972AE02AB231000598F6
:100D1000089BC01800F05AFA28B2089909180891DF
:100D2000641B002F05DC02AA128F129BD2B21A425A
:100D300005D04A1C08926A461278059B5A5421B283
:100D40008F4200DA3C0022B231180598089BC01887
:100D500000F03CFA24B2089800190890381B0B9058
:100D600002A83821405C14210140102900D0C2E0C3
:100D70000798089940180B994018099940180C9940
:100D800040180F99884200DBB5E0081A0A90B2E0DB
:100D900002AA3A20105C622808D068280ED06A287F
:100DA00014D06C281DD0712810D01AE03498016836
:100DB0000868091D349B1960C0B218E034980168B6
:100DC0000868091D349B196080B210E034980368EC
:100DD000DB1D072083433498036003CB349C2360DE
:100DE00006E0349801680868091D349B19600021E9
:100DF00002AB03C3108F1299C0B208425BD002A8A5
:100E000003C8002901D1002855D068460078202168
:100E1000014378294FD1079817A930220A54401C62
:100E2000421C07926A4612780A5444E002AA3A2009
:100E3000105C622808D068280ED06A2814D06C286C
:100E40001DD0712810D01AE0349801680868091D77
:100E5000349B196040B218E0349801680868091D95
:100E6000349B196000B210E034980368DB1D072042
:100E700083433498036003CB349D2B6006E03498A1
:100E800001680868091D349B1960C11702AB03C3D0
:100E9000002902DA07982D2109E0108F204202D0A4
:100EA00007982B2103E0C00705D50798202117AA32
:100EB0001154401C079017A80799401805906846E0
:100EC000017802A800F044F815E0139807903498D0
:100ED00000680168001D349A106017A801700AE0CC
:100EE000252017A9087013980790684600780028F5
:100EF00001D04D7007940F980799401A0A99401A2B
:100F00000899401A0B99401A0999401A0C99401AED
:100F1000019002A83821405C400701D5FFF705FA8F
:100F20002020694608700198002801DCFFF7FDF9D0
:100F3000019C329D01236A4602A9280000F0CFF8E7
:100F4000002801D1FFF7ECF90020C04335B0F0BD17
:100F5000F2B586B0040025696F2901D1082707E0A2
:100F6000084620210143782901D00A2700E01027F4
:100F70003C2603CC083C04AA03C26A46127E642ABB
:100F800003D06A46127E692A09D1002907DA04A82B
:100F900003C800220023121A8B4104A80CC004A825
:100FA00003C800290DD100280BD1206B002808D1DF
:100FB000082F3BD13820205C000737D53B26302056
:100FC00033E00294009504A830C8761E01962000F4
:100FD00029003A00FB1700F0A9FB3032D0B23A28C2
:100FE00003DB6846007E51381218009882552000B5
:100FF00029003A00FB1700F099FB04000D0001D115
:10100000002C05D00298C068009989198842DCD369
:10101000029C009D082F09D13820205C000705D5CF
:10102000A85D302802D0761E3020A8553C20801BB9
:10103000A061A919E160216B884206DA081A2062D2
:10104000208F1C490140218710E000290ED538214E
:10105000615C14220A40102A08D1616B6269891A06
:10106000226A891A081A002800DD206207B0F0BD44
:10107000F8B50026104F04000D00009214E0C007E0
:1010800007D532003B002000290000F087FA040059
:101090000D000098401000903000390032003B00F5
:1010A00000F07CFA06000F0000980028E7D120002D
:1010B0002900F4BDEFFF00000000244010B503003C
:1010C0000C001100A0689847A060002804D0E06AD6
:1010D000401CE062002010BD0020C04310BDF8B5E8
:1010E0000024002B11D007000E0014001D002178F1
:1010F000B068B847B060002809D0F06A401CF062C0
:101100000020641C6D1EF2D104002000F2BD0020FE
:10111000C043F9E7C9B202788A4203D0401C002AD2
:10112000F9D1002070472E0080B5002801D100BF02
:1011300007A006490B68002B03D022220021984704
:1011400001E000F028FB222002BD00006002002028
:10115000636F6E73747261696E742068616E646C23
:1011600065723A20626164206D6573736167650022
:10117000431C0178401C0942FBD1C01A7047FEE7AE
:10118000C9B2521E05D30378401C8B42F9D1401ED0
:10119000704700207047FEE770B4103A03D378C957
:1011A000103A78C0FBD2530701D318C918C001D533
:1011B00008C908C0D20704D30B880380891C801C8F
:1011C000002A01D50B78037070BC70478B0701D1E2
:1011D0008307E1D0124205D00B78491C0370401CF4
:1011E000521EF9D1704730B4012464054D00EC4221
:1011F0000BD85D00EC4208D80C001C43640004438B
:10120000144304D2994200D1904230BC7047FCD0C4
:101210008B42FAD18242F8E730B4012464054D00D4
:10122000EC420BD85D00EC4208D80C001C43640073
:101230000443144304D28B4200D1824230BC704735
:10124000FCD09942FAD19042F8E7FEE7F4464A18FA
:1012500005D200F00FF801D580174008604700F074
:1012600009F80121C907884200D9080040426047B7
:101270004A1812D2400DC90208430121C907084388
:10128000520D40210901521A521C06D452421F32FB
:1012900001D4D0407047C017704700207047FEE768
:1012A000010042221201D21E004207D002D4521E77
:1012B0000018FCD5C10A40051205891870470000C6
:1012C0000100EED54042F446FFF7EBFF0122D207C2
:1012D000114360478B4200D1824205D984461000F9
:1012E00062468C4619006346DF184C18640D7F0D6A
:1012F0003AD0661C760537D0E61B352E34DCDB028F
:101300002B43DB0A0C0DC9022943C912202E0DDB29
:101310001700203E06D01F00F741F3405F40002633
:10132000012A7741C01871410DD217E01700F7412B
:10133000F2405740F3415A40B340F3405A40002630
:10134000801859410AD3A21C52050FD0C207012FA1
:10135000724117004008CB0718434908641C240554
:101360004208AF4170416141F0BC7047641C2105E7
:101370000020F9E76B4010E06B40ABE7F742F3D198
:10138000E943F1E72442EFD100200021ECE7F0B47B
:101390000125ED070F005F40EED40C00871A9C4139
:1013A00005D2C01BA141D219634169406B40AE0A0E
:1013B000DF184C18F442E1D2640D7F0DE2D0E61B39
:1013C000362ED1DCDB022B43DB0AA4460C0DC9020E
:1013D0002943C90A012E28DC04D1D6075208DF07A9
:1013E0003A435B08EF0A76429041994114D0394262
:1013F0003BD1B61940414941761C394204D1761C93
:10140000001849413942FAD0B9436746B74208D972
:10141000A41B24052143A7E70042EAD13642E8D1C4
:10142000A2E7E40AE10700209EE7202E0BDD203E24
:101430001F00F340F7415F40012A002257417E42DE
:10144000984191410BE01700F741F2405740F341BA
:101450005A40B340F3405A407E42904199410A03BA
:1014600003D2641EB619404149410027641E240579
:101470004208AE4178416141F0BC7047CA0F00D0CC
:10148000494203105A400DD004B500D3404200F049
:1014900009F8009AD20701D34942124200D54042CE
:1014A00004BD0000094214D088420FD30122030C6E
:1014B00001D100041204002300185B418B4200D3C9
:1014C0005B1A5241F8D31900100070470100002048
:1014D000704708B500F064F908BDF0B40E005E4036
:1014E0000125ED072E40B446AE0ADF184C18F44231
:1014F0003BD2F74241D2640D43D07F0D38D0E41B7C
:10150000C902DB0229432B43CF0ADB0A0600B61AC5
:101510009F4104D2641EB6197F41B6185F4168121C
:10152000800D24180018844222DAE80C0021B61934
:101530007F41B61A9F4102D2B6185F413F1C40411D
:101540004941F4D3241C21DD2405B6197F41B61A84
:101550009F4105D33743C60737430026012F70410B
:10156000614166463143F0BC7047FCD1F74205D279
:101570000020C14349054908F3E704D00020C143D6
:10158000F1E77F0DFAD000206146ECE72442FAD162
:10159000401C61410F03F6D30020E2E7F0B50E00D6
:1015A0005E400125ED072E40B446AE0ADF184C1808
:1015B000F44208D2F7420ED2640D01D07F0D12D151
:1015C00000206146F0BD05D1F74201D87F0D05D15D
:1015D0000020C143F0BDFBD1640DF9D00020C14310
:1015E000490549088FE0E419C902DB0229432B436E
:1015F000DB0A460DC00231438E4630B487B295B245
:101600007D432E0CADB2140C7C43A419260C24048B
:1016100025439CB27C43A419190C7943270CC919A2
:10162000A4B20F043C43090C000C97B247432E0CA4
:10163000BE193543ADB2170C4743360CBF19A6B2DD
:10164000BF193E043543240C3E0C36199FB2474364
:10165000BF19BCB23E0C89191F0C47437F183E04CA
:101660003443390C704680B297B247432E0CBE19F2
:101670003543ADB2170C4743360CBF19A6B2BF199C
:101680003E043543240C3E0C36199FB24743BF1924
:10169000BCB23E0C89191F0C47437F183E043443EB
:1016A000390C77463F0C90B278432E0C8019060413
:1016B000ADB22E43050CA0B22D18120C7A4350196E
:1016C000020C80B2240CA4189AB27A4312191404A2
:1016D0002043120C89181B0C7B43C91830BCEF0A3D
:1016E000394203D1B61940414941641E6F12BF0D02
:1016F000E41B0BDBFF19BC4211DA2405002742086A
:10170000AE417841614166463143F0BD641C05D16C
:10171000401C6141CF0201D34908F4E750E75DE77F
:10172000014870470000000058000020124224D0F9
:10173000994228D970B500251B4202D00C00002127
:1017400009E00024012649186441944200D3A41AF8
:101750007641F8D33100012601E0764109D2001824
:1017600064416D41A41A9D41F7D2A4185D41B61998
:10177000F5D3300022002B0070BD1B42D8D108B534
:1017800000F010F808BD01D19042D3D202000B0046
:1017900000210020704780B5012000F005F801BD50
:1017A0007047FEE77047FEE780B500BF00BF024A02
:1017B00011001820ABBEFBE72600020070B5040044
:1017C00001D1012070BD2500403500266878002831
:1017D00003D12E70200000F0C5FB24206870206823
:1017E000016801229143016060683249014020682C
:1017F0000161216830488A6802408A60E1680129F5
:10180000A16801D1C24301E0842212020A43216887
:101810008A60E168022903D18021090122685160B0
:1018200021684A68254B13434B602168CA68104001
:10183000C860206961690143A0690002084321680A
:10184000C860E069216A014320680160206801687E
:1018500001220A4302606E60202068702663AE7029
:10186000002070BD38B5040001D1012032BD250033
:10187000403524206870206801680122914301608E
:10188000200000F070FB0020686068702063A87082
:10189000287032BD20202168C86121684A68084B41
:1018A00013404B6021004031487000208870087060
:1018B000FEBD0000FFFFFFF0FF7FFFFF0080000282
:1018C00000E800FEFEB504000F0016001D004030C9
:1018D0004078202800D0A2E00898002803D068466D
:1018E000808C002805D18020800021004031486094
:1018F00091E04020205C012800D190E001204021AF
:10190000605400F031FB0290009019230122D103B2
:10191000200000F05FFA00287DD12B00320021204A
:101920002100403148704020210040318870002063
:10193000210040314860089860626846808C60856C
:1019400000206063029801900A98009039002000FE
:1019500000F0D5F9002803D00020402160545AE05F
:10196000608DFF283AD9FF20208500200090802339
:101970005B04FF223900200000F0DEFA0A9E029D7F
:101980002A003100200000F051FA002843D1606A9B
:10199000007821688862606A401C60628548618DB9
:1019A00009186185218D08182085618D002928D0AE
:1019B000000426D10095330000228021200000F091
:1019C00009FA002827D1608DFF280FD9FF20208534
:1019D0000020009080235B04FF220EE0628D2285B0
:1019E0000020009080239B04D2B2C3E7628D228541
:1019F0000020009080239B04D2B23900200000F028
:101A00009BFA608D0028BBD131002A00200000F035
:101A100036FA002801D00120FEBDFFF73BFF02206F
:101A2000FEBD0000FEB584B006004030417820299C
:101A300000D0BBE00C99002902D00D9F390003D1E2
:101A4000802189004160A0E04020305C012800D165
:101A5000ACE0350040350120287000F085FA040024
:101A60003068806900040DD500F07EFA001B1A284A
:101A7000F6D3202069680143696068700020A8706F
:101A8000287082E002966846038B828A3046403096
:101A900003902220687040200399887000260398E4
:101AA00046600C98029948620298478502984663FE
:101AB00001940E9800906846018A029800F04DF952
:101AC000002802D0039806705FE080204004019057
:101AD00039480299498DFF293AD9FF21029A118587
:101AE0000090019BFF226846018A029800F024FAC8
:101AF000029D0E9F00943B0000220421280000F06C
:101B000069F9002841D12868406A696A0870686AE2
:101B1000401C68622749288D401828856A8D511815
:101B20006985698D002926D0000424D100943B00EA
:101B300000228021280000F04DF9002825D1688D71
:101B4000FF280DD9FF2028850096019BFF220DE07C
:101B500002994A8D0A85009080239B04D2B2C2E785
:101B60006A8D2A85009680239B04D2B26846018A3A
:101B7000280000F0E1F9688D0028BBD1390022006F
:101B8000280000F07CF9002801D001200FE020207F
:101B90002968C86129684A68084B13404B602900CE
:101BA00040314870002088700E7000E0022007B0BD
:101BB000F0BD0000FFFF00000024008000E800FEF0
:101BC000F8B584B00500002001902800403040782E
:101BD000202800D088E028688069000400D583E0D0
:101BE0004020285C012800D17EE0012040242855B7
:101BF00024202C004034607000202C0040346060B1
:101C00008805800D0290202703921E00E8680128B5
:101C1000029901D1364801E0A020800108432968DB
:101C2000486000F0A1F90400296888698206D00F95
:101C30008969CA06D10F01430DD10020C0438642F5
:101C4000F2D000F091F9001B864201D3002EEBD1B7
:101C5000009528462DE028688069C006009430D59C
:101C6000330000222021280000F0B4F8002839D1E8
:101C700010202968C8612868C761019803998842C3
:101C80000FD1286841687A020A4342600094330009
:101C900000222021280000F09DF8002822D1286889
:101CA000C7610198401C0190019803998842ADD307
:101CB00028004030477041680F43476000210170A1
:101CC00010E0330000222021280000F083F80028D3
:101CD00008D12868C7612800403047700021017092
:101CE000002002E0012000E0022005B0F0BD00006D
:101CF000002000024121405C7047406C7047F8B5FD
:101D0000060015001C00079F2A48009080235B04F2
:101D1000E2B2300000F010F93A000699300000F00D
:101D200085F8002817D1012C09D0280A316888626B
:101D30003A000699300000F079F800280BD1EDB296
:101D4000306885620097069B00228021300000F0F9
:101D500041F8002800D00120F2BDF8B506001500BA
:101D60001C00079F134800900023E2B2300000F0EF
:101D7000E3F83A000699300000F058F8002817D12F
:101D8000012C09D0280A316888623A00069930008F
:101D900000F04CF800280BD1EDB230688562009756
:101DA000069B00224021300000F014F8002800D0EB
:101DB0000120F2BD0020008000688169890701D5FB
:101DC00000218162012182690A4002D182691143A6
:101DD00081617047F8B5002405000F006846027065
:101DE0001E00286880693840B84201D1012000E017
:101DF000002069460978884216D10020C0438642F7
:101E0000EFD000F0B1F80699401A864201D3002EB7
:101E1000E7D128004030202142680A4342604170E7
:101E2000847004700120F2BD0020F2BD70B5040082
:101E30000D0016002068806980071ED4320029003A
:101E4000200000F040F8002801D0012070BD0020E3
:101E5000C0438542EED000F087F8801B854201D355
:101E6000002DE7D120004030202142680A43426023
:101E70004170002181700170E7E7002070BDF8B566
:101E8000202504000E00170020688069284018D122
:101E90003A003100200000F016F800280FD100F0C1
:101EA00063F8C01B864201D3002EEDD120004030E4
:101EB0004168294341604570002181700170012013
:101EC000F2BD0020F2BDF8B5102403689B692340E1
:101ED00030D005000F00009220262868816931402B
:101EE00011D10020C0438742F7D000F03DF800999F
:101EF000401A874201D3002FEFD1280040304168BB
:101F00003143416010E0C4612868C6612800FFF7D2
:101F100053FF28684168114A0A4042602800403057
:101F2000416804220A4342604670002181700170BA
:101F30000120F2BD0020F2BDF0B5059C00684568A7
:101F4000660D074F3743BD438905890D29431204A8
:101F50000A4313431C434460F0BD000000E800FE48
:101F6000FF63FF037047704701484068704700BF38
:101F70003C000020FEB5060058D0B74CE0680C21AC
:101F800001400091E06880214902084001903078CA
:101F9000C0070ED54F000098082804D00C2869D13E
:101FA0000198884266D12068074002D070680028F6
:101FB0003CD0307880072BD5F068BB4F0921C9434E
:101FC000009A042A05D00C2A01D1019A002A00D0D7
:101FD0008BE02268520701D5002827D0626817409D
:101FE000326912023A43626022681140084320605D
:101FF00000F0DAFAAD49E2681206120F895CC840B7
:10200000BE490860BE48006800F036FB010030D1D0
:102010003078C00600D4B4E0BA4F0098002800D051
:1020200090E02068800503D5F069002800D1DAE14E
:1020300060680740706A3843606060680002000AA8
:10204000316A0906014361600120716A490B491C2C
:102050008840C0039549E2681206120F895CC840A7
:10206000A6490860A648006800F006FB010000D100
:1020700087E0FEBD7068884201D1206809E0A02198
:10208000C9028842206806D1790001432160206896
:10209000790801430AE0B3490140216020687908CA
:1020A0000840029002982068AF49014021607068A2
:1020B00000280DD0FFF758FF05002068384000D0F9
:1020C00077E7FFF751FF401B6528F6D30320FEBDDD
:1020D000FFF74AFF05002068384000D169E7FFF7A5
:1020E00043FF401B6528F6D3F0E704220192002845
:1020F00017D02268114008432060FFF735FF050024
:1021000020680199014005D1FFF72EFF401B0228EE
:10211000F6D9DBE760680740306900023843606049
:1021200076E72068012188432060FFF71DFF050046
:10213000206801990140F3D0FFF716FF401B0228E9
:10214000F6D9C3E7F0690028206831D0A10D01431A
:102150002160FFF709FF05002068800505D4FFF71F
:1021600003FF401B0228F7D9B0E760680740706A98
:102170003843606060680002000A316A0906014362
:1021800061603078000731D5022770690028206D22
:102190001DD0012101432165FFF7E6FE0500206DFA
:1021A000384023D1FFF7E0FE401B0228F7D98DE726
:1021B0008F4901402160FFF7D7FE050020688005A8
:1021C000DFD5FFF7D1FE401B0228F7D97EE70121BA
:1021D00088432065FFF7C8FE0500206D384005D014
:1021E000FFF7C2FE401B0228F7D96FE7307840079F
:1021F00065D50020019080204005A16B014004D1ED
:10220000A16B0843A063012001907A4F3868C00594
:102210000FD43868A10D01433960FFF7A5FE050012
:102220003868C00505D4FFF79FFE401B6528F7D32B
:102230004CE7B268A10D8A420AD06F48002A0DD03F
:10224000A023DB009A4209D1206D8A000243226557
:10225000206D0143216508E000100240216D644AB1
:102260000A402265216D08402065670DB06800288E
:102270000CD0FFF779FE0500206D384018D1FFF72C
:1022800073FE401B5D498842F6D31FE7FFF76CFEE3
:102290000500206D38400BD0FFF766FE401B574904
:1022A0008842F6D312E700BFFFE0FFFF204400089A
:1022B0000198002803D0A06B51490140A1633078F8
:1022C000800635D54F480227B16900291CD001216D
:1022D000A2680A43A260626B114361630168420C09
:1022E0000A430260FFF740FE0500A06838401FD196
:1022F000FFF73AFE401B0228F7D9E7E6540000201A
:1023000044000020FF1FFFFFA16801229143A1604C
:102310000168A24A0A400260FFF726FE0500A06895
:10232000384005D0FFF720FE401B0228F7D9CDE644
:10233000B06A002859D000990C293FD08025AD04FF
:102340009749022820682BD101402160FFF70CFE3D
:1023500007002068284009D0FFF706FEC01B0228AE
:10236000F7D9B3E6FFFFFEFFFFFFFBFFE0688D49F3
:102370000140F06A0843316B0143706B0843E06031
:102380002068690801432160FFF7EEFD0600206820
:1023900028402AD1FFF7E8FD801B0228F7D995E6EF
:1023A00001402160FFF7E0FD0600206828401CD0B6
:1023B000FFF7DAFD801B0228F7D987E6012812D043
:1023C000E068802149020140F26A91420BD1F0217C
:1023D00089030140326B914205D1C02109040140BB
:1023E000706B814201D00120FEBD0020FEBD0000C7
:1023F000FFFEFFFF00700040FFFBFFFF891300009E
:10240000FFFFFFEF20000140F1B582B000285CD053
:102410000091864F86480068C107C90F0098814225
:1024200017D2834C20680121884300990143216021
:10243000FFF79AFD009D06002068C107C90FA94259
:1024400006D0FFF791FD801BB842F5D30320FEBDF7
:1024500000957D4C02980078800706D5E068F02151
:102460008843029989680143E1603E4602980078FA
:10247000C0074DD502984068022819D12168890308
:1024800023D5E168032291430843E060FFF76CFD28
:102490000700029840680C25022818D1E0682840FF
:1024A000082835D0FFF760FDC01BB042F6D3CDE75A
:1024B000032802D12168890103E00128216802D1A3
:1024C0004907DED401E08905DBD40120FEBD0328E5
:1024D00009D1E06828400C281AD0FFF745FDC01B41
:1024E000B042F6D3B2E7012809D1E06828400428B9
:1024F0000ED0FFF739FDC01BB042F6D3A6E7E06867
:10250000284005D0FFF730FDC01BB0429ED2F6E751
:10251000009847490968CA07D20F904215D2444D26
:10252000286801218843009901432960FFF71CFDB9
:1025300007002868C107C90F0098814205D0FFF73E
:1025400013FDC01BB042F4D380E702980078400727
:1025500006D5E0683D4901400298C0680843E06044
:1025600002980078000707D5E068394901400298D1
:102570000069C0000843E06000F016F83549E268E1
:102580001206120F895CC84033490860334800685E
:1025900000F072F8010000D10020FEBDFFDFFFFF58
:1025A000FFFFFFFEFFFF02FF50B5274AD16810234F
:1025B0000C200840042804D0082809D00C2809D091
:1025C00023E01068034001D0264850BD264850BD86
:1025D000264850BD26488C02240F005D09028C0F4E
:1025E000641C0021D668F60301D5204A03E0126876
:1025F000134002D01B4A002300E01B4A00F05EF8A3
:1026000022000023FFF792F850BD5068012100041A
:10261000400F401C8140C80350BD0F480068154959
:102620000F4A126852050BE00000000089130000F9
:1026300000200240084800680E49094A12689204C6
:10264000520F895CC840704700100240FFF8FFFF3E
:10265000FFC7FFFF20440008540000204400002072
:102660000C10024000093D000024F40000127A0022
:1026700030440008B444000838B505000D4CFA2079
:1026800080002178FEF70EFF01000B480068FEF77E
:1026900009FF00F057F800280AD1042D08D20022C3
:1026A00029000020C04300F040F8A560002032BDA2
:1026B000012032BD3C0000205400002030B44343D0
:1026C00051435D18010C0C00130C5C432D1980B2B2
:1026D000434392B251430024C918644124040B04BB
:1026E000090C09195043C018694130BC7047FEE716
:1026F00010B5C20018231340FF249C40E243890711
:10270000090E9940030004D418489B089B00C01888
:1027100006E0174B0007000F0838800880001818E3
:1027200003681A401143016010BD80B5FFF7E0FF58
:1027300001BD010005D40121C006C00E81400D4835
:102740000160704710B5401E80214904884201D3C2
:10275000012010BD084C606003210020C043FFF73A
:10276000C7FF0020A0600721216010BD00E400E049
:102770001CED00E000E100E010E000E038B50400EE
:1027800014D0250074356868002803D12870200013
:1027900000F0B6FA242068602068016801229143A5
:1027A0000160200000F09DF8012801D1012032BD18
:1027B000606A002802D0200000F09CF9206841687F
:1027C000084A0A404260206881682A229143816059
:1027D000FFE72068016801220A430260200000F040
:1027E000EDF932BDFFB7FFFFF1B584B01C007430C6
:1027F00001904068202871D10D000FD068460280FA
:10280000002A0BD080277F0104988068B84207D146
:1028100004980069002803D1E80701D501205EE093
:1028200004987421405C012858D001200199087057
:1028300000260198C660212001994860FFF794FBAB
:1028400004995031029169460988029A11806946BB
:102850000988029A518004998968B94203D1049980
:102860000969002901D029000025019A1670049EEB
:10287000029407000C0010E021788162641C07E0DC
:102880003068002CF8D12988C905C90D8162AD1CBA
:10289000300050304188491E41803000503040881F
:1028A00000280AD0029800903B00002280213000CE
:1028B00000F0B8F90028E3D009E030003B000299AD
:1028C00000910022402100F0ADF9002801D0032042
:1028D00005E0202001994860002000E0022005B0BA
:1028E000F0BDF8B5050000242B6818687A4901404E
:1028F000A86808432969014368690843E9690143F5
:102900001960586875490140E86808435860A8692B
:1029100073498B4202D00100286A08439968714AC2
:102920000A401043986070488108802212026F4E5E
:10293000B34236D16E4EF66CB607B60F04D0022EF7
:102940006DD06ED3032E66E001260096684B1026EC
:10295000EF699742009F00D08EE0002F0CD0012F2E
:1029600000D17CE0022F00D17CE0042F00D17EE07A
:10297000082F00D17EE0A9E0FFF74FFE00282ED0FF
:10298000696840004A088018FEF78CFD80B201009B
:102990001039A24A9142EED202400007400F104384
:1029A00084E09F4EB34224D1514EF66C0C27374041
:1029B00033D0042F35D0082F31D00C2F33D0102630
:1029C000474FBB42C1D1002E06D0022E2DD0042E7F
:1029D00031D0082E32D079E0FFF71FFE002876D0E4
:1029E0006A6851008918884270D31103814227D246
:1029F0006CE03B4EB342E2D13D4EF76CC02636014F
:102A00003E400AD05709BE420BD01709BE4206D03D
:102A1000C0273F01BE4206D0D1E70026D0E70226FC
:102A2000CEE70426CCE70826CAE7314A1268D20668
:102A3000D6D50800D4E7FFF7B7FDCFE71000CFE702
:102A4000070E060250080021801979410023FEF785
:102A50006DFE9E4941189E4A914237D226E0FFF70B
:102A6000E9FD8BE71A6816408AD0080088E7FFF76F
:102A70009BFD83E7100083E7002F08D0012F18D0BB
:102A8000022F19D0042F1CD0082F1DD01EE0FFF7F5
:102A9000C4FD00281BD069684A088018FEF702FDB3
:102AA00080B2010010395D4A91420FD22968C86096
:102AB0000DE0FFF7BFFDECE71A681640EBD0080009
:102AC000E9E7FFF771FDE4E71000E4E701240020E7
:102AD0006866A8662000F2BDF369FFEFFFCFFFFF35
:102AE00000480040FFF4FFFF0024F40000380140DC
:102AF000001002402421415CC90706D501684A68DC
:102B0000744B1340826A1A434A602421415C89074E
:102B100006D501684A68704B1340C26A1A434A607E
:102B20002421415C490706D501684A686B4B134074
:102B3000026B1A434A602421415C090706D50168EB
:102B40004A68674B1340426B1A434A602421415C38
:102B5000C90606D501688A68624B1340826B1A4326
:102B60008A602421415C890606D501688A685E4B2B
:102B70001340C26B1A438A602421415C490611D577
:102B800001684A68594B1340026C1A434A60026C50
:102B900080235B039A4205D14A68554B1340426C2F
:102BA0001A434A602421415C090606D501684A6837
:102BB000504B1340806C184348607047F8B50400D0
:102BC00000257430C560FFF7CFF907004A4E206832
:102BD0000068000709D500963B0000228021890388
:102BE000200000F01FF800280DD120680068400781
:102BF0000BD500963B0000228021C903200000F085
:102C000011F8002801D00320F2BD210074312020EA
:102C10004860886025660D700020F2BDF0FF00005E
:102C200000440040FEB5089F8024240100250600D2
:102C300001916846027002933068C06901990140B1
:102C40000198814201D1012000E000206946097805
:102C5000884238D10020C0438742EDD0FFF784F985
:102C60000299401A874201D3002F11D130680168C0
:102C7000224A0A40026030688168012291438160E3
:102C80003000743020214160816005700320FEBD5A
:102C9000306800684007CFD53068C0692040CBD08D
:102CA0003068046230680168144A0A400260306883
:102CB000816801229143816030007430202141609D
:102CC0008160C160E1E70020FEBD000000FDFFFF64
:102CD00000FD0F00FFFFFDFFFFFFFEFFFFFFFBFFFB
:102CE000FF7FFFFFFFEFFFFFFFDFFFFFFFFFEFFFB4
:102CF000FFFF9FFFFFFFF7FFFFFFFF015FFEFFFFEB
:102D00007047FEE738B500240025ED43002816D0B3
:102D10000A6802604A684260CA68C2600A69026161
:102D20008A688260496941610649C16106498161D9
:102D300000620068002802D08047002800D02C00E4
:102D4000200032BD37300008493000081CB50400AF
:102D5000606A00280FD169462000183000F0A4F9FD
:102D600068460078242806D068460078262802D0D5
:102D70000020C04316BD01206062002016BD80B552
:102D8000183000F091F902BD80B50200A6209268CB
:102D9000904702BD1CB50C006946183000F0D8F908
:102DA000002803D1684600782080002016BD02B5B7
:102DB0006946183000F0D1F902BD10B504000800D2
:102DC00011000200A6202469A04710BDFEB5040032
:102DD00002910193684642800198FF21891C884234
:102DE00000DB481E6946088068460388029A4188CD
:102DF000A620E568A847070015D16069804705004F
:102E00000121A620A2689047060060698047401B08
:102E1000A0214900884202D2002EF1D103E0002E09
:102E200001D00227FF4302986946098840180290A2
:102E30006846694649886A4612888918418001981F
:102E400069460988401A80B20028019001D0002FFD
:102E5000C2D03800FEBDF8B584B0040002936846C5
:102E6000028003910298FF21891C884201DB002027
:102E700000E0C0B20190019883B2039A68460188CD
:102E8000AE20E568A847070015D1606980470500B6
:102E90000121A620A2689047060060698047401B78
:102EA000A0214900884202D2002EF1D103E0002E79
:102EB00001D00227FF430398019940180390684608
:102EC00069460988019A8918018002980199401A77
:102ED00080B20028029001D0002FC3D0380005B086
:102EE000F0BD002806D168460078002800D00120F7
:102EF0002070002016BDF0B585B004000E0017004C
:102F000011220021684600F05BF96A460920FFE7BC
:102F1000107200230320C01AC000D1183500C5402C
:102F20000D703D00C5400D710878487208794873EE
:102F30005B1C042BEEDB200011239022120169465A
:102F4000FFF789FF05B0F0BD1CB50C0069461830CD
:102F500000F0B6F8C5E780B56A46117069461830CA
:102F600000F0BBF802BD38B51500FF24A41CA24236
:102F700002DB0020C04332BD04000A000B482918C0
:102F800089B2A6202469A04732BD10B50400130001
:102F9000FF22921C934205DA0A000449A620E46845
:102FA000A04710BD0020C04310BD00000820000055
:102FB0001CB50C006946183000F0F1F891E71CB51B
:102FC0000C006946183000F0BAF8002821D1012021
:102FD0006946097801220A40227069460978490841
:102FE00001220A40627069460978890801220A4074
:102FF000A27069460978090901220A40E27069460F
:103000000978490908402071684600788009607194
:10301000002016BD80B5012101E080B500216A467F
:1030200011706946183000F083F802BD80B5183081
:1030300000F073F802BD10B50469880401D5A6201C
:1030400000E0AE20A04710BDF8B50500EC6888048C
:1030500002D5A620A047F2BDAE20A047040015D19E
:103060006869804707000121AE20AA6890470600E2
:1030700068698047C01BA0214900884202D2002E07
:10308000F1D103E0002E01D00224E4432000F2BD80
:1030900010B50400A0686468A04710BD10B5040016
:1030A000A0682468A04710BD80B50A00012317213D
:1030B000FFE7FFF7EDFF002801D00020C04302BD6D
:1030C00010B50C00012322000D21FFF7E1FF0028BD
:1030D00002D00020C04310BD24E07CB506000C00E7
:1030E0000025ED4301236A460D21FFF7D1FF00289B
:1030F00011D168460078FE2101402078C207D20F26
:103100000A436846027001236A460D213000FFF72A
:10311000C5FF002800D0280076BD80B50A00012335
:103120000949C6E72078C107C90F2170002010BDEA
:10313000F8B507000C000025ED43044E14E080B5FF
:103140000A0001230149B4E707200000062000001F
:1031500080B50A0001230021ABE780B50A000123F6
:103160000021FFF79BFFA6E701236A463100FFF726
:103170008FFF002811D168460078FE210140207899
:10318000C207D20F0A436846027001236A46310023
:103190003800FFF783FF002800D02800F2BD10B5EB
:1031A0000C00012322000549FFF772FF002802D01E
:1031B0000020C04310BDFFF7B5FF00000420000051
:1031C00010B50400080011000200200000F002F811
:1031D000200010BD1206130A1A43130C1A4300BF35
:1031E000094205D0830705D00270401C491EF9D161
:1031F000704700001300103906D330B414001500D6
:1032000010393CC0FCD230BC490700D30CC000D5FB
:1032100004C0890002D30280801C002900D50270FE
:103220007047FEE72D2D2D2D2D2D2D2D2D2D2D2DE6
:103230002D2D2D2D2D2D2D2D2D2D2D2D2D2D2D2DBE
:103240002D2D2D2D2D2D2D2D2D2D2D2D0000000062
:103250000A0D2A2A2A2A2A57656C636F6D65207425
:103260006F20782D637562652D6E666334206578F6
:10327000616D706C652A2A2A2A2A00000A0D2D2DFC
:103280002D2D2D2D2D2D2D2D2D2D2D2D2D2D2D2D6E
:103290002D2D2D2D2D2D2D2D2D2D2D2D2D2D2D2D5E
:1032A0002D2D2D2D2D2D00000A0D0A0D205468699D
:1032B000732070726F6772616D2077696C6C207318
:1032C000686F7720796F7520626173696320657814
:1032D000616D706C65206F6E20686F7720746F2051
:1032E00075736520746865206D61696C626F782004
:1032F0006F6E204932432073696465000A0D0A0D20
:103300004D61696C626F7820617661696C61626C95
:10331000652C207772697465206461746120746F14
:10332000206974000A0D0A0D4C656E677468206F81
:1033300066206461746120777269746520696E200B
:103340004D424354524C2072656769737465722014
:103350003A202564000000000A0D4E656564207463
:103360006F20616464203120746F20746865206C64
:10337000656E67746820617320697420737461726C
:10338000742061742030203A202564000A0D0A0D53
:103390004374726C204D4220737461747573207293
:1033A000656769737465722076616C75653A0000B3
:1033B0000A0D486F73742869326329204D6973734D
:1033C0006564204D65737361676520203D20256429
:1033D000000000000A0D524628726561646572297A
:1033E000204D6973736564204D6573736167652053
:1033F0003D202564000000000A0D486F73742869A1
:1034000032632920507574204D65737361676520A0
:10341000202020203D202564000000000A0D524697
:10342000287265616465722920507574204D65733A
:1034300073616765202020203D2025640000000086
:103440000A0D4D61696C626F7820456E61626C6532
:103450002020202020202020202020203D20256406
:10346000000000000A0D0A0D436C656172206D6159
:10347000696C626F782062792064652F7265616380
:10348000746976617465206974206F722062792096
:1034900072656164696E6720697420776974682059
:1034A00061207265616465722C20726561642064BC
:1034B0006174613A0A0D00000A0D0A0D2D2D2D2DA3
:1034C0002D2D2D2D2D2D2D2D2D2D2D2D2D2D2D2D2C
:1034D0002D2D2D2D2D2D2D2D2D2D2D2D2D2D2D2D1C
:1034E0002D2D2D2D000000000A0D2A2A2A2A2A201F
:1034F00020202020202020656E64206F66206578C3
:10350000616D706C6520202020202020202A2A2A2E
:103510002A2A00000A0D2D2D2D2D2D2D2D2D2D2D7E
:103520002D2D2D2D2D2D2D2D2D2D2D2D2D2D2D2DCB
:103530002D2D2D2D2D2D2D2D2D2D2D2D2D2D0A0DFE
:103540000A0D000080B500F003F801BD70470000CF
:10355000F8B5002000F03AF9012000F037F9022018
:1035600000F034F9002000F045F9962464002000B2
:1035700000F054F9012000F03DF9200000F04EF970
:10358000022000F037F9200000F048F9002000F098
:1035900059F97C4D280000F0B1F928002C3000F0DA
:1035A000ADF92800583000F0A9F9002000F0BAF970
:1035B0000028FAD100F024F9200000F02FF90120B2
:1035C00000F01EF9200000F029F9022000F018F99F
:1035D000200000F023F92800843000F08FF96A4CB5
:1035E00021001131002000F0D1F90026607C002874
:1035F0001AD12100123100F0E5F9A07C002806D193
:103600002660666003CC083C0A0000F0B0F9012196
:10361000002000F0C3F97B202060606003CC083CF0
:103620000A00002000F0A3F9002000F0D5F900BF47
:1036300056A000F063F9002021001431C2B2885472
:10364000401CC1B21029F7DB207421000831002092
:1036500000F0BDF9607A00280CD1A07A002809D1C9
:103660002800D83000F04AF910222100143100203F
:1036700000F0A3F921003431002000F0B7F9A18E49
:1036800080204000281800F039F9A18E491CA1863D
:1036900089B29A204000281800F030F92100083142
:1036A000002000F094F9B4204000281800F026F91A
:1036B000E17AC6204000281800F020F9217BD820AC
:1036C0004000281800F01AF9617AEA204000281812
:1036D00000F014F9A17AFC204000281800F00EF93F
:1036E000217A87208000281800F008F9A38E002294
:1036F00021002431002000F05BF900BF2AA000F077
:10370000FDF800202FA7207421002431C0B2095CED
:10371000380000F0F3F8207C401CC1B21029F2DB25
:103720002074002000F05DF9002000F055F9A38E10
:10373000002221002431002000F03AF9902080007E
:10374000281800F0DBF8267420002430F6B2815DE2
:10375000380000F0D3F8267C761CF0B21028F2DB9B
:103760002674A5208000281800F0C8F8B120800039
:10377000281800F0C3F8BC208000281800F0BEF81C
:10378000F1BD000024320008FC0100200A0D0A0DE2
:103790004D61696C626F782069732061637469762A
:1037A00061746564000000000A0D0A0D44617461D3
:1037B000207265616420696E204D61696C626F786A
:1037C0003A0A0D00307825303258200000B585B017
:1037D0001149C000081801880091012101910221BE
:1037E0000391002102916946406800F007F900202A
:1037F00005B000BD80B50849C0000818012204E0EA
:1038000080B50549C000081800220188406800F012
:103810001CFA002002BD00000000002038B50500A1
:10382000FEF7A2FB04000020C043854202D00448FA
:1038300000782D18FEF798FB001BA842FAD331BD83
:103840003C000020F0B587B000240026022801D3F8
:10385000012636E0264984224243891800912549F1
:1038600080000858009908602048C16880229202B0
:103870000A43C260012102680A43026000680140F5
:1038800006910698042501950220029003940327CF
:103890000497059501A9A020C00500F0AFF8082005
:1038A00001900220029003940497059501A9A0209D
:1038B000C00500F0A3F8009800F0DCF9002801D062
:1038C0000326F643300007B0F0BD31B5FA239B0064
:1038D000012269460648084C247884256C43001967
:1038E000FEF782FF009832BD000000002C1002405D
:1038F000D800002050000020320200200EB4C0B5D5
:10390000020003A801900020009001AB01210448AF
:1039100078440C30FCF7D4FB029906B0084700BF8E
:10392000530B000038B586B013480090134801903F
:1039300013480290134804901348039016480590CA
:103940000024E443184D69462800FFF7DBF90028FE
:103950000AD11648A8620168002903D028008847C8
:10396000002802D00020A862200007B030BD80B53A
:103970000D48FFF7C0FA02BDA93C00083D3D000814
:103980007F3D0008D53D00089D3D000880B50648F4
:10399000FFF7DAFA02BD0000691F000880B502488F
:1039A000FFF7D9FA02BD00003402002020000020F9
:1039B00080B51148FFF7D7FA02BD80B50E48FFF772
:1039C000E4FA02BD80B50C48FFF7F2FA02BD80B5FB
:1039D0000948FFF7F4FA02BD80B50748FFF71AFB64
:1039E00002BD80B50448FFF718FB02BD80B5024850
:1039F000FFF71CFB02BD000034020020FFB50022CF
:103A0000012301932BE0062603E0934EB042FAD146
:103A10000526AE402643029C2660904C2668DC4377
:103A200026404D68ED0300D51E438C4D2E606E6818
:103A300026404F68BF0300D51E436E60AE68264027
:103A40004F68FF0200D51E43AE60EE6834404E68FA
:103A5000B60202D526001C003443EC60521C0B68F1
:103A60001C00D44000D182E0019D95402B40F5D050
:103A700054000327A740FE4302964E68012E05D04E
:103A8000022E03D0112E01D0122E0FD18768029E74
:103A90003E40CF68A740374387604668AE434D68D5
:103AA0002D09019F2F40974037434760C568029E0C
:103AB0002E408D68A5403543C56095006E467570F3
:103AC0004D68022D01D0122D1AD1D508AD0045192F
:103AD0002E6A03966E4677781C263E406F463E70EF
:103AE000039EB4460F276E463678B7406646BE43FF
:103AF000B4460F696E463678B740664637432F6244
:103B000007680326029D3D404F683740BC462700AA
:103B10006446BC402C4304604C68E4009ED5504C85
:103B20002468019D25434E4C25604E4C9508AD0000
:103B30006419029424686D466F780C253D400F2768
:103B4000AF40BC43A027FF05B84201D1002660E783
:103B5000454FB84201D1019E5BE7444FB84201D1C5
:103B6000022656E7424FB84200D04EE751E7FFBD6C
:103B7000FFB50323029301230193039100213AE04F
:103B8000062703E0344DA842FAD105278D00B4463C
:103B90000C262E40B740BC4511D1D6432F4A12689F
:103BA00032402E4F3A607A6832407A60BA683240CA
:103BB000BA60FA681640FE601A68A2431A60029A58
:103BC0004B009A40036813430360CB089B00C31863
:103BD0001C6A0F261C272F40BE40B4431C62D343EF
:103BE000C2681A40C2604268009CA2434260826878
:103BF00013408360491C039ACA4025D0019A8A4029
:103C00000092039B1A40F5D0164B8C08A4001B1998
:103C10001E680F248D000C272F40BC402640A02595
:103C2000ED05A84201D10027B0E70F4DA84201D110
:103C3000019FABE70D4DA84201D10227A6E70C4D2D
:103C4000A8429FD1029FA1E7FFBD002A01D0816158
:103C50007047816270470000001C00500004014062
:103C600034100240080001400004005000080050D9
:103C7000000C005010B5002100240A4A0260E12225
:103C8000520242608160C16001610C224261816127
:103C9000C16101624162FEF771FD002800D001247C
:103CA000200010BD00440040F8B586B000245648FE
:103CB00056490860C86C411C544AD16400283AD166
:103CC0001046FEF717F8002835D10220504D29681C
:103CD000014329602968084005900598A80D0090C7
:103CE00012200190012002900327039704260496D6
:103CF00069464848FFF782FE680D00901220019047
:103D0000012002900397049669464248FFF776FE29
:103D1000E868F1040143E9600726F6433B4D2800BB
:103D200000F07EF8002805D10021280000F0A4F85A
:103D3000002800D03400200007B0F0BD70B500248A
:103D4000324DE86C002818D0401EE86415D1324886
:103D50000168324A0A4002602E4E810D3000FFF7A2
:103D600007FF802189003000FFF702FF2800FDF7E0
:103D700079FD002801D00724E443200070BD10B570
:103D80000A00002480235B0101002048FDF718FF92
:103D9000002801D00224E443200010BD7FB5002498
:103DA0001A4D8026760102960193009202230A00A2
:103DB00001002800FDF786FD002808D02800FDF747
:103DC0009CFF042801D1652400E00324E443200083
:103DD00004B070BD7FB500240C4D8026760102969C
:103DE0000193009202230A0001002800FDF71AFE49
:103DF000002808D02800FDF780FF042801D06524A2
:103E000000E00324E443E2E7005400405C010020AA
:103E10002C1002400004005038100240FFFFDFFF6A
:103E200070B504000020002512492160E121C9007D
:103E30006160A0600126E66020616061A061E061D0
:103E400020622000FDF7BAFC002800D001250021E7
:103E5000200000F011F8002800D0012502212000E8
:103E600000F027F8002800D00125300300F046F8C4
:103E7000280070BD0054004070B5020040325378F5
:103E8000202B14D14023C35C012B10D001231370CD
:103E900024245470046825689D43256004682568BF
:103EA0001B4E2E4026600468256829431CE0022032
:103EB00070BD70B5020040325378202B12D14023E0
:103EC000C35C012B0ED001231370242454700468AA
:103ED00025689D432560046825680E4E2E40090222
:103EE000314301E0022070BD2160006801680B438E
:103EF0000360202050700020107070BD06490A68D1
:103F0000012313430B6005490A681043086070479A
:103F1000FFEFFFFFFFF0FFFF3410024004000140FD
:103F2000FEB5040000200190634D20688221090144
:103F3000014000D187E080204005A96B014004D1F9
:103F4000A96B0843A86301200190AF0D5B4800688E
:103F5000384013D1594800900068384300990860F0
:103F6000FEF702F8060000980068384006D1FDF719
:103F7000FBFF801B6528F6D30320FEBD2868C02107
:103F8000890301406068C02292030240914205D13A
:103F9000A268C0239B03134099420BD0C021890221
:103FA0000140C0229202914204D12968890301D5BF
:103FB0000120FEBD2A6DC0218902114029D0C022F6
:103FC00092021040814202D02078800606D4A06878
:103FD000024091421DD0206800051AD5296D38484D
:103FE0000840296DFA020A432A65296D354A0A40BC
:103FF0002A65286507400CD0FDF7B6FF0600286D3E
:10400000800506D4FDF7B0FF801B2F498842F6D308
:10401000B2E76168C020800202000A40824206D1F5
:104020002A682A4B134002010A401A432A60296D6C
:1040300062681040084328650198002803D0A86BE7
:1040400023490140A9632078C00705D5E86C032106
:104050008843E1680143E9642078800705D5E86C6E
:104060000C21884321690143E9642078400705D584
:10407000E86C1849014060690843E864207800074B
:1040800005D5E86C14490140A0690843E86420782C
:10409000400605D5E86C11490140206A0843E864F0
:1040A0002078000605D5E86C0D490140E069084319
:1040B000E8640020FEBD00000010024000700040D7
:1040C000FFFFFCFFFFFFF7FF89130000FFFFCFFF9B
:1040D000FFFFFFEFFFF3FFFFFFCFFFFFFFFFFFFB40
:1040E000FFFFF3FFF8B586B000F0B0F800F05DF820
:1040F000142200216846FFF763F804214D48026846
:104100000A43026002681140059105998021026806
:104110000A43026002681140059105990124016873
:10412000214301600168214005910599022102683F
:104130000A4302600068014005910598A425ED003E
:10414000A026F605002229003000FFF77EFD3A4F39
:10415000002230213800FFF778FD009501940025FA
:104160000295039569463000FFF748FC4020009017
:1041700032480190029569463000FFF73FFC30203D
:10418000009001940295039569463800FFF736FCCC
:10419000002200210720FEF7C8FA0720FEF7C9FA1F
:1041A000FFF7D0F9FFF7D2F9FCE710B59CB0382241
:1041B00000210EA8FFF704F8142200216846FEF73C
:1041C000FFFF2422002105A8FEF7FAFF1C48016822
:1041D0001C4A0A40C10C1143016010200E900120BE
:1041E000159000241694A0200002179018940EA891
:1041F000FDF7C0FE002801D000F026F80F20009047
:10420000019402940394049400216846FEF7FCF89C
:10421000002801D072B6FEE70A20059009940B949D
:1042200005A8FFF77DFE002801D072B6FEE71CB09E
:1042300010BD00002C1002400004005000001110BE
:1042400000700040FFE7FFFF72B6FEE710B50024E4
:104250000748016840220A4302600020FEF70CFA7A
:10426000002801D0012401E000F004F8200010BD76
:10427000002002400548016801220A4302604168AB
:10428000802252050A434260704700BF341002404A
:10429000686A6C747A4C00007072696E74665F7341
:1042A0003A20256E20646973616C6C6F77656400D9
:1042B0007072696E74663A2062616420256E2061B6
:1042C0007267756D656E74007072696E74665F7387
:1042D0003A2062616420257320617267756D656E96
:1042E00074000000000000006E616E004E414E0040
:1042F000696E6600494E4600300070B40123002408
:1043000013E00168001D194202D04D466D1E491987
:104310000C60091D121F042AFAD20D00960701D560
:104320000C80AD1C1A4000D02C700268001D002AC1
:10433000E7D170BC704730B5016841184468620825
:104340008A188368E40704D54C461B1901E0641CF5
:1043500006D191420BD00C7864B2491C0D78491CEF
:104360001D705B1C002CF2D4641EF7D5F1E70C30F5
:1043700030BDFEE701210278D206D20E9140064AF6
:1043800013680B4000D1704780B511604068002869
:1043900000D0804701BD000014040140FEE7FEE7A5
:1043A0007047704780B500F00DF801BD80B5034837
:1043B000FFF7E0FF0248FFF7DDFF01BD1800002016
:1043C000480000200248416802788918416070471F
:1043D0003C00002010B5074979441831064C7C4454
:1043E000163404E0081D0A68891888470100A142B4
:1043F000F8D110BD0800000024000000FFFEFFFF00
:104400008C010000D8000020000000002BFFFFFFFF
:10441000CB0000004C0100000000002070470000AD
:104420000000000000000000010203040607080964
:10443000030406080C1018203000000000F00DF8EE
:10444000002801D0FFF7C6FF00BF00BF002000BF5B
:1044500000BFFFF747FE00F002F80120704780B56B
:1044600000F002F801BDFEE707463846FDF79CF96B
:10447000FBE738B505000C00200000F005F8A0426D
:1044800000D00025280032BD80B50249FFF71DFA93
:1044900002BD00BF9000002001488047014800474E
:1044A0001D440008A944000800BF00BF00BF00BFB2
:1044B000FFF7C4FF0000000001020304FEE7FEE76F
:1044C000FEE7FEE7FEE7FEE7FEE7FEE7FEE7FEE7C4
:1044D000FEE7FEE7FEE7FEE7FEE7000010FC000354
:1044E00004005020FC00040400500004FB000450B1
:1044F00006000006FC001C4D2D00087F2D000889D9
:104500002D0008952D0008AF2D0008BB2D0008CD0B
:104510002D000801F9000004FD00030D000006FB5A
:10452000002244004000002000DA440008DA440081
:1045300008DA440008DA440008DA440008DA4400E3
:1045400008DA440008F8FF0B26110008DA440008D6
:10455000DA440008FAFF15000002040101AC010072
:1045600020FC010020AC010020AC010020FC000375
:10457000AC010020FC0007D4000020C0000020E0B7
:01458000003A
:04000005080044A902
:00000001FF
