:020000040800F2
:10000000480A0020DD400008E53F0008E73F0008FF
:10001000E93F0008EB3F0008ED3F0008000000004A
:10002000000000000000000000000000EF3F00089A
:10003000F13F000800000000F33F0008F53F000812
:100040000141000805410008094100080D41000870
:100050001141000815410008194100081D41000820
:100060002141000825410008294100082D410008D0
:100070003141000835410008394100083D41000880
:1000800041410008454100084941000800000000C6
:10009000000000000000000000000000F93F000820
:1000A0004D410008514100085541000859410008E0
:1000B0005D41000861410008654100086941000890
:1000C0006D41000871410008754100087941000840
:1000D0007D410008814100088541000800000000C2
:1000E000FF3F0008894100088D4100080000000022
:1000F0000000000000000000000000009141000826
:100100000000000095410008994100089D41000849
:1001100000000000000000000000000000000000DF
:10012000A1410008A5410008A9410008AD4100080F
:10013000B1410008000000000000000000000000C5
:10014000000000000000000000000000B5410008B1
:10015000B9410008BD410008C1410008C54100087F
:10016000C9410008CD410008000000000000000067
:10017000000000000000000000000000000000007F
:1001800000000000D1410008000000000000000055
:10019000D54100082DE9F14FB2B0994692460023AF
:1001A0000691CDE900333C9A0F930DF14A01149169
:1001B0004A7011E0329E57462C4617F8011B0698EC
:1001C000B0470028069000F026810F98401C641E5E
:1001D0000F90F2D13296AA449AF80000252808D14F
:1001E0000021002209910A920B910C920D910E921E
:1001F0000FE06A464FF0FF31504601F07FF80500EE
:1002000002D10F9800F066BED4D50125E3E741F096
:1002100001011AF8010F2028F9D023280CD02B282F
:1002200004D02D2805D0302809D00BE041F0020180
:10023000EFE741F00401ECE741F00801E9E741F0A4
:100240001001E6E72A280FD1D9F8002052F8040B54
:10025000C9F800200028119003D54042119041F0C8
:1002600004010AF1010A14E01192DFF8EC3B0AE004
:100270001198984205DA00EB800402EB4402303A10
:1002800011920AF1010A9AF80020A2F130000A281E
:10029000EED39AF800002E2803D04FF0FF321092D0
:1002A00029E01AF8010F2A2809D1D9F8000050F8DE
:1002B000042BC9F8000010920AF1010A1BE02D2856
:1002C0000CBF0AF1010A002000221092DFF8882BEF
:1002D0000BE040B9109B934205DA03EB830504EB76
:1002E0004504303C10940AF1010A9AF80040A4F148
:1002F00030030A2BEDD3ADF848100FF660309AF8B2
:10030000001001F005F808B11AF8010B8DF84A0049
:100310009DF84A00682805D19AF8000068280CD199
:10032000622106E06C2804BF9AF800006C2804D112
:1003300071218DF84A100AF1010A1FA808901AF8D5
:1003400001BBBBF125012DD01C3900F06181091FD3
:10035000022940F25D810E392AD0491F00F0B38492
:10036000093900F05581891E00F04985491E00F0C9
:10037000F584491E022940F24B81091F00F0EE84EA
:10038000491F00F0BA80491E00F09D84491E65D0C7
:10039000C91E21D0891E00F09684C91E00F09384E6
:1003A00000F04CBD25238DF87C30012109912AE015
:1003B0006C208DF84A00D9F8000050F8042BC9F8D9
:1003C0000000002A43D11499487800283DD04FF00E
:1003D000FF340FF6902012E09DF84A006C28EAD016
:1003E000D9F8000050F8044BC9F800000794D4B9BC
:1003F0001499487898B14FF0FF340FF6842000F03C
:10040000A1FF201A07D132981FAA04A900F065FDA8
:1004100000287FF5E1AE4FF0FF3000F05BBD0FF636
:100420007C200790EFE7109D002D04D5204600F0BA
:10043000A9FF044607E02A46204600F0BFFF002837
:1004400014BF041B2C460A94DDE70FF654223298A1
:1004500004A900F0C8FD0028D5D5DCE7D9F80010C4
:1004600051F8040BC9F8001020F00004002121F01D
:10047000FF351FABCDE904450793DDE90423089957
:100480003C2413B90AB9109898B102F00F05303521
:10049000641EEEB23A2EA8BF2735120942EA037253
:1004A0001B090D5508BF002A03D007980D19A84253
:1004B000EBD308190790C4F13C0210980A928242CB
:1004C00009DABDF84810821A4FF6EF7001400C921D
:1004D000ADF8481097E7002895D59DF8480000F042
:1004E000140010288FD1119B09990C985B1A1B1AC4
:1004F0009A1A002A87DD0C9285E71499487820B172
:100500004FF0FF340FF69C1079E79DF84A006228FF
:1005100062D0682819D06A2840D06C2806D071288B
:100520004DD074282DD07A281ED064E0D9F8001060
:1005300051F8040BC9F8001020B94FF0FF340FF642
:100540007C105CE70F9901605DE7D9F8001051F865
:10055000040BC9F8001020B94FF0FF340FF65C10FF
:100560004DE70F9901804EE7D9F8001051F8040BC0
:10057000C9F800100028E5D14FF0FF340FF63C1009
:100580003DE7D9F8001051F8040BC9F80010002815
:10059000D8D14FF0FF340FF6241030E7D9F800100F
:1005A00051F8040BC9F8001020B94FF0FF340FF6D2
:1005B0000C1024E70F9AD317C0E9002323E7D9F8DA
:1005C000001051F8040BC9F800100028F2D14FF0C8
:1005D000FF340FF6E80012E7D9F8001051F8040BC9
:1005E000C9F8001020B94FF0FF340FF6D00006E72D
:1005F0000F99017007E7D9F8001051F8040BC9F8FA
:10060000001000289ED14FF0FF340FF6B000F6E640
:10061000D9F80020D21D22F00702C9F80020D2E943
:1006200000010832C9F80020CDE90401C80F02D04A
:1006300009982D210AE0BDF84800810702D50998E4
:100640002B2103E0C00705D5099820211FAA1154CA
:10065000401C0990DDE9042309991FA8CDE92E2348
:1006600008444BF020016129079015AC0BD010997C
:10067000002902D50621109105E001BF4BF02001B1
:10068000672901221092DDE9042359004915491C0C
:1006900010D11A030ED0ABF1610503211A2D0A9176
:1006A00002D20FF6A43101E00FF6A031032200F0D0
:1006B000B1FEA8E659004915491C0AD11A0308D110
:1006C000ABF1610503211A2D0A9116D30FF684317F
:1006D000ECE7DDE90401CDE93001DDE9302323F069
:1006E0000047B7F5801F22F000060DD20022002F30
:1006F00008BF002E029203D116E00FF65431D5E761
:1007000002AA00F0DBFE0FE0DFF8EC0ADFF8EC1ADB
:1007100000EB17500290DDE930234FF0FF30194015
:10072000DFF8DC7A10403943CDE904014BF02000BA
:1007300061280DD1079830210170821CBBF1610F37
:1007400007920CBF7821582141700998801C0990AC
:10075000DDE9040120F0000231F0004308BF002A67
:1007600002D10026002571E14BF02008B8F1610F9D
:1007700040F0BE801098002847BF21210391401C03
:100780000390039FDDE92E017F1C00220023DDE999
:10079000044500F0CBFE02998DF8542038BF85F057
:1007A0000045091F002F02910DF155065DDDDFF8B0
:1007B000541ACDE9302140F2FF732E93204629468A
:1007C0000022002300F0CAFE4FD24800400D00F185
:1007D0001C0215D0002A13DD2E9B9A420ADBDDE9AC
:1007E000300121F0004205F000400243DDE9300114
:1007F000114611E06FF31E5141EA025120460BE011
:1008000024F0000035F0004108BF00280FBF294642
:100810001C22294600F0BAFE04460D4600F054FFA3
:10082000FF1F002F804609DD00F06CFF02460B46DB
:100830002046294600F078FF04460D46F01D0721AA
:10084000B8F1000F0CDD491E5EBF08F00F0200F882
:10085000012D4FEA2818F3D502E0002200F8012DFF
:10086000491EFAD5C61D002FA8DC0DF15500361A19
:1008700003988642D8BF304600280DF1550430D485
:10088000B04206DA0DF155010A5C082AA8BF0F2113
:1008900000DA0021024615AB134400E0401E13F8B5
:1008A0000159521E8D42F9D00F2904D10DF1550185
:1008B0008B5C5B1C8B54002A04D50299091D15AC76
:1008C000401C0291411E0CD46218ABF13A06137819
:1008D0003033DDB23A2DA8BFF318491E02F80139B2
:1008E000F5D51099002940F1AF80421E1092ABE07F
:1008F0000299DFF8142947F29750414391FBF2F235
:10090000DDE92E45029225F00045D2F1070204DD13
:100910002046294600F04CFC0BE052420020DFF854
:10092000EC1800F045FC02460B462046294600F034
:100930006DFF0446B8F1660F109806BF029F0A3794
:1009400006273F18142FC8BF142730208DF85400F5
:100950000D460020DFF8B818CDE92E010DF155063F
:10096000002F33DD2046294601F074F801460A467F
:1009700006F1080304200A26B2FBF6F606EB860E03
:10098000A2EB4E02303203F8012C0A22B6FBF2F23F
:1009900002EB820EA6EB4E063036401E03F8026DC7
:1009A000E9D1083F002F03F10806D9DD084601F020
:1009B00065F802460B462046294600F0B5FEDDE903
:1009C0002E2301F069F804460D46CBE70DF15500E2
:1009D000361A0DF1550404E00298401E761E02906E
:1009E000641C20783028F7D0B8F1660F02D1029944
:1009F000491C04E0B8F1650F0CBF012100211098DB
:100A000008188642B8BF701E00281DD4B04204DA10
:100A1000215C3429C8BF392100DC30210246631E25
:100A20009D1800E0401E15F80169521E8E42F9D053
:100A3000392902D1A15C491CA154002A04D502998C
:100A4000491C1C46401C02910646029D00F05AFCBF
:100A5000406A0778DDF8408030B2002802DC0126C9
:100A60000FF2F4744BF02000662808BF6D1C16D0FE
:100A7000672846D128B210F1040F48DB404546DA1A
:100A80009DF848006D1C010703D430B24045B8BF43
:100A9000804628B2B8EB000848BF4FF000080FFAB4
:100AA00085FB07980A99BBF1000F00F3B2804A1C3E
:100AB0000A9230234354B8F1000F03DC9DF848003C
:100AC000010704D50A98411C0A9107990F5418EBA5
:100AD0000B0FB8BFC8F100052DB268420D90A844B5
:100AE00032B29045B8BF4646079B0A9836B20B967D
:100AF00032462146184400F08DFCA8EB06000E900B
:100B0000CBE0BBF1610F17D14FF0700B19E030B2A1
:100B1000404504DA9DF848100A0758BF8046B8F1EE
:100B2000010848BF4FF00008BBF1670F14BF4FF03A
:100B3000450B4FF0650B04E0BBF1410F08BF4FF0D0
:100B4000500B0A98411C0A91B8F1000F079914F84C
:100B5000012B0A5403DC9DF8480001071AD50A98B6
:100B6000411C0A91B8F1000F07990F5412DD761E4F
:100B700030B2804507980A9BB8BF464632B221463C
:100B8000184400F047FC0A9936B271180A91A8EB94
:100B900006000D9007980A9908442AB2002A80F8A6
:100BA00000B003D42B224270811C04E02D2141703F
:100BB0001546811C6D4200202EAA0A2409E02B460E
:100BC00093FBF4F505EB8506A3EB460302F8013B26
:100BD000401C2DB2002DF2DC012806DC4BF0200277
:100BE000652A04BF302201F8012B00282EAA08D163
:100BF000302001F8010B06E0401E135C303301F891
:100C0000013B0028F8DC079A0A981044091A0B9156
:100C100043E0084431B22AB2914219DA32B2214695
:100C200000F0F8FB0A9936B27118ABEB0606B8F182
:100C3000000F0A910D9603DC9DF84800020704D5C9
:100C4000079847540B99491C0B91CDF8388024E044
:100C5000214600F0DFFB0A98761B5844B8F1000FDC
:100C60000A9003DC9DF848100A0703D5411C0A913D
:100C700007990F5430B2804507980A9BB8BF464683
:100C800032B204EB0B01184400F0C4FB0A9836B2F0
:100C900030180A90A8EB06000D909DF8480000F06F
:100CA000140010287FF4AFAB099A0A990D988A189E
:100CB0000B9982180E988A18821811988242BFF6F2
:100CC000A2AB821A17E49DF84A00622808D068286F
:100CD0000ED06A2814D06C281FD0712810D01CE0C8
:100CE000D9F8001051F8040BC9F80010C0B21AE08E
:100CF000D9F8001051F8040BC9F8001080B212E0C6
:100D0000D9F80020D21D22F00702C9F80020D2E94C
:100D100000010832C9F8002006E0D9F8001051F8A7
:100D2000040BC9F800100021CDE904019DF848002A
:100D300001075AD5DDE90423002B08BF002A54D04F
:100D40004BF02000782850D109981FA930220A546E
:100D5000401C431C099301F800B046E09DF84A008E
:100D6000622808D068280ED06A2814D06C281FD0BA
:100D7000712810D01CE0D9F8001051F8040BC9F804
:100D8000001040B21AE0D9F8001051F8040BC9F86D
:100D9000001000B212E0D9F80020D21D22F00702A4
:100DA000C9F80020D2E900010832C9F8002006E0A5
:100DB000D9F8001051F8040BC9F80010C117CDE99B
:100DC0000401002902D509982D210AE0BDF8480048
:100DD000810702D509982B2103E0C00705D50998A2
:100DE00020211FAA1154401C09901FA809990144F1
:100DF000079104A8594600F056F9FFF704BB9DF887
:100E00004A006C280BD001210991D9F8000050F854
:100E1000041BC9F800008DF87C10FFF7F4BAD9F86C
:100E2000000050F8041BC9F8000015914FF0FF3284
:100E300010920021169115AAFFF709BB2521012266
:100E4000BBF1000F8DF87C1009923FF4DCAA8DF8FD
:100E50007DB00221FFF7AABACBCCCC0C686A6C74C7
:100E60007A4C00007072696E74665F733A2062613A
:100E70006420256C7320617267756D656E74000067
:100E80007072696E74665F733A20626164202573C4
:100E900020617267756D656E7400000000000000CF
:100EA000000000007072696E74665F733A20256EF0
:100EB00020646973616C6C6F776564007072696E31
:100EC00074663A2062616420256E20617267756DD8
:100ED000656E740033B0BDE8F08F2DE9FC410F461C
:100EE000064690467A6B7869396ABC6A121AB86904
:100EF000521A796A121AF869521A121A97F83800B7
:100F0000141B41070FD42020002C8DF800000ADDAF
:100F1000254601236A463946304600F07DF900280F
:100F20005DD16D1EF5D17B6942463946304600F0F1
:100F300073F9002853D130208DF800003D6A002D50
:100F400009DD01236A463946304600F065F900287C
:100F500045D16D1EF5D1BB69FA683946304600F0BF
:100F60005BF900283BD130208DF800007D6A002D10
:100F700008DD01236A463946304600F04DF970BB62
:100F80006D1EF6D1F868B969FB69421839463046DA
:100F900000F042F918BB30208DF80000BD6A002D2A
:100FA00008DD01236A463946304600F035F9B0B90C
:100FB0006D1EF6D197F8380041070DD52020002C82
:100FC0008DF8000008DD01236A463946304600F0FE
:100FD00023F920B9641EF6D10020BDE8F6814FF058
:100FE000FF30BDE8F6812DE9F8470D46A3B02F6B21
:100FF000002F8246904648BF6FF0004700F01DFE6C
:10100000696B401801AA0021C2E90011812828BF9C
:101010004FF0FF3044D289461EE0A74230DB6869BA
:10102000201881280BD30021696303AA2946504662
:10103000FFF753FF5FEA000922D40020686103AB89
:101040006E6922466946981900F0E4F9A6196E61A6
:1010500058F8040BA0B13F1B002F11DDD8F8001089
:1010600001AA684600F04CF90446002C05D4D8F8D3
:1010700000000028D1D1641ECFD54FF0FF390EE01B
:10108000B9F1000F504604D103AA2946FFF725FF06
:101090008146B9F1000F02D10020686168634846BB
:1010A00024B0BDE8F0872DE9FC4307466F293E696F
:1010B00008BF082405D041F02000782814BF0A2476
:1010C00010243C25D7E90023642918BF69299046DC
:1010D000994605D1002B03D5D8F1000869EB4909E1
:1010E000B9F1000F08BFB8F1000F0CD1386B50B93F
:1010F000082C39D197F83800010735D530203B2529
:1011000086F83B0030E08DF8001040464946224604
:10111000E31700F097FD3032D0B26D1E3A280195EA
:1011200004DB9DF80000A0F151018A187255404679
:1011300049462246E31700F085FD80465FEA010933
:1011400008BFB8F1000F03D0F86871198842DCD3EA
:10115000082C09D197F83800010705D5705D3028B3
:1011600002D06D1E30207055C5F13C02BA61711974
:10117000F960386B824208DA821A3A624FF6EF70F1
:10118000398F01403987BDE8F38300280ED597F8E1
:10119000380000F01400102808D17B6B7969386A98
:1011A0005B1A1B1A9A1A002AC8BF3A62BDE8F38379
:1011B0002DE9D04306460F4614464FF00008DFF8ED
:1011C000549012E0E00707D542464B463046394678
:1011D00000F062FC06460F464046494642464B46F2
:1011E00000F05AFC641080468946002CEAD1304653
:1011F0003946BDE8D083000002FCFFFFFFFF0F80EF
:101200000000E03F0000F07FA08601000000F03FFA
:1012100084D7974100002440F8B505460E4617468E
:101220001C4600205CB117F8011BB068A847B060ED
:1012300030B1F06A401CF0620020641EF3D1F2BDB0
:101240004FF0FF30F2BD00006E616E004E414E0067
:10125000696E6600494E4600300030B4002513E048
:1012600050F8042BD30744BFA9F101039A18091FB2
:10127000042942F8045BFAD213468C0744BF158058
:101280009B1CC90748BF1D7050F8041B0029E7D1FB
:1012900030BC70471C48704770B45368D41801E0E4
:1012A0005B1C491E042B08DA00291FBF057804F8CF
:1012B000015B10F8016B002EF2D1536070BC7047D7
:1012C00038B514461D4661B1FFF7E6FF61686A6BE9
:1012D000204690476FF00102811A02D0491E01D0CA
:1012E00001E003E005E00021616032BD6FF0010024
:1012F00032BD4FF0FF3032BDDA6B1047024BDFE7F3
:10130000014BF9E701487047D8000020A0000020F9
:10131000C9B202788A421AB11CBF10F8012FF9E74E
:1013200018BF00207047B1F5807F02D34FF0FF3027
:1013300070470170012070470078401E8041C04313
:10134000C00F704780B500B906A005490B681BB1F6
:1013500022220021984701E000F0F7FC222002BD84
:1013600044020020636F6E73747261696E7420684A
:10137000616E646C65723A20626164206D6573739E
:101380006167650000F10103810704D010F8011BBB
:10139000820781B1FAD10268A2F10131914311F0C3
:1013A000803104BF50F8042FF6E709BAB1FA81F191
:1013B00000EBD100401CC01A70472E00C9B2830751
:1013C00006D0521E22D310F8013B9942F7D11FE0FC
:1013D000083A13D302F1040241EA012141EA014132
:1013E00050F8043B121F21BF4B40A3F1013C2CEAF3
:1013F000030C1CF0803FF3D0C9B2001F083210F874
:10140000013B521E28BF91EA030FF8D818BF0120F4
:10141000401E704762B38B0708D0521E11F8013B83
:1014200000F8013B00F024808B07F6D1830740F0E1
:10143000208000BF103A07D330B4B1E83810103A1A
:10144000A0E83810F9D230BC530724BFB1E8081027
:10145000A0E8081044BF51F8043B40F8043BD20711
:1014600024BF31F8022B20F8022B44BF0B78037005
:101470007047121F17D35B0009D151F8043B20F8C5
:10148000023B1B0C121F20F8023BF6D20BE051F876
:10149000043B00F8013B1B0A20F8023B1B0C121F07
:1014A00000F8013BF3D238BF121D521E24BF11F8C1
:1014B000013B00F8013BF8D87047430010B51446D3
:1014C00000F002F8226010BDC1F30A5343B14A0094
:1014D00012F5001F28D2A3F2FE32A1EB0251704791
:1014E00050EA410C20D001F0004C31EA0C01B1FA75
:1014F00081F204BFB0FA80F3D2180B3AB2F12003A4
:101500002CBF00FA03F1914041EA0C013EBFC2F149
:10151000200C20FA0CF319439040524240F2FD3364
:10152000D21A01EB03517047002270474FF4001CA0
:101530001CEB410F94BF1CEB430F09E041EA030C85
:1015400050EA4C0C52EA0C0C03D2994208BF90426C
:10155000704714BF8B428242704700004FF4001C5A
:101560001CEB410F94BF1CEB430F09E041EA030C55
:1015700050EA4C0C52EA0C0C03D28B4208BF824258
:10158000704714BF9942904270470000124254D4F1
:1015900040F2FF7C1CEA11530FD0634531D09B18F9
:1015A00063453CBF01EB0251704701F0004141EA45
:1015B0000C510020AFF30080704750EA410320D067
:1015C00001F0004C91EA0C011CD0B1FA81F30B3B05
:1015D0009A420DD9D21A994051EA0C01C3F1200C5C
:1015E00020FA0CFC61449840531C40F2FF7CD7E782
:1015F000914041EA0C01C2F1200C20FA0CF319438E
:1016000090407047B0FA80F31533202BE0D3202AA6
:10161000EED3203A203B9A4209D9D21A00FA03F1BC
:1016200041EA0C010020531C40F2FF7CB8E700FAAD
:1016300002F141EA0C0100207047524240F2FF7C67
:101640001CEA11530DD06345DBD0B2EB030C3CBF59
:10165000A1EB025170470CF1010221EA035141F460
:10166000801150EA410CCCD001F0004C352A27DC27
:1016700030B481EA0C01B2F1200309DAC2F120038F
:10168000044601FA03F5D0402843D1409C400CE0C9
:10169000C3F12002450020FA03F418BF44F001040E
:1016A00021FA03F091400C43002174F1004550F100
:1016B000000051EB0C01244230BC7FF47BAF70473B
:1016C0006146002076E70000C1F30A5340F2FE3283
:1016D0009B1A14DDD3F120034FEAE17208DDC90241
:1016E00041EA505141F00040D840801850407047C6
:1016F00003F2E13010B1D24382F000407047002085
:1017000070470000C11768B14840401AB0FA80F233
:101710009040D21CC907C2F5846241EA025202EB32
:10172000D02140057047000070B44FF0004591EAA9
:10173000030F40F10D836B40841A71EB030603D253
:10174000001BB141121973414FF4001C1CEB410FF7
:1017500034BF7CEB430442E00C0DA4EB1356352E52
:101760004FDC45EAC323DB0A45EAC121C912B6F1C1
:1017700020050DDD63FA05F6EB4086EA030512420B
:1017800018BF45F00105C01851F100010CD213E05B
:1017900062FA06F5F2405540F3415A40B340F34037
:1017A0005A408018594107D349085FEA30005FEA80
:1017B000350528BF45F0010501F58011420875F196
:1017C000004250F1000041EB04514E0016F5001F9D
:1017D00070BC38BF70470020090D090570471CEB2D
:1017E000410F10D252EA43060BD0BCEB410F05D893
:1017F0000C0DAB43661E342EB6DD02E0AB43801801
:10180000594170BC704770BC70470000F0B540F2A1
:10181000FF7581EA030C0CF0004C15EA11541DBF52
:1018200015EA1357AC42AF42E5E0BC41C1F31301E6
:10183000C3F31303801A994143F4801304D2641E46
:101840004000494180185941C90241EA5051B1FB59
:10185000F3F603FB1611A2FB0675D7EBC020A941D6
:1018600002D2761E80185941C90241EA5051B1FB9B
:10187000F3FE03FB1E11A2FB0E75D7EBC020A9419E
:1018800003D2AEF1010E80185941890241EA90510C
:10189000760546EA8E2EB1FBF3F603FB1611A2FB8A
:1018A0000675D7EB8020A94102D2761E80185941D7
:1018B000C90241EA50514EEA060EB1FBF3F603FBB2
:1018C0001611A2FB0675D7EBC020A94102D2761EE5
:1018D00080185941C90241EA5051B1FBF3F703FBAB
:1018E0001711A2FB0735D3EBC020A94167F1000710
:1018F0000CBF004247F0010766F3D5274FEA1E31BF
:10190000B80814F5806412DDBD0775F1004250EB94
:101910000E5051EB045111F5801F5CBF41EA0C01E0
:10192000F0BD4CF07F6141F0E0410020F0BDBD070B
:101930006D0840EA0E5041F48011D4F10104B4F175
:1019400020060ADAC4F120060200E04001FA06F39C
:10195000E1401843B24015430EE0342C13DCC6F1CD
:10196000200445EA40056D0820FA06F2154321FAE5
:1019700006F0A1400D43002175F1004250F1000036
:1019800051EB0C01F0BD00205FEA0C01F0BDCFB9B6
:1019900092185B41B3FA83F704BFB2FA82F6BF191B
:1019A0000B3FB7F120062FBF02FA06F3BB40C7F189
:1019B000200622FA06F638BF3343BA401CB1E419B8
:1019C000641E33E77F4231F00041B1FA81F404BF75
:1019D000B0FA80F6A4190B3CB4F120062FBF00FA30
:1019E00006F1A140C4F1200620FA06F638BF3143C3
:1019F000A0403C1B1AE7AC421ABF05EA1357AF429E
:101A000012E050EA41061CBF52EA4306BFE750EA23
:101A10004107304661461CBF41EA0551F0BD52EA1C
:101A2000430C08BFC143F0BD00204FF4001616EB75
:101A3000410F98BF16EB430F08BF16EB410F24BFB1
:101A4000C14305E016EB430F0CBF61464CEA05515C
:101A5000F0BD0000400D491840EA81200CD2490D2C
:101A6000A1F58061491C40F0004005DBD1F11F0168
:101A700054BFC840C017704700207047014648B1A6
:101A8000B0FA80F18840C91CC1F58461090501EBF9
:101A9000D021400570470000B0B581EA030C0CF07E
:101AA000004C40F2FF7515EA11541DBF15EA13579B
:101AB000AC42AF4239E0E41923EA455343F48013C2
:101AC000C90241F0004141EA505EC7021100A7FB84
:101AD000020200284FF00000EEFB01204FF0000151
:101AE000E3FB072118BF42F00102401800214941E1
:101AF000E3FB0E01A4F580640F0302D252004041C3
:101B0000494154F101046CDD470872F1004250F183
:101B1000000051EB0451A1F580115CBF41EA0C01BA
:101B2000B0BD4CEA05510020B0BD05EA1357AC42E8
:101B300014BFAF4241E050EA410E1CBF52EA430ECF
:101B400002E061460020B0BD24423C441BD15FEA64
:101B5000070EF6D0090302BF01460020AEF1140EB5
:101B6000B1FA81F7AEEB070401FA07FE0C37C7F1B3
:101B7000200100FA07F7C8404EEA000E23EA455359
:101B800043F48013A2E733F00043B3FA83F704BFB2
:101B9000B2FA82FE77440B3FE41BB7F1200E2FBF51
:101BA00002FA0EF3BB40C7F1200E22FA0EFE38BF38
:101BB00043EA0E03BA40641C82E750EA410E14BFA8
:101BC00052EA430E6FF000014FF4001717EB430F7A
:101BD0008ABF194617EB410FB5E74CEA05510020C3
:101BE000B0BDD4F10104B4F120070FDAC4F120072D
:101BF000520828BF42F0010210FA07F501FA07F770
:101C0000E1BF2A43E0403843E1400FE0352C98DC47
:101C1000C7F1200452EA400220FA07F218BF42F04E
:101C2000010231FA07F0A1400A43002172F100429B
:101C300050F1000051EB0C01B0BD80B5FFF72AFB5D
:101C4000006C02BDD3BBD9B1B2F5803F5BD2022A92
:101C50001ED98C46B1FBF2F102FB11C31B0443EA0F
:101C60001043B3FBF2FC02FB1C3380B240EA034397
:101C7000B3FBF2F002FB103240EA0C400023704745
:101C8000022A05D98446B0FBF2F002FB10C270476D
:101C90004AB105D100F0010249085FEA30007047FF
:101CA00000220023704700F009B90B000200002158
:101CB00000207047F7D3002200237047904271EB59
:101CC000030CF2D370B5B1FA81F4B3FA83F52C1B8F
:101CD000A340C4F1200532FA05F63343A2405FF079
:101CE0000046E64002E05B085FEA3202841A71EBCC
:101CF000030524BF204629467641F4D302000B0099
:101D00003000002170BD70B5B1FA81F4B2FA82F5ED
:101D1000C4F120046419B4F12006DAD3B2405FF0B4
:101D20000044F440002502E052085FEA3303C61A7B
:101D300071EB020E24BF3046714664416D41F3D30E
:101D400002000B002000290070BD012000F0B8B88F
:101D5000841A71EB030604D26E40001BB1411219C4
:101D600073414FF4001C1CEB410F34BF7CEB430666
:101D700083E00C0DA4EB1356362E00F37C80012E6D
:101D800045EAC32341DC43EA525312BFD202920216
:101D90005B08240545EAC12141EA5051D2EBC0203D
:101DA000994125D407D1B0FA80F610FA06F162D035
:101DB0000020203608E0B1FA81F6B140C6F12002D9
:101DC00020FA02F21143B0404FEAF474B4EB4654E7
:101DD00034F001064FEA74040AD8D6F50016760DE1
:101DE00004F00044F04061FA06F25040F1404840EF
:101DF000C00A40EA415021F0004128BF5FEA500587
:101E000050F1000044EBD12135E0DB0A45EAC12165
:101E1000C90AB6F120050EDD42EA0242120CC5F1F4
:101E2000200603FA06F6EB4042EA06056D429841A9
:101E300061F100010DE062FA06F5F240554063FAE7
:101E400006FC82EA0C02F3405A406D42904161EB7D
:101E5000030111F4801F05D1641E620502D06D00DC
:101E60004041494121F48011430875F1004350F18C
:101E7000000041EB045170BC70471CEB410F15D2C0
:101E800023F0004352EA43060BD04FEA4C0CBCEB64
:101E9000410F04D80C0D661E342EB7DDEBE7801A17
:101EA000994150EA410608BF0021E4E708BF1CEB56
:101EB000430F28BF6FF00001DDE70000704700000E
:101EC00080B5AFF30080024A11001820ABBEFBE7DB
:101ED00026000200F8B5040025D004F13C0569781D
:101EE00021B900202870204600F0DBFC2421697015
:101EF000206802685208520002602068016841F4BC
:101F0000004101602068026822F40042026000F093
:101F10004FFD01466068DFF85022904205D2DFF89D
:101F20004C32994205D20120F2BDDFF844028142D1
:101F3000F9D32068DFF83C324668B1FBF3F3B60909
:101F400043EA861646602668376A6068904206D380
:101F50004FF4967043434FF47A70B3FBF0F35B1C7D
:101F6000BF0943EA87133362491E2368DE69676845
:101F7000974206D27F0000F043F8042913D20421CF
:101F800011E0A06820B907EB470700F039F805E039
:101F90001920474300F034F841F4804108050CBF94
:101FA000012141F40041DFF8D00106400E43DE611B
:101FB00022681368E169206A23F0C0030B430343DE
:101FC00013602268DFF8B401936821690340E06878
:101FD0000B43034393602168CA68A3696069120ACE
:101FE000034343EA0222CA602068016841F001010C
:101FF000016000206860202169702063A870F2BD34
:10200000B1FBF7F1491CC1F30B01704738B504006F
:1020100001D1012032BD04F13C052420687000F09C
:1020200080FA00F015FD0020686068702063A870D9
:10203000287032BD308D7262411E3185708D411E17
:1020400071857047009031684A69009289690091F2
:102050000098704700222946304600F02FBB2DE93A
:10206000FC4700F08DF800F091F85DD100F074F8B5
:10207000002859D13878012856D000F067F801D4EB
:1020800000F086F94146D6F800E00C9D0B98DDF88B
:1020900028C0DEF8008028F40068CEF800804FF0F9
:1020A000210E87F801E04FF0400887F802804FF0DA
:1020B000000EC7F804E000F040F900F039FA0028FB
:1020C0002BD108E0716A0A780261706A411C716262
:1020D000308DFFF7B1FF308DA0B122462946304642
:1020E00000F055FBA0B9706A326801781161706A1E
:1020F000411C7162308D411E00F019F8EBD589B298
:102100000029DFD122462946304600F06BFB30B172
:102110007868042801D100F0C8FA012005E000F039
:10212000C4FA00F00CF800E00220BDE8F687318523
:10213000708D421E728530684269530770472020B7
:1021400078700021B9700020387070470121397013
:1021500030680268D107704700941923012256495C
:10216000304600F0ABBA0000A186010080841E005A
:1021700000093D0040420F000030FFFF007CFFFFE0
:102180000646884691469A4600F064BC06F13C0734
:1021900004467878202870472DE9FC47FFF7F0FFC8
:1021A000FFF7F4FF02D1FFF7D7FF002840F081804E
:1021B000387801287DD0FFF7C9FF01D400F0E8F896
:1021C0004146D6F800E00C9D0B98DDF828C0DEF8FB
:1021D000008028F40068CEF800804FF0220E87F8C7
:1021E00001E04FF0400887F802804FF0000EC7F87A
:1021F00004E000F0A2F800F0EFF900284FD1308D94
:1022000018B1012804D100F0A7F800F07AF817E01F
:10221000022806D100F07AF900F050F80020009072
:1022200001E000210091FFF70EFF09E02246294658
:1022300000F053F8002832D100F046F8FFF7FAFE1C
:10224000308D002832D0042824D20128EED0022874
:10225000DFF8488100942B460CD100224146FFF75D
:10226000FBFE00281BD100F07EF8716A0870706ACE
:10227000421CE3E700224146FFF7EEFE00280ED1A4
:1022800000F044F92B4600F048F84146FFF7E4FE21
:1022900028B9E8E72246294600F01FF808B10120D6
:1022A00008E000F01DF8CBD50069DEE7FFF747FF37
:1022B00000E00220BDE8F6870200100030680268E6
:1022C00042F400620260704730680169706A017010
:1022D000716A4A1C704722464946304600F09FBA50
:1022E00030680169706A0170716A308D4A1C411E44
:1022F00072623185708D411E7185306841694A076F
:102300007047009031684A6900928B690093009889
:102310000A6842F400720A60704730680169706AA6
:102320000170716A308D4A1C411E72623185002233
:10233000708D411E718500947047C6F824C0708569
:102340005346708D30854A46DFF8B801F06201943B
:1023500000953046704700003068016821F48061C4
:102360000160002070473068016841F4007101602D
:1023700030680169706A0170716A308D4A1C411EB3
:1023800072623185708D411E7185326810697047A7
:10239000026842F001020260704700000400010080
:1023A000009021684A69009270472DE9F84F044671
:1023B0008B46FFF7E7FE04F13C07054678780126D7
:1023C000202877D1DFF8408100951923012241466A
:1023D00000F08AF800286DD1387801286AD03E7064
:1023E00000F06BF82420787000217960DFF8140188
:1023F000E06200F070F80095534600F072F838B9CA
:1024000021680BF0FE00086100F024FB054612E095
:1024100020680168CA0544BF4FF40070786003204B
:1024200049E000F017FB401B824502D3BAF1000FD0
:1024300001D1A02078702168486949697A784008FC
:10244000890AA02A00F0010001F0010101D008432F
:10245000E7D020207870206841698A0712D400F004
:102460008FF922685061009519230122414600F03E
:102470003BF8E8B9761C4E45BBD32020787000218C
:10248000397015E0026842F400720260002000908A
:102490001923FFF786FF012200F08DF8009500F068
:1024A00023F828B92020787000213970002002E03C
:1024B000012000E00220BDE8F28F20680268D10709
:1024C00003D4026842F0010202602068016821F42E
:1024D0000061016070472068016841F4807101600B
:1024E000704700224FF00111204600F0E7B8306835
:1024F000016841F4807101607047016841F48061B6
:10250000016070470000FFFF0200100030680168A2
:1025100021F480610160704790F83D007047006CC5
:1025200070472068016849084900016020467047EB
:102530002DE9F84304462068DDF82080099F89468C
:10254000016841F4807115461E46016000974346BC
:10255000FFF7C7FF40B120680168CA0544BF4FF4C8
:1025600000702064032023E0206809F0FE0101616F
:102570003B46424600F024F8A0B9FFF711FF00F0F7
:1025800019F800F027F840B9012E0DD02168280A6B
:1025900008613A4600F01DF830B1206C042801D1E2
:1025A00000F011F8012003E02068EDB20561002081
:1025B000BDE8F2833A468969009141460098704728
:1025C0003D492046A2E02068016841F400710160A5
:1025D000704741462046DAE02DE9F84F0546286865
:1025E000DDF828800B9F0C46FFF787FF164628680A
:1025F000016841F480719946016000F04FF80028AD
:102600004FF4007A2ED12968DFF8ACB004F0FE0058
:10261000086100F03EF8002834D1009029684A692A
:102620000092FFF7C7FF00F032F870B9B9F1010F5F
:1026300005D02968300A086100F027F828B9286811
:10264000F6B2066100F021F830B1286C042819D1E7
:10265000286800F02BF815E02868FFF749FF00F024
:102660001DF838B128680168CA0548BFC5F840A000
:10267000032008E0286844F00104E4B2046100F09B
:1026800008F800B10120BDE8F28F3A4641462846DD
:102690007DE03B4642465946284637E00097434690
:1026A00000224FF00111284608E03068016841F42B
:1026B0000071016070470000020001002DE9F04147
:1026C000069F05460E4690461C4631022868090EB4
:1026D00001290CBF40698069304080B2B1B28842A4
:1026E0000CBF0120002040450DD114F1010FECD0AA
:1026F00000F0B0F9C01B844201D3002CE5D100F0FA
:1027000063F8012000E00020BDE8F081F8B505463F
:102710000E4614461F463102090E2868012919D1B8
:102720004169314089B2B2B2914219D041694A053A
:1027300018D500F025F82A685061002105F13C0009
:102740002963202242708170426842F00402426094
:10275000017013E08169314089B2B2B29142E5D192
:102760000020F2BD14F1010FD5D000F073F9C01BA9
:10277000844201D3002CCED100F026F80120F2BD16
:10278000016841F4007101606FF48060704770B5BA
:1027900005460C46164628684169080612D42846A4
:1027A00000F069F808B1012070BD14F1010FF2D0FA
:1027B00000F050F9801B844201D3002CEBD100F0D3
:1027C00003F8F0E7002070BD00202863202105F108
:1027D0003C00002241708270416841F0200141605C
:1027E0000270704770B505460C4616462868416968
:1027F000480712D4284600F03EF808B1012070BD09
:1028000014F1010FF2D000F025F9801B844201D3AE
:10281000002CEBD1FFF7D8FFF0E7002070BD70B5BA
:1028200005460C461646286841694A0617D4416990
:10283000CA060BD400F00EF9801B844201D3002C91
:10284000F1D100F00EF841F0200104E06FF010012A
:10285000416100F006F841600270012070BD002067
:1028600070BD00202863202105F13C00002241704A
:1028700082704168704701684A6953050FD56FF44B
:1028800080624A61002101633C30202242708170E5
:10289000426842F00402426001700120704700204B
:1028A000704770472DE9F04104000F4654D0494E5F
:1028B000306800F00F00B84202D200F073F84BD13C
:1028C0002068454D810712D5400703D5A96841F41A
:1028D000E051A9602078010703D5A86840F4604062
:1028E000A860A968A06821F0F0010143A9602178DF
:1028F000C80729D56068012802D129688A0305E044
:10290000022818BF032803D129688A0103D423E0D1
:1029100029688A0720D5A968890840EA8100A8604B
:1029200000F098F88046A868616800F00C00B0EBF1
:10293000810F09D000F08EF8A0EB080041F2893138
:102940008842F0D303202BE0306800F00F0087426C
:1029500004D200F027F801D0012021E020784107BF
:1029600005D5AA68E06822F4E0520243AA60217803
:10297000080706D5A968206921F4604141EAC00131
:10298000A96000F035F8AA681449154BC2F3031288
:10299000895CC84018601348006800F061F80020A6
:1029A000BDE8F0813770316801F00F01B94270471E
:1029B0000B480D4A006813680C49C3F3822206E0F5
:1029C0000748094A006813680849C3F34232895C22
:1029D000C8407047003C024000380240D43F000825
:1029E0009C0000204400002008380240F840000805
:1029F00030B5144C606800F00C00042802D00828A0
:102A000002D01DE0104830BD22682068002341023A
:102A100002F03F0204D525680B49C5F3881003E096
:102A200020680A49C0F38810A1FB0001FFF70AF9EA
:102A30002168C1F30141491C4900B0FBF1F030BDF0
:102A4000024830BD0438024000127A000024F4002D
:102A50007047000001484068704700BF3C000020FC
:102A600038B50D4D0D4B2A7804464FF47A7118682D
:102A7000B1FBF2F2B0FBF2F000F054F850B9102CB8
:102A800008D2002221464FF0FF3000F023F8AC605E
:102A9000002032BD012032BD3C0000209C000020FF
:102AA0000901020002D4294881547047284B02F0E2
:102AB0000F021A4402F8041C7047264B19684FF69F
:102AC000FF020002114000F4E0600843224908437D
:102AD0001860704770B51F4B1C68C4F302230124B3
:102AE000C3F10705052D2EBF0F2504FA05F56D1E50
:102AF0001E1D072E34BF0023DB1E2940994004FA17
:102B000003F3BDE870405B1E1A401143C8E70100A3
:102B100007D4012200F01F01104B8A40400943F8FE
:102B20002020704710B5401EB0F1807F01D30120F6
:102B300010BD0B4C60600F214FF0FF30FFF7B0FF6E
:102B40000021A16007202060002010BD00E400E00B
:102B500018ED00E00CED00E00000FA0500E100E0F7
:102B600010E000E02DE9F843040016D02078DFF8EB
:102B7000F462C10713D5B06800F00C00042807D038
:102B8000B06800F00C0008283DD1706841023AD5C9
:102B90003068810303D56068002800F05E812078EA
:102BA000B14F810719D5B06810F00C0F07D0B0688D
:102BB00000F00C0008285BD17068410258D43068DE
:102BC000810703D5E068012840F04781316820691A
:102BD00021F0F80141EAC00131602178080779D578
:102BE0006069A249002868D001220A60FFF732FF1D
:102BF0000546706F81076DD4FFF72CFF401B02283C
:102C0000F7D903202CE16068B0F5803F04D130682B
:102C100040F48030306011E0B0F5A02F306806D16C
:102C200040F480203060316841F4803105E020F4C8
:102C300080303060316821F480213160606858B1A3
:102C4000FFF708FF054630688103A8D4FFF702FFAD
:102C5000401B6528F7D3D4E7FFF7FCFE0546306834
:102C600081039CD5FFF7F6FE401B6528F7D3C8E724
:102C7000E068A8B101213960FFF7ECFE0546306835
:102C8000810705D4FFF7E6FE401B0228F7D9B8E715
:102C90003068216920F0F80040EAC10030609CE70C
:102CA0003860FFF7D7FE05463168880795D5FFF7EE
:102CB000D1FE401B0228F7D9A3E70860FFF7CAFE40
:102CC0000546706F810705D5FFF7C4FE401B02283B
:102CD000F7D996E7207841075FD5306C0025C10011
:102CE0000AD400950125316C41F080513164306C7B
:102CF00000F0805000900098DFF87481D8F8000050
:102D0000C10513D4D8F8000040F48070C8F8000062
:102D1000FFF7A0FE8146D8F80000C10506D4FFF7F2
:102D200099FEA0EB09000228F5D96AE7A0680128FE
:102D300005D00528306F06D140F004003067306FB1
:102D400040F0010005E0400840003067306F20F09F
:102D50000400306741F28938A06860B1FFF77AFE5D
:102D60008146306F810713D4FFF774FEA0EB090092
:102D70004045F6D345E7FFF76DFE8146306F81078A
:102D800006D5FFF767FEA0EB09004045F6D338E70C
:102D90001DB1306C20F080503064A06900285ED0F6
:102DA000B16801F00C0108293AD002282AD100208C
:102DB0003866FFF74FFE05463068810105D5FFF7FD
:102DC00049FE401B0228F7D91BE7E069216A626AC5
:102DD0000843A16A490840EA8210491E40EA0140BE
:102DE000E16A40EA0160706001203866FFF732FE58
:102DF00004463068810132D4FFF72CFE001B022804
:102E0000F7D9FEE600203866FFF724FE0446306856
:102E1000810124D5FFF71EFE001B0228F7D9F0E63A
:102E200001281AD07068E26900F48001914202BF63
:102E300000F03F01226A91420FD147F6C071626AE9
:102E40000140914202BF00F44031A26A914202BFA8
:102E500000F07060E16A884201D0012000E00020AB
:102E6000BDE8F2830038024000004742800E47422E
:102E7000007000402DE9F84F0D460026A549A64AEE
:102E80000F23044601202F68B04000EA0708804560
:102E900040F0B2804FEA460C032707FA0CF76FEABE
:102EA000070E6F68012F18BF022F03D0112F18BF14
:102EB000122F12D1A768D5F80C900EEA070709FA6D
:102EC0000CF949EA0707A760676827EA00006F68FE
:102ED000C7F30017B74038436060E068AF680EEA98
:102EE000000007FA0CF73843E060B0006F68022F6B
:102EF00018BF122F12D1F70804EB870700F01C0946
:102F0000D7F820A003FA09FB2AEA0B0AD5F810B07B
:102F10000BFA09F949EA0A09C7F8209027680EEA6E
:102F2000070E2F7907F0030707FA0CF747EA0E0799
:102F300027606F68FF005FD5002700974FEA960C67
:102F4000176847F48047176000F00C00176807F413
:102F50008047009703FA00FE009F704F57F82C70CF
:102F600027EA0E0E6E4FBC4208BF002713D06D4FEC
:102F7000BC4208BF01270ED06B4FBC4208BF0227DE
:102F800009D06A4FBC4208BF032704D0684FBC4237
:102F90000CBF0427072707FA00F0604F40EA0E0035
:102FA00047F82C006FEA08000F6800EA070C6F680A
:102FB000FF0348BF48EA0C0CC1F800C04F6800EAA4
:102FC000070C6F68BF0348BF48EA0C0CC1F804C087
:102FD0008F6800EA070C6F68FF0248BF48EA0C0CD4
:102FE000C1F808C0CF6800EA070C6868800248BFD3
:102FF00048EA0C0CC1F80CC0761C0F2E7FF642AFCD
:10300000BDE8F18F2DE9F84F81460C460025414877
:10301000424A00940F210123009E03FA05FA0AEAAE
:10302000060656455FD14FEA950C4FEA850B52F8DC
:103030002C403B4F0BF00C0E01FA0EF8B94508EA94
:10304000040408BF002713D0364FB94508BF012735
:103050000ED0354FB94508BF022709D0334FB945C7
:1030600008BF032704D0324FB9450CBF04270727F8
:1030700007FA0EF7BC4212D10468F64334400460EC
:10308000446834404460846834408460C4682640A6
:10309000C66052F82C4024EA080442F82C4003246D
:1030A0006E00B440E643D9F800403440C9F800400F
:1030B0000BF01C0BEC0809EB840401FA0BFB276AEC
:1030C00027EA0B072762D9F80C403440C9F80C40B6
:1030D000D9F8044024EA0A04C9F80440D9F80840A1
:1030E0003440C9F808406D1C0F2D95D9BDE8F18F0B
:1030F0000069084018BF0120C0B2704702B9090436
:103100008161704742690A408A4208BF09048161AF
:1031100070470000003C014044380240083801403C
:10312000000002400004024000080240000C02407F
:103130000010024038B5040001D1012032BD00F07A
:1031400021F808B900F022F800F012F800F023F896
:10315000FFE7416100F001F832BD2068C16841F429
:103160000051C1600020686020216970A97070471B
:10317000242068702068C16821F40051C160204695
:1031800000F09EB804F13805687870470021297076
:10319000204600F007B92068016921F490410161DF
:1031A0002068416921F02A0170472DE9F84305465E
:1031B00005F138070C46787820281646984646D1FF
:1031C000002C14BF002E012042D0387801283ED0B8
:1031D000012139700020786021227A70FFF73AFCD3
:1031E0008146AE84EE840020387003E02A6814F82B
:1031F000011B5160E88CE0B1E88C411EE9844B462C
:10320000A868CDF80080B0F5805F0DD100F022F8FD
:10321000B8B920882968C0F30800486028690028E8
:1032200014BF641CA41CE5E700F014F80028DDD0EE
:1032300007E0CDF800804B460022402100F00CF85A
:1032400008B1032004E020207870002000E0022074
:10325000BDE8F283002280212846FFE72DE9F041F6
:10326000069C05460E4690461F4628680168314078
:10327000B1420CBF01200020404517D114F1010FCD
:10328000F3D024B1FFF7E6FBC01B8442EDD22868DF
:10329000C16821F4D07100F00CF805F1380020214C
:1032A0004170817000210170032000E00020BDE822
:1032B000F081C1602868416949084900416170474F
:1032C000D0B50646642732681169F06821F4405190
:1032D000014311611924D3682C48B1680340306957
:1032E0000B4371690343F0690B430343D360516996
:1032F000B06921F4407101435161F36924482549C3
:10330000B3F5004F1FD18A4218BF824202D1FFF7A6
:1033100057FB01E0FFF74CFB0246A4FB0201726879
:10332000D30F5200FEF78EFC00F036F8FF00323764
:103330006420B7FBF0F0420002F4F87202EB0112D5
:1033400000F007001DE08A4218BF824202D1FFF759
:1033500037FB01E0FFF72CFB0246A4FB0201726879
:10336000930F9200FEF76EFC00F016F83F01323723
:103370006420B7FBF0F000F0F00202EB011200F065
:103380000F00316880188860D0BD0000F369FFFF2E
:1033900000140140001001406421B0FBF1F107FB73
:1033A0001107704770470000F0B5054678A085B05A
:1033B0000E4650F8251088470024012E2BD169486D
:1033C000694E0190694656F82500FFF753FD00BF8E
:1033D0006EA151F82510301D00EBC506304600F0F7
:1033E000E0F86FF0030738B966A050F825200021F7
:1033F000304600F0CFF808B13C460CE00FF28010E8
:1034000061A1465751F8251000223046FFF762FBB4
:103410003046FFF77CFB204605B0F0BD002000F0F1
:1034200063B910B586B00020504C0090002221688E
:1034300041F0040121600021206800F004000090A8
:103440001720009BFFF746FB1720FFF760FB00F0FB
:103450002DF82820FFF75BFB1422002101A800F0C3
:1034600065F9002000902168414A41F00401216083
:103470004FF40051206800F00400009000983D488F
:10348000019102920021039101A9FFF7F3FC0022B0
:1034900000211720FFF71EFB1720FFF738FB00F075
:1034A00005F82820FFF733FB06B010BD00220021ED
:1034B0002820FFF70FBBF8B50024022886B028BFEC
:1034C0006FF0010435D22C4E2C4F311D850151F87F
:1034D000200006F10802505100940222234801699D
:1034E00041F400310161016901F40031009100995A
:1034F00000940421036843F001030360006800F0B6
:10350000010000900098019102920721059100F0BE
:1035100013F808220192022102910722059200F07D
:103520000BF806F10800284400F00AF908B16FF022
:103530000304204607B0F0BD0394049401A9384663
:10354000FFF798BC11B50C48047881B000EB8410EB
:103550004FF47A73012201A90830FFF726FE019883
:1035600016BD000000001110480000203038024055
:10357000000021100008024054000020000002401A
:10358000280000001D3400080F0000000D00000698
:10359000233400080346002009B95A60704701200F
:1035A000704708B90120704701600020704701781A
:1035B000012201F01F0102FA01F1054A13680B42D2
:1035C00004D011604068002818BF00477047000011
:1035D000143C014000E056E010B5002000F0C6F8B1
:1035E000012000F0C3F8022000F0C0F8002000F035
:1035F000D0F800F044F8012000F0CBF800F03FF8DC
:10360000022000F0C6F800F03AF80020FFF753FF60
:10361000384C204600F002F904F12C0000F0FEF8CE
:1036200004F1580000F0FAF800F0D0F80121002071
:10363000FFF7BAFE002000F005F90028FAD100F0EB
:10364000AEF800F01CF8012000F0A9F800F017F81F
:10365000022000F0A4F800F012F800F0CDF80128E4
:1036600004D1002000F095F825A004E0002000F02F
:1036700096F800BF27A0BDE8104000F0CFB84FF487
:10368000967000F01BB910B51B4C607801282AD148
:10369000002262704FF480711848FFF733FD00205C
:1036A00000F089F800F0A8F801280CBF0FF25000D4
:1036B0000FF2600000F0B2F8322000F0FFF821466F
:1036C000002000F0E0F8606040B9207830B10021BF
:1036D00021700220BDE8104000F05BB8BDE810404A
:1036E000022000F05CB810BD10B9034901204870F9
:1036F00070470000B83E00083C0200200000024075
:103700004C50442069732061637469766174656408
:103710000A0D00004C504420697320646561637495
:103720006976617465640A0D0000000010B50446F6
:1037300010460A460146204600F0D4F8204610BD47
:1037400010B5094901604FF4E1320C2100244260B8
:1037500041618460C46004618461C461FFF7EAFC74
:1037600000B10124204610BD0044004018B5294A8C
:1037700085B032F8303000930124019402230024F4
:1037800002EBC0020393029469465068FFF772FB94
:1037900019E080B500F009F80122586831E080B5E1
:1037A00000F003F8002258682BE01A4B33F8301071
:1037B00003EBC003704780B5164A32F8301002EBB5
:1037C000C002506821E0002006B010BD18B585B0D9
:1037D0004FF4807100910122002103910291019226
:1037E00069460D4C2046FFF745FB00224FF48071DF
:1037F0002046FFF783FCE6E74FF480710648FFF7A9
:1038000077BCFFF77BFC002002BDFFF77BFC0020AC
:1038100002BD000000000020000002400EB4C0B550
:10382000024603A800210190009101AB0121044848
:1038300078440C30FCF7AEFC06BC5DF810FB00BF12
:103840007B08000010B586B01449154A154C00914C
:10385000019220461449154A029104921449154ACE
:1038600003910592694600F071F840B91248A062D0
:10387000016811B12046884718B10020A0624FF0BE
:10388000FF3006B010BD0748826A5268002A18BF90
:103890001047FFE74FF0FF30704700000D3B000876
:1038A000A73B000810020020E73B0008293C000865
:1038B000093C0008552A00082000002038B50446BD
:1038C000FFF7C8F814F1010F054602D0044801784B
:1038D0006418FFF7BFF8401BA042FAD331BD00BF08
:1038E0003C00002062F30F2262F31F42401810F0E8
:1038F000030308D0C91A1FD3DB0748BF00F8012D06
:1039000028BF20F8022D130030B414461546103994
:1039100028BF20E93C00FAD8490728BF20E90C005D
:1039200048BF40F8042D890028BF20F8022D48BF69
:1039300000F8012D30BC7047C91818BF00F8012DE0
:10394000CB0728BF00F8012D7047000038B50024D0
:103950004FF0FF35B0B10A6802604B684360CA6837
:10396000C2600B6903618A68826049690FF20112C3
:1039700041610062C2610FF209118161006808B102
:10398000804700B12C46204632BD1CB50446606A13
:1039900058B9694604F1180000F0A0F89DF800003D
:1039A000242818BF262800D059E00120606200209A
:1039B00016BD183000F092B80246A6209268104753
:1039C0001CB500F048F800F094F818B99DF8000014
:1039D0002080002016BD02B56946183000F08EF830
:1039E00002BD10B5044610463CE02DE9F84F0646EE
:1039F00088461F46914640F201108742ACBF4FF403
:103A0000807ABA46F468534642461FFA89F1A620E6
:103A1000A047050014D1706980478346B268012130
:103A2000A6209047044670698047A0EB0B00B0F5D4
:103A3000A07F02D2002CF1D102E00CB16FF00205A0
:103A4000A7EB0A07D044D144BFB20FB1002DD2D0AA
:103A50002846BDE8F28F0C466946183070474FF093
:103A6000FF3016BD0A4601462469A620A04710BDB6
:103A700038B504698D044CBFA620AE20A04732BDE6
:103A8000F8B506468D04F46802D5A620A047F2BD1D
:103A9000AE20A047050013D1706980470746B26881
:103AA0000121AE209047044670698047C01BB0F5E5
:103AB000A07F02D2002CF2D102E00CB16FF002051F
:103AC0002846F2BD10B50446A0686468A04710BD42
:103AD00010B50446A0682468A04710BD80B50A460A
:103AE00001231721FFE7FFF7EDFF08B14FF0FF308B
:103AF00002BD80B50A4601230021F4E780B50A46DD
:103B000001230021FFF7E4FFEFE70000F8B5554D72
:103B1000554828600024686D411C002886B06965FE
:103B20003ED12846FEF7F8FC002839D14F4E504FC1
:103B300000901222316841F0020131604FF480712F
:103B4000306800F00200009000980191029201217B
:103B50000391032204210591049201A93846FFF73D
:103B600089F912210291012203924FF4007003217E
:103B7000019004910422059201A93846FFF77AF9D1
:103B80000094316941F400113161306900F4001092
:103B900000900098284600F06FF808B16FF0070415
:103BA000204607B0F0BD70B52E4D686D0024C0B141
:103BB000401E686515D12F482D4E026822F4001270
:103BC00002604FF480713046FFF71CFA4FF4007129
:103BD0003046FFF717FA2846FEF718FA08B16FF0DB
:103BE0000704204670BD0A4610B501464FF48053C5
:103BF0001C48FEF7DAFB002408B16FF002042046EF
:103C000010BD204604B070BD7FB500F020F8FEF76F
:103C100026FA002438B100F017F804280CBF6FF022
:103C200065046FF00304ECE77FB500F010F8FEF7D1
:103C3000B3FA002438B100F007F8042814BF6FF07D
:103C400065046FF00304DCE72846FEF768BC0092C9
:103C500001930A46034D4FF4805601460296102305
:103C60002846704768010020005400403038024068
:103C700000040240403802400A490B4A10B5016076
:103C8000426000244FF4804202618460C460446159
:103C90008461C4610462FEF71DF900B1012420466D
:103CA00010BD00BF00540040801A060038B586B031
:103CB00000F0CAF800F06DF800F0C0F800200090A5
:103CC000584C5948594D016841F00401016002689F
:103CD00002F004020092002200990092036843F06F
:103CE00080030360016801F0800100910099009257
:103CF000036843F001030360016801F001010091D2
:103D0000009900924FF4A461036843F0020303603A
:103D1000006800F00200009000982046FFF7EEF9DE
:103D2000002230212846FFF7E9F94FF4A46100F0A2
:103D300028F82046FFF79EF840203D490190029167
:103D40000022039201A92046FFF794F8302100F0E9
:103D500018F82846FFF78EF8002200211720FEF7FA
:103D6000B9FE1720FEF7D3FE002200212820FEF71F
:103D7000B1FE2820FEF7CBFEFFF72CFCFFF72BFC53
:103D8000FCE701910122002103910491029201A913
:103D9000704780B592B03022002106A8FFF7C6FC1C
:103DA00000F04CF8002000902248016841F080515A
:103DB00001600021006800F08050009000981E48CB
:103DC00000910221026822F4404242F40042026063
:103DD0000122006800F4404000900098069109928A
:103DE00010210A91022200210C920D9110224FF411
:103DF000A8710E920F91042207211092119106A82A
:103E0000FEF7B0FE022102910F204FF48051019085
:103E10000022049103920592022101A8FEF742FDBF
:103E200013B000BD000002403038024000040240E0
:103E300000001110403802400070004014220021A0
:103E400001A8FFF773BC000080B50B48016841F47E
:103E500000710160026842F480620260016841F40E
:103E6000807101600320FEF728FE0020FEF7F8FDB8
:103E700000F004F8002002BD003C024082B00020A7
:103E8000009000220B48416841F480414160416844
:103E900001F48041009100990092036843F080533F
:103EA0000360006800F0805000900098072002B086
:103EB000FEF703BE403802402D2D2D2D2D2D2D2D2A
:103EC0002D2D2D2D2D2D2D2D2D2D2D2D2D2D2D2D22
:103ED0002D2D2D2D2D2D2D2D2D2D2D2D2D2D2D2D12
:103EE000000000000A0D2A2A2A2A2A57656C636FEF
:103EF0006D6520746F20782D637562652D6E666325
:103F000034206578616D706C652A2A2A2A2A00009F
:103F10000A0D2D2D2D2D2D2D2D2D2D2D2D2D2D2D14
:103F20002D2D2D2D2D2D2D2D2D2D2D2D2D2D2D2DC1
:103F30002D2D2D2D2D2D2D2D2D2D0A0D00000000A8
:103F4000F0B40246106895681318506803EB5004EB
:103F5000C0071CD54D441AE013F8017B05F8017B1E
:103F6000491EF9D198B113F8011BC6F38106032E3F
:103F700008BF13F8016B01EB06214942801C29445C
:103F800005D011F8016B05F8016B401EF9D1A34271
:103F90000ED013F8016B16F0030104BF13F8011BD8
:103FA000C91C30090F28DBD113F8010B0F30D7E7FC
:103FB000F0BC02F10C0070470448054A016841F466
:103FC000700101604FF000601060704788ED00E004
:103FD00008ED00E000000000000000000102030402
:103FE000060708097047FEE7FEE7FEE7FEE77047B1
:103FF0007047704700F00AB80248FFF7D8BA024885
:10400000FFF7D5BA180000204C0000200248416894
:1040100002788A18426070473C00002010B50749BA
:1040200079441831064C7C44163404E00A68081DB3
:10403000114488470146A142F8D110BD2C00000070
:10404000480000004EF68851CEF20001086840F4A6
:1040500070000860BFF34F8FBFF36F8F4FF0007099
:10406000E1EE100A70470000F3D1FFFFE00000000E
:104070006801002000000000C9FEFFFF5C01000095
:104080001C0100000000002000F00DF8002801D005
:10409000FFF7C4FFAFF300800020AFF30080FFF70D
:1040A00005FE00F002F80120704700F001B80000A2
:1040B00007463846FDF704FFFBE738B504460D46D2
:1040C000284600F005F8A84218BF0024204632BD5B
:1040D0000149FFF737BA00BF20010020014880479F
:1040E00001480047B93F0008ED400008AFF30080E9
:1040F000FFF7A8FFFFF7C8FF00000000010203045C
:10410000FFF7FEBFFFF7FEBFFFF7FEBFFFF7FEBFE3
:10411000FFF7FEBFFFF7FEBFFFF7FEBFFFF7FEBFD3
:10412000FFF7FEBFFFF7FEBFFFF7FEBFFFF7FEBFC3
:10413000FFF7FEBFFFF7FEBFFFF7FEBFFFF7FEBFB3
:10414000FFF7FEBFFFF7FEBFFFF7FEBFFFF7FEBFA3
:10415000FFF7FEBFFFF7FEBFFFF7FEBFFFF7FEBF93
:10416000FFF7FEBFFFF7FEBFFFF7FEBFFFF7FEBF83
:10417000FFF7FEBFFFF7FEBFFFF7FEBFFFF7FEBF73
:10418000FFF7FEBFFFF7FEBFFFF7FEBFFFF7FEBF63
:10419000FFF7FEBFFFF7FEBFFFF7FEBFFFF7FEBF53
:1041A000FFF7FEBFFFF7FEBFFFF7FEBFFFF7FEBF43
:1041B000FFF7FEBFFFF7FEBFFFF7FEBFFFF7FEBF33
:1041C000FFF7FEBFFFF7FEBFFFF7FEBFFFF7FEBF23
:1041D000FFF7FEBFFFF7FEBF1310000150020402FD
:1041E00040200823000409100302400600000310C9
:1041F0000500008B390008B30412B90412C104127F
:10420000D70412E30412EB044301000131445002CD
:104210000802400D343101F0022F4400400001F04B
:10422000050724F4005A1500080452FF01E3BA13ED
:104230001440020000BA14A0F00217A00000208869
:10424000123948212C832713DC200A02040101C003
:1042500001002010020020082104211B61081264C3
:0642600008F31150016497
:04000005080040EDC2
:00000001FF
