:020000040800F2
:100000005006002049500008714F0008734F000847
:10001000754F0008774F0008794F00080000000076
:100020000000000000000000000000007B4F0008FE
:100030007D4F0008000000007F4F0008814F00083E
:1000400073500008775000087B5000087F5000086C
:1000500083500008875000088B5000088F5000081C
:1000600093500008975000089B5000089F500008CC
:10007000A3500008A7500008AB500008AF5000087C
:10008000B3500008B7500008BB500008BF5000082C
:10009000C3500008C7500008CB500008854F000827
:1000A000CF500008D3500008D7500008DB5000089C
:1000B000DF500008E3500008E7500008EB5000084C
:1000C000EF500008F3500008F7500008FB500008FC
:1000D000FF50000803510008075100080B510008A9
:1000E0008B4F00080F5100081351000817510008EA
:1000F0001B5100081F510008235100082751000818
:100100002B5100082F5100083351000837510008C7
:100110003B5100083F510008435100084751000877
:100120004B5100084F510008535100085751000827
:100130005B5100085F5100086351000867510008D7
:100140006B5100086F510008735100087751000887
:100150007B5100087F510008835100088751000837
:100160008B5100088F5100089351000897510008E7
:100170009B5100089F510008A35100080000000097
:10018000A7510008AB5100082DE9F04F0FF2A41C55
:10019000A1B0DCE90089CDE900892A9DDFF8DC9B6C
:1001A000049100248DF843500D944FF0FF3882469F
:1001B00016461F460FE0B3462C461BF8011B049859
:1001C000D0470028049000F0A2800D98401C641EC7
:1001D0000D90F2D176193078252808D1002100221F
:1001E0000791089209910A920B910C920DE06A46D0
:1001F0004146304600F0DAFF050001D10D98A1E03C
:10020000D9D50125E6E741F0010116F8010F2028B4
:10021000F9D023280CD02B2804D02D2805D0302845
:1002200009D076E041F00201EFE741F00401ECE78C
:1002300041F00801E9E741F01001E6E70F9209E01B
:100240000F98484505DA00EB800402EB4402303A8F
:100250000F92761C3278A2F130000A28F0D3307861
:100260002E2818BFCDF8388022D116F8010F2A2881
:1002700007D138683860761C50F8042B38600E922D
:1002800016E02D280CBF761C002000220E920AE0FA
:1002900040B90E9A4A4505DA02EB820403EB4403A7
:1002A000303B0E93761C3378A3F130020A2AEFD349
:1002B000ADF8401021A0317800F082FF08B116F8A7
:1002C000010B8DF842009DF84200682804D1307877
:1002D00068280AD1622105E06C2804BF30786C28B8
:1002E00003D171218DF84210761C12A806903A466F
:1002F00016F8013B02A9504600F064F838B912AA7A
:1003000002A9504600F0C8F900287FF564AF4046C6
:1003100018E02A2892D13A683A6052F8040B3A6001
:1003200000280F9003D540420F9041F00401761C45
:1003300095E700000000000000000000686A6C748F
:100340007A4C000021B0BDE8F08F622820D06828E8
:1003500011D06A2803D06C2827D0712825D10868CD
:10036000C01D20F007000860D0E9002308300860B5
:10037000194610467047002A0A680A60106803D0C0
:10038000121D0A6000B217E0121D0A6080B217E069
:10039000002A0A680A60106803D0121D0A6040B281
:1003A0000AE0121D0A60C0B20AE0002A0A680A6068
:1003B000106803D0121D0A60C1177047121D0A6031
:1003C000002170477CB50D4611461C462E69B4F1DC
:1003D000250200F04F811C3A00F08480121F022A8F
:1003E00040F280800E3A00F00981521F59D0093A3C
:1003F00078D0921E16D0521E35D0521E022A71D9C4
:10040000121F30D0521F00F09880521E49D0521E49
:1004100000F0E280D21E00F0FF80921E41D0D21E7A
:100420003FD02DE195F83A406C2C09D06869421C08
:100430006A610A680A6052F8043B0A60335429E191
:100440000A680A6052F8043B0A6000930022019295
:100450004FF0FF332B636A46294600F098F90028D5
:1004600040F1188103E195F83A000122FFF76DFF92
:10047000C5E90001002904D56869411C69612D2284
:100480000DE0288F810704D56869411C69612B2222
:1004900005E0C00721D56869411C696120223254FA
:1004A0001BE095F83A000022FFF74FFFC5E9000175
:1004B00095F83800010710D5D5E90023002B08BFB7
:1004C000002A0AD044F02000782806D1686930213B
:1004D0003154401C421C6A613454214668693044DE
:1004E000E86087E00868C01D20F007000860D0E9D8
:1004F000002308300860C5E90023D5E90001C80FD2
:1005000004D06869411C69612D220DE0288F8107A4
:1005100004D56869411C69612B2205E0C00704D538
:100520006869411C69612022325468693044E8607E
:100530002146284600F036FAACE005F13A02507840
:1005400020B14FF0FF340FF6043074E010786228C9
:1005500008D0682824D06A2812D06C282ED07128A0
:100560000ED02BE00A680A6052F8040B0A6020B92A
:100570004FF0FF340FF6EC205DE0E96A017089E08E
:100580000A680A6052F8040B0A6020B94FF0FF3481
:100590000FF6D0204FE0EA6AD317C0E9002379E0D4
:1005A0000A680A6052F8040B0A6020B94FF0FF3461
:1005B0000FF6B0203FE0E96A01806BE00A680A604C
:1005C00052F8040B0A6020B94FF0FF340FF6942064
:1005D00031E0E96A01605DE00A680A6052F8040BE4
:1005E0000A60002120F0000221F0FF33C5E900235A
:1005F000EE607821284600F02DF94BE06C2285F85A
:100600003A200B680B6053F8042B0B6052BB4FF081
:10061000FF340FF684200EE095F83A206C2AF0D0D3
:100620000868086050F8044B0860EC603CB94FF073
:10063000FF340FF6482000F0EBFD201A76BD2E6B3C
:10064000002E04D5204600F003FE044608E03246A2
:100650000021204600F006FE002814BF041B34468B
:10066000AC6117E0294600F092F8002812D54FF04F
:10067000FF3076BD6869411C69612522325409E06A
:100680006969481C686125227254210002D0431C0C
:100690006B613454002076BD2DE9F0410E460546CD
:1006A0009046726B7069316AB46A121AB069521A54
:1006B000716A121AF069521A121A96F83800141B4D
:1006C00041070DD4002C0BDD2746B0682021A84738
:1006D0000028B06057D0F06A401C7F1EF062F4D151
:1006E000736942463146284600F098FC00284AD1FA
:1006F000376A002F0ADDB0683021A8470028B060B3
:1007000041D0F06A401C7F1EF062F4D1B369F268F8
:100710003146284600F082FCA8BB776A002F09DD2D
:10072000B0683021A847B06068B3F06A401C7F1EF3
:10073000F062F5D1F068B169F36942183146284694
:1007400000F06CFCF8B9B76A002F09DDB068302101
:10075000A847B060B8B1F06A401C7F1EF062F5D1C6
:1007600096F8380041070BD5002C09DDB068202130
:10077000A847B06038B1F06A401C641EF062F5D141
:100780000020BDE8F0814FF0FF30BDE8F0812DE999
:10079000F8470D46A3B02F6B002F0646904648BF82
:1007A0006FF000470FF60C1400F088FDD4E9002329
:1007B000696B4018CDE90123812828BF4FF0FF3035
:1007C00042D20024002F33DDD8F8001001AA684679
:1007D00000F0EEFC8146B9F1000F38D4D8F80000E3
:1007E00010B9B9F1010932D44F4521DB6869484499
:1007F00081280AD30021696303AA29463046FFF7FE
:100800004BFF040014D40020686103ABD5F814A09A
:100810004A46694603EB0A0000F064FDCA44C5F885
:1008200014A058F8040B002818BFA7EB0907C9D17A
:100830004CB903AA29463046FFF72EFF044614B9E7
:10084000002068616863204624B0BDE8F0874FF05F
:10085000FF34F8E72DE9FC4307466F293E6908BFDE
:10086000082405D041F02000782814BF0A24102461
:100870003C25D7E90023642918BF69299046994689
:1008800005D1002B03D5D8F1000869EB4909B9F16E
:10089000000F08BFB8F1000F1FD1386BE8B9082C62
:1008A0004CD197F83800010748D530203B2586F811
:1008B0003B0043E000280ED597F8380000F0140004
:1008C000102808D17B6B7969386A5B1A1B1A9A1A4F
:1008D000002AC8BF3A62BDE8F3838DF80010404695
:1008E00049462246E31700F009FD3032D0B26D1EB2
:1008F0003A28019504DB9DF80000A0F151018A1807
:100900007255404649462246E31700F0F7FC804600
:100910005FEA010908BFB8F1000F03D0F868711948
:100920008842DCD3082C09D197F83800010705D597
:10093000705D302802D06D1E30207055C5F13C022C
:10094000BA617119F960386B8242B3DA821A3A627D
:100950004FF6EF70398F01403987BDE8F3832DE9F9
:10096000D04306460F4614464FF00008DFF81094B7
:1009700012E0E00707D542464B463046394600F0C4
:1009800045FD06460F464046494642464B4600F066
:100990003DFD641080468946002CEAD13046394638
:1009A000BDE8D0832DE9F84F05468A464AF0200479
:1009B0008EB0D5E90089612C02AE09D0286B0028E1
:1009C00048BF062003D408BF672C01D1012028634B
:1009D000D5E900014A005215521C0DD10B030BD072
:1009E000AAF1610103201A29A86102D20FF2CC6199
:1009F00010E00FF2CC610DE04A005215521C0ED1EE
:100A00000B030CD1AAF1610103201A29A86116D3A6
:100A10000FF2B461E868032200F064FCC0E1CDE9A4
:100A20000C01DDE90C2323F00043B3F5801F0DD248
:100A30000027002B08BF002A019703D111E00FF215
:100A40008461E7E701AA00F0B3FD0AE0CD48CE4992
:100A500000EB1350DDE90C2301900B40CB4910460D
:100A60001943C5E90001612C0DD1E86830210170FE
:100A7000821CBAF1610FEA600CBF782158214170E5
:100A80006869801C6861D5E90001CDE90C01DDE9E8
:100A90000C2333F0004104BF0028002300F04881FC
:100AA000612C40F0A080286B494600284CBF4FF0D5
:100AB000210B00F1010B404600220023DDE90C89E7
:100AC00000F0AEFD01990BF1010738BF89F0004934
:100AD000091F002F01918DF808200DF1090040F346
:100AE0003581A94900910646404649460022002327
:100AF00000F0AEFD80F029814800400D00F11C029D
:100B000011D0002A0FDD40F2FF739A4205DBA049A5
:100B100009F000400143002011E0009B194041EA28
:100B2000025140460BE028F0000039F0004108BFB8
:100B300000280FBF49461C22494600F0A1FD80460F
:100B4000894600F03BFEFF1F002F044609DD00F040
:100B500053FE02460B464046494600F05FFE804683
:100B60008946F01D072104E004F00F0200F8012D72
:100B70002411002C01DD491EF6D5491E5CBF002260
:100B800000F8012DF9D5DCE00020194602AA0A443C
:100B900000E05B1E12F80149491E8442F9D00F287B
:100BA00004D10DF10900425C521C4254002904D5C5
:100BB0000198001D02AE5B1C0190581E0CD4311828
:100BC000AAF13A040A783032D7B23A2FA8BFA21855
:100BD000401E01F80129F5D5286B002840F1A780B7
:100BE000591E2963A3E001996A4A47F2975041438D
:100BF00091FBF2F2019229F00046D2F1070204DDE6
:100C000040463146FFF7ABFE0AE0524200206249FF
:100C1000FFF7A5FE02460B464046314600F070FE47
:100C20008046662C286B06BF019F0A3706273F18AF
:100C3000142FC8BF142730208DF8080089460DF105
:100C4000090000E03046002F34DD064640464946A4
:100C500000F07AFF01460A4606F1080304200A263E
:100C6000B2FBF6F606EB860EA2EB4E02303203F82C
:100C7000012C0A22B6FBF2F202EB820EA6EB4E0624
:100C80003036401E03F8026DE9D1083F002F03F112
:100C90000806D7DD084600F06BFF02460B464046CB
:100CA000494600F0BBFD00223C4B00F0AFFB804604
:100CB0008946CBE70DF10901401A0DF1090604E060
:100CC0000199491E401E0191761C31783029F7D0D8
:100CD000662C02D10199491C03E0652C0CBF01214F
:100CE00000212B6BCB189842B8BF431E002B1ED49B
:100CF000834204DAF05C3528A8BF392000DA3020BE
:100D00001946721E02EB010800E05B1E18F80199FB
:100D1000491E8145F9D0392802D1705C401C7054BD
:100D2000002904D50198401C16465B1C01900198CF
:100D300000B200901BB232465146284600F034F80B
:100D40002EE0C61D002F3FF7CFAE30460DF1090152
:100D5000401A03465845C8BF5B46002B0DF10906F3
:100D60003FF53AAF8342BFF60FAF0DF10900C15C0A
:100D700007297FF709AF0F2007E70000CBCCCC0C89
:100D80000000244002FCFFFFFFFF0F800000E03F57
:100D90000000F07FA08601000000F03F84D797415B
:100DA0000FB0BDE8F08F00002DE9F84783B006468C
:100DB0008A461746984600F0FDF9B8F1000F406AE0
:100DC000356B90F8009002DC4FF00108BFA74AF0A5
:100DD0002000BDF93040662808BF641C15D0672884
:100DE00040F0848014F1040FC0F28680AC4280F29F
:100DF000838096F83800641C010702D4A845B8BF68
:100E0000454620B22D1A48BF00250FFA84FAF06833
:100E1000B169BAF1000F25DC4A1C30234354002D80
:100E200003DC96F83800010703D5F06800F802905B
:100E3000521C15EB0A0FB8BF6C4220B24419414254
:100E40004445B8BFA046B26171620FFA88F5F561FA
:100E5000F068B3692A463946184400F043FA641B27
:100E6000B462C4E022B29045084417DA42463946DB
:100E700000F038FAB0694044B061AAEB0801002DD7
:100E8000716203DC96F838100A0705D5F16801F89D
:100E90000090F069401CF061B562A8E0394600F0AE
:100EA00021FAB069002D5044A8EB040803DC96F841
:100EB00038100A0703D5F16801F80090401CB061B2
:100EC0000FFA88F08542F368B069B8BFA8460FFAF8
:100ED00088F207EB0A01184400F004FAB1690FFA2E
:100EE00088F00144B161281A706280E0BAF1610FA4
:100EF00014D14FF0700A16E0A84504DA96F83810BD
:100F00000A0758BF45466D1E48BF0025BAF1670F56
:100F100014BF4FF0450A4FF0650A04E0BAF1410FE3
:100F200008BF4FF0500AB169F368481CB061002D4A
:100F300017F8012B5A5403DC96F838100A071BD512
:100F4000F168431CB36101F80090002D14DDA8F195
:100F500001080FFA88F039468542F768B8BFA846FD
:100F60000FFA88F2F81800F0BDF9B0690FFA88F1AD
:100F700008446D1AB0617562F068B1690844002CCC
:100F800080F800A003D42B224270811C03E02D21A5
:100F900041706442811C00206A460AE023460A240C
:100FA00093FBF4F404EB8405A3EB450302F8013B47
:100FB000401C24B2002CF1DC012806DC4AF020029F
:100FC000652A04BF302201F8012B48B9302001F80E
:100FD000010B07E0401E1DF80030303301F8013BE3
:100FE0000028F7DCF268B0691044091AF16196F83C
:100FF000380000F0140010280DD17269B169706AD0
:101000008A18F1698218B06A8A188218706B824255
:10101000BCBF821A326204B0BDE8F087F8B505465D
:101020000E4617461C46002074B117F8011BB06825
:10103000A847B06030B1F06A401CF0620020641E26
:10104000F3D1F2BD4FF0FF30F2BD00007072696E57
:1010500074665F733A20256E20646973616C6C6FEF
:10106000776564007072696E74663A20626164200C
:10107000256E20617267756D656E74007072696EA1
:1010800074665F733A206261642025732061726721
:10109000756D656E740000007072696E74665F73C2
:1010A0003A2062616420256C7320617267756D65FA
:1010B0006E74000000000000000000006E616E0011
:1010C0004E414E00696E6600494E46003000F0B455
:1010D0000246106895681318506803EB5004C00767
:1010E0001DD54D441BE013F8017B05F8017B491E1B
:1010F000F9D1A0B1B60813F8011B06F00306032EC0
:1011000008BF13F8016B01EB06214942801C2944FA
:1011100005D011F8016B05F8016B401EF9D1A3420F
:101120000ED013F8016B16F0030104BF13F8011B76
:10113000C91C30090F28DAD113F8010B0F30D6E79C
:10114000F0BC02F10C0070471B48704770B4536844
:10115000D418042B09DA41B1057804F8015B10F8C2
:10116000016B16B15B1C491EF3E7536070BC7047FE
:1011700038B514461D4661B1FFF7E8FF61686A6B38
:10118000204690476FF00102811A02D0491E01D01B
:1011900001E003E005E00021616032BD6FF0010075
:1011A00032BD4FF0FF3032BDDA6B1047024BDFE744
:1011B000014BF9E70148704704010020CC000020F2
:1011C000C9B202788A421AB11CBF10F8012FF9E7A0
:1011D00018BF0020704730B4002513E050F8042BEE
:1011E000D30744BFA9F101039A18091F042942F843
:1011F000045BFAD213468C0744BF15809B1CC907B9
:1012000048BF1D7050F8041B0029E7D130BC70475F
:1012100080B500B906A005490B681BB12222002148
:10122000984701E000F0B1FC222002BD48020020F6
:10123000636F6E73747261696E742068616E646C42
:1012400065723A20626164206D6573736167650041
:1012500000F1010310F8011B11B110F8011BFBE7AD
:10126000C01A7047C9B2830706D0521E22D310F8A5
:10127000013B9942F7D11FE0083A13D302F104026F
:1012800041EA012141EA014150F8043B121F21BF0C
:101290004B40A3F1013C2CEA030C1CF0803FF3D03F
:1012A000C9B2001F083210F8013B521E28BF91EA54
:1012B000030FF8D818BF0120401E704780B5FFF714
:1012C00043FF006C02BDB1F5807F02D34FF0FF30C9
:1012D00070470170012070470078401E8041C04374
:1012E000C00F70474AB1000011F8013B521E00F8D0
:1012F000013B1CBF11F8013BF8E77047D3BBD9B1E4
:10130000B2F5803F5BD2022A1ED98C46B1FBF2F1C6
:1013100002FB11C31B0443EA1043B3FBF2FC02FBC4
:101320001C3380B240EA0343B3FBF2F002FB1032FD
:1013300040EA0C4000237047022A05D98446B0FBDE
:10134000F2F002FB10C270474AB105D100F0010271
:1013500049085FEA3000704700220023704700F020
:1013600017BC0B000200002100207047F7D30022B9
:1013700000237047904271EB030CF2D370B5B1FAC1
:1013800081F4B3FA83F52C1BA340C4F1200532FA93
:1013900005F63343A2405FF00046E64002E05B08FA
:1013A0005FEA3202841A71EB030524BF2046294606
:1013B0007641F4D302000B003000002170BD70B5FF
:1013C000B1FA81F4B2FA82F5C4F120046419B4F1DF
:1013D0002006DAD3B2405FF00044F440002502E07A
:1013E00052085FEA3303C61A71EB020E24BF30467F
:1013F000714664416D41F3D302000B0020002900C7
:1014000070BD0268531C036011707047B0B581EA6B
:10141000030C0CF0004C40F2FF7515EA11541DBF8F
:1014200015EA1357AC42AF4239E0E41923EA4553B9
:1014300043F48013C90241F0004141EA505EC70203
:101440001100A7FB020200284FF00000EEFB012074
:101450004FF00001E3FB072118BF42F001024018E2
:1014600000214941E3FB0E01A4F580640F0302D281
:1014700052004041494154F101046CDD470872F1CA
:10148000004250F1000051EB0451A1F580115CBF06
:1014900041EA0C01B0BD4CEA05510020B0BD05EA9F
:1014A0001357AC4214BFAF4241E050EA410E1CBF9B
:1014B00052EA430E02E061460020B0BD24423C44A3
:1014C0001BD15FEA070EF6D0090302BF01460020D8
:1014D000AEF1140EB1FA81F7AEEB070401FA07FE84
:1014E0000C37C7F1200100FA07F7C8404EEA000E9A
:1014F00023EA455343F48013A2E733F00043B3FAE1
:1015000083F704BFB2FA82FE77440B3FE41BB7F1C6
:10151000200E2FBF02FA0EF3BB40C7F1200E22FAB5
:101520000EFE38BF43EA0E03BA40641C82E750EA5D
:10153000410E14BF52EA430E6FF000014FF4001742
:1015400017EB430F8ABF194617EB410FB5E74CEA7B
:1015500005510020B0BDD4F10104B4F120070FDA29
:10156000C4F12007520828BF42F0010210FA07F523
:1015700001FA07F7E1BF2A43E0403843E1400FE0BA
:10158000352C98DCC7F1200452EA400220FA07F219
:1015900018BF42F0010231FA07F0A1400A430021CE
:1015A00072F1004250F1000051EB0C01B0BD00009F
:1015B00010B5144600F002F8226010BDC1F30A53C2
:1015C00043B14A0012F5001F28D2A3F2FE32A1EB6C
:1015D0000251704750EA410C20D001F0004C31EA32
:1015E0000C01B1FA81F204BFB0FA80F3D2180B3AC1
:1015F000B2F120032CBF00FA03F1914041EA0C0143
:101600003EBFC2F1200C20FA0CF319439040524225
:1016100040F2FD33D21A01EB0351704700227047AC
:101620004FF4001C1CEB410F94BF1CEB430F09E06F
:1016300041EA030C50EA4C0C52EA0C0C03D29942DA
:1016400008BF9042704714BF8B428242704700002F
:101650004FF4001C1CEB410F94BF1CEB430F09E03F
:1016600041EA030C50EA4C0C52EA0C0C03D28B42B8
:1016700008BF8242704714BF9942904270470000F1
:10168000124254D440F2FF7C1CEA11530FD0634540
:1016900031D09B1863453CBF01EB0251704701F00C
:1016A000004141EA0C510020AFF30080704750EA3E
:1016B000410320D001F0004C91EA0C011CD0B1FA9A
:1016C00081F30B3B9A420DD9D21A994051EA0C0191
:1016D000C3F1200C20FA0CFC61449840531C40F2EA
:1016E000FF7CD7E7914041EA0C01C2F1200C20FABF
:1016F0000CF3194390407047B0FA80F31533202B58
:10170000E0D3202AEED3203A203B9A4209D9D21ABC
:1017100000FA03F141EA0C010020531C40F2FF7C67
:10172000B8E700FA02F141EA0C010020704752428A
:1017300040F2FF7C1CEA11530DD06345DBD0B2EBC5
:10174000030C3CBFA1EB025170470CF1010221EAEE
:10175000035141F4801150EA410CCCD001F0004C0F
:10176000352A27DC30B481EA0C01B2F1200309DA12
:10177000C2F12003044601FA03F5D0402843D140CA
:101780009C400CE0C3F12002450020FA03F418BF8E
:1017900044F0010421FA03F091400C43002174F15C
:1017A000004550F1000051EB0C01244230BC7FF4A5
:1017B0007BAF70476146002076E70000C1F30A5313
:1017C00040F2FE329B1A14DDD3F120034FEAE1729E
:1017D00008DDC90241EA505141F00040D84080186C
:1017E0005040704703F2E13010B1D24382F0004024
:1017F0007047002070470000C11768B14840401A88
:10180000B0FA80F29040D21CC907C2F5846241EA66
:10181000025202EBD02140057047000070B44FF037
:10182000004591EA030F40F1B5816B40841A71EBDA
:10183000030603D2001BB141121973414FF4001C7F
:101840001CEB410F34BF7CEB430442E00C0DA4EBD6
:101850001356352E4FDC45EAC323DB0A45EAC12186
:10186000C912B6F120050DDD63FA05F6EB4086EAF4
:101870000305124218BF45F00105C01851F10001DF
:101880000CD213E062FA06F5F2405540F3415A409B
:10189000B340F3405A408018594107D349085FEAE2
:1018A00030005FEA350528BF45F0010501F58011DC
:1018B000420875F1004250F1000041EB04514E0026
:1018C00016F5001F70BC38BF70470020090D0905D0
:1018D00070471CEB410F10D252EA43060BD0BCEB11
:1018E000410F05D80C0DAB43661E342EB6DD02E069
:1018F000AB438018594170BC704770BC7047000002
:10190000F0B540F2FF7581EA030C0CF0004C15EACB
:1019100011541DBF15EA1357AC42AF42E5E0BC417C
:10192000C1F31301C3F31303801A994143F48013E5
:1019300004D2641E4000494180185941C90241EA5D
:101940005051B1FBF3F603FB1611A2FB0675D7EB62
:10195000C020A94102D2761E80185941C90241EA2D
:101960005051B1FBF3FE03FB1E11A2FB0E75D7EB2A
:10197000C020A94103D2AEF1010E8018594189025D
:1019800041EA9051760546EA8E2EB1FBF3F603FB51
:101990001611A2FB0675D7EB8020A94102D2761E54
:1019A00080185941C90241EA50514EEA060EB1FB76
:1019B000F3F603FB1611A2FB0675D7EBC020A94175
:1019C00002D2761E80185941C90241EA5051B1FB3A
:1019D000F3F703FB1711A2FB0735D3EBC020A94196
:1019E00067F100070CBF004247F0010766F3D527F7
:1019F0004FEA1E31B80814F5806412DDBD0775F199
:101A0000004250EB0E5051EB045111F5801F5CBFAA
:101A100041EA0C01F0BD4CF07F6141F0E041002053
:101A2000F0BDBD076D0840EA0E5041F48011D4F1BD
:101A30000104B4F120060ADAC4F120060200E040F5
:101A400001FA06F3E1401843B24015430EE0342C8E
:101A500013DCC6F1200445EA40056D0820FA06F2C1
:101A6000154321FA06F0A1400D43002175F1004213
:101A700050F1000051EB0C01F0BD00205FEA0C01B9
:101A8000F0BDCFB992185B41B3FA83F704BFB2FA45
:101A900082F6BF190B3FB7F120062FBF02FA06F3FB
:101AA000BB40C7F1200622FA06F638BF3343BA40DE
:101AB0001CB1E419641E33E77F4231F00041B1FAF2
:101AC00081F404BFB0FA80F6A4190B3CB4F12006EF
:101AD0002FBF00FA06F1A140C4F1200620FA06F655
:101AE00038BF3143A0403C1B1AE7AC421ABF05EA9D
:101AF0001357AF4212E050EA41061CBF52EA4306B8
:101B0000BFE750EA4107304661461CBF41EA055134
:101B1000F0BD52EA430C08BFC143F0BD00204FF4B2
:101B2000001616EB410F98BF16EB430F08BF16EBDC
:101B3000410F24BFC14305E016EB430F0CBF6146C4
:101B40004CEA0551F0BD0000400D491840EA8120E3
:101B50000CD2490DA1F58061491C40F0004005DB25
:101B6000D1F11F0154BFC840C01770470020704713
:101B7000014648B1B0FA80F18840C91CC1F58461C2
:101B8000090501EBD02140057047012000F0B8B8ED
:101B900070470000841A71EB030604D26E40001BEC
:101BA000B141121973414FF4001C1CEB410F34BFBB
:101BB0007CEB430683E00C0DA4EB1356362E00F3AA
:101BC0007C80012E45EAC32341DC43EA525312BF15
:101BD000D20292025B08240545EAC12141EA505134
:101BE000D2EBC020994125D407D1B0FA80F610FA83
:101BF00006F162D00020203608E0B1FA81F6B1404B
:101C0000C6F1200220FA02F21143B0404FEAF47408
:101C1000B4EB465434F001064FEA74040AD8D6F502
:101C20000016760D04F00044F04061FA06F25040D0
:101C3000F1404840C00A40EA415021F0004128BF2D
:101C40005FEA500550F1000044EBD12135E0DB0A9A
:101C500045EAC121C90AB6F120050EDD42EA024279
:101C6000120CC5F1200603FA06F6EB4042EA06051F
:101C70006D42984161F100010DE062FA06F5F24013
:101C8000554063FA06FC82EA0C02F3405A406D426A
:101C9000904161EB030111F4801F05D1641E6205C0
:101CA00002D06D004041494121F48011430875F193
:101CB000004350F1000041EB045170BC70471CEB35
:101CC000410F15D223F0004352EA43060BD04FEAEE
:101CD0004C0CBCEB410F04D80C0D661E342EB7DD46
:101CE000EBE7801A994150EA410608BF0021E4E77A
:101CF00008BF1CEB430F28BF6FF00001DDE70000B9
:101D000080B5AFF30080024A11001820ABBEFBE79C
:101D1000260002002DE9FC47050017D0DFF8E87621
:101D2000DFF8F466BC68F86800F003082878C1069C
:101D300004F00C0453D524B10C2C08BFB8F1010FEA
:101D40002FD13868810703D5A869002800F06A817F
:101D5000396808074EBF396871680909286A01F0B7
:101D6000F001814206D200F013FB002809D100F0F7
:101D70000CFA08E000F009FA2CB9286A00F008FB18
:101D8000002840F04F8100F0A6FABA6800F099FAF6
:101D9000DFF87C06006800F057FB010000F032819C
:101DA000EDE1A86990B1396841F00101396000F0B6
:101DB0006DFB81463868810700F1228100F066FBE7
:101DC000A0EB09000328F5D30320D8E138684008C8
:101DD0004000386000F05AFB81463868810740F1C6
:101DE000118100F053FBA0EB09000328F5D3EBE7CA
:101DF0006868B0F5803F04D1386840F480303860BE
:101E000011E0B0F5A02F386806D140F4802038608A
:101E1000396841F4803105E020F480303860396859
:101E200021F480213960686868B100F02FFB814699
:101E30003868810300F1F88000F028FBA0EB09006E
:101E40006528F5D3C0E700F021FB8146386881039F
:101E500040F1EA8000F01AFBA0EB09006528F5D3F9
:101E6000B2E700F013FB00F08CF9C0F00381ABE7A0
:101E7000E86880B1396841F48071396000F006FB90
:101E800080463868410500F1E08000F0FFFA00F07C
:101E900078F9F6D398E7386820F48070386000F05D
:101EA000F5FA80463868410540F1D68000F0EEFA38
:101EB00000F067F9F6D387E740084000706000F053
:101EC000E5FA80467068810740F1D88000F0DEFABC
:101ED00000F057F9F6D377E70528306806D140F0CF
:101EE00004003060316841F0010105E04008400025
:101EF0003060316821F004013160A86841F289390D
:101F000068B100F0C3FA82463068810700F1EC80C6
:101F100000F0BCFAA0EB0A004845F5D354E700F006
:101F2000B5FA82463068810740F1DE8000F0AEFAF3
:101F3000A0EB0A004845F5D346E700F400328A4298
:101F40000FD1EA6B520800F4C001521EB1EB425FA0
:101F500007D1296C490800F0C060491EB0EB416F01
:101F60001FD00C2C5ED0386841015BD43868C100AA
:101F700058D4386820F08070386000F087FA044642
:101F80003868810140F1D78000F080FA001B0328F7
:101F9000F6D319E700F07AFA401B0328C0F0EA8074
:101FA00012E73868810104D400F001F9044638686A
:101FB000810100F1E38000F069FA001B0328F6D3E9
:101FC00002E70C2C2ED0386820F080703860396819
:101FD00011F0205F03D1F86880088000F860F9688C
:101FE000DFF83804014000F0E9F804463868810160
:101FF00040F1C48000F04AFA001B0328F6D3E3E660
:1020000000F0C3F82878C1070ED5082C05D00C2C99
:1020100008BFB8F1030F7FF4EBAE3868810303D536
:10202000686808B90120AAE02878810714D5042C33
:1020300005D00C2C08BFB8F1020F7FF419AF386837
:10204000410502D5E8680028ECD07868296920F0BD
:10205000F85040EA01607860287801070ED5686979
:10206000002870683FF428AF40F00100706000F075
:102070000DFA8046706881077FF5F3AE2878410736
:1020800039D5B86DC1004FF000080AD4B86D40F0E2
:102090008050B8654FF00108B86D00F08050009096
:1020A0000098DFF87C93D9F80000C10513D4D9F863
:1020B000000040F48070C9F8000000F0E7F98246A3
:1020C000D9F80000C10506D400F0E0F9A0EB0A0041
:1020D0000328F5D378E6A86801287FF4FDAE3068C0
:1020E00040F00100306008E7B8F1000F03D0B86D90
:1020F00020F08050B865A86A00283FD002287FF4FD
:1021000060AFF868EA6A00F00301914201BF00F095
:1021100070012A6B521EB1EB021F04D16A6B00F4EE
:10212000FE41B1EB022F7FF41CAFA96B07290CBF56
:102130000021012101E7FA68DFF8E812E86A0A40A5
:10214000296B0243491E686B42EA0112E96B490898
:1021500042EA0022286C491E400842EA4152401ED1
:1021600042EA4062A86B000942EA4042FA6000F08D
:102170001EF80546386881017FF50CAF0020BDE8E8
:10218000F687A0EB080003287047386840F0080085
:1021900038603968286A21F0F001014339607968B4
:1021A000E86921F47F4141EA00217960704738688D
:1021B00040F080703860F96841F08071F96000F09B
:1021C00065B92DE9F0410400884678D0DFF85862FF
:1021D000306800F00700404509D23168C90848EA74
:1021E000C1013160306800F00700404567D12078B8
:1021F000DFF81452C1074AD56068032802D1296864
:102200008A0108E0022802D129688A0303E0002835
:10221000296802D18A0702D451E04A054FD5A9683E
:10222000890840EA8100A86000F030F90746A868F4
:10223000616800F00C00B0EB810F28D000F026F9A7
:10224000C01B41F289318842F1D303201DE0207880
:10225000410705D5AA68E06822F4E0620243AA605B
:102260002178080706D5A968206921F4605141EA60
:10227000C001A96000F02FF8AA6800F022F8BDE8BC
:10228000F0416348006800F0DFB8BDE8F0812078D5
:10229000810705D5AA68A06822F0F0020243AA606F
:1022A000316801F007018845D1D23068C00848EA9A
:1022B000C0003060316801F007014145C7D00120FE
:1022C000E3E75A49C2F30312895C504A01F01F0147
:1022D000C8401060704770B54B4A564B9068D6683E
:1022E0000025002110F00C0006F00306524C03D02C
:1022F0000C2812D1012E1AD115682E0704D4454D91
:102300002E68C6F3032502E01568C5F303154B4E8E
:1023100056F8255048B9294624E0042808BF21462C
:1023200020D008281ED119461CE00C281AD1D068EC
:1023300000F00300022803D0032808BF1D4600E078
:102340002546D168D068D268C0F306204543C1F362
:102350000210C2F34161401C491CB5FBF0F049007A
:10236000B0FBF1F1084670BD2848314A0068136897
:102370003349C3F3022206E024482D4A006813685B
:102380002F49C3F3C222895C01F01F01C840704786
:102390007CB52C4E054630680024C10002D500F003
:1023A0007BF80EE0306840F080503060316801F01A
:1023B00080510091009800F06FF8316821F0805151
:1023C0003160B0F5007F04D1802D0CD9A12D09D347
:1023D00004E0802D88BF032405D801D1022402E047
:1023E000702D00D1012410480168C90844EAC101D8
:1023F0000160006800F00700A04201D0012076BD16
:10240000002076BD0000000000100240C80000203F
:10241000B00000209410024090100240FFFFEEFE3A
:10242000007000408C809DF900200240FC4E0008A6
:102430000810024000127A000024F400404F000807
:10244000645000085810024070B50E4E0446B06843
:102450000025A0B14FF47A710B4AB1FBF0F110687E
:10246000B0FBF1F000F09DF848B9102C07D2002223
:1024700021464FF0FF3000F06DF8746000E0012558
:10248000284670BDAC000020C8000020014800684C
:10249000704700BFAC000020DFF87800006800F44F
:1024A000C060704710B5DFF86C10B0F5007F0868A9
:1024B00000F4C06015D1B0F5007F1BD00868DFF8CC
:1024C0005820DFF8584020F4C06040F4007000F05D
:1024D00018F84A6953050FD5002818BF401EF8D1D7
:1024E0000AE0B0F5806F05D0086820F4C06040F4C1
:1024F00080600860002010BD48694105FAD50320BE
:1025000010BD0860322013684343B3FBF4F0401C55
:102510007047000000700040C800002040420F00DB
:102520000901020006D5294A00F00F00104400F806
:10253000041C7047264B19547047264B19684FF6F8
:10254000FF020002114000F4E06008432249084302
:102550001860704738B51F4B1C68C4F30223C3F1E1
:102560000704052C28BF04241D1D072D34BF00239C
:10257000DB1E012505FA04F4641E2140994005FA8A
:1025800003F35B1E1A401143BDE83440C8E7012243
:1025900000F01F01114BFFE78A40400943F820205B
:1025A000704710B5401EB0F1807F01D3012010BDEF
:1025B0000B4C60600F214FF0FF30FFF7B1FF00219F
:1025C000A16007202060002010BD000018ED00E091
:1025D00000E400E00CED00E00000FA0500E100E09E
:1025E00010E000E038B5040001D1012032BD04F153
:1025F0004005687820B900212970204600F03AFB98
:1026000000F053F86068216820F07060086120686D
:10261000816821F400418160E06821680128A06898
:102620000CBF40F4004040F404408860E068022899
:1026300003D120684FF4006141602068416841F097
:10264000007141F4004141602068C16821F40041FB
:10265000C16060692169A2690143206841EA0221E1
:10266000C160206AE1692268014311602068016845
:1026700041F0010101600020686020216970206341
:10268000A87032BD38B5040001D1012032BD04F17B
:10269000400500F00AF8204600F0EDFA00206860DE
:1026A00068702063A870287032BD2420687020688C
:1026B0000168490849000160704700904FF080733D
:1026C000FF22704700904FF00073D2B27047012292
:1026D0004FF40041304600F01CBA2DE9FE4F00F0E7
:1026E000FEF84ED10C9D002D1CBF0D9F002F03D175
:1026F0004FF4007161603FE02078012841D0012152
:102700002170FFF7C3FE00F05BF8002834D12120D0
:1027100000F0FDF800F0A2F910B1002020702BE0CD
:10272000708DFF25B0F5807F19D300F0E9F800F037
:10273000D2F80E9F4A463946304600F00BFA002880
:102740001AD100F025F811D089B279B900F030F82B
:1027500090B900F019F805D300F0D2F804E000F0C9
:10276000C7F8E4E700F0C4F800F0B5F8708D002871
:10277000E0D100F09CF808B1012003E000F02AF855
:1027800000E00220BDE8FE8F708DB0F5807F7047BD
:10279000706A326801789162706A411C7162708D52
:1027A000411E7185308D411E3185708D0028704726
:1027B000CDF800903B4600228021304600F0A9B9B8
:1027C0008146CDF80090192301224FF40041304694
:1027D00000F09FB931682020C8613168DFF86C02D1
:1027E0004A6802404A60202161700020A070207079
:1027F00070472DE9FE4F00F072F855D10C9D002D69
:102800001CBF0D9F002F03D14FF40071616046E0A3
:102810002078012848D001212170FFF737FEFFF70B
:10282000CFFF00283BD1222000F071F800F031F9F1
:1028300010B10020207032E0718DDFF80C02FF250E
:10284000B1F5807F1CD33585FFF737FF00F043F8E3
:102850000E9FCDF800903B4600220421FFF73AFF7F
:1028600000281CD100F028F898B189B289B9FFF787
:102870009FFFA0B9FFF788FF07D300F041F806E0FB
:10288000728D3285FFF71EFFE0E700F031F800F0AF
:1028900022F8708D0028DCD100F009F808B1012081
:1028A00003E0FFF797FF00E00220BDE8FE8F4A46F5
:1028B0003946304600F075B93068416A706A017077
:1028C000716A308D4A1C411E72623185708D421EC4
:1028D0007285708D70474146304600F0B4B90646A7
:1028E00006F1400488466078202892469B4670474F
:1028F000728D3285002000904FF00073D2B2704785
:102900003585002000904FF08073FF227047607083
:102910004021A170002060607562778570635B461E
:102920000E9900915246CDF80490414630467047CA
:102930002DE9FE4305460020019005F14006707820
:10294000202840D12C68A06904043CD430780128A8
:1029500039D00124347024207070C1F3090900209B
:10296000706090461C46E8682968012806BF49F057
:10297000007040F4005049F420504860FFF786FD95
:1029800007462968886989694009090900F001003A
:1029900001F00101084319D114F1010FF1D0FFF743
:1029A00075FDC01B844241D3002CEAD13EE000F00B
:1029B00046F830B929682020C86170700020307056
:1029C00002E0012000E00220BDE8FE832868816962
:1029D0000097C8062346EAD500F031F80028F0D168
:1029E00029681020C86120222868C26101994145E8
:1029F0000DD12868416841F4804141600097234629
:102A000000F01DF80028DCD129682020C861019859
:102A1000401C019001984045A5D3202171700021F0
:102A2000706840F0200070603170CAE7202070703C
:102A30000020716841F0200171603070C1E7002210
:102A40002021284600F065B80024008000E800FE40
:102A500090F841007047406C704700002DE9FC4140
:102A600000F031F84FF08073EAB200F0ECF800F0BB
:102A70003EF858B9012D02D000F036F830B900F018
:102A80002CF88021204600F044F800B10120BDE878
:102A9000F6812DE9FC4100F016F80023EAB200F0BF
:102AA000D2F800F024F858B9012D02D000F01CF83B
:102AB00030B900F012F84021204600F02AF800B1A9
:102AC0000120BDE8F6811746DDF82080099EDFF879
:102AD000982100921D46044670472068FFB2876225
:102AE00000964346002270472168380A88623246C1
:102AF000414620462EE0006881698A0744BF0021D4
:102B000081628169CA0703D4816941F00101816151
:102B100070472DE9F041069F05460E4690461C463B
:102B2000286881693140B1420CBF01200020404536
:102B30000DD114F1010FF3D0FFF7A8FCC01B8442A4
:102B400001D3002CECD100F020F8012000E000209F
:102B5000BDE8F08170B505460C46164628688169C7
:102B6000880710D400F035F858B914F1010FF5D0EA
:102B7000FFF78CFC801B844201D3002CEED100F0C7
:102B800004F8012070BD002070BD05F14000202236
:102B9000416841F020014160427000218170017064
:102BA000704770B505460C46164628688169880648
:102BB0000DD400F00EF840B9FFF768FC801B84428A
:102BC00001D3002CF1D1FFF7E0FF012070BD002000
:102BD00070BD324621462846FFE770B505460C46D3
:102BE00028688169C806164618D5286881698A064A
:102BF00016D414F1010FF8D0FFF748FC801B844273
:102C000001D3002CF1D105F14000416841F02001D1
:102C100041602022FFF7C0FF012070BD002070BD81
:102C20001021C16120202A68D0612846FFF763FF88
:102C300029680E484A68024005F140004A60416830
:102C400041F00401E4E770B50068049C4568084E53
:102C500046EA5456B543C1F30901294341EA02410A
:102C600019432143416070BD0020008000E800FE50
:102C7000FF63FF037047704738B5040009D004F1C3
:102C80007005696809B900F01EF800F021F8012804
:102C900001D1012032BD606A08B100F02AF800F0CD
:102CA0000AF821F02A01FFE7816000F01BF8BDE877
:102CB000324000F0A6BA2068416821F4904141609A
:102CC00020688168704700202870204600F00DBB06
:102CD0002421696020680268520852000260204680
:102CE00000F0D2B82068016841F00101016020467F
:102CF0007047204600F022BA2DE9FC47054605F151
:102D000070048846606820281746994646D1B8F175
:102D1000000F14BF002F012041D0207801283DD0A2
:102D2000012121700020E0602122626005F150063F
:102D3000FFF7ACFB378082467780A868B0F5805FEC
:102D400004BF286900280EBF4746404600270021DF
:102D5000217080460FE018F8012B028508E02868F2
:102D6000B8F1000FF7D137F8021BC1F30801018554
:102D70007088411E718053467088CDF800900028FD
:102D80000FD000228021284600F068FA0028E6D003
:102D9000032004E020206060002000E00220BDE865
:102DA000F68700224021284600F058FA0028F1D08A
:102DB000EEE72DE9FC47054605F158070C46386A51
:102DC00020281646984658D1002C14BF002E01200A
:102DD00054D0387E012850D0012139760020786205
:102DE00022213962FFF752FB3E8081467E80FF211F
:102DF000A868B0F5805F04D1286990B940F2FF114E
:102E00000FE018B9286960B17F2007E0B0F1805F5A
:102E100006D1286908B97F2103E03F20B88001E08E
:102E20000021B980A868BE88B0F5805F04BF28691A
:102E300000280EBFA24620464FF0000A0021397636
:102E400004460CE02868808C002C19BF304004F840
:102E5000010B30402AF8020B7988481E7880788868
:102E600070B1CDF800804B4600222021284600F0AA
:102E7000F5F90028E6D0032000E00220BDE8F6873F
:102E8000202038620020F9E72DE9F04104469D48F2
:102E900022681368A168034020690B4361690343FA
:102EA000E0690B430343136000265168E06821F496
:102EB0004051014351600025A36991498A421CBFDA
:102EC000206A03439768904827F430673B43936038
:102ED0008E4F8F4BBA4221D11B6803F00303032BA3
:102EE00029D8DFE803F0025F50710127E169B1F5ED
:102EF000004F4FF6F07840F0D38067B1012F00F01B
:102F0000A980022F00F0A980042F00F0AB80082FC9
:102F100000F0B180B7E0FFF727FAA5E07D4FBA4295
:102F200023D11B6813F00C035FD0042B3AD0082B7D
:102F300029D00C2B48D010278A42D7D1390006D08F
:102F4000022F09D0042F52D0082F53D0D0E0FFF722
:102F50000BFA002800F0CD80626802EB4201884243
:102F600002D31303834248D2C2E06B4FBA420CD162
:102F70001B6813F0300338D0102B13D0202B02D055
:102F8000302B21D0D7E70227D6E7644FBA420BD1C6
:102F90001B6813F0C00328D0402B03D0802BF2D045
:102FA000C02BEEE70427C7E75D4FBA420ED11B687E
:102FB00013F4407319D0B3F5807FF3D0B3F5007FDD
:102FC000E1D0B3F5407FB6D10827B5E78A42B2D148
:102FD0001B6813F4406308D0B3F5806FE2D0B3F5FB
:102FE000006FD0D0B3F5406FCBE70027A4E7FFF721
:102FF00072F9AEE74FF40040AEE737B1022F0AD0C6
:10300000042F0ED0082F16D01BE0FFF7ADF900F00B
:103010008FF879410AE0434911EB520045EB050175
:1030200004E0FFF758F900F083F869410023FEF748
:1030300065F9064606E0530803F50003B3FBF2F614
:1030400000E00125A6F540703749884250D2226839
:10305000D6604EE0FFF790F906E06068334901EB77
:1030600050010CE0FFF737F961684A0802EB4002B3
:10307000B2FBF1F605E06068410801F58031B1FB73
:10308000F0F6B6B200E00125A6F1100040452FD2BF
:1030900008EA0601C6F3420001432068C16028E047
:1030A00047B1012F09D0022F0CD0042F08D0082FD0
:1030B0000ED015E0FFF758F904E0FFF75DF901E0E5
:1030C000FFF709F9616800EB5100B0FBF1F605E08C
:1030D0006068410801F50041B1FBF0F6B6B200E0CE
:1030E0000125A6F11000404502D22168CE6000E023
:1030F00001250020206660662846BDE8F0810000BA
:1031000000800040F369FFEF0024F4000038014024
:10311000881002400044004000480040004C00403D
:1031200000500040000024F400FD0F000048E801BA
:103130006268010E560816EB0020704790F82410C4
:10314000CA0706D502685368816A23F400330B432B
:10315000536090F824108A0706D502685368C16A44
:1031600023F480330B43536090F824104A0706D5AC
:1031700002685368016B23F480230B43536090F87B
:1031800024100A0706D502685368416B23F40043F4
:103190000B43536090F82410CA0606D50268936862
:1031A000816B23F480530B43936090F824108A06BC
:1031B00006D502689368C16B23F400530B439360F8
:1031C00090F824104A0610D502685368016C23F465
:1031D00080130B435360036CB3F5801F05D1536814
:1031E000416C23F4C0030B43536090F824100A068B
:1031F00006D501684A68806C22F4002202434A60C6
:103200007047F8B5044604F170050020E8606FF0DF
:103210007E47FFF73BF90646206801680A0708D594
:103220000097334600224FF40011204600F016F8B4
:1032300060B9206801684A070AD500973346002222
:103240004FF48001204600F009F808B10320F2BDD8
:1032500020206860A86000202870F2BD2DE9F041B0
:10326000069C05460E4690461F462868C1693140B7
:10327000B1420CBF01200020404528D114F1010FBC
:10328000F3D0FFF703F9C01B844200D34CB9286880
:10329000016821F4D071016000F01CF80021017078
:1032A00013E0286801684A07DFD5C1690A05DCD543
:1032B0004FF4006101622868026822F4D072026053
:1032C000002200F007F8C1600270032000E0002037
:1032D000BDE8F0812868816849084900816005F1EE
:1032E0007000202141608160704770472DE9FC47E4
:1032F000054600242868DFF8FC630105A14621D5B6
:10330000686E70B1B0F5800F17D0B0F5000F03D024
:10331000B0F5400F09D013E0326842F480323260D9
:1033200004E0002100F07FF9044654B9F16F686EA3
:1033300021F440010143F16704E000F06EF9F3E786
:103340000124A1462868C10421D5A86EA8B1B0F116
:10335000807F17D0B0F1007F03D0B0F1407F04D060
:1033600013E0316841F4803131607CB9F16FA86EAF
:1033700021F040710143F16709E0002100F053F9A9
:103380000446F2E700F049F9FAE70124A14628686B
:1033900081032BD5F06CC1004FF000080AD4F06C0B
:1033A00040F08050F0644FF00108F06C00F0805065
:1033B00000900098DFF81874386840F48070386026
:1033C000FFF764F882463868C10500F1F780FFF71F
:1033D0005DF8A0EB0A000328F5D30324A146B8F159
:1033E000000F03D0F06C20F08050F0642878C10703
:1033F00005D5F26FA86B920840EA8202F26729783D
:10340000880705D5F16FE86B21F00C010143F167E6
:103410002978480705D5F16F286C21F03001014368
:10342000F1672978080705D5F16F686C21F0C001B4
:103430000143F1672978C80605D5F16FA86C21F41E
:1034400040710143F1672978880605D5F16FE86C72
:1034500021F440610143F1672968880505D5F16FC2
:10346000E86D21F440210143F1672968480505D53D
:10347000F16F286E21F440110143F1672978480665
:1034800005D5F16F286D21F440510143F16729788A
:10349000080605D5F16F686D21F440410143F167DD
:1034A0002968C80505D5F16FA86D21F440310143A5
:1034B000F167296888041FD5F16FE86E21F040613B
:1034C0000143F167E86EB0F1006F0DD100F0A0F894
:1034D00012E0FEF7DBFF001B41F289318842C0F0A9
:1034E0008B804FF003097AE7B0F1806F04D100F0D0
:1034F00099F8010018BF81462868010314D5F26FBE
:10350000286F22F040620243F267286FB0F1006F2B
:1035100002D100F07DF807E0B0F1806F04D100F037
:1035200081F8010018BF81462868410314D5F26F65
:10353000686F22F040620243F267686FB0F1006F7B
:1035400002D100F065F807E0B0F1806F04D100F01F
:1035500069F8010018BF81462868410418D5F26F48
:10356000A86F22F040520243F267A86FB0F1805F6B
:1035700003D1022100F057F807E0B0F1005F07D156
:10358000022105F1200000F0B7F8010018BF8146C4
:103590002868010405D5F26FE86F22F080420243EB
:1035A000F2672968C80306D5F16FD5F8800021F0CD
:1035B00000410143F1674846BDE8F687002C7FF4DF
:1035C0000DAFDFF84C72386810F440701CBFD5F8AE
:1035D000841088420BD03868396841F480313960F2
:1035E00020F440703A6822F480323A603860C007B4
:1035F00006D5FEF74BFF0446386881077FF569AFB3
:103600003A68D5F8840022F4407202433A60E6E654
:10361000306840F4801030607047002105F12000D0
:1036200000F06AB80121281DFFE72DE9F04100F004
:10363000E5F809D0F16801F0030181422BD150B3C4
:1036400000F0C8F80CD026E0012804D023D30328CA
:103650001BD016D31FE0326891071CD500F0C1F8CB
:10366000306820F0806000F0C6F8804630680101C4
:1036700033D5FEF70BFFA0EB08000328F6D3032594
:1036800036E031684A05E9D405E031688A03E5D4BB
:1036900031684A03E2D401252AE0012C326909D1BC
:1036A0003B695D4802405B0842EA01215B1E41EA3A
:1036B000435102E07B6900F081F83161306840F0ED
:1036C000806000F098F80446306801010CD4FEF7E1
:1036D000DDFE001B0328F7D3D1E7B968002CDCD14D
:1036E000326900F062F8E8E73169B8690143316195
:1036F00058E000000C1002402DE9F04100F07EF887
:1037000009D0F16801F0030181422BD150B300F0E0
:1037100061F80CD026E0012804D023D303281BD065
:1037200016D31FE0326891071CD500F05AF83068B4
:1037300020F0805000F05FF880463068810026D588
:10374000FEF7A4FEA0EB08000328F6D3032529E02A
:1037500031684A05E9D405E031688A03E5D4316867
:103760004A03E2D401251DE03B6900F027F87161AE
:10377000306840F0805000F03EF804463068810028
:103780000CD4FEF783FE001B0328F7D3DEE7B968ED
:103790007269002CE8D100F008F8E8E771697869EF
:1037A000014371612846BDE8F0811C48FB68024076
:1037B00042EA01211B0941EA43417047184802408F
:1037C0005B0842EA01215B1E41EA43617047000049
:1037D00000700040F0687968C0F30210401C884215
:1037E0007047F268796822F073021043491E40EA7C
:1037F0000110F06070473060FEF748BE0746054E86
:1038000038680C46F168002511F0030F704700007E
:103810009010024000100240FF809FFFFF80FDFFDC
:10382000FF80FFF938B500244FF0FF35B0B10A68CA
:1038300002604B684360CA68C2600B6903618A68B2
:10384000826049690FF2014241610062C2610FF278
:1038500009418161006808B1804700B12C462046CB
:1038600032BD1CB50446606A58B9694604F11800B7
:1038700000F020FA9DF80000242818BF262800D068
:10388000E6E001206062002016BD183000F012BA98
:103890000246A620926810471CB500F0AAF800F076
:1038A0003DFA18B99DF800002080002016BD02B531
:1038B0006946183000F037FA02BD10B504461046CC
:1038C000AFE12DE9F84F064688461F46914640F283
:1038D00001108742ACBF4FF4807ABA46F468534671
:1038E00042461FFA89F1A620A047050014D170694D
:1038F00080478346B2680121A6209047044670693C
:103900008047A0EB0B00B0F5A07F02D2002CF1D1D4
:1039100002E00CB16FF00205A7EB0A07D044D144D6
:10392000BFB20FB1002DD2D02846BDE8F28F2DE9ED
:10393000F84F06461F469046894640F201108742DE
:10394000ACBF0025FDB2F4682B464A461FFA88F149
:10395000AE20A0475FEA000A14D170698047834611
:10396000B2680121A6209047044670698047A0EB09
:103970000B00B0F5A07F02D2002CF1D102E00CB117
:103980006FF0020A7F1BA944A844BFB217B1BAF175
:10399000000FD2D05046BDE8F28F28B99DF8000044
:1039A00000B101202070002016BD000080B5032961
:1039B00019D8DFE801F002090E1302F0010200F04D
:1039C00013F800F0DFF902BD00F00EF800F0E6F9A0
:1039D00002BD00F009F800F0EDF902BD00F004F8B6
:1039E00000F006FA02BD4BE08DF800206946183061
:1039F00070470C46694618307047F0B585B000F046
:103A000020F80925FFE78DF808500020C0F10301D8
:103A1000C9000DEB000226FA01F31370401C27FACF
:103A200001F3137104281178137951725373EDDB8C
:103A300011234FF4106269462046FFF778FF05B066
:103A4000F0BD04460E4617466846142100F0ECB956
:103A50004FF0FF3016BD04B519B102290BD005D3C4
:103A60000EE06946183000F030F902BD69461830A2
:103A700000F02FF902BD6946183000F02EF902BDA2
:103A80004FF0FF3002BD7CB500F09CF8694620463F
:103A900000F0A2F8BDF802509DF800006D1C401C1B
:103AA00045436D096D1EEAB200F093F86FF06506AC
:103AB000002818BFB0420BD1EAB2012100F08AF809
:103AC000002818BFB04203D1EAB2002100F082F80A
:103AD00076BD2DE9FC4100F075F80D4616461F46EF
:103AE0006946204600F078F8BDF802109DF8000005
:103AF000491C401C414389B2202DA8BFA94212DBBA
:103B0000A1F12000B042A4BFA1F14000B8420ADBFD
:103B10000898A1F160028242A1BF06EB050EBE44E7
:103B20007044814202DA4FF0FF3049E0290905EB89
:103B3000D1604009B5EB40101CBF6A09550131093D
:103B400006EBD1625209B6EB42101CBF73095E014D
:103B5000390907EBD1625209B7EB42101CBF780953
:103B600047012046FFF78FFF6FF06508002818BF58
:103B7000404525D12804400D421ED2B2002100F05C
:103B800029F8002818BF40451AD17519281105EBEE
:103B9000D06149114A1ED2B2012100F01BF8002861
:103BA00018BF40450CD1E819011100EBD16040115C
:103BB000421ED2B200F00DF8002814BF404500208C
:103BC000BDE8F68104460020ADF802008DF8000043
:103BD0007047022120463EE738B504460D46694647
:103BE00004F1180000F087F8A8B90DF1010104F103
:103BF000180000F076F870B9294604F1180000F0BA
:103C000075F840B99DF8010068809DF8001041EA00
:103C100000216980002032BD8DF8001018306946FF
:103C200070470A4601462469A620A04710BD1CB56E
:103C3000FFF7DFFE00F0EBF8AFE680B50021FFF7FD
:103C4000EBFF00F066F802BD38B504698D044CBF87
:103C5000A620AE20A04732BDF8B506468D04F46814
:103C600002D5A620A047F2BDAE20A047050013D183
:103C7000706980470746B2680121AE20904704462C
:103C800070698047C01BB0F5A07F02D2002CF2D132
:103C900002E00CB16FF002052846F2BD10B50446F3
:103CA000A0686468A04710BD10B50446A0682468E9
:103CB000A04710BD80B50A4601231721FFE7FFF793
:103CC000EDFF08B14FF0FF3002BD0A460123052188
:103CD000EAE70A4601230721E6E70A46012309210C
:103CE000E2E780B50A4601231521E8E780B50A46D8
:103CF00001231621E3E780B50A4601231421DEE7FC
:103D00004FF0FF3010BD207800F00100207000203F
:103D100010BD7CB50D4642F206060FE080B50A469E
:103D200001230021CBE780B50A4601230021FFF7DC
:103D3000BBFFC6E70C460123224670470446012319
:103D40006A463146FFF7AAFF68B928789DF8001047
:103D500060F300018DF8001001236A4631462046C9
:103D6000FFF7A2FF08B14FF0FF3076BD28789DF82D
:103D7000001060F30101704728789DF8001060F38F
:103D80008301704738B500F02CF820B9FFF7EEFF3B
:103D900000F01FF808B14FF0FF3032BD38B500F029
:103DA00020F820B9FFF7E8FF00F013F808B14FF052
:103DB000FF3032BD38B500F014F838B928789DF8D6
:103DC000001060F3051100F004F808B14FF0FF3067
:103DD00032BD8DF8001001236A460B212046FFF703
:103DE00063BF0D46044601236A460B21FFF756BF09
:103DF00038B5FFF7F6FF38B928789DF8001060F362
:103E00008711FFF7E6FF08B14FF0FF3032BD10B564
:103E1000FFF790FF42F20401FFF740FF08B1FFF700
:103E20006FBFFFF770BF0000002200F001B8000074
:103E300000B500BF130096469446103928BFA0E88D
:103E40000C50FAD85FEA417C28BF0CC048BF40F84C
:103E5000042BC90728BF20F8022B48BF00F8012B0C
:103E600000BD000000E070472DE9F84F002000F091
:103E7000CFF9012000F0CCF9022000F0C9F90020B0
:103E800000F0D9F900F031F9012000F0D4F900F088
:103E90002CF9022000F0CFF900F027F9002000F003
:103EA000EDF90028FAD100F0CCF900F01EF901205C
:103EB00000F0C7F900F019F9022000F0C2F900F093
:103EC00014F9002000F034FA984C994D204600F087
:103ED00010F904F12C0000F00CF904F1580000F086
:103EE00008F9002000F011FA05F10A01002000F0A5
:103EF00009FAA87A38B9002129606860D5E9002359
:103F00001A4600F0F2F905F10C01002000F0F7F973
:103F1000E889297B401C491C4843286104F184003E
:103F200000F0E7F8D5F810100FF2602B0FF2CC2656
:103F3000ABA70FF294280FF27429890888B2009079
:103F40008BB28AB289B2002000F0D2F97AA000F0D8
:103F5000D0F80022002100F0B9F800BF7DA000F0E9
:103F6000C8F80122012100F0B1F800BF80A000F0E4
:103F7000C0F80222022100F0A9F804F1FC0000F0D0
:103F8000B8F80322032100F0A1F8584600F0B1F878
:103F9000287A00F0BBF804F5907000F0AAF87B20B6
:103FA0007B2128606960D5E90023002000F09DF99D
:103FB0000120687204F5AC7A00F08BF800F083F809
:103FC00000F073F8A86100286A7A14BF5146414690
:103FD00000F075F800F077F800F06FF800F073F873
:103FE00000F05BF8A86104F5C470297A0090FF29FD
:103FF0006A7A0CBF0146314600F061F800F063F8C0
:1040000000F045F8D8DD584600F073F8287A00F043
:104010007DF804F5DA7000F06CF800222A606A601E
:10402000D5E9000100F061F90120687200F051F853
:1040300000F049F800F039F8A86100286A7A14BF46
:104040005146414600F03BF800F03DF800F035F8ED
:1040500000F039F800F021F8A861287A6A7AFF2880
:104060000CBF0099314600F02AF800F02CF800F05F
:104070000EF8DBDD04F5F07000F03BF804F5047099
:1040800000F037F804F50F70BDE8F24F31E0687AC0
:10409000401C6872C0B2042870476A69012392B25A
:1040A00005F10801002000F00AB96A69012392B203
:1040B00005F11C01002000F00AB96A7A394605F1C1
:1040C000200000F077B905F1200012E0002000F098
:1040D00009B928696A7A8008401C511E4843686102
:1040E000494605F1200000F065B94FF4967000F0E4
:1040F00081B910B50446FDF7ABF82146BDE8104084
:1041000082B24FF4FA730B48FEF7F6BD11B581B0D9
:10411000084C4FF4FA73012201A92046FEF749FE2C
:104120000328F6D0002016BD000000003447000828
:10413000000000204C0100200A0D5A6F6E652031EE
:10414000206973206E6F742070726F74656374657C
:10415000640000000A0D5A6F6E65203220697320DA
:1041600077726974652070726F746563746564003A
:104170000A0D5A6F6E652033206973207265616481
:104180002070726F74656374656400000A0D0A0D17
:1041900050726573732061206B657920746F2063A2
:1041A0006F6E74696E75652E2E2E00000A0D0A0D55
:1041B00053746172742077726974696E67205A6FE4
:1041C0006E652025640000000A0D57726974652031
:1041D0005A6F6E6520256420646F6E6500000000D4
:1041E0000A0D0A0D53746172742072656164696E00
:1041F00067205A6F6E652025640000000A0D526525
:104200006164205A6F6E6520256420646F6E6500BE
:1042100018B5194A85B032F8303000930124019462
:104220000223002402EBC002039302946946506803
:1042300000F0F4F811E080B500F009F801225868A8
:1042400010E080B500F003F8002258680AE00A4B3D
:1042500033F8301003EBC0037047002006B010BDE8
:1042600000F004F800F036FA002002BD4FF480712F
:104270004FF09040704700007000002010B586B0ED
:104280002349244A244C0091019220462349244A80
:10429000029104922349244A039105926946FFF74B
:1042A000C1FA40B92148A062016811B1204688478F
:1042B00018B10020A0624FF0FF3006B010BD10B55D
:1042C0001548846A646904B909E0A04710BD10B5B7
:1042D0001148846AA46904B901E0A04710BD4FF0F9
:1042E000FF3010BD0C48FFF761BB0B48FFF785BBE3
:1042F00080B5029800900848FFF7EBFB02BD064826
:10430000FFF76ABC0448FFF792BC0348FFF795BC6F
:104310009D4B00081D4C00081C020020514C000859
:10432000934C0008734C00088D2400089000002076
:1043300070B50024022886B028BF6FF0010428D28F
:1043400000F02AF807231848C16841F40031C16021
:10435000C16801F4003100910099026842F0010245
:1043600002600222006800F0010000900C21009819
:1043700002920191032204920593039401A94FF044
:10438000904000F04BF8701900F0BCF908B16FF0E4
:104390000304204606B070BD0449054EC50151F81E
:1043A00020007051704700004C100240C4000020F3
:1043B0004C0100200CB430B583B00A4606A9029126
:1043C000044600250194009502AB01A908487844F1
:1043D0001E30FBF7D9FE019A157000284EBF044627
:1043E0000198041B204603B030BC5DF80CFB00BFF5
:1043F00013D0FFFF38B50446FEF748F814F1010F5B
:10440000054602D0044988680419FEF73FF8401BAE
:10441000A042FAD331BD00BFAC0000202DE9F84F17
:104420004FF00008AE4A0F2304460D4635E0AD4E6E
:10443000B44214BF072606268E4046EA0E064CF804
:104440002760C743A8490E6807EA060C6E68F603A2
:1044500048BF40EA0C0CC1F800C04E6807EA060CE1
:104460006E68B60348BF40EA0C0CC1F804C08E6801
:1044700007EA060C6E68F60248BF40EA0C0CC1F869
:1044800008C0CE6807EA060C6F68BE0248BF40EA63
:104490000C0CC1F80CC008F10108296831FA08F0C9
:1044A00000F09A80012000FA08F616EA0100F2D026
:1044B0004FEA48070321B9406FEA010C69680129F6
:1044C00018BF02296FEA060E03D0112918BF12295E
:1044D00010D1A168EE680CEA0101BE403143A16031
:1044E00061686E68C6F300160EEA010106FA08F666
:1044F00031436160696801F00306032E08D1E66A62
:10450000C1F3C0010EEA060601FA08F13143E16287
:10451000E168AE680CEA0101BE403143E1604FEA58
:1045200088016E68022E18BF122E13D14FEAD806EA
:1045300004EB860E01F01C09DEF82060D5F810B0FF
:1045400003FA09FA26EA0A060BFA09F949EA060605
:10455000CEF82060266895F804E00EF0030E0CEA11
:1045600006060EFA07F7374327606F68FE0092D5FC
:104570001768DFF878C147F00107176001F00C01F8
:10458000166806F00106009603FA01FE009F4FEA46
:1045900098075CF8276026EA0E0EB4F1904F08BF2A
:1045A000002618D0524EB44208BF012613D0514EF7
:1045B000B44208BF02260ED04F4EB44208BF0326B5
:1045C00009D04E4EB44208BF042604D04C4EB4422B
:1045D0007FF42DAF05262FE7BDE8F18F2DE9F04FD1
:1045E0008A4600254049414A03463DE03D4FBB42D3
:1045F00014BF0727062707FA0EF7BC4212D10C6832
:10460000C04304400C604C6804404C608C6804401B
:104610008C60CC682040C86052F8280020EA09006D
:1046200042F828000324680004FA00F01C680443E0
:104630001C6006F01C06EC0803EB84040BFA06F67B
:10464000276A27EA06062662C0439E6806409E60E7
:104650006FEA0C045E6826405E60DE683040D86019
:10466000D86A2040D8626D1C3AFA05F030D001209B
:1046700000FA05FC1CEA0A00F5D04FEA9508AE00E6
:1046800052F8284006F00C0E4FF00F0B0BFA0EF903
:10469000B3F1904F09EA040408BF0027ABD0144FD0
:1046A000BB4208BF0127A6D0124FBB4208BF02275A
:1046B000A1D0114FBB4208BF03279CD00F4FBB4274
:1046C00008BF042797D00E4FBB428FD1052792E732
:1046D000BDE8F08F0AB181617047816270470000C8
:1046E000601002400018004800040140080001402A
:1046F0000004004800080048000C00480010004872
:104700000014004810B50A4901604FF4E1320C2151
:104710000024426041618460C46004618461C461BA
:1047200004624462FEF7A8FA00B10124204610BDDD
:10473000004400402D2D2D2D2D2D2D2D2D2D2D2DD9
:104740002D2D2D2D2D2D2D2D2D2D2D2D2D2D2D2D99
:104750002D2D2D2D2D2D2D2D2D2D2D2D000000003D
:104760000A0D2A2A2A2A2A57656C636F6D65207400
:104770006F20782D637562652D6E666334206578D1
:10478000616D706C652A2A2A2A2A00000A0D2D2DD7
:104790002D2D2D2D2D2D2D2D2D2D2D2D2D2D2D2D49
:1047A0002D2D2D2D2D2D2D2D2D2D2D2D2D2D2D2D39
:1047B0002D2D2D2D2D2D00000A0D0A0D5468697325
:1047C000206578616D706C652077696C6C20637210
:1047D000656174652034207A6F6E657320696E2080
:1047E000746865205354323544562C0A0D73657431
:1047F00020646966666572656E742070726F746598
:104800006374696F6E20666F722065616368207AD9
:104810006F6E6520616E64207465737420726561CB
:10482000642F7772697465206F6E206974000000D0
:104830000A0D5A6F6E6520342069732072656164B9
:104840002F77726974652070726F74656374656424
:10485000000000000A0D0A0D53657373696F6E2026
:10486000697320636C6F73656420746F2073656572
:104870002070726F74656374696F6E7320696E2047
:104880006F7065726174696F6E0000000A0D577277
:10489000697465205A6F6E652025642070726F748C
:1048A00065637465642C206E6565642069326320DD
:1048B00070617373776F7264000000000A0D5265B7
:1048C0006164205A6F6E652025642070726F746574
:1048D000637465642C206E656564206932632070A2
:1048E000617373776F7264000A0D0A0D53657373F9
:1048F000696F6E206973206F70656E20746F20730E
:104900006565206772616E746564206163636573B9
:10491000730000000A0D0A0D2D2D2D2D2D2D2D2D8E
:104920002D2D2D2D2D2D2D2D2D2D2D2D2D2D2D2DB7
:104930002D2D2D2D2D2D2D2D2D2D2D2D2D2D2D2DA7
:10494000000000000A0D2A2A2A2A2A2020202020DE
:10495000202020656E64206F66206578616D706C24
:104960006520202020202020202A2A2A2A2A000010
:104970000A0D2D2D2D2D2D2D2D2D2D2D2D2D2D2DAA
:104980002D2D2D2D2D2D2D2D2D2D2D2D2D2D2D2D57
:104990002D2D2D2D2D2D2D2D2D2D0A0D000000003E
:1049A00080B500F0CDF800F007F800F047F8FFF709
:1049B00059FAFFF758FAFCE710B5B8B0534C05A800
:1049C00021464422FCF78EFC68461421FFF72CFA9E
:1049D00016A804F144018822FCF784FC02214FF45C
:1049E0008072059108921021022209910F92109273
:1049F0000A2101221192129107220221139214918D
:104A0000159105A8FDF786F90F200321009001916B
:104A1000002202920392049204216846FDF7D1FB22
:104A200042201690002125912A9116A8FEF75EFCDF
:104A30004FF40070FDF736FD38B010BD10B586B0EC
:104A400068461421FFF7F0F93148046844F0040483
:104A5000046001682F4C01F004010591059902687A
:104A600042F080020260036803F080030593059919
:104A7000026842F001020260036803F0010305933B
:104A80000599026842F0020202600022006800F00C
:104A9000020005904FF4A46105984FF09040FFF795
:104AA00019FE002230212046FFF714FE4FF400507B
:104AB000194900F037F81948FFF7B0FC4FF4A4612A
:104AC00000F036F84FF09040FFF7A8FC4020144962
:104AD00000F028F84FF09040FFF7A0FC302100F0E4
:104AE00027F82046FFF79AFC002200211720FDF747
:104AF00031FD1720FDF74BFD002200212820FDF796
:104B000029FD2820FDF743FD06B010BDE44D000847
:104B10004C1002400004004800002110000800482A
:104B20000000111000900191002202926946704726
:104B30000091012200210291039101926946704780
:104B4000094810B5016841F4807101600320FDF748
:104B5000F4FC0020FDF778FC0024002814BF012499
:104B600000F004F8204610BD002002400A4881B041
:104B7000816841F001018160816801F001010091CB
:104B80000099026842F080520260006800F0805094
:104B90000090009801B07047581002404C4870B522
:104BA0004C4D28600024E86C411C002886B0E96464
:104BB00031D12846FDF74CFF68BB474E306840F0C6
:104BC000020030601222316801F0020100914FF4BE
:104BD0004071009841480191029201210391032202
:104BE00004210591049201A9FFF718FCF06840F434
:104BF0000010F060F06800F4001000906FF00706FD
:104C00000098284600F06EF820B90021284600F0F0
:104C100093F800B13446204606B070BD38B52D4D2E
:104C2000E86C002490B1401EE8640FD12C48026863
:104C300022F4001202604FF440712848FFF7CEFCC6
:104C40002846FDF71FFD08B16FF00704204632BD6E
:104C50000A4610B501464FF480531E48FDF768FE22
:104C6000002408B16FF00204204610BD204604B0B5
:104C700070BD7FB500F020F8FDF72FFD002438B19E
:104C800000F017F804280CBF6FF065046FF0030400
:104C9000ECE77FB500F010F8FDF7ABFD002438B16C
:104CA00000F007F8042814BF6FF065046FF00304E8
:104CB000DCE72846FDF7CFBE009201930A46054D7A
:104CC0004FF48056014602960223284670470000A2
:104CD00000540040CC0100204C1002400004004869
:104CE0005810024038B5044611481249206000258A
:104CF0000120E0606160A56025616561A561E561F5
:104D000025622046FDF76EFC00B1012500212046FA
:104D100000F012F800B101250221204600F021F830
:104D200000B101254FF4801000F045F8284632BD4F
:104D300000540040EC9C901030B500F140025378D4
:104D4000202B0CD11478012C09D000F01DF824F48C
:104D500080541C6003681D682943196020E002200C
:104D600030BD30B500F140025378202B0AD11478C1
:104D7000012C07D000F008F824F4706444EA012400
:104D80001C600DE0022030BD0123137024245470F8
:104D900003681D686D086D001D6003681C6870471E
:104DA0000068016841F0010101602020507000217D
:104DB0001170002030BD094981B00A6842F001023B
:104DC0000A60096801F001010091009904490A682C
:104DD0001043FFE7086001B0704700006010024018
:104DE000040001400000000000000000000000007E
:104DF00000000000000000000000000000000000B3
:104E000000000000000000000000000000000000A2
:104E10000000000000000000000000000000000092
:104E20000000000000000000000000000000000082
:104E30000000000000000000000000000000000072
:104E40000000000000000000000000000000000062
:104E50000000000000000000000000000000000052
:104E60000000000000000000000000000000000042
:104E70000000000000000000000000000000000032
:104E80000000000000000000000000000000000022
:104E90000000000000000000000000000000000012
:104EA0000000000000000000000000000000000002
:104EB0000E48016841F47001016000220C49086845
:104EC00040F0010008608A604FF480520B68094886
:104ED00003400B60CA6000200B68074A23F480235C
:104EE0000B6088614FF000611160704788ED00E051
:104EF00000100240FFFFF6EA08ED00E000000000AD
:104F000000000000010203040607080910B502684A
:104F10000A4C012302F01F01C2F3004204EB4212CB
:104F200003FA01F113680B421EBF116040680028AC
:104F300002D0BDE81040004710BD0000140401403D
:104F4000A0860100400D0300801A060000350C0009
:104F500040420F0080841E0000093D0000127A00CC
:104F60000024F40000366E010048E801006CDC0209
:104F70007047FEE7FEE7FEE7FEE7704770477047C1
:104F800000F00AB80248FFF7C1BF0248FFF7BEBFF2
:104F900088000020BC00002002490A688868821846
:104FA0000A607047AC00002010B5074979441831F9
:104FB000064C7C44163404E00A68081D11448847F6
:104FC0000146A142F8D110BD2C00000048000000AD
:104FD0004EF68851CEF20001086840F47000086077
:104FE000BFF34F8FBFF36F8F4FF00070E1EE100AE9
:104FF00070470000E3C1FFFF000100004C010020EA
:1050000000000000CBC0FFFFA6010000EA00000086
:105010000000002000F00DF8002801D0FFF7C4FFC9
:10502000AFF300800020AFF30080FFF7B9FC00F081
:1050300002F80120704700F001B80000074638462A
:10504000FCF75EFEFBE7000001488047014800478F
:10505000B14E000859500008AFF30080FFF7B8FFC9
:10506000FFF7D8FF000000000102030400002E003B
:105070004300FFF7FEBFFFF7FEBFFFF7FEBFFFF7DE
:10508000FEBFFFF7FEBFFFF7FEBFFFF7FEBFFFF754
:10509000FEBFFFF7FEBFFFF7FEBFFFF7FEBFFFF744
:1050A000FEBFFFF7FEBFFFF7FEBFFFF7FEBFFFF734
:1050B000FEBFFFF7FEBFFFF7FEBFFFF7FEBFFFF724
:1050C000FEBFFFF7FEBFFFF7FEBFFFF7FEBFFFF714
:1050D000FEBFFFF7FEBFFFF7FEBFFFF7FEBFFFF704
:1050E000FEBFFFF7FEBFFFF7FEBFFFF7FEBFFFF7F4
:1050F000FEBFFFF7FEBFFFF7FEBFFFF7FEBFFFF7E4
:10510000FEBFFFF7FEBFFFF7FEBFFFF7FEBFFFF7D3
:10511000FEBFFFF7FEBFFFF7FEBFFFF7FEBFFFF7C3
:10512000FEBFFFF7FEBFFFF7FEBFFFF7FEBFFFF7B3
:10513000FEBFFFF7FEBFFFF7FEBFFFF7FEBFFFF7A3
:10514000FEBFFFF7FEBFFFF7FEBFFFF7FEBFFFF793
:10515000FEBFFFF7FEBFFFF7FEBFFFF7FEBFFFF783
:10516000FEBFFFF7FEBFFFF7FEBFFFF7FEBFFFF773
:10517000FEBFFFF7FEBFFFF7FEBFFFF7FEBFFFF763
:10518000FEBFFFF7FEBFFFF7FEBFFFF7FEBFFFF753
:10519000FEBFFFF7FEBFFFF7FEBFFFF7FEBFFFF743
:1051A000FEBFFFF7FEBFFFF7FEBFFFF7FEBFF20A2D
:1051B0000001F341AA0001221054500204004820CB
:1051C0000811042101200348060000160A10036399
:1051D0003800088B0412910412990412AF0412BB18
:1051E0000412C30421202140220109500208004872
:1051F0000D34F00A070044004000093D006C5000E7
:10520000080452FF01F2006E1410010000700C211E
:1052100054F00217CC000020F343D9129043C71278
:035220003C21012D
:040000050800505946
:00000001FF
