:020000040800F2
:10000000D804002011200008991F00089B1F000839
:100010009D1F00089F1F0008A11F0008000000008E
:10002000000000000000000000000000A31F000806
:10003000A51F000800000000A71F0008A91F000856
:1000400035200008392000083D2000084120000824
:1000500045200008492000084D20000851200008D4
:1000600055200008592000085D2000086120000884
:1000700065200008692000086D2000087120000834
:1000800075200008792000087D200008000000008D
:10009000000000000000000000000000AD1F00088C
:1000A0008120000885200008892000088D20000894
:1000B0009120000895200008992000089D20000844
:1000C000A1200008A5200008A9200008AD200008F4
:1000D000B1200008B5200008B92000080000000089
:1000E000BD200008C1200008C52000080000000055
:1000F000000000000000000000000000C92000080F
:1001000000000000CD200008D1200008D520000804
:1001100000000000000000000000000000000000DF
:10012000D9200008DD200008E1200008E5200008B3
:10013000E9200008000000000000000000000000AE
:10014000000000000000000000000000ED2000089A
:10015000F1200008F5200008F9200008FD20000823
:100160000121000805210008000000000000000037
:10017000000000000000000000000000000000007F
:10018000000000000921000800000000000000003D
:100190000D210008F8B5040025D004F13C0569786C
:1001A00021B900202870204600F0DEFC242169706F
:1001B000206802685208520002602068016841F419
:1001C000004101602068026822F40042026000F0F1
:1001D0006FFD01466068DFF87023904205D2DFF8BA
:1001E000AC33994205D20120F2BDDFF8A40381426D
:1001F000F9D32068DFF89C334668B1FBF3F3B60906
:1002000043EA861646602668376A6068904206D3DD
:100210004FF4967043434FF47A70B3FBF0F35B1CDA
:10022000BF0943EA87133362491E2368DE696768A2
:10023000974206D27F0000F043F8042913D204212C
:1002400011E0A06820B907EB470700F039F805E096
:100250001920474300F034F841F4804108050CBFF1
:10026000012141F40041DFF8300306400E43DE6116
:1002700022681368E169206A23F0C0030B4303433B
:1002800013602268DFF81403936821690340E06873
:100290000B43034393602168CA68A3696069120A2B
:1002A000034343EA0222CA602068016841F0010169
:1002B000016000206860202169702063A870F2BD91
:1002C000B1FBF7F1491CC1F30B01704738B50400CD
:1002D00001D1012032BD04F13C052420687000F0FA
:1002E0008AFA00F02FFD0020686068702063A87013
:1002F000287032BD308D7262411E3185708D411E75
:10030000718570474146204600F0A6BB2DE9FC47A9
:1003100000F082F800F07AF855D100F06FF800286C
:1003200051D1387801284ED000F062F801D400F0A5
:1003300099F94146D6F800E00C9D0B98DDF828C0ED
:10034000DEF8008028F40068CEF800804FF0210E1F
:1003500087F801E04FF0400887F802804FF0000E68
:10036000C7F804E000F005F900F057FA002825D19D
:1003700008E0716A0A780261706A411C7162308D0E
:10038000FFF7BAFF308D88B100F02DF888B900F082
:100390001DF8308D411E3185708D421E728530688A
:1003A00042695307EED589B20029E2D100F016F870
:1003B00030B17868042801D100F0E1FA012003E0AF
:1003C00000F030F800E00220BDE8F687706A32687D
:1003D00001781161706A411C71627047224629469A
:1003E000304600F063BB22462946304600F034BB5D
:1003F0000121397030680268D107704700941923D1
:100400000122DFF8C413304600F0C2BA06F13C07FF
:1004100004467878202870470646884691469A46D2
:1004200000F092BC3068016841F400710160202046
:1004300078700021B9700020387070472DE9FC47B2
:10044000FFF7EAFFFFF7E2FF72D1FFF7D7FF0028BF
:100450006ED1387801286BD0FFF7CAFF01D400F0C5
:1004600001F94146D6F800E00C9D0B98DDF828C054
:10047000DEF8008028F40068CEF800804FF0220EED
:1004800087F801E04FF0400887F802804FF0000E37
:10049000C7F804E000F06DF800F002FA002840D13F
:1004A000308D18B1012804D100F0A7F800F04EF803
:1004B00017E0022807D1306800F09AF800F070F8D1
:1004C0000020009001E000210091316800F08DF9DA
:1004D00007E000F088F8002823D100F067F8FFF764
:1004E00009FF308D002826D0042817D20128F0D02B
:1004F00000F024F80AD100F071F8002811D100F0C2
:1005000083F8716A0870706A421CE8E700F066F8C8
:10051000002806D100F08DF818B9F0E700F063F874
:1005200008B1012005E000F048F8DAD50069E8E7F5
:100530000220BDE8F68700F015F8FAE70228DFF898
:10054000988200942B467047A18601000090316884
:100550004A6900928B69009300980A6842F400721D
:100560000A607047202078700021B9700020387030
:100570007047C6F824C070855346708D30854A4652
:100580003B48F062019400953046704780841E001D
:1005900000093D0040420F000030FFFF007CFFFFDC
:1005A0003068026842F40062026070473068016996
:1005B000706A0170716A4A1C704730680169706A1C
:1005C0000170716A308D4A1C411E72623185708DD6
:1005D000411E7185306841694A07704700224146D3
:1005E000304600F0D5B922462946304600F07ABAA6
:1005F000016821F48061016070473068016821F46E
:1006000080610160002070473068016841F400712A
:10061000016030680169706A0170716A308D4A1C2E
:10062000411E72623185708D411E7185326810697C
:1006300070473068016821F4806101602B463068A2
:100640000169706A0170716A308D4A1C411E7262C4
:1006500031850022708D411E7185009441463046DF
:1006600000F096B9026842F0010202607047000093
:100670000000FFFF2DE9F84F04468B4691469A464D
:1006800000F062FB04F13C0705467878012620283B
:100690005FD1DFF83481009519230122414600F033
:1006A000B5F8002855D13878012852D03E7000F0B6
:1006B00075F800F06DF82420787000217960DFF87B
:1006C0001C01E06200F079F80095534600F09BF8B9
:1006D000F8B921680BF0FE00086100F035FB054613
:1006E0002168486949697A784008890AA02A00F097
:1006F000010001F001012FD008432DD100F024FBAF
:10070000401B824502D3BAF1000FE9D1A0207870D6
:10071000E6E720680168CA0544BF4FF400707860BE
:10072000032017E000200090192321684A690092F5
:1007300001228969009141460098009500F066F811
:1007400028B92020787000213970002002E00120B3
:1007500000E00220BDE8F28F202078702068416917
:100760008A0700F00DF9DDD422686FF480605061D3
:10077000009519230122414600F048F80028E6D1EF
:10078000761C4E459ED32020787000213970DEE71C
:100790002068016821F400610160704720680268E8
:1007A000D10703D4026842F001020260704730684A
:1007B000016841F48071016070472068016841F46C
:1007C000807101607047000002001000016841F470
:1007D0008061016070470000040001000000FFFF1D
:1007E00090F83D007047006C70474A690092896933
:1007F000009100987047206801684908490001602D
:1008000020467047434600224FF001112046BFE0CA
:100810004B46424651462046E2E02DE9F843044665
:100820002068DDF82080099F8946016841F48071C5
:1008300015461E4601600097FFF7E4FF40B12068AF
:100840000168CA0544BF4FF400702064032025E00E
:10085000206809F0FE0101613B4642464B49FFF723
:10086000DAFFA8B90090216800F07AF8FFF74BFD95
:1008700040B9012E0ED02168280A08613A46FFF7D8
:1008800041FD38B1206C042802D1206800F078F8CE
:10089000012003E02068EDB205610020BDE8F2838D
:1008A0002DE9F84F05462868DDF828800B9F0C4697
:1008B000FFF78CFF16462868016841F4807199465D
:1008C000016000F055F800284FF4007A2CD1296817
:1008D000DFF8B8B004F0FE00086100F038F8002836
:1008E00032D10090296800F03BF800F037F870B979
:1008F000B9F1010F05D02968300A086100F02CF821
:1009000028B92868F6B2066100F026F830B1286CE4
:10091000042819D1286800F033F815E02868FFF79B
:1009200047FF00F025F838B128680168CA0548BFBC
:10093000C5F840A0032008E0286844F00104E4B2B0
:10094000046100F004F800B10120BDE8F28F3B46DD
:1009500042465946284643E03A46414628467BE00F
:100960004A6900923A468969009141460098704769
:100970000097434600224FF00111284608E03068F6
:10098000016841F40071016070470000020001003D
:100990002DE9F041069F05460E4690461C46310261
:1009A0002868090E01290CBF40698069304080B277
:1009B000B1B288420CBF0120002040450DD114F196
:1009C000010FECD000F0C0F9C01B844201D3002C11
:1009D000E5D100F05DF8012000E00020BDE8F081E5
:1009E000F8B505460E4614461F463102090E286822
:1009F00001291BD14169314089B2B2B291421BD069
:100A000041694A051AD5FFF7BBFF6FF480602A6879
:100A10005061002105F13C00296320224270817061
:100A2000426842F004024260017013E08169314083
:100A300089B2B2B29142E3D10020F2BD14F1010FAC
:100A4000D3D000F081F9C01B844201D3002CCCD15B
:100A500000F01EF80120F2BD70B505460C461646A2
:100A600028684169080611D4284600F067F858B98B
:100A700014F1010FF4D000F067F9801B844201D318
:100A8000002CEDD100F004F8012070BD002070BDF5
:100A900000202863202105F13C0000224170827073
:100AA000416841F0200141600270704770B5054611
:100AB0000C46164628684169480711D4284600F0BC
:100AC0003DF858B914F1010FF4D000F03DF9801B46
:100AD000844201D3002CEDD1FFF7DAFF012070BD75
:100AE000002070BD70B505460C4616462868416961
:100AF0004A0617D44169CA060BD400F025F9801BB9
:100B0000844201D3002CF1D100F00EF841F0200115
:100B100004E06FF01001416100F006F841600270DE
:100B2000012070BD002070BD00202863202105F148
:100B30003C000022417082704168704701684A6938
:100B400053050FD56FF480624A61002101633C3088
:100B5000202242708170426842F0040242600170BB
:100B60000120704700207047704730B4002513E023
:100B700050F8042BD30744BFA9F101039A18091FA9
:100B8000042942F8045BFAD213468C0744BF15804F
:100B90009B1CC90748BF1D7050F8041B0029E7D1F2
:100BA00030BC70472DE9F04104000F4678D0464E26
:100BB000306800F00F00B84202D200F073F86FD135
:100BC0002068424D810712D5400703D5A96841F43A
:100BD000E051A9602078010703D5A86840F460407F
:100BE000A860A968A06821F0F0010143A9602178FC
:100BF000C8074DD56068012802D129688A0305E03D
:100C0000022818BF032803D129688A0103D447E0CA
:100C100029688A0744D5A968890840EA8100A86044
:100C200000F092F88046A868616800F00C00B0EB14
:100C3000810F2DD000F088F8A0EB080041F2893137
:100C40008842F0D3032021E02078410705D5AA6827
:100C5000E06822F4E0520243AA602178080706D532
:100C6000A968206921F4604141EAC001A96000F04F
:100C700039F8AA681649174BC2F30312895CC840B9
:100C800018601548006800F065F80020BDE8F081A4
:100C9000306800F00F008742D6D200F003F8D3D0BE
:100CA0000120F3E73770316801F00F01B942704756
:100CB00008480A4A006813680949C3F38222FFE71B
:100CC000895CC84070470000003C02400038024088
:100CD000A01E000848000020440000200838024000
:100CE0002C20000830B5144C606800F00C0004287B
:100CF00002D0082802D01DE0104830BD22682068CC
:100D00000023410202F03F0204D525680B49C5F3D8
:100D1000881003E020680A49C0F38810A1FB000195
:100D200000F038F82168C1F30141491C4900B0FBCB
:100D3000F1F030BD024830BD0438024000127A00A4
:100D40000024F4007047000001484068704700BF6D
:100D50003C00002038B50D4D0D4B2A7804464FF469
:100D60007A711868B1FBF2F2B0FBF2F000F0D7F83C
:100D700050B9102C08D2002221464FF0FF3000F06D
:100D8000A7F8AC60002032BD012032BD3C0000203D
:100D900048000020D3BBD9B1B2F5803F5BD2022A14
:100DA0001ED98C46B1FBF2F102FB11C31B0443EACE
:100DB0001043B3FBF2FC02FB1C3380B240EA034356
:100DC000B3FBF2F002FB103240EA0C400023704704
:100DD000022A05D98446B0FBF2F002FB10C270472C
:100DE0004AB105D100F0010249085FEA30007047BE
:100DF00000220023704700F0B3B80B00020000216E
:100E000000207047F7D3002200237047904271EB17
:100E1000030CF2D370B5B1FA81F4B3FA83F52C1B4D
:100E2000A340C4F1200532FA05F63343A2405FF037
:100E30000046E64002E05B085FEA3202841A71EB8A
:100E4000030524BF204629467641F4D302000B0057
:100E50003000002170BD70B5B1FA81F4B2FA82F5AC
:100E6000C4F120046419B4F12006DAD3B2405FF073
:100E70000044F440002502E052085FEA3303C61A3A
:100E800071EB020E24BF3046714664416D41F3D3CD
:100E900002000B002000290070BD000009010200C3
:100EA00006D5294A00F00F00104400F8041C7047D2
:100EB000264B19547047264B19684FF6FF02000263
:100EC000114000F4E060084322490843186070476D
:100ED00038B51F4B1C68C4F30223C3F10704052C6B
:100EE00028BF04241D1D072D34BF0023DB1E012550
:100EF00005FA04F4641E2140994005FA03F35B1ED1
:100F00001A401143BDE83440C8E7012200F01F0138
:100F1000114BFFE78A40400943F82020704710B585
:100F2000401EB0F1807F01D3012010BD0B4C6060EA
:100F30000F214FF0FF30FFF7B1FF0021A160072024
:100F40002060002010BD000018ED00E000E400E08B
:100F50000CED00E00000FA0500E100E010E000E028
:100F6000704700002DE9F843040016D02078DFF820
:100F70000863C10713D5B06800F00C00042807D03F
:100F8000B06800F00C0008283ED1706841023BD5E3
:100F90003068810303D56068002800F0FF80207866
:100FA000B64F810719D5B06810F00C0F07D0B068A4
:100FB00000F00C0008285CD17068410259D43068F8
:100FC000810703D5E068012840F0E8803168206996
:100FD00021F0F80141EAC0013160217808076CD5A1
:100FE0006069A749002862D001220A60FFF7ACFEC1
:100FF0000546706F810700F1D380FFF7A5FE401B07
:101000000228F6D9032034E16068B0F5803F04D1AE
:10101000306840F48030306011E0B0F5A02F3068C7
:1010200006D140F480203060316841F4803105E021
:1010300020F480303060316821F4802131606068B4
:1010400058B1FFF781FE054630688103A7D4FFF74A
:101050007BFE401B6528F7D3D4E7FFF775FE0546F6
:10106000306881039BD5FFF76FFE401B6528F7D3DF
:10107000C8E7E06870B101213960FFF765FE0546F9
:101080003068810700F1B880FFF75EFE401B022840
:10109000F6D9B7E73860FFF757FE0546316888078D
:1010A0009BD5FFF751FE401B0228F7D9AAE708603D
:1010B000FFF74AFE0546706F810771D5FFF744FEC2
:1010C000401B0228F7D99DE70528306F06D140F074
:1010D00004003067306F40F0010005E04008400038
:1010E0003067306F20F00400306741F28938A06823
:1010F00068B1FFF729FE8146306F810700F18980D2
:10110000FFF722FEA0EB09004045F5D37AE7FFF791
:101110001BFE8146306F81077BD5FFF715FEA0EBE4
:1011200009004045F6D36DE7FFF70EFE401B02288D
:1011300040F2828066E7FFF707FE001B022840F2BC
:1011400093805FE700203866FFF7FEFD04463068B5
:10115000810140F18D80FFF7F7FD001B0228F6D9D1
:1011600050E701281AD07068E26900F480019142CA
:1011700002BF00F03F01226A91420FD147F6C071D1
:10118000626A0140914202BF00F44031A26A91427A
:1011900002BF00F07060E16A884269D0012068E017
:1011A000207841073AD5306C0025C1000AD400955B
:1011B0000125316C41F080513164306C00F0805079
:1011C00000900098DFF8BC80D8F80000C1051BD45F
:1011D000D8F8000040F48070C8F80000FFF7B4FDB4
:1011E0008146D8F80000C1050ED4FFF7ADFDA0EB95
:1011F00009000228F5D905E73068216920F0F800D8
:1012000040EAC1003060E8E6A06801287FF45CAFE6
:1012100060E71DB1306C20F080503064A06938B3B5
:10122000B16801F00C0108299BD002288AD1002066
:101230003866FFF789FD0546306881013FF574AFD8
:10124000E269206A616A0243A06A400842EA8112A8
:10125000401E42EA0042E06A42EA006272600121F6
:101260003966FFF771FD0446306881017FF563AF91
:101270000020BDE8F28300BF003802400000474272
:10128000800E4742007000402DE9F84F0D464FF0A8
:1012900000089C490F22012304462E6803FA08F037
:1012A00000EA0609814540F0B1804FEA480C032668
:1012B00006FA0CF66FEA060E6E68012E18BF022EB3
:1012C00003D0112E18BF122E11D1A668EF680EEAB6
:1012D000060607FA0CF73E43A660666826EA000099
:1012E0006E68C6F3001606FA08F630436060E068E0
:1012F000AE680EEA000006FA0CF63043E0604FEAF2
:1013000088006E68022E18BF122E12D14FEAD8063E
:1013100004EB860600F01C07D6F820A002FA07FBB3
:101320002AEA0B0AD5F810B00BFA07F747EA0A07C2
:10133000376226680EEA06072E7906F0030606FADB
:101340000CF63E4326606E68F6005FD500260096D8
:101350004FEA980C0E68DFF8B0E146F480460E6064
:1013600000F00C000E6806F480460096009E5EF8C1
:101370002C7002FA00F627EA0606644FBC4208BF4A
:10138000002713D0624FBC4208BF01270ED0614F27
:10139000BC4208BF022709D05F4FBC4208BF0327E9
:1013A00004D05E4FBC420CBF0427072707FA00F0A9
:1013B00030434EF82C006FEA090C594806680CEAD5
:1013C000060E6E68F70348BF49EA0E0EC0F800E04B
:1013D00046680CEA060E6E68B70348BF49EA0E0E6F
:1013E000C0F804E086680CEA060E6E68F70248BF93
:1013F00049EA0E0EC0F808E0C6680CEA060E6E68F0
:10140000B60248BF49EA0E0EC0F80CE008F1010828
:10141000B8F10F0F7FF641AFBDE8F18F2DE9F84F1E
:1014200003460D4600243E48374900950122009EA0
:1014300002FA04F909EA06064E4559D14FEA940C1E
:101440004FEA840A51F82C50304F0AF00C0E4FF03E
:101450000F0B0BFA0EF8BB4208EA050508BF002780
:1014600013D02B4FBB4208BF01270ED0294FBB42E0
:1014700008BF022709D0284FBB4208BF032704D06A
:10148000264FBB420CBF0427072707FA0EF7BD42C1
:1014900012D10568F6433540056045683540456022
:1014A000856835408560C5682E40C66051F82C506F
:1014B00025EA080541F82C5003256600B540EE43A7
:1014C0001D6835401D600AF01C0AE50803EB850520
:1014D0000BFA0AFA2F6A27EA0A072F62DD683540FD
:1014E000DD605D6825EA09055D609D6835409D60A9
:1014F000641C0F2C9BD9BDE8F18F02B909048161EE
:1015000070470000443802400838014000000240A3
:101510000004024000080240000C0240001002409B
:10152000003C014038B500244FF0FF35B0B10A68E7
:1015300002604B684360CA68C2600B6903618A68D5
:10154000826049690FF2ED1241610062C2610FF2DF
:10155000F5118161006808B1804700B12C46204632
:1015600032BD1CB50446606A58B9694604F11800DA
:1015700000F016F99DF80000242818BF262800D096
:10158000C2E001206062002016BD183000F008B9EA
:101590000246A620926810471CB500F086F800F0BD
:1015A00013F918B99DF800002080002016BD02B57F
:1015B0006946183000F00DF902BD10B5044610461A
:1015C000A5E02DE9F84F064688461F46914640F2B1
:1015D00001108742ACBF4FF4807ABA46F468534694
:1015E00042461FFA89F1A620A047050014D1706970
:1015F00080478346B2680121A6209047044670695F
:101600008047A0EB0B00B0F5A07F02D2002CF1D1F7
:1016100002E00CB16FF00205A7EB0A07D044D144F9
:10162000BFB20FB1002DD2D02846BDE8F28F2DE910
:10163000F84F06461F469046894640F20110874201
:10164000ACBF0025FDB2F4682B464A461FFA88F16C
:10165000AE20A0475FEA000A14D170698047834634
:10166000B2680121A6209047044670698047A0EB2C
:101670000B00B0F5A07F02D2002CF1D102E00CB13A
:101680006FF0020A7F1BA944A844BFB217B1BAF198
:10169000000FD2D05046BDE8F28F28B99DF8000067
:1016A00000B101202070002016BD0C46694618309C
:1016B0007047F0B585B000F020F80925FFE78DF8F8
:1016C00008500020C0F10301C9000DEB000226FA0A
:1016D00001F31370401C27FA01F3137104281178E9
:1016E000137951725373EDDB11234FF41062694685
:1016F0002046FFF79CFF05B0F0BD04460E46174696
:101700006846142100F07EB84FF0FF3016BD0A463F
:1017100001462469A620A04710BD1CB500F003F8BF
:1017200000F062F8B9E700220C468DF80020694607
:101730001830704738B504698D044CBFA620AE2020
:10174000A04732BDF8B506468D04F46802D5A62040
:10175000A047F2BDAE20A047050013D170698047B5
:101760000746B2680121AE20904704467069804761
:10177000C01BB0F5A07F02D2002CF2D102E00CB168
:101780006FF002052846F2BD10B50446A0686468F3
:10179000A04710BD10B50446A0682468A04710BD3E
:1017A00080B50A4601231721FFE7FFF7EDFF08B1D7
:1017B0004FF0FF3002BD4FF0FF3010BD207800F039
:1017C00001002070002010BD80B50A4601230021D1
:1017D000EBE780B50A4601230021FFF7DBFFE6E7D0
:1017E0002078C0F38000704710B500F005F800B114
:1017F000E1E7FFF7F5FFE4E70C460123224642F25A
:101800000201C1E7002200F001B8000000B500BFEE
:10181000130096469446103928BFA0E80C50FAD819
:101820005FEA417C28BF0CC048BF40F8042BC907C1
:1018300028BF20F8022B48BF00F8012B00BD000094
:1018400080B500F0E1F800F007F800F04FF800F084
:10185000F5F800F0F4F8FCE780B592B006A8302166
:10186000FFF7D0FF01A81421FFF7CCFF0020009064
:101870005648016841F0805101600021006800F085
:10188000805000900098524800910221026822F492
:10189000404242F4004202600122006800F44040ED
:1018A000009000980691099210210A9102220021CD
:1018B0000C920D9110224FF4A8710E920F910422F8
:1018C00007211092119106A8FFF74CFB022102910B
:1018D0000F204FF480510190002204910392059251
:1018E000022101A8FFF75EF913B000BD38B586B03C
:1018F00068461421FFF786FF00243648364D0594CC
:101900000168364C41F004010160026802F00402F3
:101910000592002205990592036843F08003036055
:10192000016801F08001059105990592036843F073
:1019300001030360016801F0010105910599059219
:101940004FF4A461036843F002030360006800F0F1
:101950000200059005982046FFF7CFFD00223021B8
:101960002846FFF7CAFD4FF400501D4900F03EF82D
:101970001C48FFF789FC0022029203920C200221EE
:10198000009001910722049269462046FFF77CFCF3
:101990004FF4A46100F030F82046FFF775FC4020BA
:1019A000114900F023F82046FFF76EFC302100F0CB
:1019B00023F82846FFF768FC002200211720FFF7D4
:1019C00087FA1720FFF7A1FA07B030BD4038024070
:1019D0000070004030380240000402400000024025
:1019E0000000211000080240000011100090019139
:1019F0000022029269467047009101220021029163
:101A0000039101926946704780B50B48016841F423
:101A100000710160026842F480620260016841F472
:101A2000807101600320FFF746FA0020FFF792F96A
:101A300000F06AF8002002BD003C024000E043E0F4
:101A400038B500BF2EA10020D1E9004500F07AF89A
:101A5000012000F077F8022000F074F8002000F078
:101A600084F800F02DF8012000F07FF800F028F84D
:101A7000022000F07AF800F023F8002000F0BAF815
:101A80000028FAD100F083F821462A46002000F011
:101A9000DCF88821002000F0D1F8002000F06BF87D
:101AA00000F00EF8012000F066F800F009F80220BE
:101AB00000F061F8BDE832404FF4967000F0DCB8F9
:101AC0004FF4967000F0D8B810B50C4C207801286F
:101AD0000FD1611C002000F0BBF86078012803D111
:101AE000002000F042F802E0002000F044F800205E
:101AF000207010BD0149012008707047D0000020FF
:101B0000000000000000000082B0002000900022D1
:101B10000B48416841F480414160416801F48041D3
:101B2000009100990092036843F0805303600068BD
:101B300000F0805000900098072002B0FFF7BBB97A
:101B40004038024018B5254A85B032F8303000934D
:101B5000012401940223002402EBC00203930294A7
:101B600069465068FFF790FB31E080B500F009F856
:101B7000012258682EE080B500F003F80022586872
:101B800028E0164B33F8301003EBC003704718B54C
:101B900085B0402100910221114A1248124C019255
:101BA0000391002202926946FFF76EFB0F4920461F
:101BB00000F07DF80E4A0021204600F071F8002266
:101BC00000211720FFF784F91720FFF79EF9002066
:101BD00006B010BDFFF791FC002002BD0000002000
:101BE000000011100000024018000020060000064E
:101BF000F51A000810B586B01749184A184C00911C
:101C0000019220461749184A029104921749184A2E
:101C1000039105926946FFF785FC40B91548A0621B
:101C2000016811B12046884718B10020A0624FF02A
:101C3000FF3006B010BD4FF0FF3070470848826A91
:101C40001269002A18BF1047F5E70548FFF731BDB4
:101C50000348FFF762BD0000E11C0008571D0008A3
:101C6000A40000208B1D0008CD1D0008AD1D00083C
:101C7000490D00082000002038B50446FFF764F83D
:101C800014F1010F054602D0044801786418FFF7EB
:101C90005BF8401BA042FAD331BD00BF3C000020DE
:101CA0000346002009B95A6070470120704708B9FF
:101CB000012070470160002070470178012201F087
:101CC0001F0102FA01F1054A13680B4204D01160AA
:101CD0004068002818BF004770470000143C0140CE
:101CE000494870B5494D286086B0686D411C002494
:101CF000696568BB2846FEF773FD48BB444E0090FB
:101D00001222316841F0020131604FF440713068B5
:101D100000F00200009000983E48019102920121DB
:101D20000391032204210591049201A9FFF7ACFA63
:101D30000094316941F400113161306900F4001000
:101D400000900098284600F069F808B16FF0070489
:101D5000204606B070BD38B52C4D686D002490B19A
:101D6000401E68650FD12C48026822F40012026000
:101D70004FF440712748FFF751FB2846FEF7A6FABB
:101D800008B16FF00704204632BD0A4610B501467F
:101D90004FF480531D48FEF76DFC002408B16FF02E
:101DA0000204204610BD204604B070BD7FB500F08F
:101DB00020F8FEF7ABFA002438B100F017F8042839
:101DC0000CBF6FF065046FF00304ECE77FB500F023
:101DD00010F8FEF733FB002438B100F007F80428B0
:101DE00014BF6FF065046FF00304DCE72846FEF7CC
:101DF000FABC009201930A46044D4FF48056014606
:101E00000296102328467047005400404C000020E2
:101E10003038024000040240403802400A490B4A70
:101E200010B50160426000244FF48042026184607A
:101E3000C46044618461C4610462FEF7ABF900B11F
:101E40000124204610BD00BF00540040801A060047
:101E50000E48016841F47001016000220C490868D5
:101E600040F0010008608A600B680A480A4A034093
:101E70000B604A6000200B68084A23F480230B6043
:101E8000C8604FF0006111607047000088ED00E00D
:101E900000380240FFFFF6FE1030002408ED00E09D
:101EA000000000000000000001020304060708090A
:101EB0001000000000040240200000000004024066
:101EC00000040000000002400600000600000000C0
:101ED000631500088B150008911500089915000876
:101EE000AF150008BB150008C3150008010000006D
:101EF00000000000100000000024F40030B450F88E
:101F0000041B79B10268436802440830DC0744BF0F
:101F1000A9F10104E31852F8045B43F8045B091FBC
:101F2000F9D1ECE730BC704710B507497944183156
:101F3000064C7C44163404E00A68081D11448847A6
:101F40000146A142F8D110BD2C0000004C00000059
:101F50004EF68851CEF20001086840F47000086027
:101F6000BFF34F8FBFF36F8F4FF00070E1EE100A99
:101F700070470000F7EBFFFF880000004C000020D6
:101F80000000000079FFFFFF4C00000024FFFFFF6E
:101F900000000020000000007047FEE7FEE7FEE7BB
:101FA000FEE770477047704700F006B80148FFF73A
:101FB00084BE0000180000200248416802788A1898
:101FC000426070473C00002000F00DF8002801D06E
:101FD000FFF7AAFFAFF300800020AFF30080FFF708
:101FE0002FFC00F002F80120704700F001B800005B
:101FF0000746384600F002F8FBE7000080B5AFF373
:102000000080024A11001820ABBEFBE72600020048
:102010000148804701480047511E00082120000860
:10202000AFF30080FFF794FFFFF7CEFF0000000042
:1020300001020304FFF7FEBFFFF7FEBFFFF7FEBF7D
:10204000FFF7FEBFFFF7FEBFFFF7FEBFFFF7FEBFC4
:10205000FFF7FEBFFFF7FEBFFFF7FEBFFFF7FEBFB4
:10206000FFF7FEBFFFF7FEBFFFF7FEBFFFF7FEBFA4
:10207000FFF7FEBFFFF7FEBFFFF7FEBFFFF7FEBF94
:10208000FFF7FEBFFFF7FEBFFFF7FEBFFFF7FEBF84
:10209000FFF7FEBFFFF7FEBFFFF7FEBFFFF7FEBF74
:1020A000FFF7FEBFFFF7FEBFFFF7FEBFFFF7FEBF64
:1020B000FFF7FEBFFFF7FEBFFFF7FEBFFFF7FEBF54
:1020C000FFF7FEBFFFF7FEBFFFF7FEBFFFF7FEBF44
:1020D000FFF7FEBFFFF7FEBFFFF7FEBFFFF7FEBF34
:1020E000FFF7FEBFFFF7FEBFFFF7FEBFFFF7FEBF24
:1020F000FFF7FEBFFFF7FEBFFFF7FEBFFFF7FEBF14
:10210000FFF7FEBFFFF7FEBFFFF7FEBFFFF7FEBF03
:0400000508002021AE
:00000001FF
