:020000040800F2
:10000000F00D0020C93400081D3300081F3300081C
:1000100000000000000000000000000000000000E0
:100020000000000000000000000000002133000874
:100030000000000000000000233300082533000802
:10004000930A0008430D0008FF1400087715000804
:100050007B1500087F150008AF2B00082D33000822
:100060002F300008A7340008B33400083D330008DF
:10007000ED340008EF34000800000000F1340008FF
:1000800000000000F3340008000000000000000041
:10009000F534000800000000F7340008F9340008C7
:1000A000FB340008FD340008FF3400080135000867
:1000B0004D330008033500080535000807350008F2
:1000C00038B5040014D0250074356868002803D1C1
:1000D0002870200000F0DCFC2420686020680168A3
:1000E000012291430160200000F0D2F9012801D1E2
:1000F000012032BD606A002802D0200000F0D2FA50
:1001000020684168084A0A404260206881682A22C3
:1001100091438160FFE72068016801220A43026081
:10012000200000F023FB32BDFFB7FFFF70B50500D4
:100130002E0074367068202843D100290BD010009F
:1001400009D0A86880235B01984206D1286900285D
:1001500003D1C80701D5012070BD7420285C012897
:100160002FD001203070E964280050300280428096
:100170000024F46021217160C169002918D02B4B43
:10018000CB622B49C36919632A49C3695963C169A1
:100190008C6313002A682832E96CC06900F0C6FC41
:1001A000002805D01020F060347020207060D2E765
:1001B000402029680862347028688168802200F035
:1001C00099FB022070BD38B5030074339C68202C65
:1001D00027D100290BD0140009D0846880256D0137
:1001E000AC4206D10469002C03D1CC0701D5012013
:1001F00032BD7424045D012C13D001241C70002333
:1002000003660368084CA34208D05B681B0205D54F
:1002100003681B68AC031C4303681C6000F034FBDC
:1002200032BD022032BD00000048004059090008DC
:1002300089090008250A0008FEB504002068C16984
:100240000268836800938E4B0B40250058352026AA
:1002500020271740019720270F400297002B0AD133
:10026000002F0DD0019B002B0AD0E968002901D096
:1002700020008847F7BD009BDB0702D4814B134069
:1002800070D0CB0706D5D30504D501230362A86A35
:100290000343AB6202200423014207D0009FFF0703
:1002A00004D527683862AF6A1F43AF62194207D08E
:1002B000009FFF0704D527683B62AB6A1843A8621A
:1002C000082001420AD0019B002B02D1009BDB07D2
:1002D00004D523681862AB6A1843A862B0010140D4
:1002E00006D0510104D521680862A86A0643AE62AF
:1002F000A86A00282BD00298002807D0019800286F
:1003000004D0E968002901D020008847A86A402667
:1003100021688968314002D1282101401CD0200089
:1003200000F0F8FA206881680E4011D08168402200
:1003300091438160A86900280AD053498163A86964
:1003400000F050FC002802D0A869816B8847F7BDF7
:10035000200000F0F4FCF7BD200000F0F0FC0020CD
:10036000A862F7BDAB68012B60D1102319425DD0A4
:100370001A425BD003621020C0430121C94300220E
:1003800023689B685B062DD5AB691B685B689BB2D5
:10039000002B72D05827E75BBB426EDA6B80AB69EB
:1003A0001B681B68334017D123681F68374B3B40DD
:1003B00027683B6023689F683940996021688B6893
:1003C0004027BB438B606E62AA6021680A681040B8
:1003D0000860A86900F0E1FB5820205A6988411A9A
:1003E00089B21FE05823E35A6F88DB1B6F463B80BE
:1003F0006B88002B41D06B461B88002B3DD02368B7
:100400001F681E4B3B4027683B6023689F6839404C
:1004100099606E62AA60EA6021680A68104008600C
:1004200068460188200000F08BFCF7BDF3031942F9
:1004300007D0009F7F0204D50362200000F082FCF9
:10044000F7BD8020014207D0104005D0296900295E
:1004500013D020008847F7BD402001400DD0104048
:100460000BD02068006840218843216808602E6214
:1004700000202861200000F066FCF7BDDFFEFFFFD2
:100480000F08000020010004730A0008FFFEFFFFB0
:10049000F8B5050000242B6818687B490140A8685E
:1004A00008432969014368690843E9690143196000
:1004B000586876490140E86808435860A86974495B
:1004C0008B4202D00100286A08439968714A0A40A9
:1004D0001043986070488108802212026F4EB34228
:1004E00036D16F4EF66CB607B60F04D0022E6DD023
:1004F0006ED3032E66E001260096694B1026EF6945
:100500009742009F00D08EE0002F0CD0012F00D129
:100510007CE0022F00D17CE0042F00D17EE0082F88
:1005200000D17EE0A9E000F062FF00282ED06968CB
:1005300040004A08801800F089FF80B2010010399D
:10054000A24A9142EED202400007400F104384E0DD
:100550009F4EB34224D1524EF66C0C27374033D015
:10056000042F35D0082F31D00C2F33D01026484F10
:10057000BB42C1D1002E06D0022E2DD0042E31D088
:10058000082E32D079E000F032FF002876D06A6879
:1005900051008918884270D31103814227D26CE040
:1005A0003B4EB342E2D13E4EF76CC02636013E4090
:1005B0000AD05709BE420BD01709BE4206D0C02749
:1005C0003F01BE4206D0D1E70026D0E70226CEE7A3
:1005D0000426CCE70826CAE7314A1268D206D6D5E7
:1005E0000800D4E700F0CAFECFE71000CFE7070EFF
:1005F00006025008002180197941002300F041FFD4
:100600009E4941189E4A914237D226E000F0FCFEF6
:100610008BE71A6816408AD0080088E700F0AEFE23
:1006200083E7100083E7002F08D0012F18D0022F96
:1006300019D0042F1CD0082F1DD01EE000F0D7FECB
:1006400000281BD069684A08801800F0FFFE80B2BD
:10065000010010395D4A91420FD22968C8600DE04F
:1006600000F0D2FEECE71A681640EBD00800E9E78C
:1006700000F084FEE4E71000E4E70124002068664F
:10068000A8662000F2BD0000F369FFEFFFCFFFFF77
:1006900000480040FFF4FFFF0024F4000038014050
:1006A000001002402421415CC90706D501684A6850
:1006B000744B1340826A1A434A602421415C8907C3
:1006C00006D501684A688D4B1340C26A1A434A60D6
:1006D0002421415C490706D501684A68884B1340CC
:1006E000026B1A434A602421415C090706D5016860
:1006F0004A68944B1340426B1A434A602421415C80
:10070000C90606D501688A688F4B1340826B1A436D
:100710008A602421415C890606D501688A688B4B72
:100720001340C26B1A438A602421415C490611D5EB
:1007300001684A68864B1340026C1A434A60026C97
:1007400080235B039A4205D14A68824B1340426C76
:100750001A434A602421415C090606D501684A68AB
:10076000A34B1340806C184348607047F8B50400F1
:1007700000257430C56000F0B9FE07009D4E20686A
:100780000068000709D500963B00002280218903FC
:10079000200000F01FF800280DD1206800684007F5
:1007A0000BD500963B0000228021C903200000F0F9
:1007B00011F8002801D00320F2BD2100743120205F
:1007C0004860886025660D700020F2BDF0FF0000D3
:1007D00000440040FEB5089F802424010025060047
:1007E00001916846027002933068C0690199014026
:1007F0000198814201D1012000E00020694609787A
:10080000884238D10020C0438742EDD000F06EFE10
:100810000299401A874201D3002F11D13068016834
:10082000754A0A4002603068816801229143816004
:100830003000743020214160816005700320FEBDCE
:10084000306800684007CFD53068C0692040CBD001
:100850003068046230680168674A0A4002603068A4
:100860008168012291438160300074302021416011
:100870008160C160E1E70020FEBD000000FDFFFFD8
:1008800000FD0F00FFFFFDFF70B50600130071654E
:10089000350058352B800024AC6222206862A8699C
:1008A000002818D05549C1625548A96908635548C0
:1008B000A9694863A8698463726D31682431A869A5
:1008C00000F034F9002806D01020A8622C772020F0
:1008D0002862012070BD2C773068016880225200A8
:1008E0000A4302603068816801220A4382603068EE
:1008F000816840220A438260002070BDFFFFFEFF36
:10090000FFFFFBFF01680A68C0239A430A602021A9
:100910008167704701680A685B4B13400B60016890
:100920008A6801239A438A60016E012904D1016813
:100930000A6810239A430A602021C16700210166DA
:1009400041667047FF7FFFFFFFEFFFFFFFDFFFFF05
:10095000FFFFEFFFFFFF9FFF80B50100886A096876
:10096000096889060DD400215222815201688A68E3
:1009700080239A438A600068016840220A4302602B
:1009800001BD00F0E0F901BD80B5806A00F0B4FD62
:1009900001BD38B50100886A020058322023096879
:1009A0000968194018D1518001680C68374D2540FD
:1009B0000D6001688C680125AC438C6001688C680F
:1009C0004025AC438C6053629168012904D10168D1
:1009D0000B681024A3430B609168012904D15821AE
:1009E000415A00F0ADF931BD00F087FD31BD000086
:1009F000FFFFF7FFFFFFFF015FFEFFFF9309000806
:100A0000090A0008250A000880B5806A016E0129DC
:100A100005D15821415A490800F092F901BD00F072
:100A20006DFD01BDF8B5846AA06F25007835696851
:100A3000009127005237002621688968090605D5EC
:100A4000212803D13E802000FFF75CFF20688068EA
:100A5000400606D50098222803D13E812000FFF7EA
:100A600059FFA86810210143A960200000F067F930
:100A7000F1BD80B5806A0100523100220A810A80EE
:100A800000F05DF901BD0000DFFEFFFFFFFEFFFF8C
:100A90007047FEE770B5040001D1012070BD2068E9
:100AA0001E494018142100F0D1FC800060641C48ED
:100AB0002064022025216054206800681949014003
:100AC000A0680843E1680143206908436169014364
:100AD000A0690843E1690143206A0843216808606E
:100AE000A0688021C901884210D00F481C210268EB
:100AF0000F23656C1C262E40B3409A4302600268A7
:100B00006368656C29408B40134303600020E063F9
:100B100001212522A1542421605470BDF8FFFDBF9E
:100B2000000002400F80FFFFA8000240F8B504005B
:100B3000002000252426A65D012E01D10220F2BD51
:100B400001262427E65502262527E75D012F1FD120
:100B50002527E655E063206806680127BE43066046
:100B6000200000F0D8F82068216B0029016801D02E
:100B70000E2205E0042291430160206801680A22E8
:100B80000A4302602068016801220A43026002E011
:100B90002421605402252800F2BD30B50100243123
:100BA00000222523C35C022B04D00423C3630A70F4
:100BB000012030BD03681C680E25AC431C6003682F
:100BC0001C680125AC431C6001234424045D1C25E2
:100BD00025400124AC40056C6C60252403550A7047
:100BE000002030BD70B50022002401212523C35C04
:100BF000022B03D00422C263012418E003681D689D
:100C00000E26B5431D6003681D688D431D60442397
:100C1000C35C1C251D400123AB40056C6B60252384
:100C2000C15424214254816B002900D08847200000
:100C300070BDFEB5016C0968029101680A680192F5
:100C40004422825C1C2313406A4613700423202232
:100C5000029C6D462D780426AE40264014D0019C9F
:100C60001C4011D00C68224002D10A689A430A60E5
:100C70004421415C1C220A409340016C4B60016B93
:100C8000002947D08847F7BD012302240025029E92
:100C9000B4466E4636780227B7406646374019D0CC
:100CA000019E264016D00E68324005D10A680A26F9
:100CB000B2430A60252143544421415C1C220A406E
:100CC0009440016C4C6024214554C16A002921D014
:100CD0008847F7BD082264466E4636780827B74035
:100CE000274017D0019C224014D00A680E24A2434A
:100CF0000A604421415C1C220A4001219140026C9F
:100D00005160C3632521435424214554416B00297C
:100D100000D08847F7BD70B501244425455D1C26E9
:100D20002E40B440056C6C600468636080681028D5
:100D300002D1A260E16070BDA160E26070BD704749
:100D40007047FEE770477047FEB5060058D0B74CB5
:100D5000E0680C2101400091E068802149020840D0
:100D600001903078C0070ED54F000098082804D0B5
:100D70000C2869D10198884266D12068074002D0CA
:100D8000706800283CD0307880072BD5F068BB4FC6
:100D90000921C943009A042A05D00C2A01D1019ADD
:100DA000002A00D08BE02268520701D5002827D006
:100DB00062681740326912023A4362602268114049
:100DC0000843206000F0DAFAAD49E2681206120F1B
:100DD000895CC840BE490860BE48006800F090FBCE
:100DE000010030D13078C00600D4B4E0BA4F00988A
:100DF000002800D090E02068800503D5F069002825
:100E000000D1DAE160680740706A3843606060686A
:100E10000002000A316A0906014361600120716A1B
:100E2000490B491C8840C0039549E2681206120F1D
:100E3000895CC840A6490860A648006800F060FBCD
:100E4000010000D187E0FEBD7068884201D12068B2
:100E500009E0A021C9028842206806D17900014337
:100E600021602068790801430AE0B349014021600C
:100E7000206879080840029002982068AF49014034
:100E80002160706800280DD000F030FB050020685C
:100E9000384000D077E700F029FB401B6528F6D3E7
:100EA0000320FEBD00F022FB05002068384000D181
:100EB00069E700F01BFB401B6528F6D3F0E704222E
:100EC0000192002817D0226811400843206000F0EA
:100ED0000DFB050020680199014005D100F006FBDB
:100EE000401B0228F6D9DBE7606807403069000242
:100EF0003843606076E7206801218843206000F075
:100F0000F5FA0500206801990140F3D000F0EEFAEF
:100F1000401B0228F6D9C3E7F0690028206831D0C9
:100F2000A10D0143216000F0E1FA05002068800571
:100F300005D400F0DBFA401B0228F7D9B0E760685F
:100F40000740706A3843606060680002000A316AD6
:100F50000906014361603078000731D502277069C6
:100F60000028206D1DD001210143216500F0BEFA4B
:100F70000500206D384023D100F0B8FA401B02284C
:100F8000F7D98DE78F490140216000F0AFFA0500E5
:100F900020688005DFD500F0A9FA401B0228F7D9A8
:100FA0007EE701218843206500F0A0FA0500206D4E
:100FB000384005D000F09AFA401B0228F7D96FE7B5
:100FC0003078400765D50020019080204005A16B56
:100FD000014004D1A16B0843A063012001907A4F26
:100FE0003868C0050FD43868A10D0143396000F09E
:100FF0007DFA05003868C00505D400F077FA401B7B
:101000006528F7D34CE7B268A10D8A420AD06F4831
:10101000002A0DD0A023DB009A4209D1206D8A005E
:1010200002432265206D0143216508E00010024063
:10103000216D644A0A402265216D08402065670DD4
:10104000B06800280CD000F051FA0500206D38403F
:1010500018D100F04BFA401B5D498842F6D31FE7D8
:1010600000F044FA0500206D38400BD000F03EFA45
:10107000401B57498842F6D312E700BFFFE0FFFF4D
:10108000603400080198002803D0A06B514901404A
:10109000A1633078800635D54F480227B169002911
:1010A0001CD00121A2680A43A260626B11436163F4
:1010B0000168420C0A43026000F018FA0500A068BB
:1010C00038401FD100F012FA401B0228F7D9E7E69A
:1010D0005400002044000020FF1FFFFFA1680122F0
:1010E0009143A1600168A24A0A40026000F0FEF943
:1010F0000500A068384005D000F0F8F9401B022830
:10110000F7D9CDE6B06A002859D000990C293FD014
:101110008025AD049749022820682BD10140216029
:1011200000F0E4F907002068284009D000F0DEF95B
:10113000C01B0228F7D9B3E6FFFFFEFFFFFFFBFF4E
:10114000E0688D490140F06A0843316B0143706BE0
:101150000843E060206869080143216000F0C6F997
:101160000600206828402AD100F0C0F9801B022820
:10117000F7D995E60140216000F0B8F90600206833
:1011800028401CD000F0B2F9801B0228F7D987E66E
:10119000012812D0E068802149020140F26A9142A0
:1011A0000BD1F02189030140326B914205D1C0215E
:1011B00009040140706B814201D00120FEBD002076
:1011C000FEBD0000FFFEFFFF00700040FFFBFFFFC1
:1011D00089130000FFFFFFEF20000140F1B582B04E
:1011E00000285CD00091864F86480068C107C90F6F
:1011F0000098814217D2834C2068012188430099CE
:101200000143216000F072F9009D06002068C107CB
:10121000C90FA94206D000F069F9801BB842F5D386
:101220000320FEBD00957D4C02980078800706D50E
:10123000E068F0218843029989680143E1603E46F5
:1012400002980078C0074DD502984068022819D14D
:101250002168890323D5E168032291430843E060B4
:1012600000F044F90700029840680C25022818D1C4
:10127000E0682840082835D000F038F9C01BB0429B
:10128000F6D3CDE7032802D12168890103E00128C4
:10129000216802D14907DED401E08905DBD40120B1
:1012A000FEBD032809D1E06828400C281AD000F0C0
:1012B0001DF9C01BB042F6D3B2E7012809D1E0689E
:1012C000284004280ED000F011F9C01BB042F6D31C
:1012D000A6E7E068284005D000F008F9C01BB0423E
:1012E0009ED2F6E7009847490968CA07D20F904294
:1012F00015D2444D28680121884300990143296093
:1013000000F0F4F807002868C107C90F009881426F
:1013100005D000F0EBF8C01BB042F4D380E7029890
:101320000078400706D5E0683D4901400298C06852
:101330000843E06002980078000707D5E068394963
:10134000014002980069C0000843E06000F016F810
:101350003549E2681206120F895CC84033490860BB
:101360003348006800F0CCF8010000D10020FEBD39
:10137000FFDFFFFFFFFFFFFEFFFF02FF50B5274A21
:10138000D16810230C200840042804D0082809D074
:101390000C2809D023E01068034001D0264850BD36
:1013A000264850BD264850BD26488C02240F005DBB
:1013B00009028C0F641C0021D668F60301D5204A6F
:1013C00003E01268134002D01B4A002300E01B4ACE
:1013D00000F0B8F82200002300F053F850BD506828
:1013E00001210004400F401C8140C80350BD0F483C
:1013F000006815490F4A126852050BE00000000012
:101400008913000000200240084800680E49094A7C
:1014100012689204520F895CC84070470010024065
:10142000FFF8FFFFFFC7FFFF6034000854000020F3
:10143000440000200C10024000093D000024F4008C
:1014400000127A0070340008E4340008094214D015
:1014500088420FD30122030C01D10004120400239F
:1014600000185B418B4200D35B1A5241F8D319003C
:101470001000704701000020704708B500F07CF8AC
:1014800008BD124224D0994228D970B500251B42CC
:1014900002D00C00002109E0002401264918644113
:1014A000944200D3A41A7641F8D33100012601E01A
:1014B000764109D2001864416D41A41A9D41F7D2CA
:1014C000A4185D41B619F5D3300022002B0070BD81
:1014D0001B42D8D108B500F051F808BD01D19042A7
:1014E000D3D202000B000021002070470148406861
:1014F000704700BF3C000020704770477047FEE710
:1015000038B505000D4CFA2080002178FFF79EFFCA
:1015100001000B480068FFF799FF00F05BF8002816
:101520000AD1042D08D2002229000020C04300F077
:1015300044F8A560002032BD012032BD3C000020EF
:101540005400002030B4434351435D18010C0C009B
:10155000130C5C432D1980B2434392B251430024D3
:10156000C918644124040B04090C09195043C0181C
:10157000694130BC7047FEE77047FEE77047FEE701
:1015800010B5C20018231340FF249C40E243890792
:10159000090E9940030004D418489B089B00C0180A
:1015A00006E0174B0007000F083880088000181865
:1015B00003681A401143016010BD80B5FFF7E0FFDA
:1015C00001BD010005D40121C006C00E81400D48B7
:1015D0000160704710B5401E80214904884201D344
:1015E000012010BD084C606003210020C043FFF7BC
:1015F000C7FF0020A0600721216010BD00E400E0CB
:101600001CED00E000E100E010E000E070B5040037
:1016100001D1012070BD25004035002668780028E2
:1016200003D12E70200000F0C5FB242068702068D4
:1016300001680122914301606068324901402068DD
:101640000161216830488A6802408A60E1680129A6
:10165000A16801D1C24301E0842212020A43216839
:101660008A60E168022903D1802109012268516062
:1016700021684A68254B13434B602168CA681040B3
:10168000C860206961690143A069000208432168BC
:10169000C860E069216A0143206801602068016830
:1016A00001220A4302606E60202068702663AE70DB
:1016B000002070BD38B5040001D1012032BD2500E5
:1016C0004035242068702068016801229143016040
:1016D000200000F070FB0020686068702063A87034
:1016E000287032BD20202168C86121684A68084BF3
:1016F00013404B6021004031487000208870087012
:10170000FEBD0000FFFFFFF0FF7FFFFF0080000233
:1017100000E800FEFEB504000F0016001D0040307A
:101720004078202800D0A2E00898002803D068461E
:10173000808C002805D18020800021004031486045
:1017400091E04020205C012800D190E00120402160
:101750006054FFF7CBFE0290009019230122D103C1
:10176000200000F05FFA00287DD12B0032002120FC
:101770002100403148704020210040318870002015
:10178000210040314860089860626846808C60851E
:1017900000206063029801900A98009039002000B0
:1017A00000F0D5F9002803D00020402160545AE011
:1017B000608DFF283AD9FF202085002000908023EB
:1017C0005B04FF223900200000F0DEFA0A9E029D31
:1017D0002A003100200000F051FA002843D1606A4D
:1017E000007821688862606A401C60628548618D6B
:1017F00009186185218D08182085618D002928D060
:10180000000426D10095330000228021200000F042
:1018100009FA002827D1608DFF280FD9FF202085E5
:101820000020009080235B04FF220EE0628D228561
:101830000020009080239B04D2B2C3E7628D2285F2
:101840000020009080239B04D2B23900200000F0D9
:101850009BFA608D0028BBD131002A00200000F0E7
:1018600036FA002801D00120FEBDFFF73BFF022021
:10187000FEBD0000FEB584B006004030417820294E
:1018800000D0BBE00C99002902D00D9F390003D194
:10189000802189004160A0E04020305C012800D117
:1018A000ACE03500403501202870FFF71FFE040032
:1018B0003068806900040DD5FFF718FE001B1A2858
:1018C000F6D3202069680143696068700020A87021
:1018D000287082E002966846038B828A3046403048
:1018E0000390222068704020039988700026039896
:1018F00046600C98029948620298478502984663B0
:1019000001940E9800906846018A029800F04DF903
:10191000002802D0039806705FE080204004019008
:1019200039480299498DFF293AD9FF21029A118538
:101930000090019BFF226846018A029800F024FA79
:10194000029D0E9F00943B0000220421280000F01D
:1019500069F9002841D12868406A696A0870686A94
:10196000401C68622749288D401828856A8D5118C7
:101970006985698D002926D0000424D100943B009C
:1019800000228021280000F04DF9002825D1688D23
:10199000FF280DD9FF2028850096019BFF220DE02E
:1019A00002994A8D0A85009080239B04D2B2C2E737
:1019B0006A8D2A85009680239B04D2B26846018AEC
:1019C000280000F0E1F9688D0028BBD13900220021
:1019D000280000F07CF9002801D001200FE0202031
:1019E0002968C86129684A68084B13404B60290080
:1019F00040314870002088700E7000E0022007B06F
:101A0000F0BD0000FFFF00000024008000E800FEA1
:101A1000F8B584B0050000200190280040304078DF
:101A2000202800D088E028688069000400D583E081
:101A30004020285C012800D17EE001204024285568
:101A400024202C004034607000202C004034606062
:101A50008805800D0290202703921E00E868012867
:101A6000029901D1364801E0A0208001084329688D
:101A70004860FFF73BFD0400296888698206D00FA3
:101A80008969CA06D10F01430DD10020C0438642A7
:101A9000F2D0FFF72BFD001B864201D3002EEBD1C5
:101AA000009528462DE028688069C006009430D54E
:101AB000330000222021280000F0B4F8002839D19A
:101AC00010202968C8612868C76101980399884275
:101AD0000FD1286841687A020A43426000943300BB
:101AE00000222021280000F09DF8002822D128683B
:101AF000C7610198401C0190019803998842ADD3B9
:101B000028004030477041680F4347600021017052
:101B100010E0330000222021280000F083F8002884
:101B200008D12868C7612800403047700021017043
:101B3000002002E0012000E0022005B0F0BD00001E
:101B4000002000024121405C7047406C7047F8B5AE
:101B5000060015001C00079F2A48009080235B04A4
:101B6000E2B2300000F010F93A000699300000F0BF
:101B700085F8002817D1012C09D0280A316888621D
:101B80003A000699300000F079F800280BD1EDB248
:101B9000306885620097069B00228021300000F0AB
:101BA00041F8002800D00120F2BDF8B5060015006C
:101BB0001C00079F134800900023E2B2300000F0A1
:101BC000E3F83A000699300000F058F8002817D1E1
:101BD000012C09D0280A316888623A000699300041
:101BE00000F04CF800280BD1EDB230688562009708
:101BF000069B00224021300000F014F8002800D09D
:101C00000120F2BD0020008000688169890701D5AC
:101C100000218162012182690A4002D18269114357
:101C200081617047F8B5002405000F006846027016
:101C30001E00286880693840B84201D1012000E0C8
:101C4000002069460978884216D10020C0438642A8
:101C5000EFD0FFF74BFC0699401A864201D3002EC5
:101C6000E7D128004030202142680A434260417099
:101C7000847004700120F2BD0020F2BD70B5040034
:101C80000D0016002068806980071ED432002900EC
:101C9000200000F040F8002801D0012070BD002095
:101CA000C0438542EED0FFF721FC801B854201D363
:101CB000002DE7D120004030202142680A434260D5
:101CC0004170002181700170E7E7002070BDF8B518
:101CD000202504000E00170020688069284018D1D4
:101CE0003A003100200000F016F800280FD1FFF76D
:101CF000FDFBC01B864201D3002EEDD120004030F9
:101D000041682943416045700021817001700120C4
:101D1000F2BD0020F2BDF8B5102403689B69234092
:101D200030D005000F0000922026286881693140DC
:101D300011D10020C0438742F7D0FFF7D7FB0099AD
:101D4000401A874201D3002FEFD12800403041686C
:101D50003143416010E0C4612868C6612800FFF784
:101D600053FF28684168114A0A4042602800403009
:101D7000416804220A43426046700021817001706C
:101D80000120F2BD0020F2BDF0B5059C0068456859
:101D9000660D074F3743BD438905890D294312045A
:101DA0000A4313431C434460F0BD000000E800FEFA
:101DB000FF63FF037047704780B500F005F801BD71
:101DC00080B500F03CF801BD10B5002000F0CEFA5F
:101DD000012000F0CBFA022000F0C8FA002000F049
:101DE000D9FA96246400200000F0FCFA012000F0EB
:101DF000D1FA200000F0F6FA022000F0CBFA200021
:101E000000F0F0FA002000F001FB0028FAD100F009
:101E10007BFB8022920069496948FEF7D4F90020D3
:101E200000F0BEFA200000F0DDFA012000F0B8FA60
:101E3000200000F0D7FA022000F0B2FA10BD00B581
:101E4000FFB082B0684600F011F8002805D10120EB
:101E500000F0A0FA684600F03FF9322000F0C2FA24
:101E6000012000F09DFA7FB002B000BDFEB5060073
:101E7000002469464C805248006F00684068802109
:101E80008900081A80B201904E480088694608808F
:101E9000684605880198A84238D00321284600F0FA
:101EA0006CF8070204216846008800F066F80743D2
:101EB0000198854204DA401E69460988401A04E008
:101EC00069460988401A4049401880B2BF1D8742C0
:101ED0001CD1346069464C8807000AE0A1B268460C
:101EE000008800F04AF8711908713068401C3060B1
:101EF000641CA5B2BD42F1DB30000199314A11806A
:101F000000F01EF8012801D10020FEBD0120FEBD19
:101F100010B5040000F004F8200000F03AF810BDFD
:101F20000022002103E083181B79C91A521C0368A0
:101F30009A42F8D3821811710168491C01607047F8
:101F40000021002203E083181B79C918521C036882
:101F50009A42F8D35B1E0360C8B2401E8041C00F96
:101F6000704710B502000020002303E00002D45C9B
:101F700000195B1C8B42F9D310BD40180F4909189A
:101F800080229200904202DB1048085C704708787B
:101F9000704770B5040025680D4E2A00211D3000E1
:101FA00000F03EFBF02070552268521C226092B275
:101FB00031000348FEF7BAF870BD00005800002059
:101FC000E8040020E8050020FF01000000FEFFFFFC
:101FD00058020020B421017132214171802106E0B4
:101FE00000E00000B4210171322141716221817150
:101FF0000021C1710172052101607047B421017196
:10200000322141716021F2E7B42101713221417125
:102010006321ECE7B4210171322141716421E6E7CB
:10202000B4210171322141716521E0E7B4210171D0
:10203000322141716621DAE710B5040000202179D0
:10204000322909D16179B429A17909D0012920D097
:1020500002291ED003291CD02000FFF7CFFF30E05B
:10206000491E022915D90F3913D0891E11D0491ED6
:1020700012D01D3913D0491E15D0491E0FD0491E4C
:1020800011D0491E012912D9891E02D0491E03D040
:1020900014E02168052904E02168062901E021688F
:1020A000092907D110BD216809290ED802E021684D
:1020B0000D290AD22000FFF793FF02E02000FFF76E
:1020C000B5FF2000FFF724FF012010BD0A0AC271EE
:1020D0000172704700000000FEB5040000250026D4
:1020E000FFF7AAFF012800D138E1A079012846D0E6
:1020F000022821D0032834D0102837D011283BD013
:1021000012283DD0132800D129E1302800D188E0E1
:10211000312800D1A1E0322800D1BAE0332800D123
:10212000D4E0342833D035285BD0362800D1F8E00D
:10213000372800D103E10BE12000FFF74BFF00BF80
:1021400088A0211D22685219435D8B546D1C052DFA
:10215000F8D329002000FFF7B9FF2068401920605C
:10216000DBE02000FFF736FFB42036E0002000F06F
:102170004DF9002803D0CDE0002000F06CF9B9E063
:102180002000FFF727FF002000F06DF925E0607ABE
:102190000006A17A09040143E07A00020843217B8A
:1021A00001430191607B0006A17B09040143E07BB0
:1021B00000020843217C0143029101A803C80A00E0
:1021C0000100002000F07DF96946002000F094F93C
:1021D0002000FFF7FFFE68460078211D2268885422
:1021E000A5E0607A0006A17A09040143E07A0002C2
:1021F0000843217B01430191607B0006A17B090418
:102200000143E07B00020843217C0143029101A8C5
:1022100003C80A000100002000F058F9002879D115
:1022200068E0022120000930FFF79BFE0700022131
:1022300020000B30FFF795FE05002000FFF7CAFED7
:10224000ABB2BAB221000931002000F010F9002829
:1022500037D02000FFF7D8FE33E0022120000930FC
:10226000FFF77FFE0500022120000B30FFF779FE0B
:1022700083B2AAB221000D31002000F003F900283A
:1022800038D06521C94388423CD12000FFF7C8FE01
:1022900043E0022120000930FFF763FE070002211E
:1022A00020000B30FFF75DFE05002000FFF792FED7
:1022B000ABB2BAB221000931002000F0EEF80028DC
:1022C000C7D12068A9B24018206034E00221200064
:1022D0000930FFF746FE0500022120000B30FFF712
:1022E00040FE83B2AAB221000D31002000F0DAF8DE
:1022F000002803D12000FFF76DFE0EE06521C943E1
:10230000884207D00221C943884203D12000FFF749
:1023100081FE02E02000FFF789FE2000FFF7F8FDB4
:102320001DE02000FFF756FE00F045F860722068BF
:10233000401C206001212000FFF7C8FEEDE7607A15
:10234000012802D100F03FF8D4E700F042F8D1E7CD
:102350002000FFF76BFE2000FFF7DAFD01263000BA
:10236000FEBD0000312E302E3000000000B585B0DB
:102370001B49C00008180188009101210191022128
:102380000391002102916946406800F063F9002042
:1023900005B000BD80B51249C0000818012204E054
:1023A00080B50F49C000081800220188406800F07D
:1023B0007EFA002002BD80B54021FFE7A020C005C5
:1023C00000F06FFA02BD80B501221102A020C00505
:1023D000EDE780B5002280214900A020C005E6E796
:1023E0000000002038B50500FFF780F80400002049
:1023F000C043854202D0044800782D18FFF776F8D4
:10240000001BA842FAD331BD3C00002038B586B08D
:102410003148009031480190314802903148049091
:1024200031480390314805900024E443304D69461B
:10243000280000F051FA00280AD12E48A86201684D
:10244000002903D028008847002802D00020A86275
:10245000200007B030BD2648816A002902D0002143
:102460008162416270472248406AC0B2704710B52D
:102470001F48846A6469002C02D10020C04310BD4B
:10248000A04710BD10B51A48846AA469002C02D177
:102490000020C04310BDA04710BD80B5144800F017
:1024A000C4FA02BD10B5124C200000F0C7FA002893
:1024B00006D101212000A26A926890470028F8D135
:1024C00010BD80B50A4800F009FB02BD80B5084880
:1024D00000F011FB02BD00004D300008E1300008A3
:1024E000233100087931000841310008ED1400085B
:1024F000BC0500202000002080B5024800F023FB2E
:1025000002BD0000BC050020F8B588B0002401948D
:10251000022801D3012073E03D49842242438918F7
:1025200000913C4980000858009908603748C1680C
:10253000802292020A43C260012102680A430260BB
:102540000068014007910798042002900226039634
:102550000494032505950690A027FF0502A93800DD
:1025600000F078F808200290039604940595042062
:10257000069002A9380000F06DF8274D274F2F6014
:10258000042068601020A860EC6080262E616C61D9
:10259000AC61EC612C622800FEF77CFA002801D0C7
:1025A00000F0C6FB0098C5660098A8623800143099
:1025B000A8640420E8642C656C65AE65EC652C6647
:1025C000202068660002A86628004830FEF762FAFC
:1025D000002801D000F0ACFB2800483000990867C3
:1025E00000982867002200211C20FEF7E6FF1C202F
:1025F000FEF7E7FF009800F09DFB002802D00320C3
:10260000C0430190019809B0F0BD00002C100240B9
:10261000E80400205000002058040020440002403C
:1026200070B4103A03D378C9103A78C0FBD253077C
:1026300001D318C918C001D508C908C0D20704D3EE
:102640000B880380891C801C002A01D50B7803703D
:1026500070BC7047FFB50022012301932BE00626D2
:1026600003E0964EB042FAD10526AE402643029CC6
:102670002660934C2668DC4326404D68ED0300D568
:102680001E438F4D2E606E6826404F68BF0300D5F5
:102690001E436E60AE6826404F68FF0200D51E43A1
:1026A000AE60EE6834404E68B60202D526001C00CB
:1026B0003443EC60521C0B681C00D44000D182E013
:1026C000019D95402B40F5D054000327A740FE43C1
:1026D00002964E68012E05D0022E03D0112E01D095
:1026E000122E0FD18768029E3E40CF68A740374325
:1026F00087604668AE434D682D09019F2F40974083
:1027000037434760C568029E2E408D68A54035431B
:10271000C56095006E4675704D68022D01D0122D72
:102720001AD1D508AD0045192E6A03966E46777802
:102730001C263E406F463E70039EB4460F276E46F1
:102740003678B7406646BE43B4460F696E46367863
:10275000B740664637432F6207680326029D3D4017
:102760004F683740BC4627006446BC402C43046099
:102770004C68E4009ED5534C2468019D2543514C80
:102780002560514C9508AD006419029424686D468B
:102790006F780C253D400F27AF40BC43A027FF05B5
:1027A000B84201D1002660E7484FB84201D1019EEE
:1027B0005BE7474FB84201D1022656E7454FB84282
:1027C00000D04EE751E7FFBDFFB50323029301237D
:1027D0000193039100213AE0062703E0374DA84218
:1027E000FAD105278D00B4460C262E40B740BC45D3
:1027F00011D1D643324A12683240314F3A607A687A
:1028000032407A60BA683240BA60FA681640FE60B8
:102810001A68A2431A60029A4B009A400368134355
:102820000360CB089B00C3181C6A0F261C272F408F
:10283000BE40B4431C62D343C2681A40C2604268BF
:10284000009CA2434260826813408360491C039A43
:10285000CA4025D0019A8A400092039B1A40F5D0C5
:10286000194B8C08A4001B191E680F248D000C271F
:102870002F40BC402640A025ED05A84201D10027ED
:10288000B0E7124DA84201D1019FABE7104DA8421D
:1028900001D10227A6E70F4DA8429FD1029FA1E7D1
:1028A000FFBD0069084000D00120C0B27047002A77
:1028B00001D081617047816270470000001C0050A8
:1028C00000040140341002400800014000040050A0
:1028D00000080050000C005038B500240025ED43DE
:1028E000002816D00A6802604A684260CA68C2605E
:1028F0000A6902618A688260496941610649C16169
:102900000649816100620068002802D080470028E3
:1029100000D02C00200032BD552B0008672B00088A
:102920001CB50400606A00280FD1694620001830E9
:1029300000F026FA68460078242806D06846007819
:10294000262802D00020C04316BD0120606200206E
:1029500016BD80B5183000F013FA02BD80B5020034
:10296000A6209268904702BD1CB50C00694618303D
:1029700000F018FA002803D1684600782080002073
:1029800016BD02B56946183000F011FA02BD10B547
:102990000400080011000200A6202469A04710BD11
:1029A000FEB5040002910193684642800198FF2120
:1029B000891C884200DB481E6946088068460388F7
:1029C000029A4188A620E568A847070015D16069EA
:1029D000804705000121A620A26890470600606993
:1029E0008047401BA0214900884202D2002EF1D12D
:1029F00003E0002E01D00227FF43029869460988B0
:102A0000401802906846694649886A4612888918C3
:102A10004180019869460988401A80B200280190D7
:102A200001D0002FC2D03800FEBD10B50400080050
:102A300011000200AE202469A04710BDF8B584B093
:102A4000040002936846028003910298FF21891CCA
:102A5000884201DB002000E0C0B20190019883B2FF
:102A6000039A68460188AE20E568A847070015D19B
:102A70006069804705000121A620A26890470600F2
:102A800060698047401BA0214900884202D2002E85
:102A9000F1D103E0002E01D00227FF4303980199F2
:102AA00040180390684669460988019A8918018090
:102AB00002980199401A80B20028029001D0002F9C
:102AC000C3D0380005B0F0BD002806D168460078B4
:102AD000002800D001202070002016BDF0B585B080
:102AE00004000E00170011220021684600F078F95A
:102AF0006A4609200BE0F0B585B004000E0017000F
:102B000011220021684600F06BF96A460720107216
:102B100000230320C01AC000D1183500C5400D7035
:102B20003D00C5400D7108784872087948735B1CF8
:102B3000042BEEDB20001123902212016946FFF7DF
:102B40007DFF05B0F0BD1CB50C006946183000F0E3
:102B500035F9B9E710B50469880401D5A62000E06D
:102B6000AE20A04710BDF8B50500EC68880402D57A
:102B7000A620A047F2BDAE20A047040015D1686989
:102B8000804707000121AE20AA68904706006869C7
:102B90008047C01BA0214900884202D2002EF1D1FB
:102BA00003E0002E01D00224E4432000F2BDFEE742
:102BB000F8B586B000F01EF900F06BF81422002181
:102BC000684600F00DF90420544C2168014321604F
:102BD0002168084005900598802021680143216004
:102BE0002168084005900598012620683043206040
:102BF000206830400590059802202168014321603B
:102C00002168084005900598A425ED00A027FF0540
:102C1000002229003800FFF74AFE002230214048F8
:102C2000FFF745FE0095019600250295039569463C
:102C30003800FFF70FFD402000903A4801900295C0
:102C400069463800FFF706FD302000900196029596
:102C5000039569463248FFF7FDFC0022002107205A
:102C6000FEF7ABFC0720FEF7ACFC60683043606009
:102C70006068064000960098002200210B20FEF7B5
:102C80009CFC0B20FEF79DFCFFF796F8FFF798F8E9
:102C9000FCE710B59CB0382200210EA800F0A0F887
:102CA00014220021684600F09BF82422002105A888
:102CB00000F096F81C4801681C4A0A40C10C1143F8
:102CC000016010200E900120159000241694A02081
:102CD0000002179018940EA8FEF736F8002801D0CD
:102CE00000F026F80F2000900194029403940494BD
:102CF00000216846FEF772FA002801D072B6FEE79E
:102D00000A20059009940B9405A800F087F8002884
:102D100001D072B6FEE71CB010BD00002C100240BE
:102D2000000400500000111000700040FFE7FFFF9A
:102D300072B6FEE710B5002100240A4A0260E122C3
:102D4000520242608160C16001610C224261816176
:102D5000C16101624162FDF7B3F9002800D001248E
:102D6000200010BD0044004010B50400A068646855
:102D7000A04710BD10B50400A0682468A04710BD8E
:102D800080B50A0001231721FFE7FFF7EDFF0028B8
:102D900001D00020C04302BD2078C107C90F2170B7
:102DA000002010BD80B50A0001230021EDE780B5A9
:102DB0000A0001230021FFF7DDFFE8E710B50C0052
:102DC000012322000549FFF7CFFF002802D0002091
:102DD000C04310BDFFF7E0FF00000000042000002A
:102DE00010B50400080011000200200000F0F8F8FF
:102DF000200010BD10B500240748016840220A4396
:102E000002600020FEF77CFB002801D0012401E0D5
:102E100000F00EF9200010BD00200240FEB50400B5
:102E200000200190634D206882210901014000D1FA
:102E300087E080204005A96B014004D1A96B0843BD
:102E4000A86301200190AF0D5B480068384013D1A2
:102E5000594800900068384300990860FEF746FB27
:102E6000060000980068384006D1FEF73FFB801B43
:102E70006528F6D30320FEBD2868C02189030140E0
:102E80006068C02292030240914205D1A268C0232B
:102E90009B03134099420BD0C02189020140C022FC
:102EA0009202914204D12968890301D50120FEBD17
:102EB0002A6DC0218902114029D0C02292021040FF
:102EC000814202D02078800606D4A0680240914258
:102ED0001DD0206800051AD5296D38480840296D95
:102EE000FA020A432A65296D354A0A402A6528658F
:102EF00007400CD0FEF7FAFA0600286D800506D4CC
:102F0000FEF7F4FA801B2F498842F6D3B2E76168D6
:102F1000C020800202000A40824206D12A682A4B61
:102F2000134002010A401A432A60296D626810406A
:102F3000084328650198002803D0A86B2349014065
:102F4000A9632078C00705D5E86C03218843E168B0
:102F50000143E9642078800705D5E86C0C2188439B
:102F600021690143E9642078400705D5E86C1849D8
:102F7000014060690843E8642078000705D5E86CE3
:102F800014490140A0690843E8642078400605D54B
:102F9000E86C11490140206A0843E8642078000683
:102FA00005D5E86C0D490140E0690843E86400205C
:102FB000FEBD00000010024000700040FFFFFCFF5B
:102FC000FFFFF7FF89130000FFFFCFFFFFFFFFEFB9
:102FD000FFF3FFFFFFCFFFFFFFFFFFFBFFFFF3FF4D
:102FE0001206130A1A43130C1A4300BF094205D0F4
:102FF000830705D00270401C491EF9D170470000BC
:103000001300103906D330B41400150010393CC039
:10301000FCD230BC490700D30CC000D504C08900E5
:1030200002D30280801C002900D502707047FEE7A1
:103030000548016801220A43026041688022520566
:103040000A434260704700BF34100240F8B586B0B2
:103050000024564856490860C86C411C544AD16443
:1030600000283AD11046FEF76DFD002835D1022028
:10307000504D29680143296029680840059005984A
:10308000A80D0090122001900120029003270397C1
:103090000426049669464848FFF7DCFA680D00905C
:1030A000122001900120029003970496694642483D
:1030B000FFF7D0FAE868F1040143E9600726F64318
:1030C0003B4D280000F07EF8002805D100212800A3
:1030D00000F0A4F8002800D03400200007B0F0BDB4
:1030E00070B50024324DE86C002818D0401EE8640A
:1030F00015D132480168324A0A4002602E4E810DD5
:103100003000FFF761FB802189003000FFF75CFB96
:103110002800FEF7CFFA002801D00724E44320005E
:1031200070BD10B50A00002480235B010100204817
:10313000FEF76EFC002801D00224E443200010BDFD
:103140007FB500241A4D80267601029601930092E5
:1031500002230A0001002800FEF7DCFA002808D04C
:103160002800FEF7F2FC042801D1652400E00324C6
:10317000E443200004B070BD7FB500240C4D8026D0
:10318000760102960193009202230A0001002800B2
:10319000FEF770FB002808D02800FEF7D6FC0428B4
:1031A00001D0652400E00324E443E2E7005400403A
:1031B0006C0500202C100240000400503810024022
:1031C000FFFFDFFF70B504000020002512492160D9
:1031D000E121C9006160A0600126E66020616061B4
:1031E000A061E06120622000FEF710FA002800D004
:1031F00001250021200000F011F8002800D0012551
:103200000221200000F027F8002800D0012530031B
:1032100000F046F8280070BD0054004070B5020070
:1032200040325378202B14D14023C35C012B10D0A3
:103230000123137024245470046825689D4325607D
:10324000046825681B4E2E402660046825682943C3
:103250001CE0022070BD70B5020040325378202B74
:1032600012D14023C35C012B0ED001231370242400
:103270005470046825689D432560046825680E4ED7
:103280002E400902314301E0022070BD2160006838
:1032900001680B430360202050700020107070BD47
:1032A00006490A68012313430B6005490A68104365
:1032B00008607047FFEFFFFFFFF0FFFF3410024090
:1032C0000400014010000000000400502000000035
:1032D000000400500004000000000050060000063A
:1032E0000000000021290008532900085D2900087A
:1032F00069290008832900088F290008A1290008EE
:103300000100000000000000040000000D000006A5
:10331000000000000044004000002000FEE7FEE73F
:103320007047704780B500F021F801BD80B50A48AC
:1033300000F024F8094800F021F801BD80B50848E4
:10334000FDF777FC0748FDF774FC01BD80B5064822
:10335000FCF772FF01BD00001800002048000020AB
:1033600058040020A0040020E8040020024841681E
:1033700002788918416070473C00002001210278E2
:10338000D206D20E9140064A13680B4000D1704716
:1033900080B511604068002800D0804701BD000062
:1033A0001404014070B40123002413E00168001DDF
:1033B000194202D04D466D1E49190C60091D121F9D
:1033C000042AFAD20D00960701D50C80AD1C1A40D4
:1033D00000D02C700268001D002AE7D170BC704735
:1033E00030B401220EE00368C31844680830144268
:1033F00002D04D466D1E64191D6825601B1D241DDD
:10340000091FF9D10168001D0029ECD130BC7047BB
:1034100010B5074979441831064C7C44163404E051
:10342000081D0A68891888470100A142F8D110BD1B
:1034300008000000280000006DFFFFFF9405000059
:10344000580000200000000099FFFFFF5800000016
:1034500074FEFFFF00000020000000007047000025
:103460000000000000000000010203040607080934
:10347000030406080C1018203000000000F00DF8BE
:10348000002801D0FFF7C4FF00BF00BF002000BF2D
:1034900000BFFFF78DFB00F002F80120704780B5F8
:1034A00000F002F801BDFEE70746384600F002F8DA
:1034B000FBE7FEE780B500BF00BF024A11001820FD
:1034C000ABBEFBE7260002000148804701480047E9
:1034D0005D340008D934000800BF00BF00BF00BF42
:1034E000FFF7CCFF0000000001020304FEE7FEE747
:1034F000FEE7FEE7FEE7FEE7FEE7FEE7FEE7FEE7A4
:08350000FEE7FEE7FEE7FEE72F
:04000005080034D9E2
:00000001FF
