:020000040800F2
:10000000D8040020D92700086127000863270008CA
:10001000652700086727000869270008000000001E
:100020000000000000000000000000006B27000836
:100030006D270008000000006F27000871270008E6
:10004000F5270008F9270008FD2700080128000807
:1000500005280008092800080D28000811280008B4
:1000600015280008192800081D2800082128000864
:1000700025280008292800082D2800083128000814
:1000800035280008392800083D28000841280008C4
:1000900045280008492800084D2800087527000851
:1000A0005128000855280008592800085D28000834
:1000B0006128000865280008692800086D280008E4
:1000C0007128000875280008792800087D28000894
:1000D0008128000885280008892800088D28000844
:1000E0009128000895280008992800089D280008F4
:1000F000A1280008A5280008A9280008AD280008A4
:10010000B1280008B5280008B9280008BD28000853
:10011000C1280008C5280008C9280008CD28000803
:10012000D1280008D5280008D9280008DD280008B3
:10013000E1280008E5280008E9280008ED28000863
:10014000F1280008F5280008F9280008FD28000813
:100150000129000805290008092900080D290008BF
:100160001129000815290008192900081D2900086F
:10017000212900082529000829290008000000007D
:100180002D290008312900082DE9FC47050017D06A
:10019000DFF8C076DFF8CC66BC68F86800F00308CA
:1001A0002878C10604F00C0453D524B10C2C08BFE8
:1001B000B8F1010F2FD13868810703D5A86900284D
:1001C00000F06A81396808074EBF3968716809090B
:1001D000286A01F0F001814206D200F0FFFA0028FF
:1001E00009D100F00CFA08E000F009FA2CB9286AED
:1001F00000F0F4FA002840F04F8100F0A6FABA6847
:1002000000F099FADFF85406006800F03FFB0100A7
:1002100000F03281EDE1A86990B1396841F0010147
:10022000396000F055FB81463868810700F1228172
:1002300000F04EFBA0EB09000328F5D30320D8E122
:10024000386840084000386000F042FB814638685A
:10025000810740F1118100F03BFBA0EB090003286E
:10026000F5D3EBE76868B0F5803F04D1386840F417
:100270008030386011E0B0F5A02F386806D140F426
:1002800080203860396841F4803105E020F4803006
:100290003860396821F480213960686868B100F0FD
:1002A00017FB81463868810300F1F88000F010FBED
:1002B000A0EB09006528F5D3C0E700F009FB8146F3
:1002C0003868810340F1EA8000F002FBA0EB0900EE
:1002D0006528F5D3B2E700F0FBFA00F08CF9C0F026
:1002E0000381ABE7E86880B1396841F48071396017
:1002F00000F0EEFA80463868410500F1E08000F039
:10030000E7FA00F078F9F6D398E7386820F48070BF
:10031000386000F0DDFA80463868410540F1D6804B
:1003200000F0D6FA00F067F9F6D387E740084000FE
:10033000706000F0CDFA80467068810740F1D88087
:1003400000F0C6FA00F057F9F6D377E705283068D1
:1003500006D140F004003060316841F0010105E051
:10036000400840003060316821F004013160A86825
:1003700041F2893968B100F0ABFA824630688107F2
:1003800000F1EC8000F0A4FAA0EB0A004845F5D398
:1003900054E700F09DFA82463068810740F1DE8024
:1003A00000F096FAA0EB0A004845F5D346E700F4C2
:1003B00000328A420FD1EA6B520800F4C001521E8B
:1003C000B1EB425F07D1296C490800F0C060491EBB
:1003D000B0EB416F1FD00C2C5ED0386841015BD46C
:1003E0003868C10058D4386820F08070386000F058
:1003F0006FFA04463868810140F1D78000F068FA4E
:10040000001B0328F6D319E700F062FA401B03280B
:10041000C0F0EA8012E73868810104D400F001F9E5
:1004200004463868810100F1E38000F051FA001BB6
:100430000328F6D302E70C2C2ED0386820F0807009
:100440003860396811F0205F03D1F86880088000B7
:10045000F860F968DFF81004014000F0E9F804469C
:100460003868810140F1C48000F032FA001B032893
:10047000F6D3E3E600F0C3F82878C1070ED5082CC0
:1004800005D00C2C08BFB8F1030F7FF4EBAE386831
:10049000810303D5686808B90120AAE0287881079C
:1004A00014D5042C05D00C2C08BFB8F1020F7FF432
:1004B00019AF3868410502D5E8680028ECD07868A3
:1004C000296920F0F85040EA016078602878010737
:1004D0000ED56869002870683FF428AF40F001002D
:1004E000706000F0F5F98046706881077FF5F3AE23
:1004F0002878410739D5B86DC1004FF000080AD4FB
:10050000B86D40F08050B8654FF00108B86D00F04C
:10051000805000900098DFF85493D9F80000C1058E
:1005200013D4D9F8000040F48070C9F8000000F03E
:10053000CFF98246D9F80000C10506D400F0C8F909
:10054000A0EB0A000328F5D378E6A86801287FF419
:10055000FDAE306840F00100306008E7B8F1000FF0
:1005600003D0B86D20F08050B865A86A00283FD04D
:1005700002287FF460AFF868EA6A00F00301914254
:1005800001BF00F070012A6B521EB1EB021F04D1B3
:100590006A6B00F4FE41B1EB022F7FF41CAFA96B34
:1005A00007290CBF0021012101E7FA68DFF8C0121A
:1005B000E86A0A40296B0243491E686B42EA01124D
:1005C000E96B490842EA0022286C491E400842EAC9
:1005D0004152401E42EA4062A86B000942EA404292
:1005E000FA6000F01EF80546386881017FF50CAF0F
:1005F0000020BDE8F687A0EB0800032870473868A4
:1006000040F0080038603968286A21F0F0010143A1
:1006100039607968E86921F47F4141EA0021796015
:100620007047386840F080703860F96841F0807138
:10063000F96000F04DB92DE9F0410400884678D00A
:10064000DFF83062306800F00700404509D23168B9
:10065000C90848EAC1013160306800F00700404530
:1006600067D12078DFF8EC51C1074AD560680328CC
:1006700002D129688A0108E0022802D129688A0388
:1006800003E00028296802D18A0702D451E04A0514
:100690004FD5A968890840EA8100A86000F018F9E0
:1006A0000746A868616800F00C00B0EB810F28D005
:1006B00000F00EF9C01B41F289318842F1D30320CA
:1006C0001DE02078410705D5AA68E06822F4E062C1
:1006D0000243AA602178080706D5A968206921F499
:1006E000605141EAC001A96000F02FF8AA6800F04B
:1006F00022F8BDE8F0415948006800F0C7B8BDE8ED
:10070000F0812078810705D5AA68A06822F0F00260
:100710000243AA60316801F007018845D1D23068F0
:10072000C00848EAC0003060316801F00701414567
:10073000C7D00120E3E75049C2F30312895C464A5F
:1007400001F01F01C8401060704770B5414A4B4B23
:100750009068D6680025002110F00C0006F0030612
:10076000474C03D00C2812D1012E1AD115682E0740
:1007700004D43B4D2E68C6F3032502E01568C5F38B
:100780000315404E56F8255048B9294624E0042860
:1007900008BF214620D008281ED119461CE00C288D
:1007A0001AD1D06800F00300022803D0032808BF44
:1007B0001D4600E02546D168D068D268C0F3062007
:1007C0004543C1F30210C2F34161401C491CB5FB13
:1007D000F0F04900B0FBF1F1084670BD7CB52A4E3F
:1007E000054630680024C10002D500F077F80EE01D
:1007F000306840F080503060316801F080510091E5
:10080000009800F06BF8316821F080513160B0F54C
:10081000007F04D1802D0CD9A12D09D304E0802DB7
:1008200088BF032405D801D1022402E0702D00D135
:10083000012410480168C90844EAC1010160006848
:1008400000F00700A04201D0012076BD002076BD57
:100850000000000000100240540000204000002072
:100860009410024090100240FFFFEEFE0070004026
:100870008C809DF9002002402C26000800127A008E
:100880000024F400942600085810024070B50E4E63
:100890000446B0680025A0B14FF47A710B4AB1FB51
:1008A000F0F11068B0FBF1F000F09DF848B9102CA1
:1008B00007D2002221464FF0FF3000F06DF874603F
:1008C00000E00125284670BD3C00002054000020B7
:1008D00001480068704700BF3C000020DFF8780046
:1008E000006800F4C060704710B5DFF86C10B0F518
:1008F000007F086800F4C06015D1B0F5007F1BD000
:100900000868DFF85820DFF8584020F4C06040F451
:10091000007000F018F84A6953050FD5002818BF79
:10092000401EF8D10AE0B0F5806F05D0086820F4C9
:10093000C06040F480600860002010BD4869410537
:10094000FAD5032010BD0860322013684343B3FB7F
:10095000F4F0401C7047000000700040540000207C
:1009600040420F000901020006D5294A00F00F009D
:10097000104400F8041C7047264B19547047264B4E
:1009800019684FF6FF020002114000F4E0600843CE
:10099000224908431860704738B51F4B1C68C4F3E0
:1009A0000223C3F10704052C28BF04241D1D072DB5
:1009B00034BF0023DB1E012505FA04F4641E214028
:1009C000994005FA03F35B1E1A401143BDE8344019
:1009D000C8E7012200F01F01114BFFE78A404009E0
:1009E00043F82020704710B5401EB0F1807F01D33E
:1009F000012010BD0B4C60600F214FF0FF30FFF75E
:100A0000B1FF0021A16007202060002010BD000080
:100A100018ED00E000E400E00CED00E00000FA0555
:100A200000E100E010E000E038B5040001D1012051
:100A300032BD04F14005687820B9002129702046B4
:100A400000F03AFB00F053F86068216820F0706015
:100A500008612068816821F400418160E0682168B4
:100A60000128A0680CBF40F4004040F404408860B6
:100A7000E068022803D120684FF4006141602068DB
:100A8000416841F0007141F4004141602068C16853
:100A900021F40041C16060692169A26901432068B5
:100AA00041EA0221C160206AE169226801431160C4
:100AB0002068016841F00101016000206860202188
:100AC00069702063A87032BD38B5040001D10120DF
:100AD00032BD04F1400500F00AF8204600F0EDFABE
:100AE0000020686068702063A870287032BD2420E0
:100AF00068702068016849084900016070470090EB
:100B00004FF08073FF22704700904FF00073D2B215
:100B1000704701224FF40041304600F01CBA2DE925
:100B2000FE4F00F0FEF84ED10C9D002D1CBF0D9F16
:100B3000002F03D14FF4007161603FE0207801285D
:100B400041D001212170FFF7C3FE00F05BF80028BF
:100B500034D1212000F0FDF800F0A2F910B10020FE
:100B600020702BE0708DFF25B0F5807F19D300F049
:100B7000E9F800F0D2F80E9F4A463946304600F0B8
:100B80000BFA00281AD100F025F811D089B279B9F2
:100B900000F030F890B900F019F805D300F0D2F861
:100BA00004E000F0C7F8E4E700F0C4F800F0B5F89E
:100BB000708D0028E0D100F09CF808B1012003E01E
:100BC00000F02AF800E00220BDE8FE8F708DB0F53D
:100BD000807F7047706A326801789162706A411C48
:100BE0007162708D411E7185308D411E3185708D11
:100BF00000287047CDF800903B4600228021304607
:100C000000F0A9B98146CDF80090192301224FF4D4
:100C10000041304600F09FB931682020C86131683A
:100C2000DFF86C024A6802404A60202161700020AF
:100C3000A070207070472DE9FE4F00F072F855D17A
:100C40000C9D002D1CBF0D9F002F03D14FF4007190
:100C5000616046E02078012848D001212170FFF72B
:100C600037FEFFF7CFFF00283BD1222000F071F8BC
:100C700000F031F910B10020207032E0718DDFF802
:100C80000C02FF25B1F5807F1CD33585FFF737FFB8
:100C900000F043F80E9FCDF800903B46002204215F
:100CA000FFF73AFF00281CD100F028F898B189B26C
:100CB00089B9FFF79FFFA0B9FFF788FF07D300F0BE
:100CC00041F806E0728D3285FFF71EFFE0E700F085
:100CD00031F800F022F8708D0028DCD100F009F81E
:100CE00008B1012003E0FFF797FF00E00220BDE814
:100CF000FE8F4A463946304600F075B93068416A81
:100D0000706A0170716A308D4A1C411E72623185B1
:100D1000708D421E7285708D70474146304600F0DE
:100D2000B4B9064606F14004884660782028924609
:100D30009B467047728D3285002000904FF0007303
:100D4000D2B270473585002000904FF08073FF22AB
:100D5000704760704021A1700020606075627785E7
:100D600070635B460E9900915246CDF8049041465F
:100D7000304670472DE9FE4305460020019005F1FD
:100D800040067078202840D12C68A06904043CD427
:100D90003078012839D00124347024207070C1F3D8
:100DA00009090020706090461C46E86829680128FF
:100DB00006BF49F0007040F4005049F420504860EC
:100DC000FFF786FD0746296888698969400909098E
:100DD00000F0010001F00101084319D114F1010FE5
:100DE000F1D0FFF775FDC01B844241D3002CEAD13E
:100DF0003EE000F046F830B929682020C8617070E4
:100E00000020307002E0012000E00220BDE8FE83F7
:100E1000286881690097C8062346EAD500F031F8B2
:100E20000028F0D129681020C86120222868C261FA
:100E3000019941450DD12868416841F480414160E4
:100E40000097234600F01DF80028DCD129682020F7
:100E5000C8610198401C019001984045A5D320210C
:100E600071700021706840F0200070603170CAE736
:100E7000202070700020716841F020017160307096
:100E8000C1E700222021284600F065B80024008038
:100E900000E800FE90F841007047406C7047000089
:100EA0002DE9FC4100F031F84FF08073EAB200F018
:100EB000ECF800F03EF858B9012D02D000F036F8F9
:100EC00030B900F02CF88021204600F044F800B141
:100ED0000120BDE8F6812DE9FC4100F016F8002361
:100EE000EAB200F0D2F800F024F858B9012D02D08F
:100EF00000F01CF830B900F012F84021204600F054
:100F00002AF800B10120BDE8F6811746DDF82080FF
:100F1000099EDFF8982100921D460446704720681C
:100F2000FFB2876200964346002270472168380A64
:100F300088623246414620462EE0006881698A0771
:100F400044BF002181628169CA0703D4816941F0ED
:100F50000101816170472DE9F041069F05460E466B
:100F600090461C46286881693140B1420CBF01207F
:100F7000002040450DD114F1010FF3D0FFF7A8FC7C
:100F8000C01B844201D3002CECD100F020F80120DA
:100F900000E00020BDE8F08170B505460C4616461D
:100FA00028688169880710D400F035F858B914F121
:100FB000010FF5D0FFF78CFC801B844201D3002C7D
:100FC000EED100F004F8012070BD002070BD05F1E5
:100FD00040002022416841F0200141604270002120
:100FE00081700170704770B505460C46164628683A
:100FF000816988060DD400F00EF840B9FFF768FC4F
:10100000801B844201D3002CF1D1FFF7E0FF0120C7
:1010100070BD002070BD324621462846FFE770B5FE
:1010200005460C4628688169C806164618D5286802
:1010300081698A0616D414F1010FF8D0FFF748FC35
:10104000801B844201D3002CF1D105F1400041689E
:1010500041F0200141602022FFF7C0FF012070BD58
:10106000002070BD1021C16120202A68D06128466F
:10107000FFF763FF29680E484A68024005F1400007
:101080004A60416841F00401E4E770B50068049CDF
:101090004568084E46EA5456B543C1F30901294351
:1010A00041EA024119432143416070BD00200080A4
:1010B00000E800FEFF63FF03704770472DE9FC471F
:1010C000054600242868DFF8FC630105A14621D508
:1010D000686E70B1B0F5800F17D0B0F5000F03D077
:1010E000B0F5400F09D013E0326842F4803232602C
:1010F00004E0002100F07FF9044654B9F16F686EF6
:1011000021F440010143F16704E000F06EF9F3E7D8
:101110000124A1462868C10421D5A86EA8B1B0F168
:10112000807F17D0B0F1007F03D0B0F1407F04D0B2
:1011300013E0316841F4803131607CB9F16FA86E01
:1011400021F040710143F16709E0002100F053F9FB
:101150000446F2E700F049F9FAE70124A1462868BD
:1011600081032BD5F06CC1004FF000080AD4F06C5D
:1011700040F08050F0644FF00108F06C00F08050B7
:1011800000900098DFF81874386840F48070386078
:10119000FFF79EFB82463868C10500F1F780FFF734
:1011A00097FBA0EB0A000328F5D30324A146B8F16E
:1011B000000F03D0F06C20F08050F0642878C10755
:1011C00005D5F26FA86B920840EA8202F26729788F
:1011D000880705D5F16FE86B21F00C010143F16739
:1011E0002978480705D5F16F286C21F030010143BB
:1011F000F1672978080705D5F16F686C21F0C00107
:101200000143F1672978C80605D5F16FA86C21F470
:1012100040710143F1672978880605D5F16FE86CC4
:1012200021F440610143F1672968880505D5F16F14
:10123000E86D21F440210143F1672968480505D58F
:10124000F16F286E21F440110143F16729784806B7
:1012500005D5F16F286D21F440510143F1672978DC
:10126000080605D5F16F686D21F440410143F1672F
:101270002968C80505D5F16FA86D21F440310143F7
:10128000F167296888041FD5F16FE86E21F040618D
:101290000143F167E86EB0F1006F0DD100F0A0F8E6
:1012A00012E0FFF715FB001B41F289318842C0F0C4
:1012B0008B804FF003097AE7B0F1806F04D100F022
:1012C00099F8010018BF81462868010314D5F26F10
:1012D000286F22F040620243F267286FB0F1006F7E
:1012E00002D100F07DF807E0B0F1806F04D100F08A
:1012F00081F8010018BF81462868410314D5F26FB8
:10130000686F22F040620243F267686FB0F1006FCD
:1013100002D100F065F807E0B0F1806F04D100F071
:1013200069F8010018BF81462868410418D5F26F9A
:10133000A86F22F040520243F267A86FB0F1805FBD
:1013400003D1022100F057F807E0B0F1005F07D1A8
:10135000022105F1200000F0B7F8010018BF814616
:101360002868010405D5F26FE86F22F0804202433D
:10137000F2672968C80306D5F16FD5F8800021F01F
:1013800000410143F1674846BDE8F687002C7FF431
:101390000DAFDFF84C72386810F440701CBFD5F800
:1013A000841088420BD03868396841F48031396044
:1013B00020F440703A6822F480323A603860C00706
:1013C00006D5FFF785FA0446386881077FF569AFCF
:1013D0003A68D5F8840022F4407202433A60E6E6A7
:1013E000306840F4801030607047002105F1200023
:1013F00000F06AB80121281DFFE72DE9F04100F057
:10140000E5F809D0F16801F0030181422BD150B316
:1014100000F0C8F80CD026E0012804D023D303281C
:101420001BD016D31FE0326891071CD500F0C1F81D
:10143000306820F0806000F0C6F880463068010116
:1014400033D5FFF745FAA0EB08000328F6D30325B0
:1014500036E031684A05E9D405E031688A03E5D40D
:1014600031684A03E2D401252AE0012C326909D10E
:101470003B695D4802405B0842EA01215B1E41EA8C
:10148000435102E07B6900F081F83161306840F03F
:10149000806000F098F80446306801010CD4FFF732
:1014A00017FA001B0328F7D3D1E7B968002CDCD169
:1014B000326900F062F8E8E73169B86901433161E7
:1014C00058E000000C1002402DE9F04100F07EF8D9
:1014D00009D0F16801F0030181422BD150B300F033
:1014E00061F80CD026E0012804D023D303281BD0B8
:1014F00016D31FE0326891071CD500F05AF8306807
:1015000020F0805000F05FF880463068810026D5DA
:10151000FFF7DEF9A0EB08000328F6D3032529E046
:1015200031684A05E9D405E031688A03E5D43168B9
:101530004A03E2D401251DE03B6900F027F8716100
:10154000306840F0805000F03EF80446306881007A
:101550000CD4FFF7BDF9001B0328F7D3DEE7B96809
:101560007269002CE8D100F008F8E8E77169786941
:10157000014371612846BDE8F0811C48FB680240C8
:1015800042EA01211B0941EA4341704718480240E1
:101590005B0842EA01215B1E41EA4361704700009B
:1015A00000700040F0687968C0F30210401C884267
:1015B0007047F268796822F073021043491E40EACE
:1015C0000110F06070473060FFF782B90746054EA2
:1015D00038680C46F168002511F0030F70470000D1
:1015E0009010024000100240FF809FFFFF80FDFF2F
:1015F000FF80FFF92DE9F84F4FF00008B14A0F23A3
:1016000004460D4635E0B04EB44214BF0726062608
:101610008E4046EA0E064CF82760C743AB490E6879
:1016200007EA060C6E68F60348BF40EA0C0CC1F8E6
:1016300000C04E6807EA060C6E68B60348BF40EA71
:101640000C0CC1F804C08E6807EA060C6E68F6023E
:1016500048BF40EA0C0CC1F808C0CE6807EA060C87
:101660006F68BE0248BF40EA0C0CC1F80CC008F11C
:101670000108296831FA08F000F09A80012000FA88
:1016800008F616EA0100F2D04FEA48070321B940F4
:101690006FEA010C6968012918BF02296FEA060E7A
:1016A00003D0112918BF122910D1A168EE680CEAE5
:1016B0000101BE403143A16061686E68C6F3001647
:1016C0000EEA010106FA08F631436160696801F02B
:1016D0000306032E08D1E66AC1F3C0010EEA06062E
:1016E00001FA08F13143E162E168AE680CEA0101F8
:1016F000BE403143E1604FEA88016E68022E18BF98
:10170000122E13D14FEAD80604EB860E01F01C0905
:10171000DEF82060D5F810B003FA09FA26EA0A06C6
:101720000BFA09F949EA0606CEF82060266895F812
:1017300004E00EF0030E0CEA06060EFA07F7374334
:1017400027606F68FE0092D51768DFF884C147F004
:101750000107176001F00C01166806F001060096FB
:1017600003FA01FE009F4FEA98075CF8276026EA1B
:101770000E0EB4F1904F08BF002618D0554EB4425B
:1017800008BF012613D0544EB44208BF02260ED023
:10179000524EB44208BF032609D0514EB44208BF8E
:1017A000042604D04F4EB4427FF42DAF05262FE718
:1017B000BDE8F18F2DE9F04F8A4600254349444AA0
:1017C00003463DE0404FBB4214BF0727062707FAF8
:1017D0000EF7BC4212D10C68C04304400C604C6848
:1017E00004404C608C6804408C60CC682040C86029
:1017F00052F8280020EA090042F828000324680073
:1018000004FA00F01C6804431C6006F01C06EC0897
:1018100003EB84040BFA06F6276A27EA060626621B
:10182000C0439E6806409E606FEA0C045E682640D6
:101830005E60DE683040D860D86A2040D8626D1C97
:101840003AFA05F030D0012000FA05FC1CEA0A0043
:10185000F5D04FEA9508AE0052F8284006F00C0E7D
:101860004FF00F0B0BFA0EF9B3F1904F09EA040495
:1018700008BF0027ABD0174FBB4208BF0127A6D037
:10188000154FBB4208BF0227A1D0144FBB4208BF6F
:1018900003279CD0124FBB4208BF042797D0114F9B
:1018A000BB428FD1052792E7BDE8F08F0069084061
:1018B00018BF0120C0B270470AB1816170478162D0
:1018C000704700006010024000180048000401400A
:1018D000080001400004004800080048000C0048CF
:1018E000001000480014004838B500244FF0FF35C0
:1018F000B0B10A6802604B684360CA68C2600B6995
:1019000003618A68826049690FF2212241610062A5
:10191000C2610FF229218161006808B1804700B1DE
:101920002C46204632BD1CB50446606A58B969464B
:1019300004F1180000F030F99DF80000242818BFC9
:10194000262800D0C2E001206062002016BD1830B9
:1019500000F022B90246A620926810471CB500F09C
:1019600086F800F02DF918B99DF8000020800020BD
:1019700016BD02B56946183000F027F902BD10B552
:1019800004461046B6E02DE9F84F064688461F4645
:10199000914640F201108742ACBF4FF4807ABA46BC
:1019A000F468534642461FFA89F1A620A047050075
:1019B00014D1706980478346B2680121A620904700
:1019C000044670698047A0EB0B00B0F5A07F02D2FF
:1019D000002CF1D102E00CB16FF00205A7EB0A0771
:1019E000D044D144BFB20FB1002DD2D02846BDE8BB
:1019F000F28F2DE9F84F06461F469046894640F281
:101A000001108742ACBF0025FDB2F4682B464A4660
:101A10001FFA88F1AE20A0475FEA000A14D170696E
:101A200080478346B2680121A6209047044670692A
:101A30008047A0EB0B00B0F5A07F02D2002CF1D1C3
:101A400002E00CB16FF0020A7F1BA944A844BFB2A8
:101A500017B1BAF1000FD2D05046BDE8F28F28B9C5
:101A60009DF8000000B101202070002016BD0C463A
:101A7000694618307047F0B585B000F020F80925A8
:101A8000FFE78DF808500020C0F10301C9000DEBFD
:101A9000000226FA01F31370401C27FA01F31371B8
:101AA00004281178137951725373EDDB11234FF42D
:101AB000106269462046FFF79CFF05B0F0BD044662
:101AC0000E4617466846142100F0E8B84FF0FF3084
:101AD00016BD1CB5FFF7CBFF00F085F8BFE780B55A
:101AE00000F003F800F08CF802BD8DF800101830FB
:101AF000694670470A4601462469A620A04710BDE2
:101B00001CB5FFF7B4FF00F0BDF8A8E71CB5FFF760
:101B1000AEFF00F08FF8A2E780B5012101E080B5AB
:101B20000021FFF7E2FF00F08BF802BD38B5046931
:101B30008D044CBFA620AE20A04732BDF8B50646A6
:101B40008D04F46802D5A620A047F2BDAE20A047C0
:101B5000050013D1706980470746B2680121AE20A5
:101B60009047044670698047C01BB0F5A07F02D241
:101B7000002CF2D102E00CB16FF002052846F2BD54
:101B800010B50446A0686468A04710BD10B50446AF
:101B9000A0682468A04710BD80B50A46012317211C
:101BA000FFE7FFF7EDFF08B14FF0FF3002BD4FF048
:101BB000FF3010BD207800F001002070002010BD23
:101BC00080B50A4601230021EBE780B50A460123D0
:101BD0000021FFF7DBFFE6E72046D7E70D46044686
:101BE00001236A46704710B500F006F80221FFF79E
:101BF000C7FF00B1DBE7DDE70C4601232246704753
:101C000038B5FFF7EBFF0221FFF7BAFF28B900F064
:101C100007F80221FFF7E0FF08B14FF0FF3032BDB7
:101C200028789DF8001060F300018DF80010012362
:101C30006A46704710B500F01FF800B1B7E7B9E782
:101C40007CB50D4642F20206044601236A4631463F
:101C5000FFF796FF68B928789DF8001060F300013F
:101C60008DF8001001236A4631462046FFF78EFFAB
:101C700008B14FF0FF3076BD0C460123224642F2F8
:101C800002017DE710B5FFF7B7FF42F20401FFF74D
:101C900077FF08B1FFF78BBFFFF78CBF002200F082
:101CA0001DB830B4002513E050F8042BD30744BF0F
:101CB000A9F101039A18091F042942F8045BFAD21A
:101CC00013468C0744BF15809B1CC90748BF1D7075
:101CD00050F8041B0029E7D130BC704700B500BFA5
:101CE000130096469446103928BFA0E80C50FAD845
:101CF0005FEA417C28BF0CC048BF40F8042BC907ED
:101D000028BF20F8022B48BF00F8012B00BD0000BF
:101D100080B500F0CDF800F007F800F046F800F0CC
:101D2000DDF800F0DCF8FCE710B5B8B0554C05A8BC
:101D30002146442200F082F968461421FFF7AEFFE5
:101D400016A804F14401882200F078F902214FF42A
:101D50008072059108921021022209910F9210922F
:101D60000A21012211921291072202211392149149
:101D7000159105A8FEF708FA0F20032100900191A4
:101D8000002202920392049204216846FEF753FC5B
:101D90004021002216912A9216A8FFF78FF94FF4DE
:101DA0000070FEF7A1FD38B010BD10B586B06846D2
:101DB0001421FFF773FF3448046844F004040460FE
:101DC0000168324C01F0040105910599026842F066
:101DD00080020260036803F080030593059902689E
:101DE00042F001020260036803F0010305930599C4
:101DF000026842F0020202600022006800F0020065
:101E000005904FF4A46105984FF09040FFF754FD02
:101E1000002230212046FFF74FFD4FF400500021F3
:101E200000900191029169461948FFF7E3FB0221F6
:101E30000191002202920C200321009003910722BD
:101E4000049200F030F84FF4A46100F025F800F09F
:101E50002AF840200F49009001910022029200F0E0
:101E600022F8302100F018F869462046FFF7C2FB3F
:101E7000002200211720FEF78FFD1720FEF7A9FD95
:101E800006B010BD142500084C10024000040048A4
:101E90000008004800001110009101220021029169
:101EA00003910192704769464FF09040FFF7A2BB43
:101EB000094810B5016841F4807101600320FEF704
:101EC0005EFD0020FEF7E2FC0024002814BF012480
:101ED00000F0C0F8204610BD0020024000E050E0B5
:101EE00080B5002000F0CEF8012000F0CBF80220F1
:101EF00000F0C8F8002000F0D8F800F03EF801200B
:101F000000F0D3F800F039F8022000F0CEF800F02D
:101F100034F8002000F0ECF80028FAD1002100F09D
:101F20002DF9002000F0C7F800F027F8012000F09C
:101F3000C2F800F022F8022000F0BDF800F01DF811
:101F40006946002000F0F8F89DF8000010B900F094
:101F5000ACF802E0002000F0AEF80DF10101002025
:101F600000F0F3F89DF8010018B9012000F0A3F883
:101F700001BD012000F099F801BD4FF4967000F00A
:101F80006BB9DCB5002000F043F9012854D1FEF70D
:101F90009FFC0646322000F05FF940F2E934FEF77C
:101FA00097FC871B002000F033F9012801D1A742DC
:101FB000F5D3A74229D3002000F02AF90128FAD04E
:101FC000322000F049F90DF10101002000F0BAF8CB
:101FD0009DF8010018B90021002200F0AAF8694616
:101FE000002000F0A9F89DF8000030B901218DF81B
:101FF000001000F0A4F800201CE000208DF8000084
:10200000002100F09CF800200DE0322000F024F9BF
:102010000DF10201002000F098F89DF8020028B9A7
:1020200000F096F8012000F040F8D3BD002000F049
:1020300092F8012000F03FF8D3BD00004AB1000043
:1020400011F8013B521E00F8013B1CBF11F8013B87
:10205000F8E770470A4881B0816841F0010181606A
:10206000816801F0010100910099026842F08052FC
:102070000260006800F080500090009801B0704746
:102080005810024018B5194A85B032F83030009324
:10209000012401940223002402EBC0020393029462
:1020A00069465068FFF7A6FA11E080B500F009F81C
:1020B0000122586810E080B500F003F8002258684B
:1020C0000AE00A4B33F8301003EBC00370470020DE
:1020D00006B010BD00F004F8FFF7EEFB002002BDD3
:1020E0004FF480714FF090407047000000000020D6
:1020F00010B586B019491A4A1A4C0091019220462F
:1021000019491A4A0291049219491A4A03910592EF
:102110006946FFF7E9FB40B91748A062016811B1B1
:102120002046884718B10020A0624FF0FF3006B06B
:1021300010BD0C48FFF79FBC0A48FFF7CABC09480E
:10214000FFF7CDBC0748FFF7DBBC0648FFF7DEBC56
:102150000448FFF7E1BC0348FFF7E1BCCD220008CB
:102160004D230008A800002081230008C323000895
:10217000A3230008D108000820000020F8B5044679
:102180002A482B4E86B0026842F004020260002505
:10219000D0F800002AA200F004000090009832F865
:1021A0001430019302220392049256F8240021B9BC
:1021B000029501A9FFF71EFA27E01E4A029201A923
:1021C000FFF718FA22A151F82410301D00EBC406C5
:1021D000304600F05CF86FF0030738B91AA050F8E9
:1021E00024200021304600F04BF808B13D460CE0B9
:1021F0000FF2500015A1065751F824100022304666
:10220000FEF7CAFB3046FEF7E4FB284607B0F0BDF8
:1022100080B500BF0AA2064B32F8101053F8200018
:10222000FFF744FB401E8041C00F02BD4C1002402E
:102230004800002000001110002000F00BB8000042
:102240000020000028000000392200080F000000D4
:102250000D0000167047000038B50446FEF738FB45
:1022600014F1010F054602D0044988680419FEF7ED
:102270002FFB401BA042FAD331BD00BF3C00002021
:102280000346002009B95A6070470120704708B919
:102290000120704701600020704710B502680A4CA9
:1022A000012302F01F01C2F3004204EB421203FAC1
:1022B00001F113680B421EBF11604068002802D074
:1022C000BDE81040004710BD140401404C4870B5F3
:1022D0004C4D28600024E86C411C002886B0E9645D
:1022E00031D12846FEF7D6FD68BB474E306840F036
:1022F000020030601222316801F0020100914FF4B7
:1023000040710098414801910292012103910322FA
:1023100004210591049201A9FFF76CF9F06840F4DB
:102320000010F060F06800F4001000906FF00706F5
:102330000098284600F06EF820B90021284600F0E9
:1023400093F800B13446204606B070BD38B52D4D27
:10235000E86C002490B1401EE8640FD12C4802685C
:1023600022F4001202604FF440712848FFF722FA6D
:102370002846FEF7A9FB08B16FF00704204632BDDE
:102380000A4610B501464FF480531E48FEF7F2FC92
:10239000002408B16FF00204204610BD204604B0AE
:1023A00070BD7FB500F020F8FEF7B9FB002438B10E
:1023B00000F017F804280CBF6FF065046FF00304F9
:1023C000ECE77FB500F010F8FEF735FC002438B1DB
:1023D00000F007F8042814BF6FF065046FF00304E1
:1023E000DCE72846FEF759BD009201930A46054DE9
:1023F0004FF480560146029602232846704700009B
:1024000000540040580000204C10024000040048D6
:102410005810024038B50446114812492060002582
:102420000120E0606160A56025616561A561E561ED
:1024300025622046FEF7F8FA00B10125002120466A
:1024400000F012F800B101250221204600F021F829
:1024500000B101254FF4801000F045F8284632BD48
:1024600000540040EC9C901030B500F140025378CD
:10247000202B0CD11478012C09D000F01DF824F485
:1024800080541C6003681D682943196020E0022005
:1024900030BD30B500F140025378202B0AD11478BA
:1024A000012C07D000F008F824F4706444EA0124F9
:1024B0001C600DE0022030BD0123137024245470F1
:1024C00003681D686D086D001D6003681C68704717
:1024D0000068016841F00101016020205070002176
:1024E0001170002030BD094981B00A6842F0010234
:1024F0000A60096801F001010091009904490A6825
:102500001043FFE7086001B0704700006010024010
:102510000400014000000000000000000000000076
:1025200000000000000000000000000000000000AB
:10253000000000000000000000000000000000009B
:10254000000000000000000000000000000000008B
:10255000000000000000000000000000000000007B
:10256000000000000000000000000000000000006B
:10257000000000000000000000000000000000005B
:10258000000000000000000000000000000000004B
:10259000000000000000000000000000000000003B
:1025A000000000000000000000000000000000002B
:1025B000000000000000000000000000000000001B
:1025C000000000000000000000000000000000000B
:1025D00000000000000000000000000000000000FB
:1025E0000E48016841F47001016000220C4908683E
:1025F00040F0010008608A604FF480520B6809487F
:1026000003400B60CA6000200B68074A23F4802354
:102610000B6088614FF000611160704788ED00E049
:1026200000100240FFFFF6EA08ED00E000000000A5
:102630000000000001020304060708091000000062
:1026400000040048200000000004004800040000CE
:1026500000000048060000160000000027190008CE
:102660004F190008551900085D1900087319000872
:102670007F19000887190008000000001000000002
:1026800001000000000800480D00001600000000D6
:1026900000093D00A0860100400D0300801A0600DD
:1026A00000350C0040420F0080841E0000093D00F0
:1026B00000127A000024F40000366E010048E801A0
:1026C000006CDC0230B450F8041B79B10268436836
:1026D00002440830DC0744BFA9F10104E31852F8B2
:1026E000045B43F8045B091FF9D1ECE730BC704789
:1026F00010B5074979441831064C7C44163404E07F
:102700000A68081D114488470146A142F8D110BD4E
:102710002C0000004C0000004EF68851CEF2000163
:10272000086840F470000860BFF34F8FBFF36F8FED
:102730004FF00070E1EE100A7047000067F5FFFFF0
:102740007C000000580000200000000079FFFFFF1F
:1027500058000000E8FEFFFF00000020000000001D
:102760007047FEE7FEE7FEE7FEE7704770477047F9
:1027700000F006B80148FFF790BD000018000020E7
:1027800002490A68886882180A6070473C00002085
:1027900000F00DF8002801D0FFF7AAFFAFF300808A
:1027A0000020AFF30080FFF7B3FA00F002F8012039
:1027B000704700F001B800000746384600F002F804
:1027C000FBE7000080B5AFF30080024A110018203B
:1027D000ABBEFBE7260002000148804701480047E6
:1027E000E1250008E9270008AFF30080FFF794FF18
:1027F000FFF7CEFFFFF7FEBFFFF7FEBFFFF7FEBFFD
:10280000FFF7FEBFFFF7FEBFFFF7FEBFFFF7FEBFFC
:10281000FFF7FEBFFFF7FEBFFFF7FEBFFFF7FEBFEC
:10282000FFF7FEBFFFF7FEBFFFF7FEBFFFF7FEBFDC
:10283000FFF7FEBFFFF7FEBFFFF7FEBFFFF7FEBFCC
:10284000FFF7FEBFFFF7FEBFFFF7FEBFFFF7FEBFBC
:10285000FFF7FEBFFFF7FEBFFFF7FEBFFFF7FEBFAC
:10286000FFF7FEBFFFF7FEBFFFF7FEBFFFF7FEBF9C
:10287000FFF7FEBFFFF7FEBFFFF7FEBFFFF7FEBF8C
:10288000FFF7FEBFFFF7FEBFFFF7FEBFFFF7FEBF7C
:10289000FFF7FEBFFFF7FEBFFFF7FEBFFFF7FEBF6C
:1028A000FFF7FEBFFFF7FEBFFFF7FEBFFFF7FEBF5C
:1028B000FFF7FEBFFFF7FEBFFFF7FEBFFFF7FEBF4C
:1028C000FFF7FEBFFFF7FEBFFFF7FEBFFFF7FEBF3C
:1028D000FFF7FEBFFFF7FEBFFFF7FEBFFFF7FEBF2C
:1028E000FFF7FEBFFFF7FEBFFFF7FEBFFFF7FEBF1C
:1028F000FFF7FEBFFFF7FEBFFFF7FEBFFFF7FEBF0C
:10290000FFF7FEBFFFF7FEBFFFF7FEBFFFF7FEBFFB
:10291000FFF7FEBFFFF7FEBFFFF7FEBFFFF7FEBFEB
:10292000FFF7FEBFFFF7FEBFFFF7FEBFFFF7FEBFDB
:04293000FFF7FEBFF0
:04000005080027E9DF
:00000001FF
