:020000040800F2
:10000000D8080020B1230008152300081723000892
:1000100000000000000000000000000000000000E0
:10002000000000000000000000000000192300088C
:1000300000000000000000001B2300081D23000832
:1000400067100008F7100008FB100008871500086B
:10005000FF1F00088F2300089B23000825230008AA
:10006000CD230008CF230008D1230008D3230008A4
:10007000D5230008D723000800000000D92300087A
:1000800000000000DB23000800000000000000006A
:10009000DD23000800000000DF230008E123000842
:1000A000E3230008E5230008E7230008E92300080C
:1000B000EB230008ED230008EF230008F1230008DC
:1000C00070B5040001D1012070BD25004035002627
:1000D0006878002803D12E70200000F0C5FB242092
:1000E00068702068016801229143016060683249AC
:1000F000014020680161216830488A6802408A60B6
:10010000E1680129A16801D1C24301E08422120201
:100110000A4321688A60E168022903D1802109012C
:100120002268516021684A68254B13434B6021685F
:10013000CA681040C860206961690143A069000273
:1001400008432168C860E069216A014320680160B2
:100150002068016801220A4302606E6020206870F6
:100160002663AE70002070BD38B5040001D10120B7
:1001700032BD2500403524206870206801680122C6
:1001800091430160200000F070FB002068606870FF
:100190002063A870287032BD20202168C8612168C2
:1001A0004A68084B13404B602100403148700020E2
:1001B00088700870FEBD0000FFFFFFF0FF7FFFFFAB
:1001C0000080000200E800FEFEB504000F001600EB
:1001D0001D0040304078202800D0A2E00898002878
:1001E00003D06846808C002805D180208000210043
:1001F0004031486091E04020205C012800D190E02F
:1002000001204021605400F031FB0290009019233E
:100210000122D103200000F05FFA00287DD12B00DD
:10022000320021202100403148704020210040311F
:10023000887000202100403148600898606268465C
:10024000808C608500206063029801900A9800907D
:100250003900200000F0D5F9002803D0002040210B
:1002600060545AE0608DFF283AD9FF202085002095
:10027000009080235B04FF223900200000F0DEFAAA
:100280000A9E029D2A003100200000F051FA002849
:1002900043D1606A007821688862606A401C6062AD
:1002A0008548618D09186185218D08182085618D2B
:1002B000002928D0000426D1009533000022802197
:1002C000200000F009FA002827D1608DFF280FD9FF
:1002D000FF2020850020009080235B04FF220EE099
:1002E000628D22850020009080239B04D2B2C3E758
:1002F000628D22850020009080239B04D2B23900B9
:10030000200000F09BFA608D0028BBD131002A004C
:10031000200000F036FA002801D00120FEBDFFF7D2
:100320003BFF0220FEBD0000FEB584B00600403059
:100330004178202900D0BBE00C99002902D00D9F04
:10034000390003D1802189004160A0E04020305C69
:10035000012800D1ACE0350040350120287000F0C4
:1003600085FA04003068806900040DD500F07EFA3B
:10037000001B1A28F6D32020696801436960687061
:100380000020A870287082E002966846038B828A5B
:1003900030464030039022206870402003998870D6
:1003A0000026039846600C98029948620298478597
:1003B0000298466301940E9800906846018A02985C
:1003C00000F04DF9002802D0039806705FE080200D
:1003D0004004019039480299498DFF293AD9FF21FB
:1003E000029A11850090019BFF226846018A0298BB
:1003F00000F024FA029D0E9F00943B00002204218D
:10040000280000F069F9002841D12868406A696A2B
:100410000870686A401C68622749288D4018288542
:100420006A8D51186985698D002926D0000424D170
:1004300000943B0000228021280000F04DF90028A4
:1004400025D1688DFF280DD9FF2028850096019BB6
:10045000FF220DE002994A8D0A85009080239B04BB
:10046000D2B2C2E76A8D2A85009680239B04D2B25D
:100470006846018A280000F0E1F9688D0028BBD1A8
:1004800039002200280000F07CF9002801D001206A
:100490000FE020202968C86129684A68084B13408A
:1004A0004B60290040314870002088700E7000E0D9
:1004B000022007B0F0BD0000FFFF00000024008014
:1004C00000E800FEF8B584B0050000200190280087
:1004D00040304078202800D088E0286880690004F7
:1004E00000D583E04020285C012800D17EE0012077
:1004F0004024285524202C004034607000202C001B
:10050000403460608805800D0290202703921E0011
:10051000E8680128029901D1364801E0A020800155
:1005200008432968486000F0A1F904002968886937
:100530008206D00F8969CA06D10F01430DD1002070
:10054000C0438642F2D000F091F9001B864201D3ED
:10055000002EEBD1009528462DE028688069C00662
:10056000009430D5330000222021280000F0B4F898
:10057000002839D110202968C8612868C76101980E
:10058000039988420FD1286841687A020A43426081
:100590000094330000222021280000F09DF800285C
:1005A00022D12868C7610198401C019001980399E5
:1005B0008842ADD328004030477041680F43476000
:1005C0000021017010E0330000222021280000F0FB
:1005D00083F8002808D12868C76128004030477098
:1005E00000210170002002E0012000E0022005B09F
:1005F000F0BD0000002000024121405C7047406CCB
:100600007047F8B5060015001C00079F2A480090A7
:1006100080235B04E2B2300000F010F93A00069942
:10062000300000F085F8002817D1012C09D0280AE5
:10063000316888623A000699300000F079F80028A5
:100640000BD1EDB2306885620097069B00228021B5
:10065000300000F041F8002800D00120F2BDF8B5CC
:10066000060015001C00079F134800900023E2B20B
:10067000300000F0E3F83A000699300000F058F836
:10068000002817D1012C09D0280A316888623A0065
:100690000699300000F04CF800280BD1EDB230681C
:1006A00085620097069B00224021300000F014F87C
:1006B000002800D00120F2BD002000800068816980
:1006C000890701D500218162012182690A4002D196
:1006D0008269114381617047F8B5002405000F005D
:1006E000684602701E00286880693840B84201D10F
:1006F000012000E0002069460978884216D10020D8
:10070000C0438642EFD000F0B1F80699401A864205
:1007100001D3002EE7D128004030202142680A434F
:1007200042604170847004700120F2BD0020F2BD6F
:1007300070B504000D0016002068806980071ED483
:1007400032002900200000F040F8002801D00120EC
:1007500070BD0020C0438542EED000F087F8801BBA
:10076000854201D3002DE7D120004030202142688E
:100770000A4342604170002181700170E7E7002068
:1007800070BDF8B5202504000E00170020688069B0
:10079000284018D13A003100200000F016F8002857
:1007A0000FD100F063F8C01B864201D3002EEDD1BB
:1007B000200040304168294341604570002181702C
:1007C00001700120F2BD0020F2BDF8B510240368CD
:1007D0009B69234030D005000F0000922026286836
:1007E0008169314011D10020C0438742F7D000F029
:1007F0003DF80099401A874201D3002FEFD128001D
:10080000403041683143416010E0C4612868C661EE
:100810002800FFF753FF28684168114A0A404260E8
:1008200028004030416804220A434260467000219B
:10083000817001700120F2BD0020F2BDF0B5059C71
:1008400000684568660D074F3743BD438905890D2C
:10085000294312040A4313431C434460F0BD0000C3
:1008600000E800FEFF63FF037047704701484068DF
:10087000704700BF3C000020FEB5060058D0B74CC2
:10088000E0680C2101400091E068802149020840A5
:1008900001903078C0070ED54F000098082804D08A
:1008A0000C2869D10198884266D12068074002D09F
:1008B000706800283CD0307880072BD5F068BB4F9B
:1008C0000921C943009A042A05D00C2A01D1019AB2
:1008D000002A00D08BE02268520701D5002827D0DB
:1008E00062681740326912023A436260226811401E
:1008F0000843206000F0DAFAAD49E2681206120FF0
:10090000895CC840BE490860BE48006800F020FB12
:10091000010030D13078C00600D4B4E0BA4F00985E
:10092000002800D090E02068800503D5F0690028F9
:1009300000D1DAE160680740706A3843606060683F
:100940000002000A316A0906014361600120716AF0
:10095000490B491C8840C0039549E2681206120FF2
:10096000895CC840A6490860A648006800F0F0FA13
:10097000010000D187E0FEBD7068884201D1206887
:1009800009E0A021C9028842206806D1790001430C
:1009900021602068790801430AE0B34901402160E1
:1009A000206879080840029002982068AF49014009
:1009B0002160706800280DD0FFF758FF05002068FF
:1009C000384000D077E7FFF751FF401B6528F6D38A
:1009D0000320FEBDFFF74AFF05002068384000D124
:1009E00069E7FFF743FF401B6528F6D3F0E70422D1
:1009F0000192002817D02268114008432060FFF7B9
:100A000035FF050020680199014005D1FFF72EFF51
:100A1000401B0228F6D9DBE7606807403069000216
:100A20003843606076E72068012188432060FFF743
:100A30001DFF0500206801990140F3D0FFF716FF64
:100A4000401B0228F6D9C3E7F0690028206831D09E
:100A5000A10D01432160FFF709FF05002068800513
:100A600005D4FFF703FF401B0228F7D9B0E7606801
:100A70000740706A3843606060680002000A316AAB
:100A80000906014361603078000731D5022770699B
:100A90000028206D1DD0012101432165FFF7E6FEEE
:100AA0000500206D384023D1FFF7E0FE401B0228EF
:100AB000F7D98DE78F4901402160FFF7D7FE050088
:100AC00020688005DFD5FFF7D1FE401B0228F7D94B
:100AD0007EE7012188432065FFF7C8FE0500206DF1
:100AE000384005D0FFF7C2FE401B0228F7D96FE758
:100AF0003078400765D50020019080204005A16B2B
:100B0000014004D1A16B0843A063012001907A4FFA
:100B10003868C0050FD43868A10D01433960FFF76C
:100B2000A5FE05003868C00505D4FFF79FFE401BF1
:100B30006528F7D34CE7B268A10D8A420AD06F4806
:100B4000002A0DD0A023DB009A4209D1206D8A0033
:100B500002432265206D0143216508E00010024038
:100B6000216D644A0A402265216D08402065670DA9
:100B7000B06800280CD0FFF779FE0500206D3840E2
:100B800018D1FFF773FE401B5D498842F6D31FE77B
:100B9000FFF76CFE0500206D38400BD0FFF766FEB6
:100BA000401B57498842F6D312E700BFFFE0FFFF22
:100BB000482300080198002803D0A06B5149014048
:100BC000A1633078800635D54F480227B1690029E6
:100BD0001CD00121A2680A43A260626B11436163C9
:100BE0000168420C0A430260FFF740FE0500A0685E
:100BF00038401FD1FFF73AFE401B0228F7D9E7E63D
:100C00005400002044000020FF1FFFFFA1680122C4
:100C10009143A1600168A24A0A400260FFF726FEE4
:100C20000500A068384005D0FFF720FE401B0228D1
:100C3000F7D9CDE6B06A002859D000990C293FD0E9
:100C40008025AD049749022820682BD101402160FE
:100C5000FFF70CFE07002068284009D0FFF706FECA
:100C6000C01B0228F7D9B3E6FFFFFEFFFFFFFBFF23
:100C7000E0688D490140F06A0843316B0143706BB5
:100C80000843E0602068690801432160FFF7EEFD3A
:100C90000600206828402AD1FFF7E8FD801B0228C3
:100CA000F7D995E601402160FFF7E0FD06002068D6
:100CB00028401CD0FFF7DAFD801B0228F7D987E611
:100CC000012812D0E068802149020140F26A914275
:100CD0000BD1F02189030140326B914205D1C02133
:100CE00009040140706B814201D00120FEBD00204B
:100CF000FEBD0000FFFEFFFF00700040FFFBFFFF96
:100D000089130000FFFFFFEF20000140F1B582B022
:100D100000285CD00091824F82480068C107C90F4B
:100D20000098814217D27F4C2068012188430099A6
:100D300001432160FFF79AFD009D06002068C1076E
:100D4000C90FA94206D0FFF791FD801BB842F5D329
:100D50000320FEBD0095744C02980078800706D5EC
:100D6000E068F0218843029989680143E1603E46CA
:100D700002980078C0074DD502984068022819D122
:100D80002168890323D5E168032291430843E06089
:100D9000FFF76CFD0700029840680C25022818D167
:100DA000E0682840082835D0FFF760FDC01BB0423E
:100DB000F6D3CDE7032802D12168890103E0012899
:100DC000216802D14907DED401E08905DBD4012086
:100DD000FEBD032809D1E06828400C281AD0FFF78F
:100DE00045FDC01BB042F6D3B2E7012809D1E06847
:100DF000284004280ED0FFF739FDC01BB042F6D3BF
:100E0000A6E7E068284005D0FFF730FDC01BB042E0
:100E10009ED2F6E7009843490968CA07D20F90426C
:100E200015D2404D2868012188430099014329606B
:100E3000FFF71CFD07002868C107C90F0098814211
:100E400005D0FFF713FDC01BB042F4D380E7029832
:100E50000078400706D5E068344901400298C06830
:100E60000843E06002980078000707D5E068304941
:100E7000014002980069C0000843E06000F016F8E5
:100E80002C49E2681206120F895CC8402A490860A2
:100E90002A48006800F05CF8010000D10020FEBD87
:100EA000FFDFFFFFFFFFFFFEFFFF02FF50B51E4AFF
:100EB000D16810230C200840042804D0082809D049
:100EC0000C2809D023E01068034001D01C4850BD15
:100ED0001C4850BD1C4850BD1C488C02240F005DAE
:100EE00009028C0F641C0021D668F60301D5164A4E
:100EF00003E01268134002D0114A002300E0114AB7
:100F000000F048F82200002300F05DF850BD506862
:100F100001210004400F401C8140C80350BD000067
:100F2000891300000020024000100240FFF8FFFF7C
:100F3000FFC7FFFF482300085400002044000020A2
:100F400000093D000024F40000127A005823000834
:100F500038B505000D4CFA208000217800F068F8C3
:100F600001000B48006800F063F800F0A7F80028C3
:100F70000AD1042D08D2002229000020C04300F02D
:100F800090F8A560002032BD012032BD3C00002059
:100F90005400002030B4434351435D18010C0C0051
:100FA000130C5C432D1980B2434392B25143002489
:100FB000C918644124040B04090C09195043C018D2
:100FC000694130BC7047124224D0994228D970B58B
:100FD00000251B4202D00C00002109E0002401265C
:100FE00049186441944200D3A41A7641F8D33100E1
:100FF000012601E0764109D2001864416D41A41A2E
:101000009D41F7D2A4185D41B619F5D330002200F6
:101010002B0070BD1B42D8D108B500F06BF808BD9D
:1010200001D19042D3D202000B0000210020704772
:10103000094214D088420FD30122030C01D10004CD
:101040001204002300185B418B4200D35B1A52410B
:10105000F8D319001000704701000020704708B550
:1010600000F04AF808BDFEE710B5C200182313408F
:10107000FF249C40E2438907090E9940030004D4F1
:1010800018489B089B00C01806E0174B0007000F8C
:10109000083880088000181803681A40114301605E
:1010A00010BD80B5FFF7E0FF01BD010005D40121AF
:1010B000C006C00E81400D480160704710B5401E4B
:1010C00080214904884201D3012010BD084C606092
:1010D00003210020C043FFF7C7FF0020A0600721C5
:1010E000216010BD00E400E01CED00E000E100E044
:1010F00010E000E07047FEE77047FEE738B50024D7
:101100000025ED43002816D00A6802604A68426054
:10111000CA68C2600A6902618A688260496941617D
:101120000649C1610649816100620068002802D059
:101130008047002800D02C00200032BD9313000807
:10114000A51300081CB50400606A00280FD1694689
:101150002000183000F056F968460078242806D0A0
:1011600068460078262802D00020C04316BD012022
:101170006062002016BD80B5183000F043F902BD52
:1011800080B50200A6209268904702BD1CB50C00F5
:101190006946183000F048F9002803D16846007805
:1011A0002080002016BD02B56946183000F041F9D4
:1011B00002BD10B50400080011000200A620246939
:1011C000A04710BDFEB5040002910193684642801D
:1011D0000198FF21891C884200DB481E694608806F
:1011E00068460388029A4188A620E568A847070058
:1011F00015D16069804705000121A620A2689047AB
:10120000060060698047401BA0214900884202D245
:10121000002EF1D103E0002E01D00227FF430298F7
:1012200069460988401802906846694649886A46B6
:10123000128889184180019869460988401A80B24D
:101240000028019001D0002FC2D03800FEBDF8B5B3
:1012500084B0040002936846028003910298FF2143
:10126000891C884201DB002000E0C0B20190019897
:1012700083B2039A68460188AE20E568A847070054
:1012800015D16069804705000121A620A26890471A
:10129000060060698047401BA0214900884202D2B5
:1012A000002EF1D103E0002E01D00227FF43039866
:1012B000019940180390684669460988019A89187F
:1012C000018002980199401A80B20028029001D052
:1012D000002FC3D0380005B0F0BD002806D1684605
:1012E0000078002800D001202070002016BDF0B545
:1012F00085B004000E00170011220021684600F09E
:1013000011F96A460920FFE7107200230320C01A72
:10131000C000D1183500C5400D703D00C5400D71AD
:1013200008784872087948735B1C042BEEDB2000B8
:101330001123902212016946FFF789FF05B0F0BD25
:101340001CB50C006946183000F095F8C5E780B56B
:101350006A4611706946183000F09BF802BD1CB552
:101360000C006946183000F0CBF8B6E71CB50C004D
:101370006946183000F0ADF8AFE780B5012101E013
:1013800080B500216A4611706946183000F0AFF848
:1013900002BD10B50469880401D5A62000E0AE2086
:1013A000A04710BDF8B50500EC68880402D5A6205A
:1013B000A047F2BDAE20A047040015D16869804760
:1013C00007000121AE20AA6890470600686980479F
:1013D000C01BA0214900884202D2002EF1D103E0B7
:1013E000002E01D00224E4432000F2BD10B5040019
:1013F000A0686468A04710BD10B50400A068246808
:10140000A04710BD80B50A0001231721FFE7FFF7B1
:10141000EDFF002801D00020C04302BD2078C107A5
:10142000C90F2170002010BD80B50A0001230021E2
:10143000EDE780B50A0001230021FFF7DDFFE8E7B3
:1014400001236A463100FFF7D1FF002811D1684619
:101450000078FE2101402078C207D20F0A43684677
:10146000027001236A4631003800FFF7C5FF0028EB
:1014700000D02800F2BD10B50C000123220002218B
:10148000FFF7B4FF002802D00020C04310BDFFF7D3
:10149000C5FF7CB506000C000025ED4301236A461C
:1014A0000221FFF7A3FF002811D168460078FE2132
:1014B00001402078C207D20F0A4368460270012318
:1014C0006A4602213000FFF797FF002800D028006D
:1014D00076BD10B50C00012322000849FFF786FFF6
:1014E000002802D00020C04310BDFFF797FFF8B5D9
:1014F00007000C000025ED43004EA1E7022000008C
:1015000010B50C00012322000549FFF76FFF0028EA
:1015100002D00020C04310BDFFF780FF0000000094
:101520000420000010B50400080011000200200093
:1015300000F002F8200010BD1206130A1A43130C23
:101540001A4300BF094205D0830705D00270401C32
:10155000491EF9D1704700001300103906D330B48A
:101560001400150010393CC0FCD230BC490700D330
:101570000CC000D504C0890002D30280801C002961
:1015800000D502707047FEE7FFB5002201230193EA
:101590002BE0062603E0964EB042FAD10526AE4077
:1015A0002643029C2660934C2668DC4326404D6807
:1015B000ED0300D51E438F4D2E606E6826404F68A8
:1015C000BF0300D51E436E60AE6826404F68FF0221
:1015D00000D51E43AE60EE6834404E68B60202D5B8
:1015E00026001C003443EC60521C0B681C00D440E5
:1015F00000D182E0019D95402B40F5D05400032797
:10160000A740FE4302964E68012E05D0022E03D05D
:10161000112E01D0122E0FD18768029E3E40CF6856
:10162000A740374387604668AE434D682D09019F48
:101630002F40974037434760C568029E2E408D6813
:10164000A5403543C56095006E4675704D68022D06
:1016500001D0122D1AD1D508AD0045192E6A039676
:101660006E4677781C263E406F463E70039EB44619
:101670000F276E463678B7406646BE43B4460F69BC
:101680006E463678B740664637432F6207680326B2
:10169000029D3D404F683740BC4627006446BC4031
:1016A0002C4304604C68E4009ED5534C2468019D93
:1016B0002543514C2560514C9508AD0064190294A6
:1016C00024686D466F780C253D400F27AF40BC4322
:1016D000A027FF05B84201D1002660E7484FB84275
:1016E00001D1019E5BE7474FB84201D1022656E780
:1016F000454FB84200D04EE751E7FFBDFFB5032389
:10170000029301230193039100213AE0062703E0AD
:10171000374DA842FAD105278D00B4460C262E403D
:10172000B740BC4511D1D643324A12683240314FDE
:101730003A607A6832407A60BA683240BA60FA68D1
:101740001640FE601A68A2431A60029A4B009A4043
:10175000036813430360CB089B00C3181C6A0F2661
:101760001C272F40BE40B4431C62D343C2681A40BA
:10177000C2604268009CA24342608268134083605A
:10178000491C039ACA4025D0019A8A400092039BC3
:101790001A40F5D0194B8C08A4001B191E680F24A1
:1017A0008D000C272F40BC402640A025ED05A84207
:1017B00001D10027B0E7124DA84201D1019FABE74C
:1017C000104DA84201D10227A6E70F4DA8429FD194
:1017D000029FA1E7FFBD0069084000D00120C0B210
:1017E0007047002A01D08161704781627047000014
:1017F000001C005000040140341002400800014069
:101800000004005000080050000C0050F8B586B0ED
:101810000024564856490860C86C411C544AD1649B
:1018200000283AD11046FEF7E7FE002835D1022005
:10183000504D2968014329602968084005900598A2
:10184000A80D009012200190012002900327039719
:101850000426049669464848FFF796FE680D0090F6
:101860001220019001200290039704966946424895
:10187000FFF78AFEE868F1040143E9600726F643B2
:101880003B4D280000F07EF8002805D100212800FB
:1018900000F0A2F8002800D03400200007B0F0BD0E
:1018A00070B50024324DE86C002818D0401EE86462
:1018B00015D132480168324A0A4002602E4E810D2D
:1018C0003000FFF71BFF802189003000FFF716FF73
:1018D0002800FEF749FC002801D00724E44320003B
:1018E00070BD10B50A00002480235B010100204870
:1018F000FEF7E8FD002801D00224E443200010BDDB
:101900007FB500241A4D802676010296019300923D
:1019100002230A0001002800FEF756FC002808D028
:101920002800FEF76CFE042801D1652400E00324A2
:10193000E443200004B070BD7FB500240C4D802628
:10194000760102960193009202230A00010028000A
:10195000FEF7EAFC002808D02800FEF750FE042815
:1019600001D0652400E00324E443E2E70054004092
:10197000580000202C100240000400503810024093
:10198000FFFFDFFF70B50400002000251149216032
:101990006060A0600126E66020616061A061E06196
:1019A00020622000FEF78CFB002800D001250021DA
:1019B000200000F011F8002800D0012502212000AD
:1019C00000F027F8002800D00125300300F046F889
:1019D000280070BD0054004070B5020040325378BA
:1019E000202B14D14023C35C012B10D00123137092
:1019F00024245470046825689D4325600468256884
:101A00001B4E2E4026600468256829431CE00220F6
:101A100070BD70B5020040325378202B12D14023A4
:101A2000C35C012B0ED0012313702424547004686E
:101A300025689D432560046825680E4E2E400902E6
:101A4000314301E0022070BD2160006801680B4352
:101A50000360202050700020107070BD06490A6895
:101A6000012313430B6005490A681043086070475F
:101A7000FFEFFFFFFFF0FFFF3410024004000140C2
:101A8000FEB5040000200190634D20688221090109
:101A9000014000D187E080204005A96B014004D1BE
:101AA000A96B0843A86301200190AF0D5B48006853
:101AB000384013D1594800900068384300990860B5
:101AC000FEF7D4FE060000980068384006D1FEF705
:101AD000CDFE801B6528F6D30320FEBD2868C021FB
:101AE000890301406068C02292030240914205D1FF
:101AF000A268C0239B03134099420BD0C0218902E6
:101B00000140C0229202914204D12968890301D583
:101B10000120FEBD2A6DC0218902114029D0C022BA
:101B200092021040814202D02078800606D4A0683C
:101B3000024091421DD0206800051AD5296D384811
:101B40000840296DFA020A432A65296D354A0A4080
:101B50002A65286507400CD0FEF788FE0600286D30
:101B6000800506D4FEF782FE801B2F498842F6D3FB
:101B7000B2E76168C020800202000A40824206D1BA
:101B80002A682A4B134002010A401A432A60296D31
:101B900062681040084328650198002803D0A86BAC
:101BA00023490140A9632078C00705D5E86C0321CB
:101BB0008843E1680143E9642078800705D5E86C33
:101BC0000C21884321690143E9642078400705D549
:101BD000E86C1849014060690843E8642078000710
:101BE00005D5E86C14490140A0690843E8642078F1
:101BF000400605D5E86C11490140206A0843E864B5
:101C00002078000605D5E86C0D490140E0690843DD
:101C1000E8640020FEBD000000100240007000409B
:101C2000FFFFFCFFFFFFF7FF89130000FFFFCFFF5F
:101C3000FFFFFFEFFFF3FFFFFFCFFFFFFFFFFFFB04
:101C4000FFFFF3FF80B500F005F801BD80B500F09F
:101C500058F801BD1CB5002000F0BAF8012000F0D2
:101C6000B7F8022000F0B4F8002000F0C5F8962480
:101C70006400200000F0D4F8012000F0BDF820003E
:101C800000F0CEF8022000F0B7F8200000F0C8F80D
:101C9000002000F0D9F80028FAD1002100F02EF938
:101CA000002000F0AFF8200000F0BAF8012000F0AA
:101CB000A9F8200000F0B4F8022000F0A3F82000FA
:101CC00000F0AEF86946002000F0E8F868460078B9
:101CD000002802D100F090F802E0002000F092F815
:101CE00000A9491C002000F0F8F868464078002858
:101CF00003D1012000F086F813BD012000F07CF82C
:101D000013BD7FB5002000F02DF901285CD1FEF74E
:101D1000ADFD0400322000F083F82C4DFEF7A6FD47
:101D2000061B002000F01EF9012801D1AE42F5D3B8
:101D3000AE4231D3002000F015F90128FAD032204C
:101D400000F06EF800A9491C002000F0C1F8002442
:101D500068464078002806D10194029401A803C87F
:101D60000A0000F096F86946002000F097F86846EF
:101D70000078002808D10120694608700121002060
:101D800000F091F800201DE068460470002100205A
:101D900000F089F800200EE0322000F041F800A9A0
:101DA000891C002000F099F868468078002805D149
:101DB00000F098F8012000F01FF87FBD002000F02F
:101DC00096F8012000F01EF87FBD0000E903000036
:101DD00000B585B01149C0000818018800910121A3
:101DE0000191022103910021029169464068FFF7A9
:101DF000CBFB002005B000BD80B50849C000081825
:101E0000012204E080B50549C000081800220188BD
:101E10004068FFF7E6FC002002BD00000000002043
:101E200038B50500FEF722FD04000020C0438542BE
:101E300002D0044800782D18FEF718FD001BA842B8
:101E4000FAD331BD3C00002038B586B01848009068
:101E500018480190184802901848049018480390B8
:101E6000184805900024E443174D69462800FFF701
:101E700045F900280AD11548A8620168002903D055
:101E800028008847002802D00020A862200007B060
:101E900030BD80B50C48FFF72AFA02BD80B50A486C
:101EA000FFF74EFA02BD80B50748FFF750FA02BDB2
:101EB0000D180008A1180008E318000839190008D7
:101EC000011900086D080008A8000020200000206B
:101ED00080B50948FFF743FA02BD80B50648FFF711
:101EE00045FA02BD80B50448FFF747FA02BD80B548
:101EF0000148FFF745FA02BDA8000020F1B50E0029
:101F000000246846007885003BA040598047012E98
:101F100026D1304869460978C90047180326F64398
:101F200034A04159380000F073F8002808D100BFF0
:101F30002EA042590021380000F062F8002801D09C
:101F400034000DE028A0694609784656002200BFFB
:101F500027A041593000FFF7A4F83000FFF7A5F89B
:101F60002000F2BD80B500BF1EA14200895A1A4A66
:101F700080001058FFF72FFC401E8041C00F02BDAB
:101F800080B5002000F03AF801BD38B586B00424D1
:101F9000124D28682043286028682040009000984F
:101FA0001422002101A8FFF7BDFA28682043286009
:101FB000286804400094009880208001019000204F
:101FC0000290039001A90648FFF7DEFA07B030BD82
:101FD000000000004C000020480000202C100240AF
:101FE000000800500020000007000000811F0008CA
:101FF0000F0000000D0000068B1F00087047FEE771
:1020000003000020002901D15A6070470120704769
:10201000002801D101207047016000207047012194
:102020000278D206D20E9140054A13680B4000D1C7
:10203000704780B511604068002800D0804701BD1E
:1020400014040140F8B586B000F0BAF800F069F861
:10205000142200216846FFF765FA042652480168F9
:102060003143016001683140059105998021026882
:102070000A43026002681140059105990124016834
:1020800021430160016821400591059902250168FD
:10209000294301600068284005900598A427FF00A7
:1020A00000223900A020C005FFF79BFB0022302151
:1020B0003E48FFF796FB0C20009001950025029505
:1020C0000320039004966946A020C005FFF75CFA40
:1020D00000970194029503956946A020C005FFF77B
:1020E00053FA402000903248019002956946A020A2
:1020F000C005FFF749FA302000900194029503953E
:1021000069462A48FFF740FA002200210720FEF71F
:10211000C8FF0720FEF7C9FFFFF794FDFFF796FD04
:10212000FCE710B59CB0382200210EA8FFF7FAF9A1
:10213000142200216846FFF7F5F92422002105A8A2
:10214000FFF7F0F91B4801681B4A0A40C10C114314
:10215000016010200E900120159000241694A020FC
:102160000002179018940EA8FEF786FB002801D0F5
:1021700000F024F80F20009001940294039404943A
:1021800000216846FEF7C2FD002801D072B6FEE7C6
:10219000082005900B9405A8FFF772FC002801D0D9
:1021A00072B6FEE71CB010BD2C10024000040050B7
:1021B0000000111000700040FFE7FFFF72B6FEE75D
:1021C00010B500240748016840220A43026000203D
:1021D000FEF7BEFE002801D0012401E000F004F863
:1021E000200010BD002002400548016801220A437A
:1021F00002604168802252050A434260704700BF76
:1022000034100240100000000004005020000000C4
:10221000000400500004000000000050060000060A
:102220000000000045110008771100088111000826
:102230008D110008A7110008B3110008C51100088E
:102240000100000000000000040000000008005031
:102250000D000006000000000000200070B4012303
:10226000002413E00168001D194202D04D466D1E86
:1022700049190C60091D121F042AFAD20D00960795
:1022800001D50C80AD1C1A4000D02C700268001DD6
:10229000002AE7D170BC704730B401220EE0036819
:1022A000C31844680830144202D04D466D1E6419AC
:1022B0001D6825601B1D241D091FF9D10168001D23
:1022C0000029ECD130BC704710B50749794418316A
:1022D000064C7C44163404E0081D0A6889188847B7
:1022E0000100A142F8D110BD080000002800000044
:1022F0006DFFFFFF7C000000580000200000000080
:1023000099FFFFFF58000000FCFEFFFF00000020C7
:1023100000000000FEE7FEE77047704780B500F060
:1023200009F801BD80B50248FFF779FE01BD000044
:1023300018000020024841680278891841607047FF
:102340003C0000207047000000000000000000007A
:102350000102030406070809030406080C101820EC
:102360003000000000F00DF8002801D0FFF7ACFFAE
:1023700000BF00BF002000BF00BFFFF763FE00F0FA
:1023800002F80120704780B500F002F801BDFEE7B9
:102390000746384600F002F8FBE7FEE780B500BFCD
:1023A00000BF024A11001820ABBEFBE72600020066
:1023B000014880470148004745230008C123000821
:1023C00000BF00BF00BF00BFFFF7CCFFFEE7FEE786
:1023D000FEE7FEE7FEE7FEE7FEE7FEE7FEE7FEE7D5
:1023E000FEE7FEE7FEE7FEE7FEE7FEE7FEE7FEE7C5
:0223F000FEE706
:04000005080023C10B
:00000001FF
