:020000040800F2
:10000000E8090020192F0008B12D0008B32D0008C1
:10001000B52D0008B72D0008B92D0008000000001C
:10002000000000000000000000000000BB2D0008E0
:10003000BD2D000800000000BF2D0008C12D0008E4
:100040003D2F0008412F0008452F0008492F0008C8
:100050004D2F0008512F0008552F0008592F000878
:100060005D2F0008612F0008652F0008692F000828
:100070006D2F0008712F0008752F0008792F0008D8
:10008000C52D0008CB2D00087D2F000800000000C2
:10009000000000000000000000000000D12D00085A
:1000A000812F0008852F0008892F00088D2F000858
:1000B000912F0008952F0008992F00089D2F000808
:1000C000A12F0008A52F0008A92F0008AD2F0008B8
:1000D000B12F0008B52F0008D72D00080000000040
:1000E000DD2D0008B92F0008BD2F0008000000001A
:1000F000000000000000000000000000C12F000808
:1001000000000000C52F0008C92F0008CD2F0008EF
:1001100000000000000000000000000000000000DF
:10012000D12F0008D52F0008D92F0008DD2F000897
:10013000E12F0008000000000000000000000000A7
:10014000000000000000000000000000E52F000893
:10015000E92F0008ED2F0008F12F0008F52F000807
:10016000F92F0008FD2F000800000000000000002B
:10017000000000000000000000000000000000007F
:100180000000000001300008000000000000000036
:1001900005300008F8B5040025D004F13C05697865
:1001A00021B900202870204600F0DEFC242169706F
:1001B000206802685208520002602068016841F419
:1001C000004101602068026822F40042026000F0F1
:1001D0006FFD01466068DFF87023904205D2DFF8BA
:1001E000AC33994205D20120F2BDDFF8A40381426D
:1001F000F9D32068DFF89C334668B1FBF3F3B60906
:1002000043EA861646602668376A6068904206D3DD
:100210004FF4967043434FF47A70B3FBF0F35B1CDA
:10022000BF0943EA87133362491E2368DE696768A2
:10023000974206D27F0000F043F8042913D204212C
:1002400011E0A06820B907EB470700F039F805E096
:100250001920474300F034F841F4804108050CBFF1
:10026000012141F40041DFF8300306400E43DE6116
:1002700022681368E169206A23F0C0030B4303433B
:1002800013602268DFF81403936821690340E06873
:100290000B43034393602168CA68A3696069120A2B
:1002A000034343EA0222CA602068016841F0010169
:1002B000016000206860202169702063A870F2BD91
:1002C000B1FBF7F1491CC1F30B01704738B50400CD
:1002D00001D1012032BD04F13C052420687000F0FA
:1002E0008AFA00F035FD0020686068702063A8700D
:1002F000287032BD308D7262411E3185708D411E75
:10030000718570474146204600F0A6BB2DE9FC47A9
:1003100000F082F800F07AF855D100F06FF800286C
:1003200051D1387801284ED000F062F801D400F0A5
:1003300099F94146D6F800E00C9D0B98DDF828C0ED
:10034000DEF8008028F40068CEF800804FF0210E1F
:1003500087F801E04FF0400887F802804FF0000E68
:10036000C7F804E000F005F900F057FA002825D19D
:1003700008E0716A0A780261706A411C7162308D0E
:10038000FFF7BAFF308D88B100F02DF888B900F082
:100390001DF8308D411E3185708D421E728530688A
:1003A00042695307EED589B20029E2D100F016F870
:1003B00030B17868042801D100F0E1FA012003E0AF
:1003C00000F030F800E00220BDE8F687706A32687D
:1003D00001781161706A411C71627047224629469A
:1003E000304600F063BB22462946304600F034BB5D
:1003F0000121397030680268D107704700941923D1
:100400000122DFF8C413304600F0C2BA06F13C07FF
:1004100004467878202870470646884691469A46D2
:1004200000F098BC3068016841F400710160202040
:1004300078700021B9700020387070472DE9FC47B2
:10044000FFF7EAFFFFF7E2FF72D1FFF7D7FF0028BF
:100450006ED1387801286BD0FFF7CAFF01D400F0C5
:1004600001F94146D6F800E00C9D0B98DDF828C054
:10047000DEF8008028F40068CEF800804FF0220EED
:1004800087F801E04FF0400887F802804FF0000E37
:10049000C7F804E000F06DF800F002FA002840D13F
:1004A000308D18B1012804D100F0A7F800F04EF803
:1004B00017E0022807D1306800F09AF800F070F8D1
:1004C0000020009001E000210091316800F08DF9DA
:1004D00007E000F088F8002823D100F067F8FFF764
:1004E00009FF308D002826D0042817D20128F0D02B
:1004F00000F024F80AD100F071F8002811D100F0C2
:1005000083F8716A0870706A421CE8E700F066F8C8
:10051000002806D100F08DF818B9F0E700F063F874
:1005200008B1012005E000F048F8DAD50069E8E7F5
:100530000220BDE8F68700F015F8FAE70228DFF898
:10054000988200942B467047A18601000090316884
:100550004A6900928B69009300980A6842F400721D
:100560000A607047202078700021B9700020387030
:100570007047C6F824C070855346708D30854A4652
:100580003B48F062019400953046704780841E001D
:1005900000093D0040420F000030FFFF007CFFFFDC
:1005A0003068026842F40062026070473068016996
:1005B000706A0170716A4A1C704730680169706A1C
:1005C0000170716A308D4A1C411E72623185708DD6
:1005D000411E7185306841694A07704700224146D3
:1005E000304600F0D5B922462946304600F07ABAA6
:1005F000016821F48061016070473068016821F46E
:1006000080610160002070473068016841F400712A
:10061000016030680169706A0170716A308D4A1C2E
:10062000411E72623185708D411E7185326810697C
:1006300070473068016821F4806101602B463068A2
:100640000169706A0170716A308D4A1C411E7262C4
:1006500031850022708D411E7185009441463046DF
:1006600000F096B9026842F0010202607047000093
:100670000000FFFF2DE9F84F04468B4691469A464D
:1006800000F068FB04F13C07054678780126202835
:100690005FD1DFF83481009519230122414600F033
:1006A000B5F8002855D13878012852D03E7000F0B6
:1006B00075F800F06DF82420787000217960DFF87B
:1006C0001C01E06200F079F80095534600F09BF8B9
:1006D000F8B921680BF0FE00086100F03BFB05460D
:1006E0002168486949697A784008890AA02A00F097
:1006F000010001F001012FD008432DD100F02AFBA9
:10070000401B824502D3BAF1000FE9D1A0207870D6
:10071000E6E720680168CA0544BF4FF400707860BE
:10072000032017E000200090192321684A690092F5
:1007300001228969009141460098009500F066F811
:1007400028B92020787000213970002002E00120B3
:1007500000E00220BDE8F28F202078702068416917
:100760008A0700F00DF9DDD422686FF480605061D3
:10077000009519230122414600F048F80028E6D1EF
:10078000761C4E459ED32020787000213970DEE71C
:100790002068016821F400610160704720680268E8
:1007A000D10703D4026842F001020260704730684A
:1007B000016841F48071016070472068016841F46C
:1007C000807101607047000002001000016841F470
:1007D0008061016070470000040001000000FFFF1D
:1007E00090F83D007047006C70474A690092896933
:1007F000009100987047206801684908490001602D
:1008000020467047434600224FF001112046BFE0CA
:100810004B46424651462046E2E02DE9F843044665
:100820002068DDF82080099F8946016841F48071C5
:1008300015461E4601600097FFF7E4FF40B12068AF
:100840000168CA0544BF4FF400702064032025E00E
:10085000206809F0FE0101613B4642464B49FFF723
:10086000DAFFA8B90090216800F07AF8FFF74BFD95
:1008700040B9012E0ED02168280A08613A46FFF7D8
:1008800041FD38B1206C042802D1206800F078F8CE
:10089000012003E02068EDB205610020BDE8F2838D
:1008A0002DE9F84F05462868DDF828800B9F0C4697
:1008B000FFF78CFF16462868016841F4807199465D
:1008C000016000F055F800284FF4007A2CD1296817
:1008D000DFF8B8B004F0FE00086100F038F8002836
:1008E00032D10090296800F03BF800F037F870B979
:1008F000B9F1010F05D02968300A086100F02CF821
:1009000028B92868F6B2066100F026F830B1286CE4
:10091000042819D1286800F033F815E02868FFF79B
:1009200047FF00F025F838B128680168CA0548BFBC
:10093000C5F840A0032008E0286844F00104E4B2B0
:10094000046100F004F800B10120BDE8F28F3B46DD
:1009500042465946284643E03A46414628467BE00F
:100960004A6900923A468969009141460098704769
:100970000097434600224FF00111284608E03068F6
:10098000016841F40071016070470000020001003D
:100990002DE9F041069F05460E4690461C46310261
:1009A0002868090E01290CBF40698069304080B277
:1009B000B1B288420CBF0120002040450DD114F196
:1009C000010FECD000F0C6F9C01B844201D3002C0B
:1009D000E5D100F05DF8012000E00020BDE8F081E5
:1009E000F8B505460E4614461F463102090E286822
:1009F00001291BD14169314089B2B2B291421BD069
:100A000041694A051AD5FFF7BBFF6FF480602A6879
:100A10005061002105F13C00296320224270817061
:100A2000426842F004024260017013E08169314083
:100A300089B2B2B29142E3D10020F2BD14F1010FAC
:100A4000D3D000F087F9C01B844201D3002CCCD155
:100A500000F01EF80120F2BD70B505460C461646A2
:100A600028684169080611D4284600F067F858B98B
:100A700014F1010FF4D000F06DF9801B844201D312
:100A8000002CEDD100F004F8012070BD002070BDF5
:100A900000202863202105F13C0000224170827073
:100AA000416841F0200141600270704770B5054611
:100AB0000C46164628684169480711D4284600F0BC
:100AC0003DF858B914F1010FF4D000F043F9801B40
:100AD000844201D3002CEDD1FFF7DAFF012070BD75
:100AE000002070BD70B505460C4616462868416961
:100AF0004A0617D44169CA060BD400F02BF9801BB3
:100B0000844201D3002CF1D100F00EF841F0200115
:100B100004E06FF01001416100F006F841600270DE
:100B2000012070BD002070BD00202863202105F148
:100B30003C000022417082704168704701684A6938
:100B400053050FD56FF480624A61002101633C3088
:100B5000202242708170426842F0040242600170BB
:100B60000120704700207047704730B4002513E023
:100B700050F8042BD30744BFA9F101039A18091FA9
:100B8000042942F8045BFAD213468C0744BF15804F
:100B90009B1CC90748BF1D7050F8041B0029E7D1F2
:100BA00030BC70472DE9F04104000F4678D0494E23
:100BB000306800F00F00B84202D200F073F86FD135
:100BC0002068454D810712D5400703D5A96841F437
:100BD000E051A9602078010703D5A86840F460407F
:100BE000A860A968A06821F0F0010143A9602178FC
:100BF000C8074DD56068012802D129688A0305E03D
:100C0000022818BF032803D129688A0103D447E0CA
:100C100029688A0744D5A968890840EA8100A86044
:100C200000F098F88046A868616800F00C00B0EB0E
:100C3000810F2DD000F08EF8A0EB080041F2893131
:100C40008842F0D3032021E02078410705D5AA6827
:100C5000E06822F4E0520243AA602178080706D532
:100C6000A968206921F4604141EAC001A96000F04F
:100C70003FF8AA6819491A4BC2F30312895CC840AD
:100C800018601848006800F06BF80020BDE8F0819B
:100C9000306800F00F008742D6D200F003F8D3D0BE
:100CA0000120F3E73770316801F00F01B942704756
:100CB0000B480D4A006813680C49C3F3822206E012
:100CC0000748094A006813680849C3F34232895C3F
:100CD000C8407047003C024000380240A02D000888
:100CE0009C0000204400002008380240342F0008F7
:100CF00030B5144C606800F00C00042802D00828BD
:100D000002D01DE0104830BD226820680023410257
:100D100002F03F0204D525680B49C5F3881003E0B3
:100D200020680A49C0F38810A1FB000100F038F8E0
:100D30002168C1F30141491C4900B0FBF1F030BD0D
:100D4000024830BD0438024000127A000024F4004A
:100D50007047000001484068704700BF3C00002019
:100D600038B50D4D0D4B2A7804464FF47A7118684A
:100D7000B1FBF2F2B0FBF2F000F0D7F850B9102C52
:100D800008D2002221464FF0FF3000F0A7F8AC60F7
:100D9000002032BD012032BD3C0000209C0000201C
:100DA000D3BBD9B1B2F5803F5BD2022A1ED98C46A3
:100DB000B1FBF2F102FB11C31B0443EA1043B3FB86
:100DC000F2FC02FB1C3380B240EA0343B3FBF2F0B7
:100DD00002FB103240EA0C4000237047022A05D97A
:100DE0008446B0FBF2F002FB10C270474AB105D155
:100DF00000F0010249085FEA30007047002200233A
:100E0000704700F0B3B80B000200002100207047CB
:100E1000F7D3002200237047904271EB030CF2D30A
:100E200070B5B1FA81F4B3FA83F52C1BA340C4F179
:100E3000200532FA05F63343A2405FF00046E64053
:100E400002E05B085FEA3202841A71EB030524BFFB
:100E5000204629467641F4D302000B0030000021E1
:100E600070BD70B5B1FA81F4B2FA82F5C4F1200414
:100E70006419B4F12006DAD3B2405FF00044F440C4
:100E8000002502E052085FEA3303C61A71EB020E36
:100E900024BF3046714664416D41F3D302000B001C
:100EA0002000290070BD00000901020006D5294A72
:100EB00000F00F00104400F8041C7047264B195432
:100EC0007047264B19684FF6FF020002114000F4EC
:100ED000E0600843224908431860704738B51F4B4B
:100EE0001C68C4F30223C3F10704052C28BF0424A3
:100EF0001D1D072D34BF0023DB1E012505FA04F458
:100F0000641E2140994005FA03F35B1E1A40114309
:100F1000BDE83440C8E7012200F01F01114BFFE794
:100F20008A40400943F82020704710B5401EB0F1B8
:100F3000807F01D3012010BD0B4C60600F214FF06A
:100F4000FF30FFF7B1FF0021A160072020600020E3
:100F500010BD000018ED00E000E400E00CED00E042
:100F60000000FA0500E100E010E000E0704700003A
:100F700000E038E080B5002000F0A6FA012000F083
:100F8000A3FA022000F0A0FA002000F0B0FA00F06E
:100F900026F8012000F0ABFA00F021F8022000F062
:100FA000A6FA00F01CF8002000F0CCFA0028FAD1D4
:100FB00000F032FB4FF400726449654800F039FCE0
:100FC000002000F09AFA00F00AF8012000F095FAEB
:100FD00000F005F8BDE80240022000F08EBA4FF4A0
:100FE000967000F059BE00B5ADF5017D684600F081
:100FF00010F828B9012000F07AFA684600F042F9AA
:10100000322000F049FE012000F077FA0DF5017D55
:1010100000BD2DE9F04707464D48DFF83881416BA8
:101020000A685668B8F80090C6F500760024B6B293
:101030004E4531D00321484600F067F805460421AB
:10104000484600F062F840EA0520B145B9BF751E78
:10105000A5EB0905A6EB090505F2FF15ADB2801D4C
:10106000A84219D13C600AE0A1B2484600F04DF810
:1010700007EB0A01641C08713868401C38601FFACD
:1010800084FAAA45F0DBA8F80060384600F020F8A2
:10109000012808BF002000D00120BDE8F08710B56E
:1010A000044600F004F82046BDE8104039E010B5D1
:1010B00004680021002203E08318521C1B79C91A1E
:1010C000A242F9D3024411710168491C016010BDAC
:1010D0000021002203E08318521C1B79C918036801
:1010E0009A42F8D35B1E0360C8B2401E8041C00F15
:1010F000704710B502460020002303E0D45C04EBE7
:1011000000205B1C8B42F9D310BD0818B0F5007F9E
:101110000E4904DB0844A0F5007000787047085CB5
:10112000704770B504460C4E25682A46211D30468E
:1011300000F0C6FDF0237355314622680448521C66
:10114000226092B2BDE8704000F037BBA0000020E2
:1011500058000020E4050020A00200203222427145
:10116000B42101710022C2710272802108E0FFE700
:1011700032224271B42101710022C27102726221D5
:10118000817105220260704732224271B4210171DF
:101190000022C27102726021F2E732224271B42150
:1011A00001710022C27102726321E9E732224271A9
:1011B000B42101710022C27102726421E0E732227F
:1011C0004271B42101710022C27102726521D7E718
:1011D00032224271B42101710022C2710272662171
:1011E000CEE710B5044600202179322908D1617973
:1011F000B429A17908D001291CBF022903291FD0D5
:101200002046FFF7C1FF33E0012918BF022917D09C
:1012100003291CBF1029122912D0132913D03029F9
:1012200014D0312916D0322910D0332912D03429C4
:1012300018BF352912D0362902D0372903D014E03F
:101240002268052A04E02168062901E02268092AAB
:1012500007D110BD216809290ED802E022680D2AA5
:101260000AD22046FFF783FF02E02046FFF7B0FFD7
:101270002046FFF714FF012010BD0A0AC271017257
:10128000704700002DE9FC420446FFF7AAFF002545
:10129000012800F0DC80A07901286FF002076FF0D0
:1012A000650944D002281ED0032830D0102834D03D
:1012B000112839D012283BD0132800F0C9803028DB
:1012C0005AD0312868D0322876D0332800F0868072
:1012D000342836D0352847D0362800F09C8037286F
:1012E00000F0A680ADE000F0E4F8002674A0211D17
:1012F0002268835DB218761C8B54052EF8D33146D4
:101300002046FFF7BAFF2068361826607FE000F01D
:10131000D0F82268211DB42021E0002000F012F94D
:101320000028204664D070E0002000F02CF95EE038
:1013300000F0BFF8002000F02DF92268211D88542C
:101340006EE000F09DF800F04DF96946002000F0D5
:101350004FF900F0AEF822689DF80000211D885476
:1013600023685B1C23605EE000F08AF800F03DF922
:101370000028204649D13BE000F07EF800F09BF8C1
:1013800000F096F800F06DF800F008F900281FD082
:101390002046FFF702FF1BE000F06EF800F067F850
:1013A00000F059F800F002F9002820D0484526D175
:1013B0002046FFF704FF2AE000F05EF800F07BF81B
:1013C00000F076F800F04DF800F0FBF80028DFD1CF
:1013D000206810FA86F02060B1B225E000F04CF8E9
:1013E00000F045F800F037F800F0EEF818B92046A4
:1013F000FFF7B4FE0BE0484508BF204605D0B842D1
:10140000204602D1FFF7D2FE01E0FFF7E1FE2046C1
:10141000FFF745FE1CE000F04CF800F07DF860722C
:101420002068401C206001212046FFF726FFEEE7E0
:10143000607A012802D100F074F8D8E700F074F85F
:10144000D5E72046FFF7C4FE2046FFF728FE01251A
:101450002846BDE8F68283B2B2B204F10D01002045
:101460007047B3B2BAB204F10901002070470646D2
:10147000022104F10B003CE6022104F1090038E6E8
:10148000A17A607AE27A090441EA0061207B41EAAC
:10149000022140EA0106A27B617B207C120442EA21
:1014A0000162E17B42EA012202433146002070479B
:1014B0000646204652E60746022104F10B0018E6D4
:1014C000312E302E3000000018B51C4A85B032F89D
:1014D00030300093012401940223002402EBC00267
:1014E000039302946946506800F0F6FB11E080B562
:1014F00000F009F8012258681BE080B500F003F8FD
:101500000022586815E00D4B33F8301003EBC00390
:101510007047002006B010BD4021FFE7084800F0EA
:1015200014BD80B5012201E080B500224FF4807126
:10153000034800F010FD002002BD00000000002064
:101540000000024010B586B02B492C4A2C4C00916B
:10155000019220462B492C4A029104922B492C4A95
:1015600003910592694600F00BFD40B92948A0623D
:10157000016811B12046884718B10020A0624FF0E1
:10158000FF3006B010BD1E49886A10B100228A6281
:101590004A6270471A48406AC0B2704710B518488E
:1015A000846A646904B909E0A04710BD10B5144805
:1015B000846AA46904B901E0A04710BD4FF0FF3070
:1015C00010BD0F4800F061BD10B50D4C204600F075
:1015D00065FD30B9A26A936801212046984700282A
:1015E000F8D110BD064800F09BBD054800F09EBD37
:1015F000034800F0CEBD0000E12B0008572C000886
:10160000B80500208B2C0008CD2C0008AD2C00085C
:10161000550D00082000002038B50024022828BFFE
:101620006FF001040BD200F00CF86960281D00F087
:101630000FF8281D00F0DEFD08B16FF0030420460E
:1016400032BD3D4901EB801501EB8000416C7047D4
:101650002DE9F04186B00446002000900022344875
:10166000364E0169364D41F4003101614FF000679B
:10167000016901F4003100914FF4806800990092F3
:101680000C21036843F0010303600222006800F0AC
:101690000100009007230098264801910292002142
:1016A00003910491059301A900F016FB06F11800BF
:1016B000286040210020E8606861A861E861286234
:1016C0006862A9606F60C5F81080284600F0A8FD28
:1016D00008B101F05BF800204FF400312563A866E3
:1016E000E8666867A8672E664FF48070E86705F1C2
:1016F000840600203060C5F88010AC636F66C5F8C2
:10170000708005F1600000F08BFD08B101F03EF83B
:1017100005F1600060637461002200212620FFF75C
:10172000DDFB2620FFF7F7FB06B0BDE8F0810000E7
:10173000303802400000024054000020886002401F
:10174000A004002038B5040001D1012032BD00F012
:1017500021F808B900F022F800F012F800F023F8A0
:10176000FFE7416100F001F832BD2068C16841F433
:101770000051C1600020686020216970A970704725
:10178000242068702068C16821F40051C16020469F
:1017900000F00DBA04F1380568787047002129700F
:1017A000204600F077BA2068016921F49041016178
:1017B0002068416921F02A01704770B5044604F1A0
:1017C000380513466878202831D109B1180001D1B5
:1017D000012070BD2878012829D0012028702162BD
:1017E000A384E3840020686021226A700FF2352010
:1017F000226BD063226B0FF259201064226B0FF220
:101800009920D0640020266B30652068021D206B73
:1018100000F07DFD21686FF04000086000222A7012
:101820002068416941F080014161002070BD0220C3
:1018300070BD7CB5044604F138051346A87820280D
:101840003ED109B1180001D1012076BD28780128C8
:1018500036D001202870A162A38500226A60222070
:10186000A8700026606B0FF2F112C263606B0FF27A
:1018700021220264606B0FF22122C2640A46606B6F
:1018800006652668606B311D00F041FD0020009068
:1018900021680A68009200224B68009300982A7021
:1018A000CB6843F48073CB602068416941F001014B
:1018B00041612068416941F040014161002076BDED
:1018C000022076BD416921F040014161606B7047A3
:1018D00038B5044625682968EA686B6911F00F007D
:1018E00007D188065FD593065DD52046BDE8324016
:1018F00014E1D80702D412F4907F54D0C80705D55C
:10190000D50503D5E06B40F00100E063480705D53D
:10191000DD0703D5E06B40F00200E063880705D5E2
:10192000DD0703D5E06B40F00400E063080707D54E
:10193000950601D4D80703D5E36B43F00803E363AE
:10194000E06B00286CD0880604D5910644BF204681
:1019500000F0E4F820684069E16B0A0701D4400612
:101960001BD5204600F0C6F8206841694A060FD50D
:10197000FFF7A8FF60B10FF299110165606B00F0ED
:10198000F7FC00284CD0606B016DBDE8344008477F
:101990002046BDE8324000F0FABE204600F0F7FED7
:1019A0000020E06331BD08062AD5130628D594F837
:1019B0003900212834D1A068B0F5805F206A0BD1AE
:1019C0000188C1F30801696020690028206A0CBF02
:1019D000811C411C216203E0411C21620078686087
:1019E000E08C401EE08480B2D0B92068C16821F04C
:1019F0008001C1602068C16841F04001C16031BD13
:101A000048060DD551060BD5E86820F04000E86087
:101A1000202184F839102046BDE8324000F0B8BEDD
:101A200031BD0000816B00680268D30544BF0846E1
:101A300000F0AEBE0020C8840868426922F080022F
:101A400042610868C16841F04001C1607047000010
:101A5000806B00F09EBE0000816B00680268D305B9
:101A600013D40020C8850868C26822F48072C2605E
:101A7000086842695208520042610868426922F0CF
:101A800040024261202081F83A00084600F082BE00
:101A9000806B00F080BE000038B5846B2068406920
:101AA00004F139052978212906D1010604D500223F
:101AB000E284204600F015F82168486969782229F7
:101AC00006D1400604D50021E185204600F012F839
:101AD000E06B40F01000E0632046BDE8324000F0CB
:101AE00056BE0168CA6822F0C002CA60202180F890
:101AF000391070470168CA6822F49072CA600168A0
:101B00004A69520852004A61202180F83A10704711
:101B1000806B0021C185C18400F039BE80B590F88A
:101B20003A10222941D18168B1F5805F12D1016953
:101B30000368826A0029596805D1C1F30801118040
:101B4000826A911C04E001F0FF011180826A511C3D
:101B500081620FE001690029816A04D14A1C826216
:101B600003685A6805E04A1C826203685A6802F0FA
:101B70007F020A70C18D491EC18589B299B9016879
:101B8000CA6822F02002CA600168CA6822F4807222
:101B9000CA6001684A69520852004A61202180F8EF
:101BA0003A1000F0F7FD002002BD022002BDD0B5C2
:101BB0000646642732681169F06821F440510143F8
:101BC00011611924D3682D48B168034030690B4373
:101BD00071690343F0690B430343D3605169B069F2
:101BE00021F4407101435161F36925482549B3F55A
:101BF000004F1FD18A4218BF824202D1FFF760F81E
:101C000001E0FFF755F80246A4FB02017268D30F0A
:101C10005200FFF7C5F800F037F8FF0032376420B4
:101C2000B7FBF0F0420002F4F87202EB011200F090
:101C300007001DE08A4218BF824202D1FFF740F838
:101C400001E0FFF735F80246A4FB02017268930F2A
:101C50009200FFF7A5F800F017F83F013237642033
:101C6000B7FBF0F000F0F00202EB011200F00F0001
:101C7000316880188860D0BD00000000F369FFFF64
:101C800000140140001001406421B0FBF1F107FB9A
:101C9000110770477047000038B50446FFF75AF83F
:101CA00014F1010F054602D0044801786418FFF7CB
:101CB00051F8401BA042FAD331BD00BF3C000020C8
:101CC0004AB1000011F8013B521E00F8013B1CBF55
:101CD00011F8013BF8E770472DE9F84F0D464FF03A
:101CE00000089F490F22012304462E6803FA08F0DA
:101CF00000EA0609814540F0B1804FEA480C03260E
:101D000006FA0CF66FEA060E6E68012E18BF022E58
:101D100003D0112E18BF122E11D1A668EF680EEA5B
:101D2000060607FA0CF73E43A660666826EA00003E
:101D30006E68C6F3001606FA08F630436060E06885
:101D4000AE680EEA000006FA0CF63043E0604FEA97
:101D500088006E68022E18BF122E12D14FEAD806E4
:101D600004EB860600F01C07D6F820A002FA07FB59
:101D70002AEA0B0AD5F810B00BFA07F747EA0A0768
:101D8000376226680EEA06072E7906F0030606FA81
:101D90000CF63E4326606E68F6005FD5002600967E
:101DA0004FEA980C0E68DFF8BCE146F480460E60FE
:101DB00000F00C000E6806F480460096009E5EF867
:101DC0002C7002FA00F627EA0606674FBC4208BFED
:101DD000002713D0654FBC4208BF01270ED0644FC7
:101DE000BC4208BF022709D0624FBC4208BF03278C
:101DF00004D0614FBC420CBF0427072707FA00F04C
:101E000030434EF82C006FEA090C5C4806680CEA77
:101E1000060E6E68F70348BF49EA0E0EC0F800E0F0
:101E200046680CEA060E6E68B70348BF49EA0E0E14
:101E3000C0F804E086680CEA060E6E68F70248BF38
:101E400049EA0E0EC0F808E0C6680CEA060E6E6895
:101E5000B60248BF49EA0E0EC0F80CE008F10108CE
:101E6000B8F10F0F7FF641AFBDE8F18F2DE9F84FC4
:101E700003460D46002441483A4900950122009E40
:101E800002FA04F909EA06064E4559D14FEA940CC4
:101E90004FEA840A51F82C50334F0AF00C0E4FF0E1
:101EA0000F0B0BFA0EF8BB4208EA050508BF002726
:101EB00013D02E4FBB4208BF01270ED02C4FBB4280
:101EC00008BF022709D02B4FBB4208BF032704D00D
:101ED000294FBB420CBF0427072707FA0EF7BD4264
:101EE00012D10568F64335400560456835404560C8
:101EF000856835408560C5682E40C66051F82C5015
:101F000025EA080541F82C5003256600B540EE434C
:101F10001D6835401D600AF01C0AE50803EB8505C5
:101F20000BFA0AFA2F6A27EA0A072F62DD683540A2
:101F3000DD605D6825EA09055D609D6835409D604E
:101F4000641C0F2C9BD9BDE8F18F0069084018BFB5
:101F50000120C0B2704702B90904816170470000D6
:101F600044380240083801400000024000040240AA
:101F700000080240000C024000100240003C0140FA
:101F800038B500244FF0FF35B0B10A6802604B68E5
:101F90004360CA68C2600B6903618A6882604969EC
:101FA0000FF2FD1241610062C2610FF205218161F1
:101FB000006808B1804700B12C46204632BD1CB5F0
:101FC0000446606A58B9694604F1180000F0F0FB55
:101FD0009DF80000242818BF262800D0D0E001205A
:101FE0006062002016BD183000F0E2BB0246A62059
:101FF000926810471CB500F08FF800F0EDFB18B99F
:102000009DF800002080002016BD02B569461830FA
:1020100000F0E7FB02BD10B504461046B3E02DE921
:10202000F84F064688461F46914640F20110874207
:10203000ACBF4FF4807ABA46F468534642461FFA62
:1020400089F1A620A047050014D170698047834616
:10205000B2680121A6209047044670698047A0EB32
:102060000B00B0F5A07F02D2002CF1D102E00CB140
:102070006FF00205A7EB0A07D044D144BFB20FB1FD
:10208000002DD2D02846BDE8F28F10B50446104688
:102090000A4601462469AE20A04710BD2DE9F84F3D
:1020A00006461F469046894640F201108742ACBF63
:1020B0000025FDB2F4682B464A461FFA88F1AE208F
:1020C000A0475FEA000A14D1706980478346B2686E
:1020D0000121A6209047044670698047A0EB0B00C1
:1020E000B0F5A07F02D2002CF1D102E00CB16FF06C
:1020F000020A7F1BA944A844BFB217B1BAF1000F6E
:10210000D2D05046BDE8F28F28B99DF8000000B14A
:1021100001202070002016BD0C466946183070471B
:10212000F0B585B000F025F8092504E0F0B585B0DC
:1021300000F01FF807258DF808500020C0F10301BA
:10214000C9000DEB000226FA01F31370401C27FAB8
:1021500001F3137104281178137951725373EDDB75
:1021600011234FF4106269462046FFF797FF05B030
:10217000F0BD04460E4617466846142100F048BBE1
:102180004FF0FF3016BD0A4601462469A620A0473D
:1021900010BD1CB5FFF7C0FF00F02EFBB4E7000038
:1021A00038B504698D044CBFA620AE20A04732BDCF
:1021B000F8B506468D04F46802D5A620A047F2BD06
:1021C000AE20A047050013D1706980470746B2686A
:1021D0000121AE209047044670698047C01BB0F5CE
:1021E000A07F02D2002CF2D102E00CB16FF0020508
:1021F0002846F2BD10B5094901604FF4E1320C21C7
:102200000024426041618460C46004618461C461EF
:10221000FFF798FA00B10124204610BD00440040A9
:1022200070B50446FEF796FD06460CB9012070BD58
:1022300004F13405002028700221697020680268CA
:1022400052085200026022681068C10722D5FEF7CA
:1022500081FD801B0628F6D32020286203216970A7
:10226000032070BDB0F5005F09D1032E42D8DFE82E
:1022700006F00C0A0C02B1F1C07F3BD105E0022E42
:1022800003D9F61E36D1C80134D540212962012078
:10229000687070BD1368DFF8900261680340A06841
:1022A0000B43E168034320690B4361690343A06961
:1022B0000B43E1690343206A0B43616A034304292A
:1022C00003D1E16A206B01430B43136023685A6911
:1022D000606AD208042840EAC2020BD1A66AE16A09
:1022E000324339B1A0690028BCD1002E18BF022E9C
:1022F000C9D0C0D35A61204600F034F9A96A3F2200
:102300008A408260002028620121697070BDF8B5A2
:10231000044604F1340600253078776A012801D19B
:102320000220F2BD01203070707801281CD10220FB
:1023300070703562204600F005F9B06A3F2101FA5D
:1023400000F0B8602068016841F016010160F06893
:1023500020B12068016841F008010160206801682F
:1023600041F00101016001E0357002252846F2BD0F
:1023700090F83510022903D0802242650120704771
:10238000052180F83510006802685208520002608A
:10239000002070472DE9FC41044604F1340600207A
:1023A000624900904FF41650776A0A683D68B2FBA4
:1023B000F0F8B06A082100F0BCF80ED0206802687E
:1023C00053070AD5026822F004020260B06A814015
:1023D000B960316A41F001013162B06A25FA00F159
:1023E000CA070BD521684A69110607D5012202FAEE
:1023F00000F0B860306A40F002003062042100F062
:1024000097F808D021680A68930704D5B860306A45
:1024100040F004003062102100F08AF819D02168E1
:102420000A68130715D5B860206801684A0307D504
:102430000068010309D5716959B12046884708E051
:102440000168CA0501D400F078F8F16809B12046A6
:102450008847B06A202100F06CF843D021680A68F0
:10246000D3063FD5B86020687178052920D102686D
:1024700022F0160202602068416921F0800141616A
:10248000F068002804BF7069002802D0206800F0BE
:1024900054F83F22B06A8240BA60002131700122B4
:1024A0007270F16900293CD02046BDE8FC41084724
:1024B00001684A0307D5006801030FD4316989B167
:1024C000204688470EE00168CA0507D4016821F05C
:1024D000100101600020307001227270B16809B1F2
:1024E00020468847306AE0B1306AC10713D505201D
:1024F0007070206801684908490001600098401C1C
:102500008045009003D320680168CA07F6D40020F4
:10251000307001217170B16919B12046BDE8FC41EC
:102520000847BDE8F38100003F8010F09C000020C8
:10253000B06A01FA00F005427047016821F0080115
:102540000160704730B50468256825F48025256052
:1025500063608068402802D1A260E16030BDA16064
:10256000E26030BD30B5016808A401F0FF02103A06
:102570001823B2FBF3F2890A8902A55CC565042A17
:1025800028BF091D8165084630BD000000061016F1
:102590000006101680B500F03FF900F023F800F0B7
:1025A0006BF80020009000226948016841F4001196
:1025B00001600021006800F40010009000981020D5
:1025C000FEF78CFC1020FEF7A6FC00220021112053
:1025D000FEF784FC1120FEF79EFCFEF7C9FCFEF717
:1025E000C8FCFCE780B592B006A8302100F010F9D5
:1025F00001A8142100F00CF9002000905548016852
:1026000041F0805101600021006800F0805000908E
:102610000098514800910221026822F4404242F49D
:10262000004202600122006800F4404000900098DF
:102630000691099210210A91022200210C920D911B
:1026400010224FF4A8710E920F91042207211092CC
:10265000119106A800F0FAF8022102910F204FF420
:10266000805101900022049103920592022101A859
:10267000FEF798FA13B000BD38B586B0684614214D
:1026800000F0C6F800243248344D05940168344CFB
:1026900041F004010160026802F004020592002288
:1026A00005990592036843F080030360016801F017
:1026B0008001059105990592036843F001030360C9
:1026C000016801F001010591059905924FF4A4619B
:1026D000036843F002030360006800F00200059005
:1026E00005982046FFF737FC002230212846FFF7E7
:1026F00032FC4FF400501B4900F03AF81A48FFF73B
:10270000EBFA4FF4A46100F039F82046FFF7E4FA41
:102710004020164900F02CF82046FFF7DDFA302162
:1027200000F02CF82846FFF7D7FA002200211720E6
:10273000FEF7D4FB1720FEF7EEFB00220021282035
:10274000FEF7CCFB2820FEF7E6FB07B030BD00000B
:10275000303802404038024000700040000402401F
:10276000000002400000211000080240000011108B
:102770000090019100220292694670470091012267
:10278000002102910391019269467047704770479A
:10279000704770477047704710B50446A06864687A
:1027A000A04710BD10B50446A0682468A04710BD1E
:1027B00080B50A4601231721FFE7FFF7EDFF08B1B7
:1027C0004FF0FF3002BD4FF0FF3010BD207800F019
:1027D00001002070002010BD80B50A4601230021B1
:1027E000EBE780B50A4601230021FFF7DBFFE6E7B0
:1027F0000C4601232246704710B5FFF7F9FF42F25D
:102800000401FFF7C9FF08B1FFF7DDBFFFF7DEBF27
:10281000002200F0ADB9000080B50B48016841F41A
:1028200000710160026842F480620260016841F454
:10283000807101600320FEF744FB0020FEF790FA50
:1028400000F0B0F9002002BD003C02402DE9F84341
:10285000040016D02078DFF80863C10713D5B068EC
:1028600000F00C00042807D0B06800F00C00082825
:102870003ED1706841023BD53068810303D5606862
:10288000002800F0FF802078B64F810719D5B06886
:1028900010F00C0F07D0B06800F00C0008285CD1D5
:1028A0007068410259D43068810703D5E068012877
:1028B00040F0E8803168206921F0F80141EAC00168
:1028C0003160217808076CD56069A749002862D07B
:1028D00001220A60FEF73EFA0546706F810700F19B
:1028E000D380FEF737FA401B0228F6D9032034E1E3
:1028F0006068B0F5803F04D1306840F480303060CB
:1029000011E0B0F5A02F306806D140F4802030608F
:10291000316841F4803105E020F480303060316866
:1029200021F480213160606858B1FEF713FA054642
:1029300030688103A7D4FEF70DFA401B6528F7D352
:10294000D4E7FEF707FA0546306881039BD5FEF70A
:1029500001FA401B6528F7D3C8E7E06870B1012190
:102960003960FEF7F7F905463068810700F1B88055
:10297000FEF7F0F9401B0228F6D9B7E73860FEF7FA
:10298000E9F90546316888079BD5FEF7E3F9401B56
:102990000228F7D9AAE70860FEF7DCF90546706F50
:1029A000810771D5FEF7D6F9401B0228F7D99DE7BC
:1029B0000528306F06D140F004003067306F40F0DA
:1029C000010005E0400840003067306F20F004004F
:1029D000306741F28938A06868B1FEF7BBF98146DB
:1029E000306F810700F18980FEF7B4F9A0EB090090
:1029F0004045F5D37AE7FEF7ADF98146306F8107A0
:102A00007BD5FEF7A7F9A0EB09004045F6D36DE7AB
:102A1000FEF7A0F9401B022840F2828066E7FEF72D
:102A200099F9001B022840F293805FE70020386686
:102A3000FEF790F904463068810140F18D80FEF781
:102A400089F9001B0228F6D950E701281AD07068CE
:102A5000E26900F48001914202BF00F03F01226A66
:102A600091420FD147F6C071626A0140914202BFA4
:102A700000F44031A26A914202BF00F07060E16A46
:102A8000884269D0012068E0207841073AD5306C4F
:102A90000025C1000AD400950125316C41F0805118
:102AA0003164306C00F0805000900098DFF8BC80FA
:102AB000D8F80000C1051BD4D8F8000040F480709D
:102AC000C8F80000FEF746F98146D8F80000C105B5
:102AD0000ED4FEF73FF9A0EB09000228F5D905E76F
:102AE0003068216920F0F80040EAC1003060E8E673
:102AF000A06801287FF45CAF60E71DB1306C20F066
:102B000080503064A06938B3B16801F00C01082925
:102B10009BD002288AD100203866FEF71BF90546B3
:102B2000306881013FF574AFE269206A616A02434F
:102B3000A06A400842EA8112401E42EA0042E06A6E
:102B400042EA0062726001213966FEF703F9044629
:102B5000306881017FF563AF0020BDE8F28300BFDC
:102B60000038024000004742800E4742007000409B
:102B700000B500BF130096469446103928BFA0E860
:102B80000C50FAD85FEA417C28BF0CC048BF40F81F
:102B9000042BC90728BF20F8022B48BF00F8012BDF
:102BA00000BD000082B00020009000220B48416868
:102BB00041F480414160416801F4804100910099F5
:102BC0000092036843F080530360006800F0805077
:102BD00000900098072002B0FEF773B94038024019
:102BE000494870B5494D286086B0686D411C002485
:102BF000696568BB2846FDF7F3FD48BB444E00906D
:102C00001222316841F0020131604FF440713068A6
:102C100000F00200009000983E48019102920121CC
:102C20000391032204210591049201A9FFF754F8AE
:102C30000094316941F400113161306900F40010F1
:102C400000900098284600F069F808B16FF007047A
:102C5000204606B070BD38B52C4D686D002490B18B
:102C6000401E68650FD12C48026822F400120260F1
:102C70004FF440712748FFF7F9F82846FDF726FB87
:102C800008B16FF00704204632BD0A4610B5014670
:102C90004FF480531D48FDF7EDFC002408B16FF0A0
:102CA0000204204610BD204604B070BD7FB500F080
:102CB00020F8FDF72BFB002438B100F017F80428AA
:102CC0000CBF6FF065046FF00304ECE77FB500F014
:102CD00010F8FDF7B3FB002438B100F007F8042822
:102CE00014BF6FF065046FF00304DCE72846FDF7BE
:102CF0007ABD009201930A46044D4FF48056014676
:102D000002961023284670470054004060050020BA
:102D10003038024000040240403802400A490B4A61
:102D200010B50160426000244FF48042026184606B
:102D3000C46044618461C4610462FDF72BFA00B190
:102D40000124204610BD00BF00540040801A060038
:102D50000E48016841F47001016000220C490868C6
:102D600040F0010008608A600B680A480A4A034084
:102D70000B604A6000200B68084A23F480230B6034
:102D8000C8604FF0006111607047000088ED00E0FE
:102D900000380240FFFFF6FE1030002408ED00E08E
:102DA00000000000000000000102030406070809FB
:102DB0007047FEE7FEE7FEE7FEE7704770477047A3
:102DC00000F01AB80748FFF7E5BA0748FFF7E2BA7C
:102DD000064800F019B80648FEF77ABD054800F02D
:102DE00013B8000000050020A004002018000020F7
:102DF000580000204C0000200248416802788A18E0
:102E0000426070473C0000200178012201F01F0160
:102E100002FA01F1044A13680B4204D011604068C1
:102E2000002818BF00477047143C014030B50168C6
:102E300084684218416802EB5103C9070BD54C4422
:102E400009E012F9011B12F8015B002904F8015B8B
:102E500005D5491CF9D19A42F3D10C3030BD491E39
:102E6000F1D5F8E710B5074979441831064C7C4490
:102E7000163404E00A68081D114488470146A1423F
:102E8000F8D110BD2C000000480000004EF688511B
:102E9000CEF20001086840F470000860BFF34F8F65
:102EA000BFF36F8F4FF00070E1EE100A7047000023
:102EB000BBDCFFFF48050000A00000200000000070
:102EC0006DFFFFFF44010000A4000000000000208F
:102ED00000F00DF8002801D0FFF7C4FFAFF3008029
:102EE0000020AFF30080FFF755FB00F002F801204F
:102EF000704700F001B800000746384600F002F8BD
:102F0000FBE7000080B5AFF30080024A11001820F3
:102F1000ABBEFBE72600020001488047014800479E
:102F2000512D0008292F0008AFF30080FFF7AEFFF6
:102F3000FFF7CEFF0000000001020304FFF7FEBF11
:102F4000FFF7FEBFFFF7FEBFFFF7FEBFFFF7FEBFB5
:102F5000FFF7FEBFFFF7FEBFFFF7FEBFFFF7FEBFA5
:102F6000FFF7FEBFFFF7FEBFFFF7FEBFFFF7FEBF95
:102F7000FFF7FEBFFFF7FEBFFFF7FEBFFFF7FEBF85
:102F8000FFF7FEBFFFF7FEBFFFF7FEBFFFF7FEBF75
:102F9000FFF7FEBFFFF7FEBFFFF7FEBFFFF7FEBF65
:102FA000FFF7FEBFFFF7FEBFFFF7FEBFFFF7FEBF55
:102FB000FFF7FEBFFFF7FEBFFFF7FEBFFFF7FEBF45
:102FC000FFF7FEBFFFF7FEBFFFF7FEBFFFF7FEBF35
:102FD000FFF7FEBFFFF7FEBFFFF7FEBFFFF7FEBF25
:102FE000FFF7FEBFFFF7FEBFFFF7FEBFFFF7FEBF15
:102FF000FFF7FEBFFFF7FEBFFFF7FEBFFFF7FEBF05
:10300000FFF7FEBFFFF7FEBF0010FC000304024005
:1030100020FC00040402400004FC000502400600FD
:103020000006FC001CBF1F0008E71F0008ED1F0082
:1030300008F51F00080B200008172000081F2000BB
:103040000801F9000010FC00060802400D0000060F
:0A305000B700064400400024F4001D
:0400000508002F2997
:00000001FF
