:020000040800F2
:1000000078060020C5430008A9420008AB4200085A
:10001000AD420008AF420008B142000800000000F5
:10002000000000000000000000000000B3420008D3
:10003000B542000800000000B7420008B9420008BD
:10004000EF430008F3430008F7430008FB430008B0
:10005000FF43000803440008074400080B4400085D
:100060000F44000813440008174400081B4400080C
:100070001F44000823440008274400082B440008BC
:100080002F440008334400083744000800000000F3
:10009000000000000000000000000000BD42000859
:1000A0003B4400083F44000843440008474400081C
:1000B0004B4400084F4400085344000857440008CC
:1000C0005B4400085F44000863440008674400087C
:1000D0006B4400086F4400087344000800000000EF
:1000E000C3420008774400087B4400080000000079
:1000F0000000000000000000000000007F44000835
:100100000000000083440008874400088B44000876
:1001100000000000000000000000000000000000DF
:100120008F44000893440008974400089B4400084B
:100130009F440008000000000000000000000000D4
:10014000000000000000000000000000A3440008C0
:10015000A7440008AB440008AF440008B3440008BB
:10016000B7440008BB440008000000000000000085
:10017000000000000000000000000000000000007F
:1001800000000000BF440008000000000000000064
:10019000C34400082DE9F04F0FF2A41CA1B0DCE924
:1001A0000089CDE900892A9DDFF8DC9B04910024B9
:1001B0008DF843500D944FF0FF38824616461F4687
:1001C0000FE0B3462C461BF8011B0498D0470028CB
:1001D000049000F0A2800D98401C641E0D90F2D196
:1001E00076193078252808D100210022079108923D
:1001F00009910A920B910C920DE06A4641463046F5
:1002000000F0DAFF050001D10D98A1E0D9D5012554
:10021000E6E741F0010116F8010F2028F9D0232864
:100220000CD02B2804D02D2805D0302809D076E01A
:1002300041F00201EFE741F00401ECE741F0080171
:10024000E9E741F01001E6E70F9209E00F98484511
:1002500005DA00EB800402EB4402303A0F92761C80
:100260003278A2F130000A28F0D330782E2818BF57
:10027000CDF8388022D116F8010F2A2807D1386826
:100280003860761C50F8042B38600E9216E02D284A
:100290000CBF761C002000220E920AE040B90E9A94
:1002A0004A4505DA02EB820403EB4403303B0E932C
:1002B000761C3378A3F130020A2AEFD3ADF8401050
:1002C00021A0317800F082FF08B116F8010B8DF8FB
:1002D00042009DF84200682804D1307868280AD18D
:1002E000622105E06C2804BF30786C2803D17121AD
:1002F0008DF84210761C12A806903A4616F8013B7B
:1003000002A9504600F064F838B912AA02A9504672
:1003100000F0C8F900287FF564AF404618E02A28AD
:1003200092D13A683A6052F8040B3A6000280F9074
:1003300003D540420F9041F00401761C95E7000080
:100340000000000000000000686A6C747A4C000035
:1003500021B0BDE8F08F622820D0682811D06A282B
:1003600003D06C2827D0712825D10868C01D20F043
:1003700007000860D0E900230830086019461046DD
:100380007047002A0A680A60106803D0121D0A60CC
:1003900000B217E0121D0A6080B217E0002A0A6856
:1003A0000A60106803D0121D0A6040B20AE0121DF4
:1003B0000A60C0B20AE0002A0A680A60106803D026
:1003C000121D0A60C1177047121D0A600021704794
:1003D0007CB50D4611461C462E69B4F1250200F08D
:1003E0004F811C3A00F08480121F022A40F2808064
:1003F0000E3A00F00981521F59D0093A78D0921E66
:1004000016D0521E35D0521E022A71D9121F30D07A
:10041000521F00F09880521E49D0521E00F0E28018
:10042000D21E00F0FF80921E41D0D21E3FD02DE19F
:1004300095F83A406C2C09D06869421C6A610A68D8
:100440000A6052F8043B0A60335429E10A680A60E2
:1004500052F8043B0A600093002201924FF0FF33F0
:100460002B636A46294600F098F9002840F118816C
:1004700003E195F83A000122FFF76DFFC5E900019D
:10048000002904D56869411C69612D220DE0288F7F
:10049000810704D56869411C69612B2205E0C0070A
:1004A00021D56869411C6961202232541BE095F80E
:1004B0003A000022FFF74FFFC5E9000195F8380028
:1004C000010710D5D5E90023002B08BF002A0AD068
:1004D00044F02000782806D1686930213154401C4E
:1004E000421C6A613454214668693044E86087E000
:1004F0000868C01D20F007000860D0E9002308301C
:100500000860C5E90023D5E90001C80F04D0686977
:10051000411C69612D220DE0288F810704D568698F
:10052000411C69612B2205E0C00704D56869411CA4
:1005300069612022325468693044E86021462846C7
:1005400000F036FAACE005F13A02507820B14FF0F5
:10055000FF340FF6043074E01078622808D0682861
:1005600024D06A2812D06C282ED071280ED02BE00F
:100570000A680A6052F8040B0A6020B94FF0FF3491
:100580000FF6EC205DE0E96A017089E00A680A6014
:1005900052F8040B0A6020B94FF0FF340FF6D02058
:1005A0004FE0EA6AD317C0E9002379E00A680A60DD
:1005B00052F8040B0A6020B94FF0FF340FF6B02058
:1005C0003FE0E96A01806BE00A680A6052F8040BB8
:1005D0000A6020B94FF0FF340FF6942031E0E96A49
:1005E00001605DE00A680A6052F8040B0A600021AD
:1005F00020F0000221F0FF33C5E90023EE607821EE
:10060000284600F02DF94BE06C2285F83A200B6863
:100610000B6053F8042B0B6052BB4FF0FF340FF606
:1006200084200EE095F83A206C2AF0D00868086023
:1006300050F8044B0860EC603CB94FF0FF340FF603
:10064000482000F0EBFD201A76BD2E6B002E04D55D
:10065000204600F003FE044608E032460021204612
:1006600000F026FE002814BF041B3446AC6117E0DE
:10067000294600F092F8002812D54FF0FF3076BDE1
:100680006869411C69612522325409E06969481C86
:10069000686125227254210002D0431C6B613454DE
:1006A000002076BD2DE9F0410E4605469046726B5E
:1006B0007069316AB46A121AB069521A716A121AF0
:1006C000F069521A121A96F83800141B41070DD41B
:1006D000002C0BDD2746B0682021A8470028B06019
:1006E00057D0F06A401C7F1EF062F4D17369424615
:1006F0003146284600F098FC00284AD1376A002F7E
:100700000ADDB0683021A8470028B06041D0F06A07
:10071000401C7F1EF062F4D1B369F268314628466E
:1007200000F082FCA8BB776A002F09DDB068302199
:10073000A847B06068B3F06A401C7F1EF062F5D134
:10074000F068B169F36942183146284600F06CFC44
:10075000F8B9B76A002F09DDB0683021A847B0604A
:10076000B8B1F06A401C7F1EF062F5D196F83800EF
:1007700041070BD5002C09DDB0682021A847B060E7
:1007800038B1F06A401C641EF062F5D10020BDE86B
:10079000F0814FF0FF30BDE8F0812DE9F8470D46BC
:1007A000A3B02F6B002F0646904648BF6FF000475E
:1007B0000FF60C1400F0A8FDD4E90023696B401873
:1007C000CDE90123812828BF4FF0FF3042D2002419
:1007D000002F33DDD8F8001001AA684600F0EEFCC7
:1007E0008146B9F1000F38D4D8F8000010B9B9F13A
:1007F000010932D44F4521DB6869484481280AD376
:100800000021696303AA29463046FFF74BFF040025
:1008100014D40020686103ABD5F814A04A46694699
:1008200003EB0A0000F076FDCA44C5F814A058F89E
:10083000040B002818BFA7EB0907C9D14CB903AABC
:1008400029463046FFF72EFF044614B900206861A0
:100850006863204624B0BDE8F0874FF0FF34F8E726
:100860002DE9FC4307466F293E6908BF082405D0DF
:1008700041F02000782814BF0A2410243C25D7E931
:100880000023642918BF69299046994605D1002B99
:1008900003D5D8F1000869EB4909B9F1000F08BF89
:1008A000B8F1000F1FD1386BE8B9082C4CD197F87C
:1008B0003800010748D530203B2586F83B0043E04F
:1008C00000280ED597F8380000F01400102808D141
:1008D0007B6B7969386A5B1A1B1A9A1A002AC8BF9F
:1008E0003A62BDE8F3838DF800104046494622463F
:1008F000E31700F063FD3032D0B26D1E3A28019547
:1009000004DB9DF80000A0F151018A1872554046A1
:1009100049462246E31700F051FD80465FEA01098F
:1009200008BFB8F1000F03D0F86871198842DCD312
:10093000082C09D197F83800010705D5705D3028DB
:1009400002D06D1E30207055C5F13C02BA6171199C
:10095000F960386B8242B3DA821A3A624FF6EF706E
:10096000398F01403987BDE8F3832DE9D04306462E
:100970000F4614464FF00008DFF8109412E0E0072D
:1009800007D542464B463046394600F09BFD0646A9
:100990000F464046494642464B4600F093FD6410E0
:1009A00080468946002CEAD130463946BDE8D083DE
:1009B0002DE9F84F05468A464AF020048EB0D5E965
:1009C0000089612C02AE09D0286B002848BF0620A0
:1009D00003D408BF672C01D101202863D5E90001A9
:1009E0004A005215521C0DD10B030BD0AAF1610124
:1009F00003201A29A86102D20FF2CC6110E00FF295
:100A0000CC610DE04A005215521C0ED10B030CD1E3
:100A1000AAF1610103201A29A86116D30FF2B4616B
:100A2000E868032200F076FCC0E1CDE90C01DDE9C5
:100A30000C2323F00043B3F5801F0DD20027002BB9
:100A400008BF002A019703D111E00FF28461E7E7A4
:100A500001AA00F009FE0AE0CD48CE4900EB135090
:100A6000DDE90C2301900B40CB4910461943C5E941
:100A70000001612C0DD1E86830210170821CBAF1AF
:100A8000610FEA600CBF7821582141706869801CB1
:100A90006861D5E90001CDE90C01DDE90C2333F0F3
:100AA000004104BF0028002300F04881612C40F081
:100AB000A080286B494600284CBF4FF0210B00F165
:100AC000010B404600220023DDE90C8900F004FE02
:100AD00001990BF1010738BF89F00049091F002F68
:100AE00001918DF808200DF1090040F33581A949E5
:100AF00000910646404649460022002300F004FECD
:100B000080F029814800400D00F11C0211D0002A1C
:100B10000FDD40F2FF739A4205DBA04909F0004067
:100B20000143002011E0009B194041EA0251404678
:100B30000BE028F0000039F0004108BF00280FBF8B
:100B400049461C22494600F0F7FD8046894600F0E0
:100B500091FEFF1F002F044609DD00F0A9FE0246AA
:100B60000B464046494600F0B5FE80468946F01DDA
:100B7000072104E004F00F0200F8012D2411002CDD
:100B800001DD491EF6D5491E5CBF002200F8012D8B
:100B9000F9D5DCE00020194602AA0A4400E05B1EF9
:100BA00012F80149491E8442F9D00F2804D10DF1F1
:100BB0000900425C521C4254002904D50198001DD2
:100BC00002AE5B1C0190581E0CD43118AAF13A04F5
:100BD0000A783032D7B23A2FA8BFA218401E01F8C7
:100BE0000129F5D5286B002840F1A780591E2963FB
:100BF000A3E001996A4A47F29750414391FBF2F210
:100C0000019229F00046D2F1070204DD4046314648
:100C1000FFF7ABFE0AE0524200206249FFF7A5FE53
:100C200002460B464046314600F0C6FE8046662C22
:100C3000286B06BF019F0A3706273F18142FC8BF2D
:100C4000142730208DF8080089460DF1090000E0D6
:100C50003046002F34DD06464046494600F0D0FFBE
:100C600001460A4606F1080304200A26B2FBF6F6FE
:100C700006EB860EA2EB4E02303203F8012C0A225C
:100C8000B6FBF2F202EB820EA6EB4E063036401EA9
:100C900003F8026DE9D1083F002F03F10806D7DD04
:100CA000084600F0C1FF02460B464046494600F0A8
:100CB00011FE00223C4B00F005FC80468946CBE744
:100CC0000DF10901401A0DF1090604E00199491ED0
:100CD000401E0191761C31783029F7D0662C02D164
:100CE0000199491C03E0652C0CBF012100212B6BED
:100CF000CB189842B8BF431E002B1ED4834204DA9F
:100D0000F05C3528A8BF392000DA30201946721E61
:100D100002EB010800E05B1E18F80199491E8145AD
:100D2000F9D0392802D1705C401C7054002904D5D8
:100D30000198401C16465B1C0190019800B200907F
:100D40001BB232465146284600F034F82EE0C61D4C
:100D5000002F3FF7CFAE30460DF10901401A034690
:100D60005845C8BF5B46002B0DF109063FF53AAF69
:100D70008342BFF60FAF0DF10900C15C07297FF771
:100D800009AF0F2007E70000CBCCCC0C00002440BB
:100D900002FCFFFFFFFF0F800000E03F0000F07F3C
:100DA000A08601000000F03F84D797410FB0BDE856
:100DB000F08F00002DE9F84783B006468A461746B3
:100DC000984600F0FDF9B8F1000F406A356B90F8D5
:100DD000009002DC4FF00108BFA74AF02000BDF9E7
:100DE0003040662808BF641C15D0672840F0848016
:100DF00014F1040FC0F28680AC4280F2838096F832
:100E00003800641C010702D4A845B8BF454620B28B
:100E10002D1A48BF00250FFA84FAF068B169BAF1BB
:100E2000000F25DC4A1C30234354002D03DC96F8C8
:100E30003800010703D5F06800F80290521C15EB4A
:100E40000A0FB8BF6C4220B2441941424445B8BFB2
:100E5000A046B26171620FFA88F5F561F068B36976
:100E60002A463946184400F055FA641BB462C4E0BF
:100E700022B29045084417DA4246394600F04AFA51
:100E8000B0694044B061AAEB0801002D716203DC37
:100E900096F838100A0705D5F16801F80090F06956
:100EA000401CF061B562A8E0394600F033FAB06941
:100EB000002D5044A8EB040803DC96F838100A070C
:100EC00003D5F16801F80090401CB0610FFA88F07A
:100ED0008542F368B069B8BFA8460FFA88F207EBFD
:100EE0000A01184400F016FAB1690FFA88F00144BB
:100EF000B161281A706280E0BAF1610F14D14FF02D
:100F0000700A16E0A84504DA96F838100A0758BFA8
:100F100045466D1E48BF0025BAF1670F14BF4FF05C
:100F2000450A4FF0650A04E0BAF1410F08BF4FF0DF
:100F3000500AB169F368481CB061002D17F8012B05
:100F40005A5403DC96F838100A071BD5F168431C85
:100F5000B36101F80090002D14DDA8F101080FFA2B
:100F600088F039468542F768B8BFA8460FFA88F27C
:100F7000F81800F0CFF9B0690FFA88F108446D1A3B
:100F8000B0617562F068B1690844002C80F800A077
:100F900003D42B224270811C03E02D214170644256
:100FA000811C00206A460AE023460A2493FBF4F4DD
:100FB00004EB8405A3EB450302F8013B401C24B27B
:100FC000002CF1DC012806DC4AF02002652A04BF6F
:100FD000302201F8012B48B9302001F8010B07E05D
:100FE000401E1DF80030303301F8013B0028F7DCCB
:100FF000F268B0691044091AF16196F8380000F0FF
:10100000140010280DD17269B169706A8A18F169EB
:101010008218B06A8A188218706B8242BCBF821A2A
:10102000326204B0BDE8F087F8B505460E461746B3
:101030001C46002074B117F8011BB068A847B060C7
:1010400030B1F06A401CF0620020641EF3D1F2BDA2
:101050004FF0FF30F2BD00007072696E74665F730E
:101060003A20256E20646973616C6C6F776564004B
:101070007072696E74663A2062616420256E206128
:101080007267756D656E74007072696E74665F73F9
:101090003A2062616420257320617267756D656E08
:1010A000740000007072696E74665F733A2062614A
:1010B0006420256C7320617267756D656E74000025
:1010C00000000000000000006E616E004E414E0006
:1010D000696E6600494E46003000F0B40246106862
:1010E00095681318506803EB5004C0071DD54D4494
:1010F0001BE013F8017B05F8017B491EF9D1A0B173
:10110000B60813F8011B06F00306032E08BF13F8F8
:10111000016B01EB06214942801C294405D011F8DE
:10112000016B05F8016B401EF9D1A3420ED013F8F4
:10113000016B16F0030104BF13F8011BC91C300931
:101140000F28DAD113F8010B0F30D6E7F0BC02F10B
:101150000C0070471B48704770B45368D418042BB8
:1011600009DA41B1057804F8015B10F8016B16B19A
:101170005B1C491EF3E7536070BC704738B51446DA
:101180001D4661B1FFF7E8FF61686A6B2046904732
:101190006FF00102811A02D0491E01D001E003E084
:1011A00005E00021616032BD6FF0010032BD4FF0FB
:1011B000FF3032BDDA6B1047024BDFE7014BF9E736
:1011C00001487047D8000020A0000020C9B2027872
:1011D0008A421AB11CBF10F8012FF9E718BF00208E
:1011E000704730B4002513E050F8042BD30744BFF8
:1011F000A9F101039A18091F042942F8045BFAD2E5
:1012000013468C0744BF15809B1CC90748BF1D703F
:1012100050F8041B0029E7D130BC704780B500B9F5
:1012200006A005490B681BB122220021984701E066
:1012300000F007FD222002BD74020020636F6E7370
:10124000747261696E742068616E646C65723A20B4
:10125000626164206D6573736167650000F101036D
:10126000810704D010F8011B820781B1FAD102680E
:10127000A2F10131914311F0803104BF50F8042FE5
:10128000F6E709BAB1FA81F100EBD100401CC01AAF
:101290007047B1F5807F02D34FF0FF307047017087
:1012A000012070470078401E8041C043C00F704746
:1012B000C9B2830706D0521E22D310F8013B9942CF
:1012C000F7D11FE0083A13D302F1040241EA0121E9
:1012D00041EA014150F8043B121F21BF4B40A3F1EA
:1012E000013C2CEA030C1CF0803FF3D0C9B2001F74
:1012F000083210F8013B521E28BF91EA030FF8D8BC
:1013000018BF0120401E704780B5FFF723FF006C17
:1013100002BD000062B38B0708D0521E11F8013BDA
:1013200000F8013B00F024808B07F6D1830740F0E2
:10133000208000BF103A07D330B4B1E83810103A1B
:10134000A0E83810F9D230BC530724BFB1E8081028
:10135000A0E8081044BF51F8043B40F8043BD20712
:1013600024BF31F8022B20F8022B44BF0B78037006
:101370007047121F17D35B0009D151F8043B20F8C6
:10138000023B1B0C121F20F8023BF6D20BE051F877
:10139000043B00F8013B1B0A20F8023B1B0C121F08
:1013A00000F8013BF3D238BF121D521E24BF11F8C2
:1013B000013B00F8013BF8D870470000D3BBD9B11E
:1013C000B2F5803F5BD2022A1ED98C46B1FBF2F106
:1013D00002FB11C31B0443EA1043B3FBF2FC02FB04
:1013E0001C3380B240EA0343B3FBF2F002FB10323D
:1013F00040EA0C4000237047022A05D98446B0FB1E
:10140000F2F002FB10C270474AB105D100F00102B0
:1014100049085FEA3000704700220023704700F05F
:1014200013BC0B000200002100207047F7D30022FC
:1014300000237047904271EB030CF2D370B5B1FA00
:1014400081F4B3FA83F52C1BA340C4F1200532FAD2
:1014500005F63343A2405FF00046E64002E05B0839
:101460005FEA3202841A71EB030524BF2046294645
:101470007641F4D302000B003000002170BD70B53E
:10148000B1FA81F4B2FA82F5C4F120046419B4F11E
:101490002006DAD3B2405FF00044F440002502E0B9
:1014A00052085FEA3303C61A71EB020E24BF3046BE
:1014B000714664416D41F3D302000B002000290006
:1014C00070BD0000B0B581EA030C0CF0004C40F296
:1014D000FF7515EA11541DBF15EA1357AC42AF4210
:1014E00039E0E41923EA455343F48013C90241F07B
:1014F000004141EA505EC7021100A7FB020200282A
:101500004FF00000EEFB01204FF00001E3FB07214C
:1015100018BF42F00102401800214941E3FB0E01CF
:10152000A4F580640F0302D252004041494154F1B6
:1015300001046CDD470872F1004250F1000051EBEC
:101540000451A1F580115CBF41EA0C01B0BD4CEA29
:1015500005510020B0BD05EA1357AC4214BFAF429D
:1015600041E050EA410E1CBF52EA430E02E06146E0
:101570000020B0BD24423C441BD15FEA070EF6D0E8
:10158000090302BF01460020AEF1140EB1FA81F743
:10159000AEEB070401FA07FE0C37C7F1200100FA91
:1015A00007F7C8404EEA000E23EA455343F4801380
:1015B000A2E733F00043B3FA83F704BFB2FA82FE26
:1015C00077440B3FE41BB7F1200E2FBF02FA0EF356
:1015D000BB40C7F1200E22FA0EFE38BF43EA0E03CD
:1015E000BA40641C82E750EA410E14BF52EA430E2F
:1015F0006FF000014FF4001717EB430F8ABF194635
:1016000017EB410FB5E74CEA05510020B0BDD4F10E
:101610000104B4F120070FDAC4F12007520828BFF3
:1016200042F0010210FA07F501FA07F7E1BF2A4379
:10163000E0403843E1400FE0352C98DCC7F120044E
:1016400052EA400220FA07F218BF42F0010231FAD2
:1016500007F0A1400A43002172F1004250F100005E
:1016600051EB0C01B0BD000010B5144600F002F8BB
:10167000226010BDC1F30A5343B14A0012F5001FA6
:1016800028D2A3F2FE32A1EB0251704750EA410C7E
:1016900020D001F0004C31EA0C01B1FA81F204BF14
:1016A000B0FA80F3D2180B3AB2F120032CBF00FA43
:1016B00003F1914041EA0C013EBFC2F1200C20FA37
:1016C0000CF319439040524240F2FD33D21A01EB21
:1016D00003517047002270474FF4001C1CEB410F70
:1016E00094BF1CEB430F09E041EA030C50EA4C0C99
:1016F00052EA0C0C03D2994208BF9042704714BFC3
:101700008B428242704700004FF4001C1CEB410FDB
:1017100094BF1CEB430F09E041EA030C50EA4C0C68
:1017200052EA0C0C03D28B4208BF8242704714BFAE
:101730009942904270470000124254D440F2FF7C1C
:101740001CEA11530FD0634531D09B1863453CBF51
:1017500001EB0251704701F0004141EA0C510020B9
:10176000AFF30080704750EA410320D001F0004CF5
:1017700091EA0C011CD0B1FA81F30B3B9A420DD9CE
:10178000D21A994051EA0C01C3F1200C20FA0CFC4A
:1017900061449840531C40F2FF7CD7E7914041EAF6
:1017A0000C01C2F1200C20FA0CF319439040704751
:1017B000B0FA80F31533202BE0D3202AEED3203A61
:1017C000203B9A4209D9D21A00FA03F141EA0C01EE
:1017D0000020531C40F2FF7CB8E700FA02F141EA16
:1017E0000C0100207047524240F2FF7C1CEA11536A
:1017F0000DD06345DBD0B2EB030C3CBFA1EB025133
:1018000070470CF1010221EA035141F4801150EAC2
:10181000410CCCD001F0004C352A27DC30B481EAF1
:101820000C01B2F1200309DAC2F12003044601FAE7
:1018300003F5D0402843D1409C400CE0C3F1200286
:10184000450020FA03F418BF44F0010421FA03F024
:1018500091400C43002174F1004550F1000051EB20
:101860000C01244230BC7FF47BAF704761460020FE
:1018700076E70000C1F30A5340F2FE329B1A14DDF2
:10188000D3F120034FEAE17208DDC90241EA505169
:1018900041F00040D84080185040704703F2E130DA
:1018A00010B1D24382F00040704700207047000022
:1018B000C11768B14840401AB0FA80F29040D21C7B
:1018C000C907C2F5846241EA025202EBD021400509
:1018D0007047000070B44FF0004591EA030F40F1EB
:1018E000B5816B40841A71EB030603D2001BB14132
:1018F000121973414FF4001C1CEB410F34BF7CEBF9
:10190000430442E00C0DA4EB1356352E4FDC45EAA0
:10191000C323DB0A45EAC121C912B6F120050DDD5A
:1019200063FA05F6EB4086EA0305124218BF45F05C
:101930000105C01851F100010CD213E062FA06F55E
:10194000F2405540F3415A40B340F3405A408018AA
:10195000594107D349085FEA30005FEA350528BFDF
:1019600045F0010501F58011420875F1004250F182
:10197000000041EB04514E0016F5001F70BC38BF4B
:1019800070470020090D090570471CEB410F10D26C
:1019900052EA43060BD0BCEB410F05D80C0DAB430C
:1019A000661E342EB6DD02E0AB438018594170BC90
:1019B000704770BC70470000F0B540F2FF7581EAD7
:1019C000030C0CF0004C15EA11541DBF15EA135717
:1019D000AC42AF42E5E0BC41C1F31301C3F31303D2
:1019E000801A994143F4801304D2641E4000494197
:1019F00080185941C90241EA5051B1FBF3F603FB8B
:101A00001611A2FB0675D7EBC020A94102D2761EA3
:101A100080185941C90241EA5051B1FBF3FE03FB62
:101A20001E11A2FB0E75D7EBC020A94103D2AEF167
:101A3000010E80185941890241EA9051760546EA23
:101A40008E2EB1FBF3F603FB1611A2FB0675D7EB46
:101A50008020A94102D2761E80185941C90241EA6C
:101A600050514EEA060EB1FBF3F603FB1611A2FB32
:101A70000675D7EBC020A94102D2761E80185941C5
:101A8000C90241EA5051B1FBF3F703FB1711A2FB66
:101A90000735D3EBC020A94167F100070CBF004216
:101AA00047F0010766F3D5274FEA1E31B80814F551
:101AB000806412DDBD0775F1004250EB0E5051EB12
:101AC000045111F5801F5CBF41EA0C01F0BD4CF0E0
:101AD0007F6141F0E0410020F0BDBD076D0840EAA4
:101AE0000E5041F48011D4F10104B4F120060ADA59
:101AF000C4F120060200E04001FA06F3E140184379
:101B0000B24015430EE0342C13DCC6F1200445EA44
:101B100040056D0820FA06F2154321FA06F0A140AF
:101B20000D43002175F1004250F1000051EB0C0112
:101B3000F0BD00205FEA0C01F0BDCFB992185B4107
:101B4000B3FA83F704BFB2FA82F6BF190B3FB7F1BD
:101B500020062FBF02FA06F3BB40C7F1200622FA87
:101B600006F638BF3343BA401CB1E419641E33E7AC
:101B70007F4231F00041B1FA81F404BFB0FA80F63F
:101B8000A4190B3CB4F120062FBF00FA06F1A140C6
:101B9000C4F1200620FA06F638BF3143A0403C1BB2
:101BA0001AE7AC421ABF05EA1357AF4212E050EAF7
:101BB00041061CBF52EA4306BFE750EA41073046E0
:101BC00061461CBF41EA0551F0BD52EA430C08BF13
:101BD000C143F0BD00204FF4001616EB410F98BF33
:101BE00016EB430F08BF16EB410F24BFC14305E0BE
:101BF00016EB430F0CBF61464CEA0551F0BD0000E7
:101C0000400D491840EA81200CD2490DA1F58061B0
:101C1000491C40F0004005DBD1F11F0154BFC84012
:101C2000C017704700207047014648B1B0FA80F1F4
:101C30008840C91CC1F58461090501EBD02140052C
:101C40007047012000F0B8B870470000841A71EBAB
:101C5000030604D26E40001BB141121973414FF4C8
:101C6000001C1CEB410F34BF7CEB430683E00C0DE2
:101C7000A4EB1356362E00F37C80012E45EAC323D5
:101C800041DC43EA525312BFD20292025B082405A0
:101C900045EAC12141EA5051D2EBC020994125D4F7
:101CA00007D1B0FA80F610FA06F162D00020203693
:101CB00008E0B1FA81F6B140C6F1200220FA02F242
:101CC0001143B0404FEAF474B4EB465434F00106CB
:101CD0004FEA74040AD8D6F50016760D04F00044D5
:101CE000F04061FA06F25040F1404840C00A40EA34
:101CF000415021F0004128BF5FEA500550F100003B
:101D000044EBD12135E0DB0A45EAC121C90AB6F12D
:101D100020050EDD42EA0242120CC5F1200603FA4C
:101D200006F6EB4042EA06056D42984161F100017A
:101D30000DE062FA06F5F240554063FA06FC82EACD
:101D40000C02F3405A406D42904161EB030111F4E3
:101D5000801F05D1641E620502D06D0040414941DB
:101D600021F48011430875F1004350F1000041EB6C
:101D7000045170BC70471CEB410F15D223F0004397
:101D800052EA43060BD04FEA4C0CBCEB410F04D88F
:101D90000C0D661E342EB7DDEBE7801A994150EA30
:101DA000410608BF0021E4E708BF1CEB430F28BF32
:101DB0006FF00001DDE7000080B5AFF30080024A5C
:101DC00011001820ABBEFBE726000200F8B50400A6
:101DD00025D004F13C05697821B9002028702046FF
:101DE00000F0DEFC2421697020680268520852006D
:101DF00002602068016841F40041016020680268C7
:101E000022F40042026000F053FD01466068DFF8F2
:101E10007023904205D2DFF8AC33994205D20120FD
:101E2000F2BDDFF8A4038142F9D32068DFF89C33C8
:101E30004668B1FBF3F3B60943EA861646602668A6
:101E4000376A6068904206D34FF4967043434FF46C
:101E50007A70B3FBF0F35B1CBF0943EA871333626C
:101E6000491E2368DE696768974206D27F0000F04A
:101E700043F8042913D2042111E0A06820B907EB2C
:101E8000470700F039F805E01920474300F034F81F
:101E900041F4804108050CBF012141F40041DFF805
:101EA000300306400E43DE6122681368E169206A50
:101EB00023F0C0030B43034313602268DFF81403CD
:101EC000936821690340E0680B43034393602168F2
:101ED000CA68A3696069120A034343EA0222CA601E
:101EE0002068016841F00101016000206860202144
:101EF00069702063A870F2BDB1FBF7F1491CC1F312
:101F00000B01704738B5040001D1012032BD04F146
:101F10003C052420687000F08AFA00F019FD0020CA
:101F2000686068702063A870287032BD308D72625E
:101F3000411E3185708D411E718570474146204696
:101F400000F0A6BB2DE9FC4700F082F800F07AF81B
:101F500055D100F06FF8002851D1387801284ED0C3
:101F600000F062F801D400F099F94146D6F800E09B
:101F70000C9D0B98DDF828C0DEF8008028F400687E
:101F8000CEF800804FF0210E87F801E04FF04008B6
:101F900087F802804FF0000EC7F804E000F005F962
:101FA00000F057FA002825D108E0716A0A7802612A
:101FB000706A411C7162308DFFF7BAFF308D88B1B5
:101FC00000F02DF888B900F01DF8308D411E3185E4
:101FD000708D421E7285306842695307EED589B212
:101FE0000029E2D100F016F830B17868042801D158
:101FF00000F0E1FA012003E000F030F800E00220F8
:10200000BDE8F687706A326801781161706A411C18
:102010007162704722462946304600F063BB224673
:102020002946304600F034BB01213970306802681F
:10203000D1077047009419230122DFF8C4133046FA
:1020400000F0C2BA06F13C070446787820287047B1
:102050000646884691469A4600F07CBC3068016886
:1020600041F400710160202078700021B9700020D7
:10207000387070472DE9FC47FFF7EAFFFFF7E2FFF2
:1020800072D1FFF7D7FF00286ED1387801286BD0C6
:10209000FFF7CAFF01D400F001F94146D6F800E08D
:1020A0000C9D0B98DDF828C0DEF8008028F400684D
:1020B000CEF800804FF0220E87F801E04FF0400884
:1020C00087F802804FF0000EC7F804E000F06DF8CA
:1020D00000F002FA002840D1308D18B1012804D157
:1020E00000F0A7F800F04EF817E0022807D130689A
:1020F00000F09AF800F070F80020009001E0002154
:102100000091316800F08DF907E000F088F80028B0
:1021100023D100F067F8FFF709FF308D002826D0A3
:10212000042817D20128F0D000F024F80AD100F0DA
:1021300071F8002811D100F083F8716A0870706A94
:10214000421CE8E700F066F8002806D100F08DF8A0
:1021500018B9F0E700F063F808B1012005E000F0DD
:1021600048F8DAD50069E8E70220BDE8F68700F014
:1021700015F8FAE70228DFF8988200942B4670479A
:10218000A1860100009031684A6900928B69009332
:1021900000980A6842F400720A6070472020787044
:1021A0000021B970002038707047C6F824C07085CF
:1021B0005346708D30854A463B48F0620194009545
:1021C0003046704780841E0000093D0040420F00E9
:1021D0000030FFFF007CFFFF3068026842F40062BD
:1021E0000260704730680169706A0170716A4A1C48
:1021F000704730680169706A0170716A308D4A1CDD
:10220000411E72623185708D411E71853068416951
:102210004A07704700224146304600F0D5B92246B1
:102220002946304600F07ABA016821F480610160E5
:1022300070473068016821F48061016000207047B8
:102240003068016841F40071016030680169706AAA
:102250000170716A308D4A1C411E72623185708D29
:10226000411E71853268106970473068016821F439
:10227000806101602B4630680169706A0170716A83
:10228000308D4A1C411E726231850022708D411EC4
:10229000718500944146304600F096B9026842F0DC
:1022A00001020260704700000000FFFF2DE9F84FB7
:1022B00004468B4691469A4600F04CFB04F13C07DD
:1022C00005467878012620285FD1DFF83481009513
:1022D00019230122414600F0B5F8002855D138787D
:1022E000012852D03E7000F075F800F06DF82420FF
:1022F000787000217960DFF81C01E06200F079F865
:102300000095534600F09BF8F8B921680BF0FE00E9
:10231000086100F01FFB05462168486949697A7821
:102320004008890AA02A00F0010001F001012FD025
:1023300008432DD100F00EFB401B824502D3BAF1B9
:10234000000FE9D1A0207870E6E720680168CA058F
:1023500044BF4FF400707860032017E00020009025
:10236000192321684A690092012289690091414636
:102370000098009500F066F828B9202078700021B8
:102380003970002002E0012000E00220BDE8F28F59
:1023900020207870206841698A0700F00DF9DDD4AB
:1023A00022686FF480605061009519230122414634
:1023B00000F048F80028E6D1761C4E459ED3202038
:1023C000787000213970DEE72068016821F400612F
:1023D0000160704720680268D10703D4026842F0A8
:1023E0000102026070473068016841F48071016049
:1023F00070472068016841F48071016070470000F7
:1024000002001000016841F4806101607047000023
:10241000040001000000FFFF90F83D007047006CD1
:1024200070474A6900928969009100987047206856
:102430000168490849000160204670474346002270
:102440004FF001112046BFE04B4642465146204620
:10245000E2E02DE9F84304462068DDF82080099F7A
:102460008946016841F4807115461E460160009757
:10247000FFF7E4FF40B120680168CA0544BF4FF48C
:1024800000702064032025E0206809F0FE0101614E
:102490003B4642464B49FFF7DAFFA8B90090216856
:1024A00000F07AF8FFF74BFD40B9012E0ED02168FD
:1024B000280A08613A46FFF741FD38B1206C04282C
:1024C00002D1206800F078F8012003E02068EDB226
:1024D00005610020BDE8F2832DE9F84F0546286824
:1024E000DDF828800B9F0C46FFF78CFF1646286806
:1024F000016841F480719946016000F055F80028A8
:102500004FF4007A2CD12968DFF8B8B004F0FE004F
:10251000086100F038F8002832D10090296800F0F6
:102520003BF800F037F870B9B9F1010F05D0296810
:10253000300A086100F02CF828B92868F6B2066164
:1025400000F026F830B1286C042819D1286800F072
:1025500033F815E02868FFF747FF00F025F838B199
:1025600028680168CA0548BFC5F840A0032008E0F4
:10257000286844F00104E4B2046100F004F800B1FA
:102580000120BDE8F28F3B4642465946284643E0CB
:102590003A46414628467BE04A6900923A468969B4
:1025A00000914146009870470097434600224FF043
:1025B0000111284608E03068016841F400710160AB
:1025C00070470000020001002DE9F041069F05461A
:1025D0000E4690461C4631022868090E01290CBFA0
:1025E00040698069304080B2B1B288420CBF01209E
:1025F000002040450DD114F1010FECD000F0AAF9F4
:10260000C01B844201D3002CE5D100F05DF801200D
:1026100000E00020BDE8F081F8B505460E461446FE
:102620001F463102090E286801291BD1416931403A
:1026300089B2B2B291421BD041694A051AD5FFF75F
:10264000BBFF6FF480602A685061002105F13C00F7
:102650002963202242708170426842F00402426085
:10266000017013E08169314089B2B2B29142E3D185
:102670000020F2BD14F1010FD3D000F06BF9C01BA4
:10268000844201D3002CCCD100F01EF80120F2BD11
:1026900070B505460C46164628684169080611D4EF
:1026A000284600F067F858B914F1010FF4D000F093
:1026B00051F9801B844201D3002CEDD100F004F8C5
:1026C000012070BD002070BD00202863202105F18D
:1026D0003C00002241708270416841F0200141605D
:1026E0000270704770B505460C4616462868416969
:1026F000480711D4284600F03DF858B914F1010FED
:10270000F4D000F027F9801B844201D3002CEDD1D6
:10271000FFF7DAFF012070BD002070BD70B50546DF
:102720000C461646286841694A0617D44169CA060C
:102730000BD400F00FF9801B844201D3002CF1D19F
:1027400000F00EF841F0200104E06FF0100141614B
:1027500000F006F841600270012070BD002070BDDD
:1027600000202863202105F13C0000224170827086
:102770004168704701684A6953050FD56FF480625C
:102780004A61002101633C3020224270817042681E
:1027900042F004024260017001207047002070473F
:1027A000704700002DE9F04104000F4678D0494EF3
:1027B000306800F00F00B84202D200F073F86FD119
:1027C0002068454D810712D5400703D5A96841F41B
:1027D000E051A9602078010703D5A86840F4604063
:1027E000A860A968A06821F0F0010143A9602178E0
:1027F000C8074DD56068012802D129688A0305E021
:10280000022818BF032803D129688A0103D447E0AE
:1028100029688A0744D5A968890840EA8100A86028
:1028200000F098F88046A868616800F00C00B0EBF2
:10283000810F2DD000F08EF8A0EB080041F2893115
:102840008842F0D3032021E02078410705D5AA680B
:10285000E06822F4E0520243AA602178080706D516
:10286000A968206921F4604141EAC001A96000F033
:102870003FF8AA6819491A4BC2F30312895CC84091
:1028800018601848006800F06BF80020BDE8F0817F
:10289000306800F00F008742D6D200F003F8D3D0A2
:1028A0000120F3E73770316801F00F01B94270473A
:1028B0000B480D4A006813680C49C3F3822206E0F6
:1028C0000748094A006813680849C3F34232895C23
:1028D000C8407047003C024000380240984200085F
:1028E0009C0000204400002008380240E04300081B
:1028F00030B5144C606800F00C00042802D00828A1
:1029000002D01DE0104830BD22682068002341023B
:1029100002F03F0204D525680B49C5F3881003E097
:1029200020680A49C0F38810A1FB0001FEF746FDAC
:102930002168C1F30141491C4900B0FBF1F030BDF1
:10294000024830BD0438024000127A000024F4002E
:102950007047000001484068704700BF3C000020FD
:1029600038B50D4D0D4B2A7804464FF47A7118682E
:10297000B1FBF2F2B0FBF2F000F053F850B9102CBA
:1029800008D2002221464FF0FF3000F023F8AC605F
:10299000002032BD012032BD3C0000209C00002000
:1029A0000901020006D5294A00F00F00104400F882
:1029B000041C7047264B19547047264B19684FF674
:1029C000FF020002114000F4E0600843224908437E
:1029D0001860704738B51F4B1C68C4F30223C3F15D
:1029E0000704052C28BF04241D1D072D34BF002318
:1029F000DB1E012505FA04F4641E2140994005FA06
:102A000003F35B1E1A401143BDE83440C8E70122BE
:102A100000F01F01114BFFE78A40400943F82020D6
:102A2000704710B5401EB0F1807F01D3012010BD6A
:102A30000B4C60600F214FF0FF30FFF7B1FF00211A
:102A4000A16007202060002010BD000018ED00E00C
:102A500000E400E00CED00E00000FA0500E100E019
:102A600010E000E038B500244FF0FF35B0B10A683F
:102A700002604B684360CA68C2600B6903618A6880
:102A8000826049690FF2B12241610062C2610FF2B6
:102A9000B9218161006808B1804700B12C46204609
:102AA00032BD1CB50446606A58B9694604F1180085
:102AB00000F078F99DF80000242818BF262800D0DF
:102AC000C2E001206062002016BD183000F06AB933
:102AD0000246A620926810471CB500F086F800F068
:102AE0009FF918B99DF800002080002016BD02B59E
:102AF0006946183000F099F902BD10B50446104639
:102B0000D8E02DE9F84F064688461F46914640F228
:102B100001108742ACBF4FF4807ABA46F46853463E
:102B200042461FFA89F1A620A047050014D170691A
:102B300080478346B2680121A62090470446706909
:102B40008047A0EB0B00B0F5A07F02D2002CF1D1A2
:102B500002E00CB16FF00205A7EB0A07D044D144A4
:102B6000BFB20FB1002DD2D02846BDE8F28F2DE9BB
:102B7000F84F06461F469046894640F201108742AC
:102B8000ACBF0025FDB2F4682B464A461FFA88F117
:102B9000AE20A0475FEA000A14D1706980478346DF
:102BA000B2680121A6209047044670698047A0EBD7
:102BB0000B00B0F5A07F02D2002CF1D102E00CB1E5
:102BC0006FF0020A7F1BA944A844BFB217B1BAF143
:102BD000000FD2D05046BDE8F28F28B99DF8000012
:102BE00000B101202070002016BD0C466946183047
:102BF0007047F0B585B000F020F80925FFE78DF8A3
:102C000008500020C0F10301C9000DEB000226FAB4
:102C100001F31370401C27FA01F313710428117893
:102C2000137951725373EDDB11234FF4106269462F
:102C30002046FFF79CFF05B0F0BD04460E46174640
:102C40006846142100F032B94FF0FF3016BD1CB5B4
:102C5000FFF7CBFF00F0B1F8BFE780B500F003F855
:102C600000F0B4F802BD8DF80010183069467047C6
:102C700038B540F201150446AA42104602DB4FF077
:102C8000FF3032BD00F500500A46083081B2246999
:102C9000A620A04732BD10B5134640F20112934260
:102CA000044604DA0A46E46842F2080108E04FF0FC
:102CB000FF3010BD0A4601462469A620A04710BD7A
:102CC000A620A04710BD1CB5FFF78FFF00F0E1F86C
:102CD00083E71CB5FFF789FF00F09CF8E8B99DF881
:102CE000000000F0010020709DF80000C0F34000DB
:102CF00060709DF80000C0F38000A0709DF8000097
:102D0000C0F30010E0709DF80000C0F34010207187
:102D10009DF8000080096071002016BD80B501217A
:102D200001E080B50021FFF79EFF00F06EF802BDC4
:102D3000183000F05BB8000038B504698D044CBF52
:102D4000A620AE20A04732BDF8B506468D04F46833
:102D500002D5A620A047F2BDAE20A047050013D1A2
:102D6000706980470746B2680121AE20904704464B
:102D700070698047C01BB0F5A07F02D2002CF2D151
:102D800002E00CB16FF002052846F2BD10B5044612
:102D9000A0686468A04710BD10B50446A068246808
:102DA000A04710BD80B50A4601231721FFE7FFF7B2
:102DB000EDFF08B14FF0FF3002BD10B500F043F851
:102DC0000D21FFF7E3FF00B116E018E038B500F081
:102DD00035F80D21FFF7DAFF28B900F038F80D219A
:102DE00000F02AF808B14FF0FF3032BD80B50A4636
:102DF000012342F20701DAE74FF0FF3010BD2078DF
:102E000000F001002070002010BD7CB50D4642F29C
:102E1000060626E080B50A46012342F20601C6E70F
:102E200080B50A4601230021C1E780B50A46012387
:102E30000021FFF7B1FFBCE72046ADE70D46044691
:102E400001236A4670470C460123224670472878C2
:102E50009DF8001060F300018DF8001001236A4610
:102E60007047044601236A463146FFF78FFF68B971
:102E700028789DF8001060F300018DF80010012300
:102E80006A4631462046FFF787FF08B14FF0FF3012
:102E900076BD10B5FFF7D7FF42F20401FFF776FFCA
:102EA00008B1FFF7A9BFFFF7AABF0000002200F09A
:102EB00001B8000000B500BF1300964694461039D3
:102EC00028BFA0E80C50FAD85FEA417C28BF0CC0AC
:102ED00048BF40F8042BC90728BF20F8022B48BF81
:102EE00000F8012B00BD00002DE9F843040016D0C6
:102EF0002078DFF80863C10713D5B06800F00C0034
:102F0000042807D0B06800F00C0008283ED1706893
:102F100041023BD53068810303D56068002800F08A
:102F2000FF802078B64F810719D5B06810F00C0FDC
:102F300007D0B06800F00C0008285CD1706841022E
:102F400059D43068810703D5E068012840F0E88053
:102F50003168206921F0F80141EAC001316021782F
:102F600008076CD56069A749002862D001220A6071
:102F7000FFF7F0FC0546706F810700F1D380FFF783
:102F8000E9FC401B0228F6D9032034E16068B0F563
:102F9000803F04D1306840F48030306011E0B0F5FB
:102FA000A02F306806D140F480203060316841F4B1
:102FB000803105E020F480303060316821F48021D8
:102FC0003160606858B1FFF7C5FC05463068810381
:102FD000A7D4FFF7BFFC401B6528F7D3D4E7FFF762
:102FE000B9FC0546306881039BD5FFF7B3FC401B55
:102FF0006528F7D3C8E7E06870B101213960FFF7B1
:10300000A9FC05463068810700F1B880FFF7A2FCF3
:10301000401B0228F6D9B7E73860FFF79BFC05464E
:10302000316888079BD5FFF795FC401B0228F7D92C
:10303000AAE70860FFF78EFC0546706F810771D51F
:10304000FFF788FC401B0228F7D99DE70528306F61
:1030500006D140F004003067306F40F0010005E019
:10306000400840003067306F20F00400306741F2C4
:103070008938A06868B1FFF76DFC8146306F810721
:1030800000F18980FFF766FCA0EB09004045F5D30D
:103090007AE7FFF75FFC8146306F81077BD5FFF74A
:1030A00059FCA0EB09004045F6D36DE7FFF752FC51
:1030B000401B022840F2828066E7FFF74BFC001BB2
:1030C000022840F293805FE700203866FFF742FC59
:1030D00004463068810140F18D80FFF73BFC001B06
:1030E0000228F6D950E701281AD07068E26900F486
:1030F0008001914202BF00F03F01226A91420FD14C
:1031000047F6C071626A0140914202BF00F440314B
:10311000A26A914202BF00F07060E16A884269D001
:10312000012068E0207841073AD5306C0025C100C5
:103130000AD400950125316C41F080513164306C26
:1031400000F0805000900098DFF8BC80D8F80000B4
:10315000C1051BD4D8F8000040F48070C8F8000006
:10316000FFF7F8FB8146D8F80000C1050ED4FFF741
:10317000F1FBA0EB09000228F5D905E730682169C9
:1031800020F0F80040EAC1003060E8E6A0680128BD
:103190007FF45CAF60E71DB1306C20F0805030648C
:1031A000A06938B3B16801F00C0108299BD002284E
:1031B0008AD100203866FFF7CDFB054630688101D3
:1031C0003FF574AFE269206A616A0243A06A400871
:1031D00042EA8112401E42EA0042E06A42EA00628C
:1031E000726001213966FFF7B5FB04463068810142
:1031F0007FF563AF0020BDE8F28300BF00380240D6
:1032000000004742800E4742007000402D2D2D2DBA
:103210002D2D2D2D2D2D2D2D2D2D2D2D2D2D2D2DDE
:103220002D2D2D2D2D2D2D2D2D2D2D2D2D2D2D2DCE
:103230002D2D2D2D000000000A0D2A2A2A2A2A579A
:10324000656C636F6D6520746F20782D63756265A2
:103250002D6E666334206578616D706C652A2A2A4C
:103260002A2A00000A0D2D2D2D2D2D2D2D2D2D2D31
:103270002D2D2D2D2D2D2D2D2D2D2D2D2D2D2D2D7E
:103280002D2D2D2D2D2D2D2D2D2D2D2D2D2D0000C8
:103290000A0D0A0D20546869732070726F6772619D
:1032A0006D2077696C6C2073686F7720796F75205B
:1032B0006261736963206578616D706C65206F6E03
:1032C00020686F7720746F2075736520746865209F
:1032D0006D61696C626F78206F6E20493243207394
:1032E000696465000A0D0A0D4D61696C626F782092
:1032F000617661696C61626C652C207772697465B6
:10330000206461746120746F206974000A0D0A0DD5
:103310004C656E677468206F662064617461207705
:103320007269746520696E204D424354524C20727C
:1033300065676973746572203A2025640000000097
:103340000A0D4E65656420746F206164642031202D
:10335000746F20746865206C656E67746820617393
:103360002069742073746172742061742030203A73
:10337000202564000A0D0A0D4374726C204D422012
:1033800073746174757320726567697374657220F4
:1033900076616C75653A00000A0D486F7374286990
:1033A000326329204D6973736564204D65737361C1
:1033B000676520203D202564000000000A0D52466C
:1033C0002872656164657229204D69737365642094
:1033D0004D657373616765203D2025640000000022
:1033E0000A0D486F73742869326329205075742060
:1033F0004D65737361676520202020203D20256482
:10340000000000000A0D5246287265616465722949
:1034100020507574204D65737361676520202020EE
:103420003D202564000000000A0D4D61696C626F4B
:103430007820456E61626C652020202020202020AD
:10344000202020203D202564000000000A0D0A0DE8
:10345000436C656172206D61696C626F782062797E
:103460002064652F72656163746976617465206993
:1034700074206F722062792072656164696E6720C2
:10348000697420776974682061207265616465726F
:103490002C207265616420646174613A0A0D000039
:1034A0000A0D0A0D2D2D2D2D2D2D2D2D2D2D2D2DD2
:1034B0002D2D2D2D2D2D2D2D2D2D2D2D2D2D2D2D3C
:1034C0002D2D2D2D2D2D2D2D2D2D2D2D00000000E0
:1034D0000A0D2A2A2A2A2A2020202020202020659E
:1034E0006E64206F66206578616D706C65202020A9
:1034F00020202020202A2A2A2A2A00000A0D2D2DE9
:103500002D2D2D2D2D2D2D2D2D2D2D2D2D2D2D2DEB
:103510002D2D2D2D2D2D2D2D2D2D2D2D2D2D2D2DDB
:103520002D2D2D2D2D2D0A0D0A0D00002DE9F84F02
:103530000D464FF000089C490F22012304462E68D7
:1035400003FA08F000EA0609814540F0B1804FEA2D
:10355000480C032606FA0CF66FEA060E6E68012E7A
:1035600018BF022E03D0112E18BF122E11D1A6683B
:10357000EF680EEA060607FA0CF73E43A660666897
:1035800026EA00006E68C6F3001606FA08F6304315
:103590006060E068AE680EEA000006FA0CF63043A0
:1035A000E0604FEA88006E68022E18BF122E12D11A
:1035B0004FEAD80604EB860600F01C07D6F820A0D8
:1035C00002FA07FB2AEA0B0AD5F810B00BFA07F744
:1035D00047EA0A07376226680EEA06072E7906F0E0
:1035E000030606FA0CF63E4326606E68F6005FD5C9
:1035F000002600964FEA980C0E68DFF8B0E146F41A
:1036000080460E6000F00C000E6806F480460096BE
:10361000009E5EF82C7002FA00F627EA0606644F58
:10362000BC4208BF002713D0624FBC4208BF01272D
:103630000ED0614FBC4208BF022709D05F4FBC4289
:1036400008BF032704D05E4FBC420CBF04270727E6
:1036500007FA00F030434EF82C006FEA090C594885
:1036600006680CEA060E6E68F70348BF49EA0E0EBC
:10367000C0F800E046680CEA060E6E68B70348BF63
:1036800049EA0E0EC0F804E086680CEA060E6E6881
:10369000F70248BF49EA0E0EC0F808E0C6680CEA17
:1036A000060E6E68B60248BF49EA0E0EC0F80CE07E
:1036B00008F10108B8F10F0F7FF641AFBDE8F18FB7
:1036C0002DE9F84F03460D4600243E483749009542
:1036D0000122009E02FA04F909EA06064E4559D174
:1036E0004FEA940C4FEA840A51F82C50304F0AF0FC
:1036F0000C0E4FF00F0B0BFA0EF8BB4208EA050553
:1037000008BF002713D02B4FBB4208BF01270ED0A4
:10371000294FBB4208BF022709D0284FBB4208BF30
:10372000032704D0264FBB420CBF0427072707FA04
:103730000EF7BD4212D10568F64335400560456875
:1037400035404560856835408560C5682E40C66057
:1037500051F82C5025EA080541F82C500325660045
:10376000B540EE431D6835401D600AF01C0AE508AF
:1037700003EB85050BFA0AFA2F6A27EA0A072F627C
:10378000DD683540DD605D6825EA09055D609D689E
:1037900035409D60641C0F2C9BD9BDE8F18F02B9A8
:1037A0000904816170470000443802400838014034
:1037B000000002400004024000080240000C0240E9
:1037C00000100240003C014038B5040001D1012046
:1037D00032BD00F021F808B900F022F800F012F82C
:1037E00000F023F8FFE7416100F001F832BD2068E6
:1037F000C16841F40051C1600020686020216970F7
:10380000A9707047242068702068C16821F40051B5
:10381000C160204600F09FB804F138056878704711
:1038200000212970204600F009B92068016921F4BF
:10383000904101612068416921F02A0170472DE91A
:10384000F843054605F138070C46787820281646D7
:1038500098463DD1002C14BF002E012039D0387875
:10386000012835D0012139700020786021227A703A
:10387000FFF770F88146AE84EE840020387003E0D4
:103880002A6814F8011B5160E88C20B3E88C411EB3
:10389000E9844B46A868CDF80080B0F5805F0DD173
:1038A00000F023F870B920882968C0F30800486048
:1038B0002869002814BF641CA41CE5E700F015F873
:1038C0000028DDD0032004E020207870002000E0F4
:1038D0000220BDE8F283CDF800804B460022402153
:1038E00000F005F80028EFD0ECE700228021284600
:1038F000FFE72DE9F041069C05460E4690461F461F
:10390000286801683140B1420CBF012000204045C9
:1039100017D114F1010FF3D024B1FFF71BF8C01B2E
:103920008442EDD22868C16821F4D07100F00CF80F
:1039300005F13800202141708170002101700320C1
:1039400000E00020BDE8F081C160286841694908B5
:10395000490041617047D0B5064664273268116955
:10396000F06821F44051014311611924D3682D48B6
:10397000B168034030690B4371690343F0690B433D
:103980000343D3605169B06921F44071014351612F
:10399000F36925482549B3F5004F1FD18A4218BF66
:1039A000824202D1FEF78CFF01E0FEF781FF024662
:1039B000A4FB02017268D30F5200FDF7FFFC00F078
:1039C00037F8FF0032376420B7FBF0F0420002F412
:1039D000F87202EB011200F007001DE08A4218BFE6
:1039E000824202D1FEF76CFF01E0FEF761FF024662
:1039F000A4FB02017268930F9200FDF7DFFC00F058
:103A000017F83F0132376420B7FBF0F000F0F00206
:103A100002EB011200F00F00316880188860D0BD01
:103A200000000000F369FFFF001401400010014096
:103A30006421B0FBF1F107FB1107704770470000EC
:103A400000E07047F8B5002000F020F9012000F0F8
:103A50001DF9022000F01AF9002000F02AF900F008
:103A6000F1F8012000F025F900F0ECF8022000F058
:103A700020F900F0E7F8002000F036F9644C204609
:103A800000F084F904F12C0000F080F904F15800F2
:103A900000F07CF9002000F08DF90028FAD100F048
:103AA0000EF900F0CFF8012000F009F900F0CAF893
:103AB000022000F004F900F0C5F804F1840000F0E1
:103AC00065F9544D05F11101002000F097F9687C6B
:103AD000D0B905F1120100F09DF9A87C38B9002198
:103AE00029606860D5E900231A4600F084F90121B5
:103AF000002000F086F97B207B2128606960D5E9F1
:103B00000023002000F077F9002000F089F900BFC1
:103B10004EA000F03BF90020287405F11401287C28
:103B2000085400F08AF8FADB00F07CF8687A002884
:103B300004BFA87A002809D104F1D80000F026F9C2
:103B4000102205F11401002000F061F905F13401A3
:103B5000002000F06BF905F1240604F58070318A2D
:103B600048A700F013F9318A491C318204F59A7094
:103B700089B200F00BF900F055F804F5B47000F0CC
:103B800005F9E97A04F5C67000F000F9297B04F51F
:103B9000D87000F0FBF8697A04F5EA7000F0F6F8E6
:103BA000A97A04F5FC7000F0F1F8297A04F50770A1
:103BB00000F0ECF800F030F82BA000F0E7F800205F
:103BC000287400F034F800F037F8FADB002000F039
:103BD0002AF9002000F024F900F01EF804F5107016
:103BE00000F0D4F80020287400F021F800F024F848
:103BF000FADB04F5257000F0C9F804F5317000F027
:103C0000C5F804F53C70BDE8F24000F0BFB8000014
:103C10000C32000810020020338A002231460020B6
:103C200000F0F2B805F10801002000F0F6B8287C99
:103C3000315C384600F0AAB8287C401C2874C0B219
:103C4000102870474FF4967000F004B90A0D0A0D61
:103C50004D61696C626F7820697320616374697665
:103C600061746564000000000A0D0A0D446174610E
:103C7000207265616420696E204D61696C626F78A5
:103C80003A0A0D00307825303258200018B5154A10
:103C900085B032F8303000930124019402230024CF
:103CA00002EBC0020393029469465068FFF73EFCA2
:103CB00011E080B500F009F8012258680EE080B5E7
:103CC00000F003F80022586808E0064B33F8301083
:103CD00003EBC0037047002006B010BDFFF75FFD87
:103CE000002002BD0000002070B50024022886B02C
:103CF00028BF6FF0010430D28501224E06EB800010
:103D000006F1080241681E485151009402220169DF
:103D100041F400310161016901F400310091009921
:103D200000940C21036843F001030360072300683B
:103D300000F0010000900098134801910292059351
:103D40000394049401A9FFF7F1FB06F10801481957
:103D500000F094F808B16FF00304204606B070BD7F
:103D600011B50848047881B000EB84104FF47A73E1
:103D7000012201A90830FFF762FD019816BD00007D
:103D80003038024054000020000002400EB4C0B59C
:103D9000024603A800210190009101AB01210448D3
:103DA00078440C30FCF7F6F906BC5DF810FB00BF58
:103DB000F305000010B586B01E491F4A1F4C009144
:103DC000019220461E491F4A029104921E491F4A31
:103DD000039105926946FEF745FE40B91C48A06272
:103DE000016811B12046884718B10020A0624FF049
:103DF000FF3006B010BD1148FEF7FBBE0F48FEF7BE
:103E000026BF0E48FEF729BF0C48FEF731BF0B480E
:103E1000FEF741BF0948FEF756BF0848FEF759BFF5
:103E20000648FEF77BBF0548FEF77BBF0348FEF759
:103E30007FBF0000D94000084F4100084802002021
:103E400083410008C5410008A54100085529000824
:103E50002000002038B50446FEF77CFD14F1010F68
:103E6000054602D0044801786418FEF773FD401B34
:103E7000A042FAD331BD00BF3C00002010B5094973
:103E800001604FF4E1320C21002442604161846002
:103E9000C46004618461C461FFF796FC00B1012431
:103EA000204610BD0044004080B500F0DDF800F071
:103EB00007F800F04FF8FFF7C3FDFFF7C2FDFCE77E
:103EC00080B592B006A83021FEF7F0FF01A81421BA
:103ED000FEF7ECFF002000905448016841F080514B
:103EE00001600021006800F0805000900098504868
:103EF00000910221026822F4404242F40042026032
:103F00000122006800F44040009000980691099258
:103F100010210A91022200210C920D9110224FF4DF
:103F2000A8710E920F91042207211092119106A8F8
:103F3000FEF7DAFF022102910F204FF48051019029
:103F40000022049103920592022101A8FEF72AFCA7
:103F500013B000BD38B586B068461421FEF7A6FF41
:103F600000243448344D05940168344C41F0040178
:103F70000160026802F00402059200220599059290
:103F8000036843F080030360016801F0800105913C
:103F900005990592036843F001030360016801F08D
:103FA00001010591059905924FF4A461036843F05E
:103FB00002030360006800F00200059005982046A7
:103FC000FFF7EDFB002230212846FFF7E8FB4FF416
:103FD00000501B4900F03AF81A48FFF7A7FA4FF4CF
:103FE000A46100F039F82046FFF7A0FA40201649F6
:103FF00000F02CF82046FFF799FA302100F02CF859
:104000002846FFF793FA002200211720FEF7E2FC72
:104010001720FEF7FCFC002200212820FEF7DAFC26
:104020002820FEF7F4FC07B030BD00004038024005
:10403000007000403038024000040240000002409E
:1040400000002110000802400000111000900191B2
:1040500000220292694670470091012200210291DC
:10406000039101926946704780B50B48016841F49D
:1040700000710160026842F480620260016841F4EC
:10408000807101600320FEF798FC0020FEF768FCB9
:1040900000F004F8002002BD003C024082B0002085
:1040A000009000220B48416841F480414160416822
:1040B00001F48041009100990092036843F080531D
:1040C0000360006800F0805000900098072002B064
:1040D000FEF773BC40380240494870B5494D28602E
:1040E00086B0686D411C0024696568BB2846FEF7F0
:1040F00093F948BB444E00901222316841F002010E
:1041000031604FF44071306800F002000090009878
:104110003E4801910292012103910322042105915D
:10412000049201A9FFF702FA0094316941F40011E9
:104130003161306900F4001000900098284600F0CA
:1041400069F808B16FF00704204606B070BD38B5B5
:104150002C4D686D002490B1401E68650FD12C482D
:10416000026822F4001202604FF440712748FFF702
:10417000A7FA2846FDF7C6FE08B16FF007042046EF
:1041800032BD0A4610B501464FF480531D48FEF774
:104190008DF8002408B16FF00204204610BD2046BF
:1041A00004B070BD7FB500F020F8FDF7CBFE002411
:1041B00038B100F017F804280CBF6FF065046FF0F9
:1041C0000304ECE77FB500F010F8FDF753FF00247F
:1041D00038B100F007F8042814BF6FF065046FF0E1
:1041E0000304DCE72846FEF71AB9009201930A4659
:1041F000044D4FF48056014602961023284670471E
:1042000000540040680100203038024000040240A1
:10421000403802400A490B4A10B501604260002450
:104220004FF4804202618460C46044618461C4616F
:104230000462FDF7CBFD00B10124204610BD00BF94
:1042400000540040801A06000E48016841F47001D5
:10425000016000220C49086840F0010008608A6093
:104260000B680A480A4A03400B604A6000200B684A
:10427000084A23F480230B60C8604FF0006111608E
:104280007047000088ED00E000380240FFFFF6FEB6
:104290001030002408ED00E00000000000000000E5
:1042A00001020304060708097047FEE7FEE7FEE780
:1042B000FEE770477047704700F00AB8024800F008
:1042C0000FB8024800F00CB8180000204C00002085
:1042D0000248416802788A18426070473C0000201A
:1042E0000178012201F01F0102FA01F1044A13686A
:1042F0000B4204D011604068002818BF0047704787
:10430000143C014010B5074979441831064C7C44EF
:10431000163404E00A68081D114488470146A1428A
:10432000F8D110BD2C000000480000004EF6885166
:10433000CEF20001086840F470000860BFF34F8FB0
:10434000BFF36F8F4FF00070E1EE100A704700006E
:1043500093CEFFFF10010000680100200000000064
:104360007BCDFFFF6201000024010000000000205F
:1043700000F00DF8002801D0FFF7C4FFAFF3008074
:104380000020AFF30080FFF78FFD00F002F801205E
:10439000704700F001B8000007463846FDF70CFDF5
:1043A000FBE738B504460D46284600F005F8A8425C
:1043B00018BF0024204632BD0149FFF7D1BC00BF21
:1043C0002001002001488047014800474942000879
:1043D000D5430008AFF30080FFF7A8FFFFF7C8FF41
:1043E000000000000102030400002E004300FFF75C
:1043F000FEBFFFF7FEBFFFF7FEBFFFF7FEBFFFF7F1
:10440000FEBFFFF7FEBFFFF7FEBFFFF7FEBFFFF7E0
:10441000FEBFFFF7FEBFFFF7FEBFFFF7FEBFFFF7D0
:10442000FEBFFFF7FEBFFFF7FEBFFFF7FEBFFFF7C0
:10443000FEBFFFF7FEBFFFF7FEBFFFF7FEBFFFF7B0
:10444000FEBFFFF7FEBFFFF7FEBFFFF7FEBFFFF7A0
:10445000FEBFFFF7FEBFFFF7FEBFFFF7FEBFFFF790
:10446000FEBFFFF7FEBFFFF7FEBFFFF7FEBFFFF780
:10447000FEBFFFF7FEBFFFF7FEBFFFF7FEBFFFF770
:10448000FEBFFFF7FEBFFFF7FEBFFFF7FEBFFFF760
:10449000FEBFFFF7FEBFFFF7FEBFFFF7FEBFFFF750
:1044A000FEBFFFF7FEBFFFF7FEBFFFF7FEBFFFF740
:1044B000FEBFFFF7FEBFFFF7FEBFFFF7FEBFFFF730
:1044C000FEBFFFF7FEBF13100001500204024020A0
:1044D0000823000409100302400600000310050031
:1044E00000A32A0008CB0412D10412D90412EF044D
:1044F00012FB044004032B00080100013144500268
:104500000802400D343101F0022F4400400001F058
:10451000050724F400E84300080452FF01F200EA12
:104520001440020000EC43A0F00217A00000208815
:104530002002A51200082C839312DC200A02040139
:1045400001C001002010020020082104211B610885
:08455000126408F3115001642C
:04000005080043D5D7
:00000001FF
