:020000040800F2
:10000000600A0020412E0008C92D0008CB2D0008F1
:10001000CD2D0008CF2D0008D12D000800000000D4
:10002000000000000000000000000000D32D0008C8
:10003000D52D000800000000D72D0008D92D00089C
:100040005D2E0008612E0008652E0008692E00084C
:100050006D2E0008712E0008752E0008792E0008FC
:100060007D2E0008812E0008852E0008892E0008AC
:100070008D2E0008912E0008952E0008992E00085C
:100080009D2E0008A12E0008A52E0008A92E00080C
:10009000AD2E0008B12E0008B52E0008DD2D000899
:1000A000B92E0008BD2E0008C12E0008C52E00087C
:1000B000C92E0008CD2E0008D12E0008D52E00082C
:1000C000D92E0008DD2E0008E12E0008E52E0008DC
:1000D000E92E0008ED2E0008F12E0008F52E00088C
:1000E000F92E0008FD2E0008012F0008052F00083A
:1000F000092F00080D2F0008112F0008152F0008E8
:10010000192F00081D2F0008212F0008252F000897
:10011000292F00082D2F0008312F0008352F000847
:10012000392F00083D2F0008412F0008452F0008F7
:10013000492F00084D2F0008512F0008552F0008A7
:10014000592F00085D2F0008612F0008652F000857
:10015000692F00086D2F0008712F0008752F000807
:10016000792F00087D2F0008812F0008852F0008B7
:10017000892F00088D2F0008912F00080000000033
:10018000952F0008992F00082DE9FC47050017D08E
:10019000DFF8C076DFF8CC66BC68F86800F00308CA
:1001A0002878C10604F00C0453D524B10C2C08BFE8
:1001B000B8F1010F2FD13868810703D5A86900284D
:1001C00000F06A81396808074EBF3968716809090B
:1001D000286A01F0F001814206D200F0FFFA0028FF
:1001E00009D100F00CFA08E000F009FA2CB9286AED
:1001F00000F0F4FA002840F04F8100F0A6FABA6847
:1002000000F099FADFF85406006800F03FFB0100A7
:1002100000F03281EDE1A86990B1396841F0010147
:10022000396000F055FB81463868810700F1228172
:1002300000F04EFBA0EB09000328F5D30320D8E122
:10024000386840084000386000F042FB814638685A
:10025000810740F1118100F03BFBA0EB090003286E
:10026000F5D3EBE76868B0F5803F04D1386840F417
:100270008030386011E0B0F5A02F386806D140F426
:1002800080203860396841F4803105E020F4803006
:100290003860396821F480213960686868B100F0FD
:1002A00017FB81463868810300F1F88000F010FBED
:1002B000A0EB09006528F5D3C0E700F009FB8146F3
:1002C0003868810340F1EA8000F002FBA0EB0900EE
:1002D0006528F5D3B2E700F0FBFA00F08CF9C0F026
:1002E0000381ABE7E86880B1396841F48071396017
:1002F00000F0EEFA80463868410500F1E08000F039
:10030000E7FA00F078F9F6D398E7386820F48070BF
:10031000386000F0DDFA80463868410540F1D6804B
:1003200000F0D6FA00F067F9F6D387E740084000FE
:10033000706000F0CDFA80467068810740F1D88087
:1003400000F0C6FA00F057F9F6D377E705283068D1
:1003500006D140F004003060316841F0010105E051
:10036000400840003060316821F004013160A86825
:1003700041F2893968B100F0ABFA824630688107F2
:1003800000F1EC8000F0A4FAA0EB0A004845F5D398
:1003900054E700F09DFA82463068810740F1DE8024
:1003A00000F096FAA0EB0A004845F5D346E700F4C2
:1003B00000328A420FD1EA6B520800F4C001521E8B
:1003C000B1EB425F07D1296C490800F0C060491EBB
:1003D000B0EB416F1FD00C2C5ED0386841015BD46C
:1003E0003868C10058D4386820F08070386000F058
:1003F0006FFA04463868810140F1D78000F068FA4E
:10040000001B0328F6D319E700F062FA401B03280B
:10041000C0F0EA8012E73868810104D400F001F9E5
:1004200004463868810100F1E38000F051FA001BB6
:100430000328F6D302E70C2C2ED0386820F0807009
:100440003860396811F0205F03D1F86880088000B7
:10045000F860F968DFF81004014000F0E9F804469C
:100460003868810140F1C48000F032FA001B032893
:10047000F6D3E3E600F0C3F82878C1070ED5082CC0
:1004800005D00C2C08BFB8F1030F7FF4EBAE386831
:10049000810303D5686808B90120AAE0287881079C
:1004A00014D5042C05D00C2C08BFB8F1020F7FF432
:1004B00019AF3868410502D5E8680028ECD07868A3
:1004C000296920F0F85040EA016078602878010737
:1004D0000ED56869002870683FF428AF40F001002D
:1004E000706000F0F5F98046706881077FF5F3AE23
:1004F0002878410739D5B86DC1004FF000080AD4FB
:10050000B86D40F08050B8654FF00108B86D00F04C
:10051000805000900098DFF85493D9F80000C1058E
:1005200013D4D9F8000040F48070C9F8000000F03E
:10053000CFF98246D9F80000C10506D400F0C8F909
:10054000A0EB0A000328F5D378E6A86801287FF419
:10055000FDAE306840F00100306008E7B8F1000FF0
:1005600003D0B86D20F08050B865A86A00283FD04D
:1005700002287FF460AFF868EA6A00F00301914254
:1005800001BF00F070012A6B521EB1EB021F04D1B3
:100590006A6B00F4FE41B1EB022F7FF41CAFA96B34
:1005A00007290CBF0021012101E7FA68DFF8C0121A
:1005B000E86A0A40296B0243491E686B42EA01124D
:1005C000E96B490842EA0022286C491E400842EAC9
:1005D0004152401E42EA4062A86B000942EA404292
:1005E000FA6000F01EF80546386881017FF50CAF0F
:1005F0000020BDE8F687A0EB0800032870473868A4
:1006000040F0080038603968286A21F0F0010143A1
:1006100039607968E86921F47F4141EA0021796015
:100620007047386840F080703860F96841F0807138
:10063000F96000F04DB92DE9F0410400884678D00A
:10064000DFF83062306800F00700404509D23168B9
:10065000C90848EAC1013160306800F00700404530
:1006600067D12078DFF8EC51C1074AD560680328CC
:1006700002D129688A0108E0022802D129688A0388
:1006800003E00028296802D18A0702D451E04A0514
:100690004FD5A968890840EA8100A86000F018F9E0
:1006A0000746A868616800F00C00B0EB810F28D005
:1006B00000F00EF9C01B41F289318842F1D30320CA
:1006C0001DE02078410705D5AA68E06822F4E062C1
:1006D0000243AA602178080706D5A968206921F499
:1006E000605141EAC001A96000F02FF8AA6800F04B
:1006F00022F8BDE8F0415948006800F0C7B8BDE8ED
:10070000F0812078810705D5AA68A06822F0F00260
:100710000243AA60316801F007018845D1D23068F0
:10072000C00848EAC0003060316801F00701414567
:10073000C7D00120E3E75049C2F30312895C464A5F
:1007400001F01F01C8401060704770B5414A4B4B23
:100750009068D6680025002110F00C0006F0030612
:10076000474C03D00C2812D1012E1AD115682E0740
:1007700004D43B4D2E68C6F3032502E01568C5F38B
:100780000315404E56F8255048B9294624E0042860
:1007900008BF214620D008281ED119461CE00C288D
:1007A0001AD1D06800F00300022803D0032808BF44
:1007B0001D4600E02546D168D068D268C0F3062007
:1007C0004543C1F30210C2F34161401C491CB5FB13
:1007D000F0F04900B0FBF1F1084670BD7CB52A4E3F
:1007E000054630680024C10002D500F077F80EE01D
:1007F000306840F080503060316801F080510091E5
:10080000009800F06BF8316821F080513160B0F54C
:10081000007F04D1802D0CD9A12D09D304E0802DB7
:1008200088BF032405D801D1022402E0702D00D135
:10083000012410480168C90844EAC1010160006848
:1008400000F00700A04201D0012076BD002076BD57
:10085000000000000010024048000020400000207E
:100860009410024090100240FFFFEEFE0070004026
:100870008C809DF900200240682C000800127A004C
:100880000024F400FC2C00085810024070B50E4EF5
:100890000446B0680025A0B14FF47A710B4AB1FB51
:1008A000F0F11068B0FBF1F000F09DF848B9102CA1
:1008B00007D2002221464FF0FF3000F06DF874603F
:1008C00000E00125284670BD3C00002048000020C3
:1008D00001480068704700BF3C000020DFF8780046
:1008E000006800F4C060704710B5DFF86C10B0F518
:1008F000007F086800F4C06015D1B0F5007F1BD000
:100900000868DFF85820DFF8584020F4C06040F451
:10091000007000F018F84A6953050FD5002818BF79
:10092000401EF8D10AE0B0F5806F05D0086820F4C9
:10093000C06040F480600860002010BD4869410537
:10094000FAD5032010BD0860322013684343B3FB7F
:10095000F4F0401C70470000007000404800002088
:1009600040420F000901020006D5294A00F00F009D
:10097000104400F8041C7047264B19547047264B4E
:1009800019684FF6FF020002114000F4E0600843CE
:10099000224908431860704738B51F4B1C68C4F3E0
:1009A0000223C3F10704052C28BF04241D1D072DB5
:1009B00034BF0023DB1E012505FA04F4641E214028
:1009C000994005FA03F35B1E1A401143BDE8344019
:1009D000C8E7012200F01F01114BFFE78A404009E0
:1009E00043F82020704710B5401EB0F1807F01D33E
:1009F000012010BD0B4C60600F214FF0FF30FFF75E
:100A0000B1FF0021A16007202060002010BD000080
:100A100018ED00E000E400E00CED00E00000FA0555
:100A200000E100E010E000E038B5040001D1012051
:100A300032BD04F14005687820B9002129702046B4
:100A400000F03AFB00F053F86068216820F0706015
:100A500008612068816821F400418160E0682168B4
:100A60000128A0680CBF40F4004040F404408860B6
:100A7000E068022803D120684FF4006141602068DB
:100A8000416841F0007141F4004141602068C16853
:100A900021F40041C16060692169A26901432068B5
:100AA00041EA0221C160206AE169226801431160C4
:100AB0002068016841F00101016000206860202188
:100AC00069702063A87032BD38B5040001D10120DF
:100AD00032BD04F1400500F00AF8204600F0EDFABE
:100AE0000020686068702063A870287032BD2420E0
:100AF00068702068016849084900016070470090EB
:100B00004FF08073FF22704700904FF00073D2B215
:100B1000704701224FF40041304600F01CBA2DE925
:100B2000FE4F00F0FEF84ED10C9D002D1CBF0D9F16
:100B3000002F03D14FF4007161603FE0207801285D
:100B400041D001212170FFF7C3FE00F05BF80028BF
:100B500034D1212000F0FDF800F0A2F910B10020FE
:100B600020702BE0708DFF25B0F5807F19D300F049
:100B7000E9F800F0D2F80E9F4A463946304600F0B8
:100B80000BFA00281AD100F025F811D089B279B9F2
:100B900000F030F890B900F019F805D300F0D2F861
:100BA00004E000F0C7F8E4E700F0C4F800F0B5F89E
:100BB000708D0028E0D100F09CF808B1012003E01E
:100BC00000F02AF800E00220BDE8FE8F708DB0F53D
:100BD000807F7047706A326801789162706A411C48
:100BE0007162708D411E7185308D411E3185708D11
:100BF00000287047CDF800903B4600228021304607
:100C000000F0A9B98146CDF80090192301224FF4D4
:100C10000041304600F09FB931682020C86131683A
:100C2000DFF86C024A6802404A60202161700020AF
:100C3000A070207070472DE9FE4F00F072F855D17A
:100C40000C9D002D1CBF0D9F002F03D14FF4007190
:100C5000616046E02078012848D001212170FFF72B
:100C600037FEFFF7CFFF00283BD1222000F071F8BC
:100C700000F031F910B10020207032E0718DDFF802
:100C80000C02FF25B1F5807F1CD33585FFF737FFB8
:100C900000F043F80E9FCDF800903B46002204215F
:100CA000FFF73AFF00281CD100F028F898B189B26C
:100CB00089B9FFF79FFFA0B9FFF788FF07D300F0BE
:100CC00041F806E0728D3285FFF71EFFE0E700F085
:100CD00031F800F022F8708D0028DCD100F009F81E
:100CE00008B1012003E0FFF797FF00E00220BDE814
:100CF000FE8F4A463946304600F075B93068416A81
:100D0000706A0170716A308D4A1C411E72623185B1
:100D1000708D421E7285708D70474146304600F0DE
:100D2000B4B9064606F14004884660782028924609
:100D30009B467047728D3285002000904FF0007303
:100D4000D2B270473585002000904FF08073FF22AB
:100D5000704760704021A1700020606075627785E7
:100D600070635B460E9900915246CDF8049041465F
:100D7000304670472DE9FE4305460020019005F1FD
:100D800040067078202840D12C68A06904043CD427
:100D90003078012839D00124347024207070C1F3D8
:100DA00009090020706090461C46E86829680128FF
:100DB00006BF49F0007040F4005049F420504860EC
:100DC000FFF786FD0746296888698969400909098E
:100DD00000F0010001F00101084319D114F1010FE5
:100DE000F1D0FFF775FDC01B844241D3002CEAD13E
:100DF0003EE000F046F830B929682020C8617070E4
:100E00000020307002E0012000E00220BDE8FE83F7
:100E1000286881690097C8062346EAD500F031F8B2
:100E20000028F0D129681020C86120222868C261FA
:100E3000019941450DD12868416841F480414160E4
:100E40000097234600F01DF80028DCD129682020F7
:100E5000C8610198401C019001984045A5D320210C
:100E600071700021706840F0200070603170CAE736
:100E7000202070700020716841F020017160307096
:100E8000C1E700222021284600F065B80024008038
:100E900000E800FE90F841007047406C7047000089
:100EA0002DE9FC4100F031F84FF08073EAB200F018
:100EB000ECF800F03EF858B9012D02D000F036F8F9
:100EC00030B900F02CF88021204600F044F800B141
:100ED0000120BDE8F6812DE9FC4100F016F8002361
:100EE000EAB200F0D2F800F024F858B9012D02D08F
:100EF00000F01CF830B900F012F84021204600F054
:100F00002AF800B10120BDE8F6811746DDF82080FF
:100F1000099EDFF8982100921D460446704720681C
:100F2000FFB2876200964346002270472168380A64
:100F300088623246414620462EE0006881698A0771
:100F400044BF002181628169CA0703D4816941F0ED
:100F50000101816170472DE9F041069F05460E466B
:100F600090461C46286881693140B1420CBF01207F
:100F7000002040450DD114F1010FF3D0FFF7A8FC7C
:100F8000C01B844201D3002CECD100F020F80120DA
:100F900000E00020BDE8F08170B505460C4616461D
:100FA00028688169880710D400F035F858B914F121
:100FB000010FF5D0FFF78CFC801B844201D3002C7D
:100FC000EED100F004F8012070BD002070BD05F1E5
:100FD00040002022416841F0200141604270002120
:100FE00081700170704770B505460C46164628683A
:100FF000816988060DD400F00EF840B9FFF768FC4F
:10100000801B844201D3002CF1D1FFF7E0FF0120C7
:1010100070BD002070BD324621462846FFE770B5FE
:1010200005460C4628688169C806164618D5286802
:1010300081698A0616D414F1010FF8D0FFF748FC35
:10104000801B844201D3002CF1D105F1400041689E
:1010500041F0200141602022FFF7C0FF012070BD58
:10106000002070BD1021C16120202A68D06128466F
:10107000FFF763FF29680E484A68024005F1400007
:101080004A60416841F00401E4E770B50068049CDF
:101090004568084E46EA5456B543C1F30901294351
:1010A00041EA024119432143416070BD00200080A4
:1010B00000E800FEFF63FF03704770472DE9F84F1B
:1010C00082460F46904600F0DFF8002400265FEAD3
:1010D000000903D000F0BAF8451C07E0504600F0C4
:1010E000C3FA054600F0B2F845196D1C9AF8E00104
:1010F0000AF5F07B30B3584600F0B6FAC61C7019FA
:101100000830B5F5807F28BFC01CB6F5807F28BFAA
:10111000C01CB0F5807F0CD3C121397002227A70D7
:10112000030E010C020ABB70F9703A717871062443
:1011300005E0D121397002227A70B87003244DA0E5
:1011400000F07DF881203855B5F5807F3CBF9121B6
:1011500039559AF8E00118B9395D41F04001395527
:10116000641C01213955601C441CB5F5807F0AD3ED
:10117000290E3954280C3855641C2A0A3A55641C27
:101180003D55641C00E03D543BA0391902780A70BB
:10119000641C07F80490641CB9F1000F0BD1504691
:1011A00000F062FA02465146381900F067FA5046DC
:1011B00000F05AFA041900F049F802460AF1500109
:1011C000381900F05BFA00F041F804199AF8E001D0
:1011D00088B3601CB6F5807F0ED341213955044693
:1011E00001203855641C320E3A55641C300C3855B9
:1011F000641C310A395504E0512139550446012057
:101200003855641C1DA03E55641C391902780A70BB
:10121000641C02223A551AA0641C00F010F85846CB
:1012200000F022FA02465946381900F027FA5846CB
:1012300000F01AFA0419A8F80040BDE8F18F391936
:1012400002780A70A41C42784A7070470AF1500074
:1012500000F00ABA1CB50023ADF800306A46094C0C
:101260002146FFF72BFFBDF80000214600F024FACD
:1012700016BD00005370000055000000540000002F
:10128000656E0000C003002010B504465FF00B023D
:101290008DA100F02BFA08B9012010BD5FF00C02FF
:1012A0008DA100F00DF908B9022010BD5FF0070212
:1012B0008DA100F005F908B9032010BD5FF0080208
:1012C0008CA100F0FDF808B9042010BD5FF0040205
:1012D0008BA100F0F5F808B9052010BD5FF00702FA
:1012E00089A100F0EDF808B9062010BD5FF01A02E0
:1012F00088A100F0E5F808B9072010BD5FF00A02E8
:101300008BA100F0DDF808B9082010BD5FF00702DE
:101310008AA100F0D5F808B9092010BD5FF00702D6
:1013200089A100F0CDF808B90A2010BD5FF00602CF
:1013300088A100F0C5F808B90B2010BD5FF00602C7
:1013400086A100F0BDF808B90C2010BD5FF00602C0
:1013500084A100F0B5F808B90D2010BD5FF00602B9
:1013600082A100F0ADF808B90E2010BD5FF00502B3
:1013700080A100F0A5F808B90F2010BD5FF00902A8
:101380007EA100F09DF808B9102010BD5FF00502A5
:101390007DA100F095F808B9112010BD5FF007029B
:1013A0007BA100F08DF808B9122010BD5FF0040297
:1013B0007AA100F085F808B9132010BD5FF004028F
:1013C00078A100F07DF808B9142010BD5FF0040288
:1013D00076A100F075F808B9152010BD5FF0050280
:1013E00074A100F06DF808B9162010BD5FF0050279
:1013F00072A100F065F808B9172010BD5FF008026F
:1014000070A100F05DF808B9182010BD5FF00A0265
:101410006FA100F055F808B9192010BD5FF009025E
:101420006EA100F04DF808B91A2010BD5FF00A0255
:101430006DA100F045F808B91B2010BD5FF00B024C
:101440006CA100F03DF808B91C2010BD5FF0070248
:101450006CA100F035F808B91D2010BD5FF00B023B
:101460006BA100F02DF808B91E2010BD5FF00B0233
:101470006BA100F025F808B91F2010BD5FF00C0229
:101480006BA100F01DF808B9202010BD5FF00C0220
:101490006BA100F015F808B9212010BD5FF008021B
:1014A0006BA100F00DF808B9222010BD5FF0080212
:1014B0006AA100F005F808B9232010BD002010BD76
:1014C000204600F013B90000687474703A2F2F772B
:1014D00077772E000000000068747470733A2F2F25
:1014E0007777772E00000000687474703A2F2F0011
:1014F0000000000068747470733A2F2F0000000021
:1015000074656C3A000000006D61696C746F3A009C
:10151000000000006674703A2F2F616E6F6E796D57
:101520006F75733A616E6F6E796D6F757340000001
:101530006674703A2F2F6674702E00006674707394
:101540003A2F2F0000000000736674703A2F2F00AE
:1015500000000000736D623A2F2F00006E66733A30
:101560002F2F00006674703A2F2F00006461763AC6
:101570002F2F00006E6577733A00000074656C6E63
:1015800065743A2F2F000000696D61703A00000009
:10159000727473703A2F2F000000000075726E3A5B
:1015A00000000000706F703A000000007369703A2C
:1015B00000000000736970733A0000007466747074
:1015C0003A00000062747370703A2F2F0000000020
:1015D00062746C326361703A2F2F00006274676F1F
:1015E00065703A2F2F0000007463706F6265783A5F
:1015F0002F2F0000697264616F6265783A2F2F00A7
:101600000000000066696C653A2F2F0000000000A2
:1016100075726E3A6570633A69643A0000000000C2
:1016200075726E3A6570633A74616700000000007D
:1016300075726E3A6570633A7061743A000000002A
:1016400075726E3A6570633A7261773A0000000015
:1016500075726E3A6570633A0000000075726E3AFA
:101660006E66633A0000000000F1010310F8011BF0
:1016700011B110F8011BFBE7C01A70474AB1000016
:1016800011F8013B521E00F8013B1CBF11F8013B51
:10169000F8E77047052801DB01207047042808BFE0
:1016A0000A2103D003280CBF0C2100210D4A118010
:1016B0000D4908700020704710B50B4B1C780122B3
:1016C000042C0DD8DFE804F009030609090000F036
:1016D0001CF804E000F04CF801E000F0B0F802461D
:1016E000104610BD4C0600204C00002003000020D6
:1016F000521E22BF13F8010B11F801CBB0EB0C0006
:10170000F6D0521C08BF1046704738B504460D4647
:10171000210A8DF800108DF8010002220021684690
:1017200000F05EF981B221B922460221284600F07C
:1017300057F980B232BD30B4002513E050F8042BC5
:10174000D30744BFA9F101039A18091F042942F8DD
:10175000045BFAD213468C0744BF15809B1CC90753
:1017600048BF1D7050F8041B0029E7D130BC7047FA
:1017700038B5044608462246102100F031F9C0B2BF
:1017800070B900F00FF8C0B250B9210AE87229739D
:101790006C7310220021284600F022F9C0B200B17B
:1017A000012032BD024D10220021284600F010B960
:1017B000500600202DE9FC418046FE208DF80000F7
:1017C0000D46144600F016F9FF2D804FACBF0421E2
:1017D0000221401AF968401E2E46401AB04238BF16
:1017E00002202AD300F08EF8F0B9FF2D8DF8048086
:1017F00009DBFF208DF80500280A40EA0520ADF836
:101800000600042502E08DF805500225FF682A46EF
:10181000394601A800F0E4F830B9ED1932462946FE
:10182000204600F0DDF808B1012006E00122711920
:10183000684600F0D5F800F02EF8BDE8F6810A46BB
:1018400001460320B6E710B504460422002100F04B
:10185000C7F8A178002908BF002804D10422042178
:10186000201D00F0BDF800F016F810BD38B5574D3A
:10187000298A0446042200F0ABF8A178002908BFA9
:10188000002805D1298A0422091D201D00F0A0F896
:1018900000F001F832BD00B1012080B270471FB5E1
:1018A0004A4C2078E2788DF8040001A960784870ED
:1018B000CA70A078228A8870131D30B9E0888DF82C
:1018C0000B00030A8B7102F10803E36001A8FFF724
:1018D000BAFF010014D103208DF800000122E16855
:1018E000684600F07DF808B1012009E08DF800009D
:1018F0000122E168491C684600F072F8FFF7CBFF4F
:1019000004B010BD7FB5314C0021217201A8FFF752
:10191000ADFF010054D19DF80400E12818BFE22872
:101920004DD101A94A7802F0FC03402B1CBF02F004
:10193000FC00102843D1238A887838B98D799DF826
:101940000B6046EA05263546083302E000260546C8
:101950001B1DA070E3609DF80400C978E68020702C
:101960006270E1700EE0FD291CBF0129022922D11D
:101970009DF80110FF2912BF891CBDF80210091D36
:101980000818E060E16800F01DF8C0B9E068A842FE
:1019900015D29DF800100329E5D19DF8010008B982
:1019A000012005E0607810F0030F14BF032002202F
:1019B0002072002004E0FE2918BF401CE1D1052060
:1019C00004B070BD0422684600F002B83C06002056
:1019D00093B280B58AB20146002000F030F806E0EC
:1019E00093B280B58AB20146002000F030F800B111
:1019F000012002BD002000F035B8000010B586B00F
:101A00002049214A214C0091019220462049214A37
:101A1000029104922049214A03910592694600F0FF
:101A200041F840B91E48A062016811B120468847BC
:101A300018B10020A0624FF0FF3006B010BD10B505
:101A40001248846A646904B909E0A04710BD10B562
:101A50000E48846AA46904B901E0A04710BD4FF0A4
:101A6000FF3010BD80B56946084800F0A7F89DF822
:101A70000000BDF80210401C491C484302BD034849
:101A800000F0C7B8092900088929000810060020BD
:101A9000BD290008FF290008DF290008D108000837
:101AA0002000002038B500244FF0FF35B0B10A689F
:101AB00002604B684360CA68C2600B6903618A6850
:101AC000826049690FF2591241610062C2610FF2EE
:101AD00061118161006808B1804700B12C46204641
:101AE00032BD1CB50446606A58B9694604F1180055
:101AF00000F0CCF89DF80000242818BF262800D05C
:101B000059E001206062002016BD183000F0BEB818
:101B10000246A620926810471CB500F048F800F075
:101B2000D4F818B99DF800002080002016BD02B539
:101B30006946183000F0CEF802BD10B504461046D4
:101B400061E02DE9F84F064688461F46914640F26F
:101B500001108742ACBF4FF4807ABA46F46853460E
:101B600042461FFA89F1A620A047050014D17069EA
:101B700080478346B2680121A620904704467069D9
:101B80008047A0EB0B00B0F5A07F02D2002CF1D172
:101B900002E00CB16FF00205A7EB0A07D044D14474
:101BA000BFB20FB1002DD2D02846BDE8F28F0C464F
:101BB0006946183070474FF0FF3016BD38B50446FF
:101BC0000D46694604F1180000F075F8A8B90DF14A
:101BD000010104F1180000F064F870B9294604F11D
:101BE000180000F063F840B99DF8010068809DF886
:101BF000001041EA00216980002032BD8DF80010FC
:101C00001830694670470A4601462469A620A04755
:101C100010BD80B50021FFF7F1FF00F051F802BDC3
:101C200038B504698D044CBFA620AE20A04732BD54
:101C3000F8B506468D04F46802D5A620A047F2BD8B
:101C4000AE20A047050013D1706980470746B268EF
:101C50000121AE209047044670698047C01BB0F553
:101C6000A07F02D2002CF2D102E00CB16FF002058D
:101C70002846F2BD10B50446A0686468A04710BDB0
:101C800010B50446A0682468A04710BD80B50A4678
:101C900001231721FFE7FFF7EDFF08B14FF0FF30F9
:101CA00002BD80B50A4601231521F4E780B50A4636
:101CB00001231621EFE780B50A4601231421EAE744
:101CC0007CB50D4642F206060BE080B50A460123BC
:101CD0000021E0E780B50A4601230021FFF7D0FF8D
:101CE000DBE7044601236A463146FFF7C3FF68B9C4
:101CF00028789DF8001060F300018DF80010012392
:101D00006A4631462046FFF7BBFF08B14FF0FF306F
:101D100076BD00002DE9FC47054600242868DFF861
:101D2000FC630105A14621D5686E70B1B0F5800F46
:101D300017D0B0F5000F03D0B0F5400F09D013E075
:101D4000326842F48032326004E0002100F07FF912
:101D5000044654B9F16F686E21F440010143F16704
:101D600004E000F06EF9F3E70124A1462868C104FD
:101D700021D5A86EA8B1B0F1807F17D0B0F1007F57
:101D800003D0B0F1407F04D013E0316841F48031DA
:101D900031607CB9F16FA86E21F040710143F167A9
:101DA00009E0002100F053F90446F2E700F049F998
:101DB000FAE70124A146286881032BD5F06CC10005
:101DC0004FF000080AD4F06C40F08050F0644FF0FF
:101DD0000108F06C00F0805000900098DFF8187453
:101DE000386840F480703860FEF772FD82463868CB
:101DF000C10500F1F780FEF76BFDA0EB0A00032898
:101E0000F5D30324A146B8F1000F03D0F06C20F005
:101E10008050F0642878C10705D5F26FA86B92084E
:101E200040EA8202F2672978880705D5F16FE86BEE
:101E300021F00C010143F1672978480705D5F16FBE
:101E4000286C21F030010143F1672978080705D596
:101E5000F16F686C21F0C0010143F1672978C80671
:101E600005D5F16FA86C21F440710143F167297821
:101E7000880605D5F16FE86C21F440610143F167F4
:101E80002968880505D5F16FE86D21F440210143EB
:101E9000F1672968480505D5F16F286E21F44011D6
:101EA0000143F1672978480605D5F16F286D21F4C3
:101EB00040510143F1672978080605D5F16F686D37
:101EC00021F440410143F1672968C80505D5F16F48
:101ED000A86D21F440310143F167296888041FD5BA
:101EE000F16FE86E21F040610143F167E86EB0F1F7
:101EF000006F0DD100F0A0F812E0FEF7E9FC001B26
:101F000041F289318842C0F08B804FF003097AE7B3
:101F1000B0F1806F04D100F099F8010018BF81463C
:101F20002868010314D5F26F286F22F04062024343
:101F3000F267286FB0F1006F02D100F07DF807E082
:101F4000B0F1806F04D100F081F8010018BF814624
:101F50002868410314D5F26F686F22F04062024393
:101F6000F267686FB0F1006F02D100F065F807E02A
:101F7000B0F1806F04D100F069F8010018BF81460C
:101F80002868410418D5F26FA86F22F0405202432E
:101F9000F267A86FB0F1805F03D1022100F057F81B
:101FA00007E0B0F1005F07D1022105F1200000F049
:101FB000B7F8010018BF81462868010405D5F26F03
:101FC000E86F22F080420243F2672968C80306D511
:101FD000F16FD5F8800021F000410143F1674846D8
:101FE000BDE8F687002C7FF40DAFDFF84C7238683F
:101FF00010F440701CBFD5F8841088420BD03868AC
:10200000396841F48031396020F440703A6822F434
:1020100080323A603860C00706D5FEF759FC0446A6
:10202000386881077FF569AF3A68D5F8840022F4F3
:10203000407202433A60E6E6306840F48010306057
:102040007047002105F1200000F06AB80121281D29
:10205000FFE72DE9F04100F0E5F809D0F16801F063
:10206000030181422BD150B300F0C8F80CD026E018
:10207000012804D023D303281BD016D31FE03268D5
:1020800091071CD500F0C1F8306820F0806000F0A6
:10209000C6F880463068010133D5FEF719FCA0EB85
:1020A00008000328F6D3032536E031684A05E9D451
:1020B00005E031688A03E5D431684A03E2D401259A
:1020C0002AE0012C326909D13B695D4802405B0876
:1020D00042EA01215B1E41EA435102E07B6900F0C4
:1020E00081F83161306840F0806000F098F8044673
:1020F000306801010CD4FEF7EBFB001B0328F7D37B
:10210000D1E7B968002CDCD1326900F062F8E8E769
:102110003169B8690143316158E000000C10024098
:102120002DE9F04100F07EF809D0F16801F00301DB
:1021300081422BD150B300F061F80CD026E0012889
:1021400004D023D303281BD016D31FE03268910795
:102150001CD500F05AF8306820F0805000F05FF88D
:1021600080463068810026D5FEF7B2FBA0EB080060
:102170000328F6D3032529E031684A05E9D405E0B0
:1021800031688A03E5D431684A03E2D401251DE0B1
:102190003B6900F027F87161306840F0805000F032
:1021A0003EF80446306881000CD4FEF791FB001B1A
:1021B0000328F7D3DEE7B9687269002CE8D100F094
:1021C00008F8E8E771697869014371612846BDE85C
:1021D000F0811C48FB68024042EA01211B0941EAE8
:1021E00043417047184802405B0842EA01215B1EE8
:1021F00041EA43617047000000700040F068796870
:10220000C0F30210401C88427047F268796822F0DF
:1022100073021043491E40EA0110F06070473060BD
:10222000FEF756BB0746054E38680C46F168002598
:1022300011F0030F704700009010024000100240A0
:10224000FF809FFFFF80FDFFFF80FFF92DE9F84F22
:102250004FF00008AE4A0F2304460D4635E0AD4E60
:10226000B44214BF072606268E4046EA0E064CF8F6
:102270002760C743A8490E6807EA060C6E68F60394
:1022800048BF40EA0C0CC1F800C04E6807EA060CD3
:102290006E68B60348BF40EA0C0CC1F804C08E68F3
:1022A00007EA060C6E68F60248BF40EA0C0CC1F85B
:1022B00008C0CE6807EA060C6F68BE0248BF40EA55
:1022C0000C0CC1F80CC008F10108296831FA08F0BB
:1022D00000F09A80012000FA08F616EA0100F2D018
:1022E0004FEA48070321B9406FEA010C69680129E8
:1022F00018BF02296FEA060E03D0112918BF122950
:1023000010D1A168EE680CEA0101BE403143A16022
:1023100061686E68C6F300160EEA010106FA08F657
:1023200031436160696801F00306032E08D1E66A53
:10233000C1F3C0010EEA060601FA08F13143E16279
:10234000E168AE680CEA0101BE403143E1604FEA4A
:1023500088016E68022E18BF122E13D14FEAD806DC
:1023600004EB860E01F01C09DEF82060D5F810B0F1
:1023700003FA09FA26EA0A060BFA09F949EA0606F7
:10238000CEF82060266895F804E00EF0030E0CEA03
:1023900006060EFA07F7374327606F68FE0092D5EE
:1023A0001768DFF878C147F00107176001F00C01EA
:1023B000166806F00106009603FA01FE009F4FEA38
:1023C00098075CF8276026EA0E0EB4F1904F08BF1C
:1023D000002618D0524EB44208BF012613D0514EE9
:1023E000B44208BF02260ED04F4EB44208BF0326A7
:1023F00009D04E4EB44208BF042604D04C4EB4421D
:102400007FF42DAF05262FE7BDE8F18F2DE9F04FC2
:102410008A4600254049414A03463DE03D4FBB42C4
:1024200014BF0727062707FA0EF7BC4212D10C6823
:10243000C04304400C604C6804404C608C6804400D
:102440008C60CC682040C86052F8280020EA09005F
:1024500042F828000324680004FA00F01C680443D2
:102460001C6006F01C06EC0803EB84040BFA06F66D
:10247000276A27EA06062662C0439E6806409E60D9
:102480006FEA0C045E6826405E60DE683040D8600B
:10249000D86A2040D8626D1C3AFA05F030D001208D
:1024A00000FA05FC1CEA0A00F5D04FEA9508AE00D8
:1024B00052F8284006F00C0E4FF00F0B0BFA0EF9F5
:1024C000B3F1904F09EA040408BF0027ABD0144FC2
:1024D000BB4208BF0127A6D0124FBB4208BF02274C
:1024E000A1D0114FBB4208BF03279CD00F4FBB4266
:1024F00008BF042797D00E4FBB428FD1052792E724
:10250000BDE8F08F0AB181617047816270470000B9
:10251000601002400018004800040140080001401B
:102520000004004800080048000C00480010004863
:102530000014004880B500F0D1F800F007F800F072
:1025400044F800F0E1F800F0E0F8FCE710B5B8B0AE
:10255000534C05A821464422FFF790F86846142101
:1025600000F052F916A804F144018822FFF786F81A
:1025700002214FF4807205910892102102220991E4
:102580000F9210920A210122119212910722022128
:1025900013921491159105A8FDF7F6FD0F20032164
:1025A00000F091F80392049204216846FEF743F884
:1025B0004021002216912A9216A8FFF7ABFB4FF498
:1025C0000070FEF791F938B010BD10B586B06846BE
:1025D000142100F019F93348046844F0040404603D
:1025E0000168314C01F0040105910599026842F03F
:1025F00080020260036803F0800305930599026876
:1026000042F001020260036803F00103059305999B
:10261000026842F0020202600022006800F002003C
:1026200005904FF4A46105984FF09040FFF76AFFC2
:10263000002230212046FFF765FF4FF400501B4970
:1026400000F041F869461A48FFF700FE02210191A7
:10265000002202920C200321009003910722049291
:1026600000F036F84FF4A46100F026F800F030F8DE
:102670004020104900F027F800F02AF8302100F03F
:102680001BF869462046FFF7E1FD002200211720D4
:10269000FEF782F91720FEF79CF906B010BD000086
:1026A000502B00084C10024000040048000021108C
:1026B0000008004800001110009101220021029141
:1026C000039101927047009001910022029270479D
:1026D00069464FF09040FFF7B9BD0000094810B5BA
:1026E000016841F4807101600320FEF748F9002081
:1026F000FEF7CCF80024002814BF012400F088F86D
:10270000204610BD0020024000E0704710B50020B8
:1027100000F096F8012000F093F8022000F090F805
:10272000002000F0A0F800F059F8012000F09BF81C
:1027300000F054F8022000F096F800F04FF8002066
:10274000FFF75CF90028FAD1FFF799F90020FEF7AE
:10275000A1FFFFF7D7F858B11E48E12101704022D0
:10276000052142708270C170FFF799F80028FBD1F3
:10277000002000F07EF800F031F8012000F079F838
:1027800000F02CF8022000F074F800F027F800BFE9
:1027900014A0114C90E80E0084E80E005FF01102C6
:1027A00014A104F15000FEF769FF09A004F5F071CF
:1027B00002780A70052000F079F82046FEF74AFDFD
:1027C0000028FAD1BDE81040022000F04CB800000B
:1027D000000000003C060020500000204FF49670DE
:1027E00000F064B8687474703A2F2F7777772E00F2
:1027F0000000000073742E636F6D2F737432352DDB
:1028000064656D6F00000000002200F063B80000F6
:102810000A4881B0816841F001018160816801F05E
:10282000010100910099026842F080520260006844
:1028300000F080500090009801B07047581002409E
:1028400018B5194A85B032F830300093012401944C
:102850000223002402EBC0020393029469465068ED
:10286000FFF7F4FC11E080B500F009F80122586888
:1028700010E080B500F003F8002258680AE00A4B27
:1028800033F8301003EBC0037047002006B010BDD2
:1028900000F004F8FFF736FE002002BD4FF480710F
:1028A0004FF09040704700000000002038B504460B
:1028B000FEF70EF814F1010F054602D004498868AE
:1028C0000419FEF705F8401BA042FAD331BD00BF42
:1028D0003C00002000B500BF130096469446103916
:1028E00028BFA0E80C50FAD85FEA417C28BF0CC092
:1028F00048BF40F8042BC90728BF20F8022B48BF67
:1029000000F8012B00BD00004C4870B54C4D28600C
:102910000024E86C411C002886B0E96431D12846C7
:10292000FEF7B8FA68BB474E306840F002003060EE
:102930001222316801F0020100914FF440710098B9
:102940004148019102920121039103220421059142
:10295000049201A9FFF77AFCF06840F40010F060DF
:10296000F06800F4001000906FF007060098284609
:1029700000F06EF820B90021284600F093F800B16D
:102980003446204606B070BD38B52D4DE86C0024A5
:1029900090B1401EE8640FD12C48026822F4001266
:1029A00002604FF440712848FFF730FD2846FEF7DB
:1029B0008BF808B16FF00704204632BD0A4610B507
:1029C00001464FF480531E48FEF7D4F9002408B1A5
:1029D0006FF00204204610BD204604B070BD7FB5E4
:1029E00000F020F8FEF79BF8002438B100F017F84B
:1029F00004280CBF6FF065046FF00304ECE77FB5AB
:102A000000F010F8FEF717F9002438B100F007F8CD
:102A1000042814BF6FF065046FF00304DCE7284658
:102A2000FEF73BBA009201930A46054D4FF48056DB
:102A300001460296022328467047000000540040D9
:102A4000C00500204C10024000040048581002400D
:102A500038B5044611481249206000250120E06085
:102A60006160A56025616561A561E561256220461B
:102A7000FDF7DAFF00B101250021204600F012F831
:102A800000B101250221204600F021F800B1012506
:102A90004FF4801000F045F8284632BD0054004045
:102AA000EC9C901030B500F140025378202B0CD1F3
:102AB0001478012C09D000F01DF824F480541C6017
:102AC00003681D682943196020E0022030BD30B53D
:102AD00000F140025378202B0AD11478012C07D042
:102AE00000F008F824F4706444EA01241C600DE04E
:102AF000022030BD012313702424547003681D6824
:102B00006D086D001D6003681C68704700680168EF
:102B100041F001010160202050700021117000205F
:102B200030BD094981B00A6842F001020A600968B3
:102B300001F001010091009904490A681043FFE780
:102B4000086001B0704700006010024004000140BE
:102B50000000000000000000000000000000000075
:102B60000000000000000000000000000000000065
:102B70000000000000000000000000000000000055
:102B80000000000000000000000000000000000045
:102B90000000000000000000000000000000000035
:102BA0000000000000000000000000000000000025
:102BB0000000000000000000000000000000000015
:102BC0000000000000000000000000000000000005
:102BD00000000000000000000000000000000000F5
:102BE00000000000000000000000000000000000E5
:102BF00000000000000000000000000000000000D5
:102C000000000000000000000000000000000000C4
:102C10000000000000000000000000000E480168F5
:102C200041F47001016000220C49086840F0010085
:102C300008608A604FF480520B68094803400B60BB
:102C4000CA6000200B68074A23F480230B60886168
:102C50004FF000611160704788ED00E00010024005
:102C6000FFFFF6EA08ED00E00000000000000000B1
:102C700001020304060708091000000000040048D0
:102C8000200000000004004800040000000000488C
:102C90000600001600000000E31A00080B1B0008E5
:102CA000111B0008191B00082F1B00083B1B000804
:102CB000431B00080000000010000000010000009D
:102CC00000093D000500000010B502680A4C012310
:102CD00002F01F01C2F3004204EB421203FA01F1B9
:102CE00013680B421EBF11604068002802D0BDE887
:102CF0001040004710BD000014040140A0860100F0
:102D0000400D0300801A060000350C0040420F0001
:102D100080841E0000093D0000127A000024F400A7
:102D200000366E010048E801006CDC0230B450F857
:102D3000041B79B10268436802440830DC0744BFD1
:102D4000A9F10104E31852F8045B43F8045B091F7E
:102D5000F9D1ECE730BC704710B507497944183118
:102D6000064C7C44163404E00A68081D1144884768
:102D70000146A142F8D110BD2C0000004C0000001B
:102D80004EF68851CEF20001086840F470000860E9
:102D9000BFF34F8FBFF36F8F4FF00070E1EE100A5B
:102DA0007047000093E9FFFF10060000500000206C
:102DB0000000000079FFFFFF50000000BCFEFFFF95
:102DC00000000020000000007047FEE7FEE7FEE77D
:102DD000FEE770477047704700F006B80148FFF7FC
:102DE00073BF00001800002002490A688868821832
:102DF0000A6070473C00002000F00DF8002801D068
:102E0000FFF7AAFFAFF300800020AFF30080FFF7C9
:102E100091FB00F002F80120704700F001B80000BB
:102E20000746384600F002F8FBE7000080B5AFF334
:102E30000080024A11001820ABBEFBE7260002000A
:102E400001488047014800471D2C0008512E00080A
:102E5000AFF30080FFF794FFFFF7CEFFFFF7FEBF51
:102E6000FFF7FEBFFFF7FEBFFFF7FEBFFFF7FEBF96
:102E7000FFF7FEBFFFF7FEBFFFF7FEBFFFF7FEBF86
:102E8000FFF7FEBFFFF7FEBFFFF7FEBFFFF7FEBF76
:102E9000FFF7FEBFFFF7FEBFFFF7FEBFFFF7FEBF66
:102EA000FFF7FEBFFFF7FEBFFFF7FEBFFFF7FEBF56
:102EB000FFF7FEBFFFF7FEBFFFF7FEBFFFF7FEBF46
:102EC000FFF7FEBFFFF7FEBFFFF7FEBFFFF7FEBF36
:102ED000FFF7FEBFFFF7FEBFFFF7FEBFFFF7FEBF26
:102EE000FFF7FEBFFFF7FEBFFFF7FEBFFFF7FEBF16
:102EF000FFF7FEBFFFF7FEBFFFF7FEBFFFF7FEBF06
:102F0000FFF7FEBFFFF7FEBFFFF7FEBFFFF7FEBFF5
:102F1000FFF7FEBFFFF7FEBFFFF7FEBFFFF7FEBFE5
:102F2000FFF7FEBFFFF7FEBFFFF7FEBFFFF7FEBFD5
:102F3000FFF7FEBFFFF7FEBFFFF7FEBFFFF7FEBFC5
:102F4000FFF7FEBFFFF7FEBFFFF7FEBFFFF7FEBFB5
:102F5000FFF7FEBFFFF7FEBFFFF7FEBFFFF7FEBFA5
:102F6000FFF7FEBFFFF7FEBFFFF7FEBFFFF7FEBF95
:102F7000FFF7FEBFFFF7FEBFFFF7FEBFFFF7FEBF85
:102F8000FFF7FEBFFFF7FEBFFFF7FEBFFFF7FEBF75
:0C2F9000FFF7FEBFFFF7FEBFFFF7FEBF1C
:0400000508002E5170
:00000001FF
