:020000040800F2
:10000000D00800206D2100087D2000087F20000816
:1000100000000000000000000000000000000000E0
:100020000000000000000000000000008120000827
:100030000000000000000000832000088520000868
:1000400067100008F7100008FB100008AF13000845
:100050008F140008231700084B2100088D2000088A
:1000600057210008892100088B2100088D210008F4
:100070008F21000891210008000000009321000852
:1000800000000000952100080000000000000000B2
:100090009721000800000000992100089B2100081A
:1000A0009D2100089F210008A1210008A32100082C
:1000B000A5210008A7210008A9210008AB210008FC
:1000C00070B5040001D1012070BD25004035002627
:1000D0006878002803D12E70200000F0C5FB242092
:1000E00068702068016801229143016060683249AC
:1000F000014020680161216830488A6802408A60B6
:10010000E1680129A16801D1C24301E08422120201
:100110000A4321688A60E168022903D1802109012C
:100120002268516021684A68254B13434B6021685F
:10013000CA681040C860206961690143A069000273
:1001400008432168C860E069216A014320680160B2
:100150002068016801220A4302606E6020206870F6
:100160002663AE70002070BD38B5040001D10120B7
:1001700032BD2500403524206870206801680122C6
:1001800091430160200000F070FB002068606870FF
:100190002063A870287032BD20202168C8612168C2
:1001A0004A68084B13404B602100403148700020E2
:1001B00088700870FEBD0000FFFFFFF0FF7FFFFFAB
:1001C0000080000200E800FEFEB504000F001600EB
:1001D0001D0040304078202800D0A2E00898002878
:1001E00003D06846808C002805D180208000210043
:1001F0004031486091E04020205C012800D190E02F
:1002000001204021605400F031FB0290009019233E
:100210000122D103200000F05FFA00287DD12B00DD
:10022000320021202100403148704020210040311F
:10023000887000202100403148600898606268465C
:10024000808C608500206063029801900A9800907D
:100250003900200000F0D5F9002803D0002040210B
:1002600060545AE0608DFF283AD9FF202085002095
:10027000009080235B04FF223900200000F0DEFAAA
:100280000A9E029D2A003100200000F051FA002849
:1002900043D1606A007821688862606A401C6062AD
:1002A0008548618D09186185218D08182085618D2B
:1002B000002928D0000426D1009533000022802197
:1002C000200000F009FA002827D1608DFF280FD9FF
:1002D000FF2020850020009080235B04FF220EE099
:1002E000628D22850020009080239B04D2B2C3E758
:1002F000628D22850020009080239B04D2B23900B9
:10030000200000F09BFA608D0028BBD131002A004C
:10031000200000F036FA002801D00120FEBDFFF7D2
:100320003BFF0220FEBD0000FEB584B00600403059
:100330004178202900D0BBE00C99002902D00D9F04
:10034000390003D1802189004160A0E04020305C69
:10035000012800D1ACE0350040350120287000F0C4
:1003600085FA04003068806900040DD500F07EFA3B
:10037000001B1A28F6D32020696801436960687061
:100380000020A870287082E002966846038B828A5B
:1003900030464030039022206870402003998870D6
:1003A0000026039846600C98029948620298478597
:1003B0000298466301940E9800906846018A02985C
:1003C00000F04DF9002802D0039806705FE080200D
:1003D0004004019039480299498DFF293AD9FF21FB
:1003E000029A11850090019BFF226846018A0298BB
:1003F00000F024FA029D0E9F00943B00002204218D
:10040000280000F069F9002841D12868406A696A2B
:100410000870686A401C68622749288D4018288542
:100420006A8D51186985698D002926D0000424D170
:1004300000943B0000228021280000F04DF90028A4
:1004400025D1688DFF280DD9FF2028850096019BB6
:10045000FF220DE002994A8D0A85009080239B04BB
:10046000D2B2C2E76A8D2A85009680239B04D2B25D
:100470006846018A280000F0E1F9688D0028BBD1A8
:1004800039002200280000F07CF9002801D001206A
:100490000FE020202968C86129684A68084B13408A
:1004A0004B60290040314870002088700E7000E0D9
:1004B000022007B0F0BD0000FFFF00000024008014
:1004C00000E800FEF8B584B0050000200190280087
:1004D00040304078202800D088E0286880690004F7
:1004E00000D583E04020285C012800D17EE0012077
:1004F0004024285524202C004034607000202C001B
:10050000403460608805800D0290202703921E0011
:10051000E8680128029901D1364801E0A020800155
:1005200008432968486000F0A1F904002968886937
:100530008206D00F8969CA06D10F01430DD1002070
:10054000C0438642F2D000F091F9001B864201D3ED
:10055000002EEBD1009528462DE028688069C00662
:10056000009430D5330000222021280000F0B4F898
:10057000002839D110202968C8612868C76101980E
:10058000039988420FD1286841687A020A43426081
:100590000094330000222021280000F09DF800285C
:1005A00022D12868C7610198401C019001980399E5
:1005B0008842ADD328004030477041680F43476000
:1005C0000021017010E0330000222021280000F0FB
:1005D00083F8002808D12868C76128004030477098
:1005E00000210170002002E0012000E0022005B09F
:1005F000F0BD0000002000024121405C7047406CCB
:100600007047F8B5060015001C00079F2A480090A7
:1006100080235B04E2B2300000F010F93A00069942
:10062000300000F085F8002817D1012C09D0280AE5
:10063000316888623A000699300000F079F80028A5
:100640000BD1EDB2306885620097069B00228021B5
:10065000300000F041F8002800D00120F2BDF8B5CC
:10066000060015001C00079F134800900023E2B20B
:10067000300000F0E3F83A000699300000F058F836
:10068000002817D1012C09D0280A316888623A0065
:100690000699300000F04CF800280BD1EDB230681C
:1006A00085620097069B00224021300000F014F87C
:1006B000002800D00120F2BD002000800068816980
:1006C000890701D500218162012182690A4002D196
:1006D0008269114381617047F8B5002405000F005D
:1006E000684602701E00286880693840B84201D10F
:1006F000012000E0002069460978884216D10020D8
:10070000C0438642EFD000F0B1F80699401A864205
:1007100001D3002EE7D128004030202142680A434F
:1007200042604170847004700120F2BD0020F2BD6F
:1007300070B504000D0016002068806980071ED483
:1007400032002900200000F040F8002801D00120EC
:1007500070BD0020C0438542EED000F087F8801BBA
:10076000854201D3002DE7D120004030202142688E
:100770000A4342604170002181700170E7E7002068
:1007800070BDF8B5202504000E00170020688069B0
:10079000284018D13A003100200000F016F8002857
:1007A0000FD100F063F8C01B864201D3002EEDD1BB
:1007B000200040304168294341604570002181702C
:1007C00001700120F2BD0020F2BDF8B510240368CD
:1007D0009B69234030D005000F0000922026286836
:1007E0008169314011D10020C0438742F7D000F029
:1007F0003DF80099401A874201D3002FEFD128001D
:10080000403041683143416010E0C4612868C661EE
:100810002800FFF753FF28684168114A0A404260E8
:1008200028004030416804220A434260467000219B
:10083000817001700120F2BD0020F2BDF0B5059C71
:1008400000684568660D074F3743BD438905890D2C
:10085000294312040A4313431C434460F0BD0000C3
:1008600000E800FEFF63FF037047704701484068DF
:10087000704700BF3C000020FEB5060058D0B74CC2
:10088000E0680C2101400091E068802149020840A5
:1008900001903078C0070ED54F000098082804D08A
:1008A0000C2869D10198884266D12068074002D09F
:1008B000706800283CD0307880072BD5F068BB4F9B
:1008C0000921C943009A042A05D00C2A01D1019AB2
:1008D000002A00D08BE02268520701D5002827D0DB
:1008E00062681740326912023A436260226811401E
:1008F0000843206000F0DAFAAD49E2681206120FF0
:10090000895CC840BE490860BE48006800F020FB12
:10091000010030D13078C00600D4B4E0BA4F00985E
:10092000002800D090E02068800503D5F0690028F9
:1009300000D1DAE160680740706A3843606060683F
:100940000002000A316A0906014361600120716AF0
:10095000490B491C8840C0039549E2681206120FF2
:10096000895CC840A6490860A648006800F0F0FA13
:10097000010000D187E0FEBD7068884201D1206887
:1009800009E0A021C9028842206806D1790001430C
:1009900021602068790801430AE0B34901402160E1
:1009A000206879080840029002982068AF49014009
:1009B0002160706800280DD0FFF758FF05002068FF
:1009C000384000D077E7FFF751FF401B6528F6D38A
:1009D0000320FEBDFFF74AFF05002068384000D124
:1009E00069E7FFF743FF401B6528F6D3F0E70422D1
:1009F0000192002817D02268114008432060FFF7B9
:100A000035FF050020680199014005D1FFF72EFF51
:100A1000401B0228F6D9DBE7606807403069000216
:100A20003843606076E72068012188432060FFF743
:100A30001DFF0500206801990140F3D0FFF716FF64
:100A4000401B0228F6D9C3E7F0690028206831D09E
:100A5000A10D01432160FFF709FF05002068800513
:100A600005D4FFF703FF401B0228F7D9B0E7606801
:100A70000740706A3843606060680002000A316AAB
:100A80000906014361603078000731D5022770699B
:100A90000028206D1DD0012101432165FFF7E6FEEE
:100AA0000500206D384023D1FFF7E0FE401B0228EF
:100AB000F7D98DE78F4901402160FFF7D7FE050088
:100AC00020688005DFD5FFF7D1FE401B0228F7D94B
:100AD0007EE7012188432065FFF7C8FE0500206DF1
:100AE000384005D0FFF7C2FE401B0228F7D96FE758
:100AF0003078400765D50020019080204005A16B2B
:100B0000014004D1A16B0843A063012001907A4FFA
:100B10003868C0050FD43868A10D01433960FFF76C
:100B2000A5FE05003868C00505D4FFF79FFE401BF1
:100B30006528F7D34CE7B268A10D8A420AD06F4806
:100B4000002A0DD0A023DB009A4209D1206D8A0033
:100B500002432265206D0143216508E00010024038
:100B6000216D644A0A402265216D08402065670DA9
:100B7000B06800280CD0FFF779FE0500206D3840E2
:100B800018D1FFF773FE401B5D498842F6D31FE77B
:100B9000FFF76CFE0500206D38400BD0FFF766FEB6
:100BA000401B57498842F6D312E700BFFFE0FFFF22
:100BB000042100080198002803D0A06B514901408E
:100BC000A1633078800635D54F480227B1690029E6
:100BD0001CD00121A2680A43A260626B11436163C9
:100BE0000168420C0A430260FFF740FE0500A0685E
:100BF00038401FD1FFF73AFE401B0228F7D9E7E63D
:100C00004800002044000020FF1FFFFFA1680122D0
:100C10009143A1600168A24A0A400260FFF726FEE4
:100C20000500A068384005D0FFF720FE401B0228D1
:100C3000F7D9CDE6B06A002859D000990C293FD0E9
:100C40008025AD049749022820682BD101402160FE
:100C5000FFF70CFE07002068284009D0FFF706FECA
:100C6000C01B0228F7D9B3E6FFFFFEFFFFFFFBFF23
:100C7000E0688D490140F06A0843316B0143706BB5
:100C80000843E0602068690801432160FFF7EEFD3A
:100C90000600206828402AD1FFF7E8FD801B0228C3
:100CA000F7D995E601402160FFF7E0FD06002068D6
:100CB00028401CD0FFF7DAFD801B0228F7D987E611
:100CC000012812D0E068802149020140F26A914275
:100CD0000BD1F02189030140326B914205D1C02133
:100CE00009040140706B814201D00120FEBD00204B
:100CF000FEBD0000FFFEFFFF00700040FFFBFFFF96
:100D000089130000FFFFFFEF20000140F1B582B022
:100D100000285CD00091824F82480068C107C90F4B
:100D20000098814217D27F4C2068012188430099A6
:100D300001432160FFF79AFD009D06002068C1076E
:100D4000C90FA94206D0FFF791FD801BB842F5D329
:100D50000320FEBD0095744C02980078800706D5EC
:100D6000E068F0218843029989680143E1603E46CA
:100D700002980078C0074DD502984068022819D122
:100D80002168890323D5E168032291430843E06089
:100D9000FFF76CFD0700029840680C25022818D167
:100DA000E0682840082835D0FFF760FDC01BB0423E
:100DB000F6D3CDE7032802D12168890103E0012899
:100DC000216802D14907DED401E08905DBD4012086
:100DD000FEBD032809D1E06828400C281AD0FFF78F
:100DE00045FDC01BB042F6D3B2E7012809D1E06847
:100DF000284004280ED0FFF739FDC01BB042F6D3BF
:100E0000A6E7E068284005D0FFF730FDC01BB042E0
:100E10009ED2F6E7009843490968CA07D20F90426C
:100E200015D2404D2868012188430099014329606B
:100E3000FFF71CFD07002868C107C90F0098814211
:100E400005D0FFF713FDC01BB042F4D380E7029832
:100E50000078400706D5E068344901400298C06830
:100E60000843E06002980078000707D5E068304941
:100E7000014002980069C0000843E06000F016F8E5
:100E80002C49E2681206120F895CC8402A490860A2
:100E90002A48006800F05CF8010000D10020FEBD87
:100EA000FFDFFFFFFFFFFFFEFFFF02FF50B51E4AFF
:100EB000D16810230C200840042804D0082809D049
:100EC0000C2809D023E01068034001D01C4850BD15
:100ED0001C4850BD1C4850BD1C488C02240F005DAE
:100EE00009028C0F641C0021D668F60301D5164A4E
:100EF00003E01268134002D0114A002300E0114AB7
:100F000000F048F82200002300F05DF850BD506862
:100F100001210004400F401C8140C80350BD000067
:100F2000891300000020024000100240FFF8FFFF7C
:100F3000FFC7FFFF042100084800002044000020F4
:100F400000093D000024F40000127A00142100087A
:100F500038B505000D4CFA208000217800F068F8C3
:100F600001000B48006800F063F800F0A7F80028C3
:100F70000AD1042D08D2002229000020C04300F02D
:100F800090F8A560002032BD012032BD3C00002059
:100F90004800002030B4434351435D18010C0C005D
:100FA000130C5C432D1980B2434392B25143002489
:100FB000C918644124040B04090C09195043C018D2
:100FC000694130BC7047124224D0994228D970B58B
:100FD00000251B4202D00C00002109E0002401265C
:100FE00049186441944200D3A41A7641F8D33100E1
:100FF000012601E0764109D2001864416D41A41A2E
:101000009D41F7D2A4185D41B619F5D330002200F6
:101010002B0070BD1B42D8D108B500F06BF808BD9D
:1010200001D19042D3D202000B0000210020704772
:10103000094214D088420FD30122030C01D10004CD
:101040001204002300185B418B4200D35B1A52410B
:10105000F8D319001000704701000020704708B550
:1010600000F04AF808BDFEE710B5C200182313408F
:10107000FF249C40E2438907090E9940030004D4F1
:1010800018489B089B00C01806E0174B0007000F8C
:10109000083880088000181803681A40114301605E
:1010A00010BD80B5FFF7E0FF01BD010005D40121AF
:1010B000C006C00E81400D480160704710B5401E4B
:1010C00080214904884201D3012010BD084C606092
:1010D00003210020C043FFF7C7FF0020A0600721C5
:1010E000216010BD00E400E01CED00E000E100E044
:1010F00010E000E07047FEE77047FEE738B50024D7
:101100000025ED43002816D00A6802604A68426054
:10111000CA68C2600A6902618A688260496941617D
:101120000649C1610649816100620068002802D059
:101130008047002800D02C00200032BD5513000845
:10114000671300081CB50400606A00280FD16946C7
:101150002000183000F038F968460078242806D0BE
:1011600068460078262802D00020C04316BD012022
:101170006062002016BD80B5183000F025F902BD70
:1011800080B50200A6209268904702BD1CB50C00F5
:101190006946183000F02AF9002803D16846007823
:1011A0002080002016BD02B56946183000F023F9F2
:1011B00002BD10B50400080011000200A620246939
:1011C000A04710BDFEB5040002910193684642801D
:1011D0000198FF21891C884200DB481E694608806F
:1011E00068460388029A4188A620E568A847070058
:1011F00015D16069804705000121A620A2689047AB
:10120000060060698047401BA0214900884202D245
:10121000002EF1D103E0002E01D00227FF430298F7
:1012200069460988401802906846694649886A46B6
:10123000128889184180019869460988401A80B24D
:101240000028019001D0002FC2D03800FEBDF8B5B3
:1012500084B0040002936846028003910298FF2143
:10126000891C884201DB002000E0C0B20190019897
:1012700083B2039A68460188AE20E568A847070054
:1012800015D16069804705000121A620A26890471A
:10129000060060698047401BA0214900884202D2B5
:1012A000002EF1D103E0002E01D00227FF43039866
:1012B000019940180390684669460988019A89187F
:1012C000018002980199401A80B20028029001D052
:1012D000002FC3D0380005B0F0BD002806D1684605
:1012E0000078002800D001202070002016BDF0B545
:1012F00085B004000E00170011220021684600F09E
:1013000095F86A460920FFE7107200230320C01AEF
:10131000C000D1183500C5400D703D00C5400D71AD
:1013200008784872087948735B1C042BEEDB2000B8
:101330001123902212016946FFF789FF05B0F0BD25
:101340001CB50C0000216A4611706946183000F087
:1013500059F8C2E710B50469880401D5A62000E059
:10136000AE20A04710BDF8B50500EC68880402D592
:10137000A620A047F2BDAE20A047040015D16869A1
:10138000804707000121AE20AA68904706006869DF
:101390008047C01BA0214900884202D2002EF1D113
:1013A00003E0002E01D00224E4432000F2BDFEE75A
:1013B00010B50400A0686468A04710BD10B5040013
:1013C000A0682468A04710BD80B50A00012317213A
:1013D000FFE7FFF7EDFF002801D00020C04302BD6A
:1013E0002078C107C90F2170002010BD80B50A0008
:1013F00001230021EDE780B50A0001230021FFF75A
:10140000DDFFE8E710B50C00012322000649FFF7D5
:10141000CFFF002802D00020C04310BD2078400735
:10142000C10FFFF7E0FF00000220000010B504002C
:10143000080011000200200000F002F8200010BD9A
:101440001206130A1A43130C1A4300BF094205D0AF
:10145000830705D00270401C491EF9D17047000077
:101460001300103906D330B41400150010393CC0F5
:10147000FCD230BC490700D30CC000D504C08900A1
:1014800002D30280801C002900D502707047FEE75D
:10149000FFB50022012301932BE0062603E0984EBE
:1014A000B042FAD10526AE402643029C2660954CF8
:1014B0002668DC4326404D68ED0300D51E43914D60
:1014C0002E606E6826404F68BF0300D51E436E60D5
:1014D000AE6826404F68FF0200D51E43AE60EE683E
:1014E00034404E68B60202D526001C003443EC603E
:1014F000521C0B681C00D44000D182E0019D954035
:101500002B40F5D054000327A740FE4302964E68B7
:10151000012E05D0022E03D0112E01D0122E0FD194
:101520008768029E3E40CF68A74037438760466881
:10153000AE434D682D09019F2F40974037434760C8
:10154000C568029E2E408D68A5403543C560950054
:101550006E4675704D68022D01D0122D1AD1D50836
:10156000AD0045192E6A03966E4677781C263E40DC
:101570006F463E70039EB4460F276E463678B740DE
:101580006646BE43B4460F696E463678B740664637
:1015900037432F6207680326029D3D404F6837405E
:1015A000BC4627006446BC402C4304604C68E40001
:1015B0009ED5554C2468019D2543534C2560534CC2
:1015C0009508AD006419029424686D466F780C2567
:1015D0003D400F27AF40BC43A027FF05B84201D1D3
:1015E000002660E74A4FB84201D1019E5BE7494FB0
:1015F000B84201D1022656E7474FB84200D04EE725
:1016000051E7FFBDFFB5032302930123019303912B
:1016100000213AE0062703E0394DA842FAD1052718
:101620008D00B4460C262E40B740BC4511D1D643A0
:10163000344A12683240334F3A607A6832407A60F6
:10164000BA683240BA60FA681640FE601A68A2436F
:101650001A60029A4B009A40036813430360CB0858
:101660009B00C3181C6A0F261C272F40BE40B443A2
:101670001C62D343C2681A40C2604268009CA24305
:101680004260826813408360491C039ACA4025D097
:10169000019A8A400092039B1A40F5D01B4B8C089C
:1016A000A4001B191E680F248D000C272F40BC407E
:1016B0002640A025ED05A84201D10027B0E7144D32
:1016C000A84201D1019FABE7124DA84201D10227E8
:1016D000A6E7114DA8429FD1029FA1E7FFBD002AB6
:1016E00001D081617047816270470C4A13680340E2
:1016F00000D1704780B5106000F012F801BD000005
:10170000001C005000040140341002400800014059
:101710000004005000080050000C00501404014068
:101720007047FEE7F8B586B0002456485649086071
:10173000C86C411C544AD16400283AD11046FEF7C7
:101740005BFF002835D10220504D296801432960F4
:101750002968084005900598A80D00901220019076
:1017600001200290032703970426049669464848FF
:10177000FFF78EFE680D009012200190012002906C
:101780000397049669464248FFF782FEE868F10431
:101790000143E9600726F6433B4D280000F07EF840
:1017A000002805D10021280000F0A4F8002800D06E
:1017B0003400200007B0F0BD70B50024324DE86C55
:1017C000002818D0401EE86415D132480168324A1A
:1017D0000A4002602E4E810D3000FFF713FF80217A
:1017E00089003000FFF70EFF2800FEF7BDFC00283F
:1017F00001D00724E443200070BD10B50A00002486
:1018000080235B0101002048FEF75CFE002801D028
:101810000224E443200010BD7FB500241A4D802629
:10182000760102960193009202230A00010028002B
:10183000FEF7CAFC002808D02800FEF7E0FE0428C6
:1018400001D1652400E00324E443200004B070BD0E
:101850007FB500240C4D80267601029601930092FC
:1018600002230A0001002800FEF75EFD002808D0D0
:101870002800FEF7C4FE042801D0652400E00324FC
:10188000E443E2E7005400404C0000202C100240EA
:101890000004005038100240FFFFDFFF70B5040065
:1018A0000020002512492160E121C9006160A0608B
:1018B0000126E66020616061A061E0612062200095
:1018C000FEF7FEFB002800D001250021200000F0DB
:1018D00011F8002800D001250221200000F027F88F
:1018E000002800D00125300300F046F8280070BD24
:1018F0000054004070B5020040325378202B14D1C0
:101900004023C35C012B10D0012313702424547096
:10191000046825689D432560046825681B4E2E4099
:1019200026600468256829431CE0022070BD70B55C
:10193000020040325378202B12D14023C35C012B8C
:101940000ED00123137024245470046825689D432D
:101950002560046825680E4E2E400902314301E0DF
:10196000022070BD2160006801680B4303602020E5
:1019700050700020107070BD06490A68012313439F
:101980000B6005490A68104308607047FFEFFFFFCE
:10199000FFF0FFFF3410024004000140FEB50400D8
:1019A00000200190634D206882210901014000D18F
:1019B00087E080204005A96B014004D1A96B084352
:1019C000A86301200190AF0D5B480068384013D137
:1019D000594800900068384300990860FEF746FFB8
:1019E000060000980068384006D1FEF73FFF801BD4
:1019F0006528F6D30320FEBD2868C0218903014075
:101A00006068C02292030240914205D1A268C023BF
:101A10009B03134099420BD0C02189020140C02290
:101A20009202914204D12968890301D50120FEBDAB
:101A30002A6DC0218902114029D0C0229202104093
:101A4000814202D02078800606D4A06802409142EC
:101A50001DD0206800051AD5296D38480840296D29
:101A6000FA020A432A65296D354A0A402A65286523
:101A700007400CD0FEF7FAFE0600286D800506D45C
:101A8000FEF7F4FE801B2F498842F6D3B2E7616867
:101A9000C020800202000A40824206D12A682A4BF6
:101AA000134002010A401A432A60296D62681040FF
:101AB000084328650198002803D0A86B23490140FA
:101AC000A9632078C00705D5E86C03218843E16845
:101AD0000143E9642078800705D5E86C0C21884330
:101AE00021690143E9642078400705D5E86C18496D
:101AF000014060690843E8642078000705D5E86C78
:101B000014490140A0690843E8642078400605D5DF
:101B1000E86C11490140206A0843E8642078000617
:101B200005D5E86C0D490140E0690843E8640020F0
:101B3000FEBD00000010024000700040FFFFFCFFEF
:101B4000FFFFF7FF89130000FFFFCFFFFFFFFFEF4D
:101B5000FFF3FFFFFFCFFFFFFFFFFFFBFFFFF3FFE1
:101B6000F8B586B000F0C8F800F073F81422002130
:101B70006846FFF75BFC042757480168394301605A
:101B80000168394005910599802102680A43026085
:101B90000268114005910599012401682143016003
:101BA00001682140059105990226016831430160D1
:101BB00000683040059005980022A421C900A020AB
:101BC000C005FFF78CFD002230214448FFF787FD58
:101BD0006003009042480190002502956946414803
:101BE000FFF756FC0C20009001960295032003900D
:101BF00004976946A020C005FFF74AFCA420C00056
:101C000000900194029503956946A020C005FFF756
:101C10003FFC402000903448019002956946A02086
:101C2000C005FFF735FC3020009001940295039524
:101C300069462A48FFF72CFC002200210720FFF705
:101C400030FA0720FFF731FA00F06AF800F06CF87C
:101C5000FCE710B59CB0382200210EA8FFF7E6FB88
:101C6000142200216846FFF7E1FB2422002105A889
:101C7000FFF7DCFB1D4801681D4A0A40C10C1143F7
:101C8000016010200E900120159000241694A020D1
:101C90000002179018940EA8FEF7EEFD002801D060
:101CA00000F028F80F20009001940294039404940B
:101CB00000216846FFF72AF8002801D072B6FEE737
:101CC000082005900B9405A8FFF768FE002801D0B6
:101CD00072B6FEE71CB010BD2C100240000400508C
:101CE000000021100008005000001110007000409A
:101CF000FFE7FFFF72B6FEE710B500240748016852
:101D000040220A4302600020FFF722F9002801D098
:101D1000012401E000F070F8200010BD0020024016
:101D200080B500F005F801BD80B500F045F801BDB3
:101D300010B5002000F06EF8012000F06BF80220D2
:101D400000F068F8002000F079F896246400200084
:101D500000F0B4F8012000F071F8200000F0AEF8B7
:101D6000022000F06BF8200000F0A8F8002000F03E
:101D7000B9F80028FAD100F072F800BF1CA003C81F
:101D80000A000100002000F0DDF88821002000F0AA
:101D9000CEF8002000F058F8200000F08FF8012065
:101DA00000F052F8200000F089F8022000F04CF812
:101DB000200000F083F810BD10B50C4C20780128ED
:101DC0000FD1611C002000F0D3F86078012803D106
:101DD000002000F033F802E0002000F035F8002089
:101DE000207010BD0120014908707047C800002014
:101DF00000000000000000000548016801220A43BD
:101E000002604168802252050A434260704700BF69
:101E10003410024000B585B02349C000081801887D
:101E20000091012101910221039100210291694653
:101E30004068FFF72DFB002005B000BD80B51A49B2
:101E4000C0000818012204E080B51749C000081836
:101E5000002201884068FFF742FC002002BD18B54F
:101E600085B040200090114801900220039000208E
:101E700002906946A020C005FFF70AFB0C4C0D49F3
:101E8000200000F085F80C4A0021200000F078F8CE
:101E9000002200210720FFF704F90720FFF705F9CA
:101EA000002006B010BD000000000020000011104E
:101EB0001800002006000006E51D000838B50500E2
:101EC000FEF7D4FC04000020C043854202D0044841
:101ED00000782D18FEF7CAFC001BA842FAD331BDCA
:101EE0003C00002038B586B0194800901948019090
:101EF0001948029019480490194803901948059010
:101F00000024E443184D69462800FFF7F7F800283D
:101F10000AD11648A8620168002903D02800884722
:101F2000002802D00020A862200007B030BD80B594
:101F30000D48826A1269002A02D10020C04302BD06
:101F4000904702BD80B50848FFF7D1F902BD0000F7
:101F500025170008B9170008FB17000851180008DA
:101F6000191800086D0800089C00002020000020BF
:101F700080B50248FFF7E4F902BD00009C00002094
:101F800003000020002901D15A60704701207047EA
:101F9000002801D101207047016000207047012115
:101FA0000278D206D20E9140054A13680B4000D148
:101FB000704780B511604068002800D0804701BD9F
:101FC0001404014010000000000400502000000034
:101FD000000400500004000000000050060000064D
:101FE0000000000045110008771100088111000869
:101FF0008D110008A7110008B3110008C5110008D1
:1020000001000000000000000400000000002000AB
:1020100070B40123002413E00168001D194202D0AE
:102020004D466D1E49190C60091D121F042AFAD273
:102030000D00960701D50C80AD1C1A4000D02C7005
:102040000268001D002AE7D170BC704730B401223D
:102050000EE00368C31844680830144202D04D46AD
:102060006D1E64191D6825601B1D241D091FF9D1F3
:102070000168001D0029ECD130BC7047FEE7FEE787
:102080007047704780B500F00DF801BD80B5044879
:10209000FFF785FF80208001FFF727FB01BD0000CF
:1020A0001800002002484168027889184160704792
:1020B0003C00002010B5074979441831064C7C4497
:1020C000163404E0081D0A68891888470100A142F7
:1020D000F8D110BD080000002800000035FFFFFF08
:1020E000800000004C0000200000000061FFFFFFA6
:1020F0004C000000D0FEFFFF0000002000000000A8
:10210000704700000000000000000000010203040E
:1021100006070809030406080C1018203000000008
:1021200000F00DF8002801D0FFF7C4FF00BF00BF8A
:10213000002000BF00BFFFF713FD00F002F80120F0
:10214000704780B500F002F801BDFEE7074638464B
:1021500000F002F8FBE7FEE780B500BF00BF024ACF
:1021600011001820ABBEFBE72600020001488047A3
:1021700001480047012100087D21000800BF00BF81
:1021800000BF00BFFFF7CCFFFEE7FEE7FEE7FEE77C
:10219000FEE7FEE7FEE7FEE7FEE7FEE7FEE7FEE717
:0C21A000FEE7FEE7FEE7FEE7FEE7FEE7D5
:040000050800217D51
:00000001FF
